:020000040800F2
:1000000090080020450100081936000865290008FD
:1000100009310008990E00089B58000800000000F4
:100020000000000000000000000000003D43000848
:10003000911C000800000000F937000889470008FB
:100040005F0100085F0100085F0100085F01000810
:100050005F0100085F0100085F0100085F01000800
:100060005F0100085F0100085F0100085F010008F0
:100070005F0100085F0100085F0100085F010008E0
:100080005F0100085F0100085F0100085F010008D0
:100090005F0100085F0100085F0100085F010008C0
:1000A0005F0100085F0100085F0100085F010008B0
:1000B0005F0100085F0100085F0100085F010008A0
:1000C0005F0100085F0100085F0100085F01000890
:1000D0005F0100085F0100085F0100085F01000880
:1000E0005F0100085F0100085F0100085F01000870
:1000F0005F0100085F0100085F0100085F01000860
:100100005F0100085F0100085F0100085F0100084F
:10011000255500085F0100082D4A0008654B0008BE
:100120005F0100085F0100085F0100085F0100082F
:10013000DFF80CD000F006FC004800479D6A00087C
:10014000900800200648804706480047FEE7FEE783
:10015000FEE7FEE7FEE7FEE7FEE7FEE7FEE7FEE777
:100160008D47000831010008D2B201E000F8012BF0
:10017000491EFBD270470022F6E710B513460A4627
:1001800004461946FFF7F0FF204610BDF0B480EAA0
:100190000102D40F4200B2EB410F02D202460846E0
:1001A00011464A0042D0C30DDDB2C1F3C752AD1AA9
:1001B000202D35DAC1F3160141F4000204B1524298
:1001C000C5F1200602FA06F12A411044B3EBD05FD4
:1001D00023D0C4B1012DA0EBC35009DCF0BC4FF01B
:1001E000004202EAC352DBB200F5000000F0C2B9DF
:1001F000400000F1807000EBC350A0F1807040EA35
:10020000D170490009E0490841EAC071A0EBC35030
:1002100000F50000400800EBC350F0BC00F0A1B9AD
:100220006142012202EB4101001BF6E7F0BC70477E
:1002300081F00041AAE780F00040A7E780EA0102D0
:1002400010B502F00043400022D04A001FD0010E3A
:1002500001EB1261C0F35600C2F3560240F40000F5
:1002600042F40002A0FB022000047F39140400D0F5
:10027000401C50EA124001D44000491EC2B20C0694
:1002800004EBD010401C4008802A02D003E000207C
:1002900010BD20F00100002900DA0020184310BD35
:1002A00030B480EA010202F0004530F0004221F053
:1002B000004013D090B1C30DD40DC2F31601C0F3AA
:1002C0001600E41A41F4000140F400027D3491422A
:1002D00001D3641C00E04900002C02DA30BC00208D
:1002E00070474FF400000023914201D3891A034361
:1002F00040084FEA4101F7D151B1914202D14FF08C
:10030000004105E002D24FF0010101E06FF0010170
:1003100003EBC450284430BC00F023B92DE9FE4F54
:1003200081EA030404F0004421F0004100944FF0FE
:10033000000B23F0004350EA01045ED052EA0304AC
:100340005BD0C3F30A54C1F30A552C44A4F2F3342E
:100350000194A0FB0254C1F3130141F48011C3F3D3
:10036000130343F4801301FB024400FB034E840A91
:10037000970A44EA815447EA8357A4FB0768029529
:100380008D0A05FB07854FEA932C04FB0C542705C7
:10039000029D4FEA065847EA1637B5EB08056EEBA3
:1003A000070C870E920E47EA811742EA8312A7FBD9
:1003B0000201B6EB0B0164EB00042B0D43EA0C3396
:1003C0005E1844EB1C50DA465146E7FB0201C5F3C8
:1003D00013044FEA0B3343EA14534FEA0432019CEF
:1003E00043EA0603A4F10C040294009CCDE900B496
:1003F00000F0FDF803B0BDE8F08F00200146F9E7FA
:10040000C10F80EAE0700844CA079623002100F07B
:10041000B1B896230022114600F0ACB800F00042BB
:1004200020F00040C10DC0F3160040F400007F2909
:1004300001DA00207047962903DCC1F19601C8401B
:1004400001E096398840002AF4D04042704700F01D
:10045000004230F000400AD0C10D01F56071C0F3D8
:10046000160042EA0151C2084007114370470020BC
:100470000146704701F0004330B421F0004150EADA
:10048000010206D00A0DA2F56072C1F31301002A21
:1004900002DC30BC00207047440F44EAC104C100B4
:1004A000E01830BC00EBC25000F05BB8002801DB64
:1004B000C0F10040002901DBC1F1004181427047D9
:1004C000002801DBC0F10040002901DBC1F100413F
:1004D0008842704730B50B46014600202022012497
:1004E00009E021FA02F59D4205D303FA02F5491B02
:1004F00004FA02F52844151EA2F10102F1DC30BD18
:100500002DE9F05F0546002092469B468846064648
:10051000814640241BE0284641464746224600F0DB
:1005200032FA53465A46C01A914110D31146184622
:10053000224600F019FA2D1A67EB01084F462246B1
:100540000120002100F010FA17EB00094E41201E97
:10055000A4F10104DFDC484631462A464346BDE8A3
:10056000F09F0029A8BF7047401C490008BF20F039
:100570000100704710B4B0FA80FC00FA0CF050EAA9
:10058000010404BF10BC704749B1CCF1200421FA2A
:1005900004F411FA0CF118BF012121430843A3EB25
:1005A0000C01CB1D4FEA00614FEA102042BF002032
:1005B00010BC704700EBC35010440029A4BF10BC0E
:1005C0007047401C490008BF20F0010010BC704774
:1005D00010B5141E73F1000408DA401C41F100014B
:1005E00092185B411A4301D120F0010010BD2DE9A2
:1005F000F04D92469B4611B1B1FA81F202E0B0FA99
:1006000080F22032904600F0AFF904460F4640EAEF
:100610000A0041EA0B0153465A46084313D01146DB
:1006200053EA010019D0C8F14002504600F0ABF97E
:1006300005460E4650465946424600F095F9084395
:1006400005D0012004E020463946BDE8F08D0020A9
:10065000054346EAE0762C4337430A986305E40AEB
:10066000A0EB08000022FD0A44EA47540A3002D5F4
:1006700000200146E9E7010510196941DDE9084557
:1006800000196941BDE8F04DA2E72DE9FE4F804613
:1006900081EA0300C00F0C46009021F0004123F0D6
:1006A0000045B8EB0200A94105D2404621469046DC
:1006B0001C460B46024623F00040104347D0270D4E
:1006C000C7F30A00C3F30A510290401A0190402870
:1006D0006BDAC3F3130040F4801B0098924620B1FC
:1006E0000023D2EB030A63EB0B0B01985946C0F1D0
:1006F0004002504600F038F906460D46504659462D
:10070000019A00F050F910EB08006141002487EADB
:10071000115284EAE7731A4340D0009A62B3019AF7
:10072000012A4FEA075215DC001B61EB02014FF072
:10073000004202EA0752CDE90042001C41F5801157
:1007400032462B46FFF753FF03B0BDE8F08F40461B
:100750002146F9E7001B61EB0201001C41F5801303
:1007600000185B412018A2F5001747EB030140EA8F
:10077000D570B6196D4111E06D084FEA360645EAAD
:10078000C0754FEA0752001B61EB0201001C41F5E6
:10079000801149084FEA30000019514132462B467A
:1007A00003B0BDE8F04FFFF713BF009801224000EF
:1007B0000023D0EB020263EBE073009821464FEA7E
:1007C000E074B8EB000061EB0401E9E783F000435B
:1007D0005BE781F0004158E72DE9F04D81EA030421
:1007E00004F0004B21F0004514464FF0000A23F0BE
:1007F000004150EA050220D054EA01021DD0C5F3A1
:100800000A570246C5F31303C1F31300C1F30A5696
:1008100040F4801543F48013A7EB0608101BD6465E
:1008200008F2FD3873EB050002D308F1010801E07E
:1008300092185B41B8F1000F03DA00200146BDE8D1
:10084000F08D00204FF48011064684460EE0171B01
:1008500073EB050705D3121B63EB050306434CEA54
:10086000010C49084FEA300092185B4150EA010739
:10087000EDD152EA030012D082EA040083EA0501B6
:10088000084305D0101BAB4106D20122002306E02D
:1008900000224FF0004302E06FF0010253101AEB08
:1008A00006004CEB085110EB0A0041EB0B01BDE8D0
:1008B000F04DFFF78DBE70B521F0004303430CD01F
:1008C000C1F30A550024D5EB040564EB0403D617E5
:1008D000AD1AB34102DB0020014670BD201841EB88
:1008E000025170BDC1F30A52C1F3130140F2FF334C
:1008F00041F480119A4202DA00200146704740F22A
:1009000033439A42A2F2334202DC524200F03BB837
:1009100000F02AB830B5041E71F1000404DB4FF07A
:100920000044404264EB0101141E73F1000405DB36
:100930001C464FF00043524263EB0403994208BF48
:10094000904230BD064C074D06E0E06840F00103E0
:1009500094E8070098471034AC42F6D3FFF7ECFB5D
:100960004871000868710008202A04DB203A00FA68
:1009700002F1002070479140C2F1200320FA03F3F6
:10098000194390407047202A04DB203A21FA02F0F4
:100990000021704721FA02F3D040C2F120029140B9
:1009A000084319467047202A06DBCB17203A41FA44
:1009B00002F043EAE07306E041FA02F3D040C2F1EC
:1009C000200291400843194670472DE9F04D00235D
:1009D0001A461B1A8A4103DB00200146BDE8F08D50
:1009E000C1F30A52C1F3130141F480154FF0000B1B
:1009F000D10702D100186D41521E0027044640F273
:100A0000FF11384601EB620A3E468046024600204E
:100A10004FF48011FFF7B7FFC2197141BB1846EBC5
:100A20000100B4EB030C75EB000C04D3E41A65EB86
:100A3000000517460E46241908F101006D41804655
:100A40003428E3DDF91946EB0600091BA84103D25F
:100A50004FF0FF32134601E0002213461BEB070064
:100A600046EB0A51BDE8F04DFFF7B2BD70B58C18EA
:100A700010F8015B15F0070301D110F8013B2A11B2
:100A800006D110F8012B03E010F8016B01F8016B9F
:100A90005B1EF9D12B0705D40023521E0DD401F89B
:100AA000013BFAE710F8013BCB1A921C03E013F864
:100AB000015B01F8015B521EF9D5A142D8D3002099
:100AC00070BD000010B54FF4966001F0E2F802F03E
:100AD0002DF902F01BFB134804F088FD4FF47A70E7
:100AE00001F0D7F802F06CFB02F076F802F058FD46
:100AF00003F026FC03F0AEFC02F068FB03F052FDAD
:100B000001F0EAF802F0B8FC06F0FAF803F0EEFFA4
:100B10004FF4966006F05AFA4FF4876005F0CCFE69
:100B200010BD00009A99C94070B504463E4800685F
:100B30003E4908603E488068486221463B4806F0CE
:100B4000A9F83A48806A3B4908603B49B1F90A0074
:100B5000FFF756FC0546394801682846FFF76EFB4B
:100B6000344948622146334806F094F834490978FC
:100B7000494201EB8100FFF743FC05462D48816A9D
:100B80002846FFF755FB2F4908602D49097849424F
:100B900001EB8100FFF734FC05462648816A2846B0
:100BA000FFF7F4FA2849086025490978494201EB22
:100BB0008100FFF725FC05461E48816A2846FFF79D
:100BC00037FB224908601E490978494201EB810040
:100BD000FFF716FC05461748816A2846FFF7D6FA44
:100BE0001B4908601B480068164948621A4800689B
:100BF0001549486219480068144948621848006855
:100C00001349486221460F4806F044F821460E4831
:100C100006F040F821460D4806F03CF821460C4805
:100C200006F038F870BD0000300000201C030020E2
:100C30006004002050030020540400204C70000881
:100C4000740000204C02002080020020B40200202A
:100C5000E80200200C0000201000002014000020FA
:100C60001800002070B5044630480068304908601C
:100C700030488068486221462D4806F00BF82C4821
:100C8000806A2D4908602D49B1F90A00FFF7B8FBC9
:100C900005462B4801682846FFF7D0FA26494862E6
:100CA0002146254805F0F6FF2348816A4FF0404071
:100CB000FFF7BEFA234908601F48816A4FF04040A1
:100CC000FFF764FA204908601B48816A4FF04040F2
:100CD000FFF7AEFA1D4908601748816A4FF040409F
:100CE000FFF754FA1A4908601A4800681549486223
:100CF0001948006814494862184800681349486256
:100D0000174800681249486221460E4805F0C2FFA4
:100D100021460D4805F0BEFF21460C4805F0BAFFFC
:100D200021460B4805F0B6FF70BD000030000020E2
:100D30001C03002060040020500300205404002005
:100D40004C7000084C02002080020020B4020020F9
:100D5000E80200200C0000201000002014000020F9
:100D60001800002070B504463C4800683C49086003
:100D70003C48806848622146394805F08BFF384876
:100D8000806A394908603949B1F90A00FFF738FB30
:100D90000546374801682846FFF750FA324948624D
:100DA0002146314805F076FF32490978490048422A
:100DB000FFF726FB05462C48816A2846FFF738FADC
:100DC0002D4908602B49097849004842FFF718FB74
:100DD00005462548816A2846FFF7D8F92749086063
:100DE0002449097849004842FFF70AFB05461E4896
:100DF000816A2846FFF71CFA214908601D490978D5
:100E000049004842FFF7FCFA05461748816A284620
:100E1000FFF7BCF91B4908601B4800681649486287
:100E20001A48006815494862194800681449486220
:100E3000184800681349486221460F4805F02AFF08
:100E400021460E4805F026FF21460D4805F022FFF9
:100E500021460C4805F01EFF70BD00003000002048
:100E60001C030020600400205003002054040020D4
:100E70004C700008740000204C020020800200200A
:100E8000B4020020E80200200C0000201000002026
:100E9000140000201800002000BFFEE710B5044633
:100EA000012C2FD14948007838B9BB204849087037
:100EB00003F0C2FA01204549087000214548006846
:100EC000FFF7F4FA0BD0002143480068FFF7EEFA71
:100ED00005D04248007810B91220414908704148B5
:100EE0000078BB2870D13D48007800286CD1FF20E5
:100EF0003B49087001203B4908703B49087037495D
:100F0000087061E0022C2FD13848007838B9BC2035
:100F10002F49087003F090FA01203449087000212D
:100F20002C480068FFF7C2FA0BD000212A4800685D
:100F3000FFF7BCFA05D02E48007810B912202849D6
:100F4000087028480078BC283ED12948007800283D
:100F50003AD1FF2022490870012022490870254912
:100F60000870234908702FE0032C2DD12248007807
:100F700038B9BD201649087003F05EFA01201E49F9
:100F80000870002113480068FFF790FA0BD0002189
:100F900011480068FFF78AFA05D01848007810B9A0
:100FA00012200F4908700F480078BD280CD1134853
:100FB000007848B9FF200A490870012009490870E3
:100FC0000F4908700D49087010BD00008A0000200C
:100FD0001C000020280000202C00002081000020A0
:100FE0005400002034000020840000208B000020EA
:100FF00083000020850000208C000020820000205B
:101000008600002010B50446012C04D0022C4DD0DF
:10101000032C4AD195E040F29E7006F007F802F0EA
:10102000CFF86E4800F0CAFD4FF4FA7000F031FEC0
:1010300040F2262005F0CAFF4FF4FA7000F029FEB6
:1010400002F0BEF8664804F0D1FA40F61A1005F036
:1010500033FC4FF4FA7000F01CFE02F0B1F8614866
:1010600000F0ACFD4FF4FA7000F013FE4FF4966000
:1010700005F0ACFF02F0A4F84FF4FA7000F009FE9E
:10108000584804F0B3FA4FF4FA7000F002FE4FF43F
:10109000876005F011FC02F093F84FF0804000F0FB
:1010A0008DFD4FF4FA7000F0F4FD95E040F22E4013
:1010B00005F0BCFF02F084F8484800F07FFD4FF4D3
:1010C000FA7000F0E6FD40F2262005F07FFF4FF4B5
:1010D000FA7000F0DEFD02F073F8414804F086FA81
:1010E00040F6E80005F0E8FB4FF4FA7000F0D1FD9F
:1010F00002F066F83B4800F061FD4FF4FA7000F032
:10110000C8FD4FF4966005F061FF02F059F84FF406
:10111000FA7000F0BEFD334804F068FA4FF4FA703C
:1011200000F0B7FD4FF4876005F0C6FB02F048F809
:101130004FF0804000F042FD4FF4FA7000F0A9FD3E
:101140004AE040F2762005F071FF02F039F82348BA
:1011500000F034FD4FF4FA7000F09BFD40F22620C1
:1011600005F034FF4FF4FA7000F093FD02F028F818
:101170001B4804F03BFA40F62E1005F09DFB4FF49F
:10118000FA7000F086FD02F01BF8164800F016FD1C
:101190004FF4FA7000F07DFD4FF4966005F016FFF5
:1011A00002F00EF84FF4FA7000F073FD0D4804F0F1
:1011B0001DFA4FF4FA7000F06CFD4FF4876005F0F3
:1011C0007BFB01F0FDFF4FF07E5004F00FFA4FF46F
:1011D000FA7000F05EFD00BF00BF10BD33337340F6
:1011E0009A99B9406666E63F10B50446012C04D0D2
:1011F000022C43D0032C40D181E040F29E7005F0D8
:1012000015FF01F0DDFF5F4800F0D8FC4FF4FA70E5
:1012100000F03FFD40F2262005F0D8FE4FF4FA70B2
:1012200000F037FD01F0CCFF564804F0DFF94FF431
:10123000FA7000F02EFD40F61A1005F03DFB4FF459
:10124000FA7000F026FD01F0BBFF4F4800F0B6FC3D
:101250004FF4FA7000F01DFD4FF4966005F0B6FEF5
:1012600001F0AEFF484804F0C1F94FF4FA7000F005
:1012700010FD4FF4876005F01FFB81E040F22E4027
:1012800005F0D4FE01F09CFF3E4800F097FC4FF4BF
:10129000FA7000F0FEFC40F2262005F097FE4FF4B5
:1012A000FA7000F0F6FC01F08BFF364804F09EF96E
:1012B0004FF4FA7000F0EDFC40F6E80005F0FCFA9F
:1012C0004FF4FA7000F0E5FC01F07AFF2E4800F0D0
:1012D00075FC4FF4FA7000F0DCFC4FF4966005F0FA
:1012E00075FE01F06DFF284804F080F94FF4FA70A4
:1012F00000F0CFFC4FF4876005F0DEFA40E040F2EA
:10130000762005F093FE01F05BFF1E4800F056FCCE
:101310004FF4FA7000F0BDFC40F2262005F056FEB6
:101320004FF4FA7000F0B5FC01F04AFF154804F0E4
:101330005DF94FF4FA7000F0ACFC40F62E1005F0A9
:10134000BBFA4FF4FA7000F0A4FC01F039FF0E482C
:1013500000F034FC4FF4FA7000F09BFC4FF4966000
:1013600005F034FE01F02CFF074804F03FF94FF47C
:10137000FA7000F08EFC4FF4876005F09DFA00BF14
:1013800000BF10BD000040413333F33F10B52E487D
:101390000078032190FBF1F201FB12002A4908704A
:1013A00008460078401C087008460078FFF71CFFCC
:1013B0004FF47A7000F06DFC23480078012813D1B7
:1013C00022490870002022490870224908702248EA
:1013D000807821494978884203DC18201F49087029
:1013E00002E013201D49087017480078022814D124
:1013F0000120184908700020144908701449087029
:101400001548C07814498978884203DC18201349AC
:10141000087002E01320114908700B480078032877
:1014200011D100200B49087008490870084908705C
:101430000B480078012803D009480078042802D11D
:1014400015200649087010BDBA0000207C0000205D
:101450007B0000207D0000201C00002054000020A4
:101460008D00002010B5FE48007818B1FC480078C7
:1014700003287DD1FB480068401CFA4908600846F3
:101480000068B0F58C7F08D3F748007828B90D20A4
:10149000F64908700120F4490870F248006840F2EB
:1014A000DC51884211D3F248007870B9FF20EF492F
:1014B0000870FC20EF49087002F0BEFFAD20ED4936
:1014C00008700120EA4908700BE0E648006840F225
:1014D0004651884205D3E648007810B91720E34901
:1014E00008700021E4480068FEF7E0FF0ED00021FC
:1014F000E2480068FEF7DAFF08D0E148007828B932
:101500000F20DA4908700120DD490870DD480078B5
:10151000CD280ED1D54800780F280AD1FF20D34915
:1015200008700120D8490870D8480078401CD74975
:101530000870D749D7480068FEF728FE0446D64809
:1015400081682046FEF7B2FF1FD8C84800781428EB
:101550001BD1CE480078012817D10621CF4805F0CD
:1015600083FB1720C1490870CB488068C94900E057
:1015700086E00860C5480078401CC4490870AD206A
:10158000BC49087002F058FFB0E2BE480078AD28B0
:101590001AD1B6480078172816D1BC48007802281E
:1015A00012D11420B14908700120B6490870B14920
:1015B000087002F041FF0020B3490870B34800787A
:1015C000401CB249087091E2B149B2480068FEF788
:1015D000DDFD0446B04881682046FEF767FF18D855
:1015E000A2480078142814D1A8480078032810D104
:1015F0000621AA4805F038FB17209C490870A64828
:101600008068A4490860A1480078401C9F49087080
:101610006CE2964800781728B6D19C4800780428D8
:10162000B2D19F480068401C9D4908600846006888
:10163000B0F5966F04D1AD208E49087002F0FCFE23
:1016400097480068B0F5966F9ED38E480078AD2815
:101650009AD10621914805F007FB0D2083490870B7
:1016600000208A4908708F4908607E4908607C48DC
:101670000078401C7A49087000208949086035E2EA
:1016800077480078012803D07548007804287DD178
:1016900074480068401C7349086076484078012807
:1016A00004D14FF416708049086010E0714840780A
:1016B000022804D140F28A207B49086007E06D4887
:1016C0004078032803D14FF42F70774908606548AC
:1016D00000687549096888420ED3644800780D286F
:1016E0000AD16A48007838B9FF2060490870674815
:1016F0000078401C654908706C480078012804D1C6
:101700005C49487802F032F910E069480078012815
:1017100004D15849887802F029F907E06548007833
:10172000012803D15349C87802F020F962480078B3
:1017300001280DD15D48007850B95D48007838B96E
:101740005C48007820B94B494878FFF7A7FB10E0C8
:101750005A480078012804D146498878FFF79EFB53
:1017600007E057480078012803D14249C878FFF7BD
:1017700095FB5148007818BB5048007800BB504892
:101780000078E8B941480078012800E0B1E017D1BD
:101790004448006810B91520344908704148006871
:1017A000401C40490860084600680A2831D3374881
:1017B0000078401C3549087000203A49086028E04C
:1017C000334934480068FEF733FD044632488168E7
:1017D0002046FEF76BFE1CD824480078152818D147
:1017E0002A480078022814D106212C4805F03CFA3A
:1017F00017201E4908702748006826490860AD2058
:101800001C49087002F018FE20480078401C1F494F
:1018100008701C480078AD286AD114480078172851
:1018200003D012480078FF28F6D118480078032822
:10183000F2D111200D4908701A480068401C19495E
:1018400008600846006840F28A21884250D312207E
:101850000649087002480078401C0149087031E0D0
:101860008D00002060000020640000205400002053
:10187000660000201C000020280000202C00002012
:1018800065000020340000206C000020550000207E
:1018900000009642300000206004002098000020E4
:1018A0005C00002068000020580000207800002024
:1018B000790000207A0000207B0000207C000020BE
:1018C0007D00002001208A4908708A4908700020A4
:1018D00089490870894908708949087089490870E0
:1018E00089490870894908708949086089490870E0
:1018F000FCE089480078022803D087480078052852
:10190000F6D17B480078012803D18449487802F059
:101910002DF883480078012803D18049887802F0A7
:1019200025F880480078012803D17C49C87802F066
:101930001DF86F48007810BB79480078F8B97948ED
:101940000078E0B973480078C8B97148006820B9D8
:101950006F480068401C6E4908606D4800680A289E
:101960002CD36C480078401C6A49087000206849F4
:10197000086068480078401C664908701EE06A49A3
:101980006A480068FEF754FC0446694881682046AE
:10199000FEF796FD12D86748007815280ED15D48ED
:1019A000007801280AD10621634805F05DF9172067
:1019B000604908705D4800685C4908605F480078CD
:1019C000AD2816D15B480078172803D05948007815
:1019D000FF280ED14F48007802280AD1112055491E
:1019E000087000204A4908604A480078401C49496C
:1019F000087050480078112803D04E480078FF281E
:101A00004AD144480078032846D14D480068401C1C
:101A10004B49086008460068B0F5FA7F66D33E4837
:101A2000007802280AD1FC203C49087002F004FD2D
:101A300039480078401C3849087006E0364800787C
:101A4000052802D1EA203D49087001202849087084
:101A5000284908700020284908702849087028493A
:101A600008703849087038490870384908702849A2
:101A700008602449087024490870244908703449D2
:101A80000870344908703449087034490870344982
:101A900008703449087029E028480078EA2825D1E0
:101AA00024480078112803D022480078FF281DD14F
:101AB00018480078032819D121480068401C2049A3
:101AC00008600846006840F2DC5188420ED31720B7
:101AD000184908700E480068401C0D490860084607
:101AE0000068E62802D3FF201249087010BD0000EC
:101AF000780000207B000020870000208800002064
:101B0000890000207E0000207F000020800000204F
:101B100068000020550000208D0000201C000020DF
:101B2000790000207A00002000009642300000205A
:101B300060040020540000209800002034000020A1
:101B4000600000208A0000208B0000208C00002014
:101B5000810000208200002083000020750000200A
:101B6000760000207700002010B51049886AFEF743
:101B700055FC04B2204601F09DFB0D49886AFEF732
:101B80004DFC04B2204601F0D9FB0A49886AFEF7F1
:101B900045FC04B2204601F06DFB0749886AFEF758
:101BA0003DFC04B2204601F0A5FB10BD4C02002014
:101BB00080020020B4020020E802002038B504466C
:101BC00055E02D4804602D48007818BB10212C48A2
:101BD00000F00EFB20212A4800F008FB01221146EC
:101BE000284803F0C8F8372001F024FD1C208DF8A8
:101BF000000001208DF8030002208DF80100012073
:101C00008DF80200684601F021FD01211D4803F016
:101C100003F82CE019480078012828D100201A493F
:101C2000086000220121174803F0A5F8372001F0D1
:101C3000F5FC1C208DF8000001208DF80300022027
:101C40008DF8010001208DF80200684601F0FEFCCD
:101C500000210C4802F0E0FF01210A4802F0D9FF00
:101C600001200A49087000200449087000BF074895
:101C700000780028A5D038BD080000200100002011
:101C8000000C01400014004004000020020000206D
:101C9000704700B5034603E04FF47A7000F005F892
:101CA000181EA3F10103F7D100BD00EBC001C9006C
:101CB0004FF0E0225161002191610521116100BFC7
:101CC0004FF0E021096901F480310029F8D00421A6
:101CD0004FF0E0221161704710B504F08FFE05F05F
:101CE000FFF804F02DFE05F09DF810BD70B5044618
:101CF0003A4800683A4908603A4880684862214694
:101D0000374804F0C7FF3648806A374908603749CA
:101D1000B1F90A00FEF774FB05463548016828460C
:101D2000FEF78CFA3049486221462F4804F0B2FF92
:101D3000304909788800FEF763FB05462A48816A26
:101D40002846FEF775FA2C4908602A490978880068
:101D5000FEF756FB05462448816A2846FEF716FA28
:101D600026490860234909788800FEF749FB0546A3
:101D70001D48816A2846FEF75BFA214908601D4923
:101D800009788800FEF73CFB05461748816A28461B
:101D9000FEF7FCF91B4908601B48006816494862B9
:101DA0001A48006815494862194800681449486291
:101DB000184800681349486221460F4804F06AFF3A
:101DC00021460E4804F066FF21460D4804F062FFEC
:101DD00021460C4804F05EFF70BD0000300000207A
:101DE0001C03002060040020500300205404002045
:101DF0004C700008740000204C020020800200207B
:101E0000B4020020E80200200C0000201000002096
:101E1000140000201800002070B504463048006807
:101E20003049086030488068486221462D4804F0F7
:101E300031FF2C48806A2D4908602D49B1F90A000C
:101E4000FEF7DEFA05462B4801682846FEF7F6F94C
:101E5000264948622146254804F01CFF2348816A30
:101E60004FF08040FEF7E4F9234908601F48816A7B
:101E70004FF08040FEF78AF9204908601B48816ACC
:101E80004FF08040FEF7D4F91D4908601748816A79
:101E90004FF08040FEF77AF91A4908601A48006846
:101EA0001549486219480068144948621848006892
:101EB00013494862174800681249486221460E4893
:101EC00004F0E8FE21460D4804F0E4FE21460C48EB
:101ED00004F0E0FE21460B4804F0DCFE70BD00007B
:101EE000300000201C03002060040020500300206C
:101EF000540400204C7000084C0200208002002096
:101F0000B4020020E80200200C0000201000002095
:101F1000140000201800002070B504463A480068FC
:101F20003A4908603A48806848622146374804F0D8
:101F3000B1FE3648806A374908603749B1F90A006E
:101F4000FEF75EFA0546354801682846FEF776F941
:101F50003049486221462F4804F09CFE30490978F8
:101F60004800FEF74DFA05462A48816A2846FEF7E2
:101F70005FF92C4908602A4909784800FEF740FAC1
:101F800005462448816A2846FEF700F9264908607C
:101F9000234909784800FEF733FA05461D48816A4F
:101FA0002846FEF745F9214908601D49097848008F
:101FB000FEF726FA05461748816A2846FEF7E6F836
:101FC0001B4908601B480068164948621A480068A7
:101FD0001549486219480068144948621848006861
:101FE0001349486221460F4804F054FE21460E482A
:101FF00004F050FE21460D4804F04CFE21460C48EA
:1020000004F048FE70BD0000300000201C030020DA
:102010006004002050030020540400204C7000088D
:10202000740000204C02002080020020B402002036
:10203000E80200200C000020100000201400002006
:10204000180000202DE9F04102460025002600205E
:1020500000230024002791F803C00CF00F0591F82D
:1020600003C00CF0100CBCF1000F03D091F802C0BB
:102070004CEA050591F800C0BCF1000F31D014689E
:1020800000202BE04FF0010C0CFA00F3B1F800C077
:102090000CEA03069E4220D183004FF00F0C0CFA8D
:1020A00003F7BC4305FA03FC4CEA040491F803C0AF
:1020B000BCF1280F06D14FF0010C0CFA00FCC2F85D
:1020C00014C00AE091F803C0BCF1480F05D14FF0ED
:1020D000010C0CFA00FCC2F810C0401C0828D1D337
:1020E0001460B1F800C0BCF1FF0F34DD546800206B
:1020F0002EE000F1080C4FF0010808FA0CF3B1F8DB
:1021000000C00CEA03069E4221D183004FF00F0C61
:102110000CFA03F7BC4305FA03FC4CEA040491F8FB
:1021200003C0BCF1280F05D100F1080C08FA0CF827
:10213000C2F8148091F803C0BCF1480F07D100F138
:10214000080C4FF0010808FA0CF8C2F81080401C87
:102150000828CED35460BDE8F0810000F0B50A46EF
:10216000002300240021002500F00046B6F1004FB6
:1021700002D11D4EF16901E01B4E7168C0F30345A9
:1021800083B200F44016B6F5401F08D121F070610B
:10219000154E766826F07066134F7E6012E000F4EC
:1021A0008016B6F5801F06D1032606FA05F4A14372
:1021B00041F0706106E0460D360103FA06F6B143C0
:1021C00041F0706122B1460D360103FA06F6314343
:1021D00000F00046B6F1004F02D1034EF16101E07C
:1021E000014E7160F0BD0000000001404161704788
:1021F0000161704707B5A2B04FF07C512498FEF7FB
:102200001DF80F90FE4880680B90FD4800680A900A
:102210000B99FEF713F80D90F948C0680B90F84839
:1022200040680A900B99FEF709F80C900D99FDF79C
:10223000FFFF4FF080410E90FEF700F81E90F0482F
:10224000C0680B90EE4880680A900B99FDF7F6FF86
:102250000D90EB4840680B90E94800680A900B9994
:10226000FDF7ECFF0C900D99FDF790FF4FF08041CA
:102270000E90FDF7E3FF1F90E14880680A90E04868
:10228000806809900A99FDF7D9FF0C90DC484068F6
:102290000A90DB48406809900A99FDF7CFFF0B9040
:1022A0000C99FDF773FF4FF080410D90FDF7C6FFCD
:1022B0004FF07E510E90FDF7BEFF2090D148B0F94F
:1022C00004000990FEF79CF80B90CE48B0F904008A
:1022D0000990FEF795F80A900B99FDF7AFFF0D9066
:1022E000C848B0F902000790FEF78AF80990C5487F
:1022F000B0F902000790FEF783F808900999FDF7FE
:102300009DFF0B90BF48B0F900000790FEF778F8EA
:102310000990BC48B0F900000790FEF771F80890EA
:102320000999FDF78BFF0A900B99FDF72FFF0C9091
:102330000D99FDF72BFF0E9001F09AFDB249086050
:102340002298B0F900000D90FEF75AF80E90AE48B2
:1023500001680E98FDF772FF1B902298B0F90200F9
:102360000D90FEF74DF80E90A74801680E98FDF706
:1023700065FF1C902298B0F904000D90FEF740F81C
:102380000E90A14801680E98FDF758FF1D901F9808
:102390000C901D980B900C99FDF750FF0E90209813
:1023A0000C901C980B900C99FDF748FF0D900E991E
:1023B000FDF73EFF159020980C901B980B900C9900
:1023C000FDF73CFF0E901E980C901D980B900C99F9
:1023D000FDF734FF0D900E99FDF72AFF16901E9819
:1023E0000C901C980B900C99FDF728FF0E901F98ED
:1023F0000C901B980B900C99FDF720FF0D900E99F7
:10240000FDF716FF179015980D90804801680D98FC
:10241000FDF714FF0E907E48006801460D900E985F
:10242000FDF7B4FE7A49086016980D907748016868
:102430000D98FDF703FF0E907548406801460D901A
:102440000E98FDF7A3FE7249486017980D906F48EB
:1024500001680D98FDF7F2FE0E906D488068014608
:102460000D900E98FDF792FE694988601598014617
:102470000B9068480068FDF7E1FE0D902298B0F9D6
:1024800006000A90FDF7BCFF63490B90FDF7D6FEEE
:102490000C900D99FDF77AFE0E905D48006801469C
:1024A0000D900E98FDF772FE1890169801460B904D
:1024B00058480068FDF7C2FE0D902298B0F9080058
:1024C0000A90FDF79DFF54490B90FDF7B7FE0C9065
:1024D0000D99FDF75BFE0E904D48406801460D904A
:1024E0000E98FDF753FE1990179801460B90494836
:1024F0000068FDF7A3FE0D902298B0F90A000A903B
:10250000FDF77EFF44490B90FDF798FE0C900D9966
:10251000FDF73CFE0E903E48806801460D900E98F7
:10252000FDF734FE1A901A980B903548C0680A904F
:102530000B99FDF783FE0D9019980990304880683B
:1025400008900999FDF77AFE0B902D48406880F0BD
:10255000004009901898014608900998FDF76EFE12
:102560000A900B99FDF764FE0C900D99FDF760FE43
:102570000E900F99FDF762FE14901A980B90204868
:1025800080680A900B99FDF759FE0D9019980990F3
:102590001B48C06808900999FDF750FE0B901898E9
:1025A00009901748006808900999FDF747FE0A90BE
:1025B0000B99FDF73DFE0C900D99FDF7E7FD0E9090
:1025C0000F99FDF73BFE13901A980B900C4840684A
:1025D0000A900B99FDF732FE0D9019980990084862
:1025E000006808900999FDF729FE0B90189809904A
:1025F0000348C06808900999FDF720FE0A900DE095
:10260000C800002054040020C40000202401002041
:1026100078040020200100202E9E8B3A0B99FDF7B4
:10262000B5FD0C900D99FDF703FE0E900F99FDF787
:1026300005FE12901A980B90B34800680A900B9907
:10264000FDF7FCFD0D9019980990AF48406808907F
:102650000999FDF7F3FD0B90AB48806880F00040CE
:1026600009901898014608900998FDF7E7FD0A902F
:102670000B99FDF78BFD0C900D99FDF787FD0E90E2
:102680000F99FDF7DBFD11909F4800680E9014999B
:10269000FDF77CFD9C490860084640680E90139940
:1026A000FDF774FD98494860084680680E901299BD
:1026B000FDF76CFD944988600846C0680E9011993A
:1026C000FDF764FD9049C8600846C0680B90084655
:1026D000C0680A900B99FDF7B1FD0D908A4880689B
:1026E00009908948806808900999FDF7A7FD0B902B
:1026F0008548406807908448406806900799FDF730
:102700009DFD09908048006807907F48006806900A
:102710000799FDF793FD08900999FDF737FD0A9099
:102720000B99FDF733FD0C900D99FDF72FFD0E90E1
:1027300001F09EFB1090744800680E901099FDF710
:102740007DFD71490860084640680E901099FDF7BC
:1027500075FD6D494860084680680E901099FDF738
:102760006DFD694988600846C0680E901099FDF7B4
:1027700065FD6549C8602298B0F90A000C90FDF724
:102780003FFE62490D90FDF759FD0E904FF07E51CE
:102790000E98FDF795FE04D35D490E98FDF786FE71
:1027A0000DD224990E98FDF749FD0D90239880686D
:1027B00001460C900D98FDF7E9FC2399886052487A
:1027C0004068014603904FF08040FDF737FD0490CC
:1027D0004D48C068014603900498FDF72FFD069010
:1027E00049480068014603904FF08040FDF726FD00
:1027F000049045488068014603900498FDF71EFD4B
:1028000005900699FDF714FD0790FDF720FECDE930
:10281000080103F049FD4FF000523E4BCDE90A019B
:10282000FDF77CFDCDE90C01FDF724FE23994860FE
:1028300035488068014601904FF08040FDF7FEFC6E
:10284000029031488068014601900298FDF7F6FC3D
:1028500004902D484068014600904FF08040FDF7FD
:10286000EDFC019028484068014600900198FDF772
:10287000E5FC4FF07E510290FDF7DDFC03900499DA
:10288000FDF7D6FC0590FDF7E2FDCDE908011E48F5
:102890000068014601904FF08040FDF7CFFC0290A8
:1028A00019484068014601900298FDF7C7FC049062
:1028B00015488068014601904FF08040FDF7BEFC4E
:1028C00002901148C068014601900298FDF7B6FCDD
:1028D00003900499FDF75AFC0590FDF7B8FDCDE98A
:1028E0000601DDE9082303F027FF4FF00052094BF2
:1028F000CDE90A01FDF712FDCDE90C01FDF7BAFDA6
:102900002399086025B000BDC8000020F6FF793D7E
:10291000000080BFDCA54C4010B504F061F804460F
:10292000FDF76EFD0B49086004F0CCFA0446FDF794
:1029300067FD0949086003F0F5FF0446FDF760FDF7
:102940000649086004F060FA0446FDF759FD0449A1
:10295000086010BD0C0000201000002014000020B2
:102960001800002000BFFEE700B54FF400600F49DB
:10297000086000F023F94FF480600C49086000F013
:102980001DF94FF400600949091F086000F016F9AD
:1029900000F014F900F012F900F010F94FF40060A3
:1029A0000249086000F00AF900BD0000140C014063
:1029B00000B54FF400600F49086000F0FFF84FF4D5
:1029C00080600C49091F086000F0F8F84FF40060BF
:1029D0000849091F086000F0F1F800F0EFF800F076
:1029E000EDF800F0EBF84FF400600249086000F0E9
:1029F000E5F800BD140C014000B508220021D0010B
:102A0000154B18601CE04806010E4FF40060124B95
:102A10001B1D186000F0D2F800F0D0F84FF40060F1
:102A20000D4B186000F0CAF800F0C8F800F0C6F8C6
:102A300009480838006800F4806008B141F00101DD
:102A4000101EA2F10103DAB2DDD14FF40060024B97
:102A50001B1D1860084600BD100C014000B5014662
:102A6000082221E04FF40060144B186000F0A6F833
:102A700001F0800028B14FF48060104B1B1F1860DC
:102A800003E04FF480600D4B18604806010E00F023
:102A900095F84FF40060094B1B1F186000F08EF88A
:102AA00000F08CF800F08AF8101EA2F10103DAB2EF
:102AB000D8D14FF40060014B186000BD140C0140E8
:102AC00000B54FF48060154908604000086000F0D0
:102AD00075F812480838006808B9012000E00020A5
:102AE00000F4806008B1012000BD4FF480600B4904
:102AF000091D086000F062F808480838006800F412
:102B0000806008B10120EFE74FF400600349091D20
:102B1000086000F053F80020E6E70000100C0140C8
:102B200000B54FF400600D49086000F047F84FF41D
:102B300080600A49086000F041F800F03FF84FF467
:102B400000600649091F086000F038F84FF4806003
:102B50000249091F086000F031F800BD140C014063
:102B600000B54FF400601449086000F027F84FF4F6
:102B700080601149091F086000F020F84FF40060E0
:102B80000D49091F086000F019F800F017F800F06F
:102B900015F809480C38006800F4806028B14FF43B
:102BA000006005490860012000BD4FF40060024943
:102BB00008600020F8E70000140C014008B502206E
:102BC000009004E09DF80000401EC0B200909DF807
:102BD00000000028F6D108BD08B50121082001F049
:102BE0007FF94FF44060ADF8000003208DF802003B
:102BF00014208DF8030069460148FFF723FA08BD49
:102C0000000C014070B504460D460026FFF758FF42
:102C1000012800D170BD2046FFF720FFFFF7A0FF7D
:102C2000012803D1FFF77CFF0120F3E72846FFF7D7
:102C300015FFFFF795FFFFF773FFFFF741FF611CDB
:102C4000C8B2FFF70BFFFFF78BFF012803D1FFF797
:102C500067FF0120DEE7FFF7CFFE0646FFF7A8FE7D
:102C6000FFF75EFF70B2D5E770B506460C46154615
:102C7000FFF726FF012800D170BD3046FFF7EEFEBA
:102C8000FFF76EFF012803D1FFF74AFF0120F3E7AA
:102C90002046FFF7E3FEFFF763FF2846FFF7DEFE5F
:102CA000FFF75EFFFFF73CFF0020E5E72DE9F0416D
:102CB00006460F4615461C46FFF702FF012801D1C4
:102CC000BDE8F0813046FFF7C9FEFFF749FF012854
:102CD00003D1FFF725FF0120F2E73846FFF7BEFEDC
:102CE000FFF73EFFFFF71CFFFFF7EAFE711CC8B2BB
:102CF000FFF7B4FEFFF734FF012803D1FFF710FF01
:102D00000120DDE70CE0FFF777FE2870012C02D1EF
:102D1000FFF74EFE01E0FFF727FE6D1C601EC4B2F8
:102D2000002CF0D1FFF7FCFE0020C9E7244825491C
:102D30000861254848610020C8604FF07E50086057
:102D4000002088601E48214908611F484861002012
:102D5000C8604FF07E5008600020886018481C4909
:102D60000861194848610020C8604FF07E50086033
:102D70000020886012481749086113484861002004
:102D8000C8604FF07E500860002088600C481249EF
:102D900008610D4848610020C8604FF07E5008600F
:102DA0000020886006480D490861074848610020F6
:102DB000C8604FF07E5008600020886070470000B7
:102DC0006666663E340200209A99D93EBC01002016
:102DD000D4010020EC010020040200201C0200208D
:102DE00070B504464F485049086050485049086043
:102DF000002150480068FDF759FB05D000214E48DE
:102E00000068FDF753FB04D100204749086048499A
:102E10000860484800684449486247480068444997
:102E200048622146404803F035FF2146404803F000
:102E300031FF424800684249086042488068486261
:102E400021463F4803F026FF3D48806A3E4908601E
:102E50003E49B1F90A00FDF7D3FA05463C4801683E
:102E60002846FDF7EBF9384948622146364803F019
:102E700011FF2F4A916A2C4A906AFDF787F905469F
:102E80002F48816A2846FDF7D3F932490860284A5D
:102E9000916A254A906AFDF7CBF905462848816A70
:102EA0002846FDF773F92C490860214A916A1E4AA9
:102EB000906AFDF7BDF905462148816A2846FDF76D
:102EC000B7F9264908601A4A916A174A906AFDF7CD
:102ED0005DF905461A48816A2846FDF757F92049E9
:102EE0000860204800681B4948621F4800681A496A
:102EF00048621E480068194948621D480068184920
:102F000048622146134803F0C5FE2146124803F0EB
:102F1000C1FE2146114803F0BDFE2146104803F0D2
:102F2000B9FE70BD00809843840300200000484330
:102F3000B8030020280000202C00002030000020D2
:102F40001C030020600400205003002054040020D3
:102F50004C7000084C02002080020020B4020020C7
:102F6000E80200200C0000201000002014000020C7
:102F70001800002070B504464F485049086050487A
:102F800050490860002150480068FDF78FFA05D0CD
:102F900000214E480068FDF789FA04D10020474916
:102FA0000860484908604848006844494862474802
:102FB0000068444948622146404803F06BFE2146C0
:102FC000404803F067FE42480068424908604248B2
:102FD0008068486221463F4803F05CFE3D48806AB5
:102FE0003E4908603E49B1F90A00FDF709FA054675
:102FF0003C4801682846FDF721F9384948622146D6
:10300000364803F047FE2F4A916A2C4A906AFDF732
:10301000BDF805462F48816A2846FDF709F932496F
:103020000860284A916A254A906AFDF701F9054629
:103030002848816A2846FDF7A9F82C490860214AEA
:10304000916A1E4A906AFDF7F3F805462148816AA5
:103050002846FDF7EDF8264908601A4A916A174A92
:10306000906AFDF793F805461A48816A2846FDF7ED
:103070008DF820490860204800681B4948621F48B5
:1030800000681A4948621E480068194948621D488C
:103090000068184948622146134803F0FBFD2146A9
:1030A000124803F0F7FD2146114803F0F3FD2146D5
:1030B000104803F0EFFD70BD00809843EC03002042
:1030C0000000484320040020280000202C0000209D
:1030D000300000201C03002060040020500300206A
:1030E000540400204C7000084C0200208002002094
:1030F000B4020020E80200200C0000201000002094
:10310000140000201800002000BFFEE700B585B0C5
:103110000121042000F0E4FE0121082000F0E0FE7F
:1031200010208DF8130003208DF812001020ADF848
:10313000100004A91F48FEF785FF2020ADF81000FD
:1031400004A91C48FEF77EFF4FF48050ADF8100034
:1031500004A91948FEF776FF372000F06BFA012129
:10316000202000F0ADFEC720ADF808002C20ADF8FF
:10317000040001A9114801F0A9FF01210F4801F045
:1031800045FD4FF4A06000F099FA37208DF800005B
:1031900002208DF8010000208DF8020001208DF83A
:1031A0000300684600F052FA0121044801F034FDA2
:1031B00005B000BD000C01400008014000140040B3
:1031C00000200149087070470200002008B5012165
:1031D000042000F085FE0121082000F081FE01217D
:1031E000102000F07DFE0121084600F079FE01214B
:1031F0001D48FEF7B3FF10208DF803000320ADF843
:1032000000008DF8020069461848FEF71BFF1020E9
:103210008DF803004FF44050ADF8000003208DF806
:10322000020069461248FEF70DFF10208DF80300DA
:103230000C20ADF8000003208DF8020069460B4811
:10324000FEF700FF10208DF803004FF44040ADF86A
:10325000000003208DF8020069460548FEF7F2FEE3
:1032600000F036FA08BD00000002300000100140F6
:10327000000C014010B50446002C0BDB08210C4863
:10328000FEF7B4FF04210A48FEF7B2FFA0B200F037
:1032900095FA0BE008210648FEF7AAFF042104482E
:1032A000FEF7A4FF614288B200F088FA10BD00006A
:1032B0000010014010B50446002C0BDB01210C4826
:1032C000FEF794FF02210A48FEF792FFA0B200F039
:1032D0006BFA0BE001210648FEF78AFF0221044841
:1032E000FEF784FF614288B200F05EFA10BD000074
:1032F0000010014010B50446002C0DDB4FF4804156
:103300000D48FEF773FF4FF400410B48FEF770FFC6
:10331000A0B200F067FA0DE04FF480410648FEF7D6
:1033200067FF4FF400410448FEF760FF614288B236
:1033300000F058FA10BD0000000C014010B5044622
:10334000002C0DDB4FF400510D48FEF74FFF4FF4FA
:1033500080510B48FEF74CFFA0B200F039FA0DE0A7
:103360004FF400510648FEF743FF4FF480510448E4
:10337000FEF73CFF614288B200F02AFA10BD00005F
:10338000000C01402DE9FE4F06236A463B21D02068
:10339000FFF78CFC06230DF106024321D020FFF736
:1033A00085FC002458E0012000EB44001DF80000DB
:1033B0001DF8141040EA0120294931F81410401A70
:1033C00000B22849096821F81400032C1BDA2549AA
:1033D000096831F91400FDF713F8054604EB4401C0
:1033E000214A02EBC100294603F070FA04EB4401C4
:1033F0001D4A02EBC1018868FDF710F800B21949B7
:10340000096821F81400022C24DDE01EC5B2DFF8A3
:103410005C801449096831F91400FCF7F1FF824619
:103420004146FCF70BFF0746114951F825001149A9
:10343000FCF704FF81463946FCF7A8FE0C4941F829
:1034400025000646FCF7EAFF00B20649096821F8A4
:10345000140000BF601CC4B2062CA4DBBDE8FE8FC4
:103460006C040020C0000020D80000209A99193E6A
:10347000840400209A99593FF0B58BB0182105A813
:10348000FCF779FE1E250526774200200390049064
:10349000404800210160416081604FF400503D4987
:1034A0008880002201213C4801F065FC3BE000BF20
:1034B0000A20FEF7EEFBFFF765FF002416E0374811
:1034C0000168E01C31F8100003A931F81410401A0B
:1034D00000B201A921F8140030480168E01C31F85D
:1034E000100003A921F81400601C04B2032CE6DBD1
:1034F000BDF904000528DBDCBDF9040010F1050F5F
:10350000D6DBBDF906000528D2DCBDF9060010F1B6
:10351000050FCDDBBDF908000528C9DCBDF90800A1
:1035200010F1050FC4DB281EA5F10101CDB2BED1FB
:10353000002417E0FFF726FF642C11DB00200CE0CD
:1035400005A951F82010154A126832F910201144CB
:1035500005AA42F82010411CC8B20628F0DB00BFC3
:10356000601C04B2B4F5B27FE4DB002409E005A8D6
:1035700050F82400001200B2064921F81400601C23
:1035800004B2062CF3DB01221146034801F0F3FBE1
:103590000BB0F0BD6C04002000100040C000002003
:1035A00010B5002400BF80226B21D020FFF75CFB08
:1035B000C4B21E20FEF76DFB02221921D020FFF7B6
:1035C00053FB2044C4B203226B21D020FFF74CFBF5
:1035D0002044C4B203221A21D020FFF745FB204427
:1035E000C4B218221B21D020FFF73EFB2044C4B2F6
:1035F00009221C21D020FFF737FB2044C4B2002C45
:10360000D1D17521D020FFF7FDFAC4B2682C01D0CA
:10361000012010BD0020FCE77047000000F01F02F1
:1036200001219140024A430942F8231070470000EB
:1036300080E100E000F01F02012191404209920068
:1036400002F1E022C2F800117047000070B50021BD
:1036500000230F22C47804B3154C246804F4E064FA
:10366000C4F5E064210AC1F10403CA40447804FAB5
:1036700003F184781440214309010E4C0678A155CA
:10368000047804F01F050124AC4005786D11AD00ED
:1036900005F1E025C5F8004109E0047804F01F05B4
:1036A0000124AC40044D0678761145F8264070BDE3
:1036B0000CED00E000E400E080E100E0024901439D
:1036C000024A1160704700000000FA050CED00E0AE
:1036D00000B589B00121480300F002FC012110204F
:1036E00000F0FEFB18208DF823004FF47070ADF849
:1036F000200003208DF8220008A92948FEF7A2FC2B
:10370000284801F041FB0020ADF81A00ADF8160082
:1037100040F2E730ADF818000B20ADF8140000209F
:103720008DF81C0005A91F4801F0D0FC01A801F08C
:103730008CFC6020ADF804000020ADF80C000120E6
:10374000ADF806000020ADF80A0001A9154801F007
:1037500021FB01A9134801F073FB01A9114801F0F5
:10376000CFFB01A90F4801F025FC08210D4801F00D
:103770005DFB08210B4801F0B5FB0821094801F069
:103780000FFC0821074801F053FC0121054801F016
:103790004FFA0121034801F03FFA09B000BD0000D3
:1037A000001001400034014010B504462146024893
:1037B00001F055FC10BD00000034014010B5044676
:1037C0002146024801F04DFC10BD000000340140CC
:1037D00010B504462146024801F045FC10BD00002A
:1037E0000034014010B504462146024801F03DFC7A
:1037F00010BD0000003401407047000010B558486B
:1038000000780C2805D1574800F0E4FBFEF7ACF92E
:10381000A5E053480078FF2802D100F0A7FF9EE002
:103820004F4800780D2805D14E48FEF75FFAFEF7A5
:103830009BF994E04A4800780E2805D1494801F0E8
:1038400037FDFEF791F98AE0454800780F2805D149
:103850004448FFF7C5FAFEF787F980E04048007852
:10386000102805D13F4801F083FCFEF77DF976E092
:103870003B480078172805D13A4801F0B3FDFEF720
:1038800073F96CE036480078112805D13548FDF70A
:103890004BF9FEF769F962E031480078122819D136
:1038A0003048FFF767FBFEF75FF92F480078401CB0
:1038B0002D49087008460078052850D100F056FFC1
:1038C00029480078052190FBF1F201FB12002649FE
:1038D000087044E022480078132805D12148FEF7FB
:1038E0009BFAFEF741F93AE01D480078182805D107
:1038F0001C48FDF7B7F9FEF737F930E018480078B3
:103900001A2805D11748FEF707FBFEF72DF926E028
:1039100013480078192805D11248FDF723FAFEF75D
:1039200023F91CE00E480078142805D10D4800F05A
:10393000A7FCFEF719F912E009480078152805D10F
:10394000084800F0C3FBFEF70FF908E004480078D0
:10395000162804D1034800F017FCFEF705F910BD46
:10396000540000200AD7A33BB800002010B504463D
:10397000012C35D15248007838B9AE205149087031
:1039800000F05AFD01204E49087000214E480068A1
:10399000FCF78CFD11D000214C480068FCF786FD37
:1039A0000BD04B48007840B94A48007828B94A48BB
:1039B000007810B912204949087049480078AE28AB
:1039C0007CD143480078002878D1FF204349087013
:1039D0000120434908703F4908703D4908706DE077
:1039E000022C35D13F48007838B9AF2035490870EE
:1039F00000F022FD01203B49087000213248006898
:103A0000FCF754FD11D0002130480068FCF74EFD52
:103A10000BD03548007840B93448007828B934488C
:103A2000007810B912202D4908702D480078AF2871
:103A300044D12D480078002840D1FF202749087044
:103A4000012027490870294908702749087035E086
:103A5000032C33D12748007838B9BA2019490870A7
:103A600000F0EAFC01202349087000211648006894
:103A7000FCF71CFD11D0002114480068FCF716FD6E
:103A80000BD01D48007840B91C48007828B91C4864
:103A9000007810B912201149087011480078BA282E
:103AA0000CD11548007848B9FF200C490870012056
:103AB0000B490870114908700F49087010BD0000CB
:103AC000870000201C000020280000202C0000207F
:103AD00075000020700000207E00002054000020AF
:103AE00034000020880000207700002072000020B1
:103AF0008000002089000020760000207100002056
:103B00007F00002010B50446012C53D140F29E7076
:103B100003F08CFA40F61A1002F0CEFE4FF4FA7061
:103B2000FEF7B7F8FFF74CFB7948FEF747F84FF47C
:103B3000FA70FEF7AEF840F2262003F047FA4FF491
:103B4000FA70FEF7A6F8FFF73BFB714801F04EFD57
:103B50004FF4FA70FEF79DF84FF4876002F0ACFE68
:103B6000FFF72EFB6B480078052803D16A48FEF763
:103B700025F802E06948FEF721F84FF4FA70FEF7E5
:103B800088F84FF4966003F021FAFFF719FB4FF421
:103B9000FA70FEF77EF85F480078052803D15E488A
:103BA00001F024FD02E05D4801F020FD4FF4FA70C1
:103BB000FEF76FF8022C53D140F22E4003F036FA94
:103BC00040F6E80002F078FE4FF4FA70FEF761F874
:103BD000FFF7F6FA4E48FDF7F1FF4FF4FA70FEF7E3
:103BE00058F840F2262003F0F1F94FF4FA70FEF78E
:103BF00050F8FFF7E5FA464801F0F8FC4FF4FA7088
:103C0000FEF747F84FF4876002F056FEFFF7D8FA48
:103C100040480078052803D13F48FDF7CFFF02E078
:103C20003E48FDF7CBFF4FF4FA70FEF732F84FF441
:103C3000966003F0CBF9FFF7C3FA4FF4FA70FEF782
:103C400028F834480078052803D1334801F0CEFC29
:103C500002E0324801F0CAFC4FF4FA70FEF719F89E
:103C6000032C53D140F2762003F0E0F940F62E10F9
:103C700002F022FE4FF4FA70FEF70BF8FFF7A0FAFD
:103C80002348FDF79BFF4FF4FA70FEF702F840F26D
:103C9000262003F09BF94FF4FA70FDF7FAFFFFF7C7
:103CA0008FFA1B4801F0A2FC4FF4FA70FDF7F1FF08
:103CB0004FF4876002F000FEFFF782FA15480078A3
:103CC000052803D11448FDF779FF02E01348FDF7FA
:103CD00075FF4FF4FA70FDF7DCFF4FF4966003F0C8
:103CE00075F9FFF76DFA4FF4FA70FDF7D2FF094846
:103CF0000078052803D1084801F078FC02E0074865
:103D000001F074FC4FF4FA70FDF7C3FF10BD000022
:103D1000333333408D0000200000C040000040419C
:103D200010B54B480078032190FBF1F201FB120023
:103D30004749087008460078401C0870084600781B
:103D4000FFF7E0FE4FF47A70FDF7A3FF40480078DC
:103D5000012819D106213F4802F086FF01203E4983
:103D6000087000203D4908703D4908703D48807842
:103D70003C494978884203DC18203B49087066E0DA
:103D800013203949087062E031480078022819D1BF
:103D90000621304802F068FF0120314908700020F8
:103DA0002E4908702C4908702E48C0782D49897812
:103DB000884203DC18202C49087048E013202A4967
:103DC000087044E022480078032840D106212148A9
:103DD00002F04AFF002022490870204908701E495D
:103DE00008702048C0781F494978401A012803D13B
:103DF00018201D4908701FE01A4840781949C978F1
:103E0000401A012803D113201749087014E01548FF
:103E1000C07814494978401A022803D11920124960
:103E2000087009E00F4840780E49C978401A022806
:103E300002D11A200C4908700C480078022803D0DF
:103E40000A480078052802D115200749087010BDDE
:103E5000B9000020980000207900002078000020A0
:103E60007A0000201C000020540000208D0000205B
:103E70002DE9F05F04464FF07F594FF07C5120460A
:103E8000FCF7DCF9824625462E460C48A0EB660678
:103E9000354629465046FCF7D1F983462946FCF7BA
:103EA000CDF980464946FCF7C6F907462946FCF796
:103EB000C5F905462846BDE8F09F0000DF59375F89
:103EC00029B1064AD2690243044BDA6104E0034A8D
:103ED000D2698243014BDA61704700000010024052
:103EE00029B1064A92690243044B9A6104E0034AED
:103EF00092698243014B9A617047000000100240B2
:103F000030B500210022002400232D4D6D6805F0FE
:103F10000C0121B1042905D0082923D105E0294D40
:103F2000056022E0274D05601FE0254D6D6805F412
:103F30007012234D6D6805F48034022505EB924222
:103F40001CB9214D554305600BE01D4D6D6805F40E
:103F500000351DB11C4D5543056002E0194D554318
:103F6000056002E0174D056000BF00BF144D6D688D
:103F700005F0F0010909154D6B5C0568DD404560F1
:103F80000F4D6D6805F4E061090A104D6B5C4568E2
:103F9000DD4085600A4D6D6805F46051C90A0B4D1E
:103FA0006B5C4568DD40C560054D6D6805F44041BA
:103FB000890B074D6B5CC568B5FBF3F5056130BD3A
:103FC0000010024000127A0000093D003E0000206F
:103FD0004E00002070B504462F4930480068FCF7B9
:103FE000D5F82F4908602F488068486221462C4840
:103FF00002F050FE2C480078FCF70BFA05462848E2
:10400000816A2846FCF714F9284908602648007898
:10401000FCF7FFF905462248816A2846FCF7B6F806
:104020002349086020480078FCF7F3F905461C484E
:10403000816A2846FCF7FCF81E4908601A48007897
:10404000FCF7E7F905461648816A2846FCF79EF812
:1040500019490860194800681449486218480068FE
:1040600013494862174800681249486216480068B8
:104070001149486221460D4802F00CFE21460C48C9
:1040800002F008FE21460B4802F004FE21460A48D1
:1040900002F000FE70BD00000000964230000020DB
:1040A0001C03002060040020740000204C0200204B
:1040B00080020020B4020020E80200200C00002052
:1040C00010000020140000201800002010B5044645
:1040D000214922480068FCF7ABF8214908602148D3
:1040E0008068486221461E4802F0D4FD1C48806A60
:1040F00080F000401C4908601948806A1B4908602C
:104100001748806A80F00040194908601448806AA6
:104110001849086018480068134948621748006841
:1041200012494862164800681149486215480068FB
:104130001049486221460C4802F0ACFD21460B486C
:1041400002F0A8FD21460A4802F0A4FD21460948D4
:1041500002F0A0FD10BD00000000964230000020DB
:104160001C030020600400204C020020800200207C
:10417000B4020020E80200200C0000201000002003
:10418000140000201800002070B504462F49304864
:104190000068FBF7FBFF2F4908602F4880684862E2
:1041A00021462C4802F076FD2C480078FCF731F9C6
:1041B00005462848816A2846FCF73AF828490860ED
:1041C00026480078FCF725F905462248816A2846EA
:1041D000FBF7DCFF2349086020480078FCF719F959
:1041E00005461C48816A2846FCF722F81E490860EB
:1041F0001A480078FCF70DF905461648816A2846EA
:10420000FBF7C4FF1949086019480068144948625F
:104210001848006813494862174800681249486204
:10422000164800681149486221460D4802F032FDE7
:1042300021460C4802F02EFD21460B4802F02AFDD3
:1042400021460A4802F026FD70BD0000000016431A
:10425000300000201C0300206004002074000020B7
:104260004C02002080020020B4020020E80200205E
:104270000C00002010000020140000201800002076
:1042800010B50446214922480068FBF77FFF214909
:10429000086021488068486221461E4802F0FAFC06
:1042A0001C48806A80F000401C4908601948806AF8
:1042B0001B4908601748806A80F00040194908606F
:1042C0001448806A18490860184800681349486211
:1042D0001748006812494862164800681149486248
:1042E000154800681049486221460C4802F0D2FC8B
:1042F00021460B4802F0CEFC21460A4802F0CAFCD7
:104300002146094802F0C6FC10BD0000000096429C
:10431000300000201C030020600400204C0200201C
:1043200080020020B4020020E80200200C000020DF
:10433000100000201400002018000020704700002A
:1043400000B587B00121C804FFF7BAFD0121102094
:10435000FFF7C6FD4FF48060ADF8180018208DF807
:104360001B0003208DF81A0006A92248FDF76AFEFB
:104370004FF40060ADF8180048208DF81B000320B2
:104380008DF81A0006A91B48FDF75CFE4FF4165085
:1043900002900020ADF814000C20ADF812000020AF
:1043A000ADF81000ADF80E00ADF80C0002A91248EF
:1043B00001F0FEF9012240F225510F4801F0D2F937
:1043C0004FF4A060FFF77AF934208DF80400012043
:1043D0008DF8070000208DF8050001208DF80600FB
:1043E00001A8FFF733F90121034801F078F907B07C
:1043F00000BD000000100140004C004070B50546B3
:104400000E46002404E0285D00F006F8601C84B22B
:10441000B442F8DB70BD000010B5044621460548E3
:1044200001F037FA00BF8021024801F064F900284A
:10443000F9D010BD004C004010B5FF20FFF7ECFF95
:1044400004210348FFF7DAFFFE20FFF7E5FF10BD68
:104450001C00002000B587B001210805FFF730FDE2
:1044600001211020FFF73CFD01212020FFF738FD3E
:1044700018208DF81B000420ADF8180003208DF8DB
:104480001A0006A92148FDF7DDFD18208DF81B0054
:104490004FF48050ADF8180003208DF81A0006A9DB
:1044A0001B48FDF7CFFD4FF4614002900020ADF8AE
:1044B00014000C20ADF812000020ADF81000ADF88B
:1044C0000E00ADF80C0002A9124801F071F90122AA
:1044D00040F225510F4801F045F94FF4A060FFF775
:1044E000EDF835208DF8040001208DF8070000203C
:1044F0008DF805008DF8060001A8FFF7A7F8012147
:10450000044801F0ECF807B000BD000000140140C1
:10451000001001400050004010B5044621460548F7
:1045200001F0B7F900BF8021024801F0E4F800284B
:10453000F9D010BD0050004070B50446002504E0DD
:10454000605DFFF7E9FF681CC5B2605D0028F7D128
:1045500070BD10B5002403E0FF20FFF7DDFF641CF1
:10456000032CF9DB10BD0000F8B504460D461646D5
:1045700064210848FBF7FFFD2B46224606A10548AB
:10458000009601F08DF90348FFF7D6FFFFF7E1FF32
:10459000F8BD00002C01002025732E25733D222537
:1045A0006422000000B589B00121C802FFF798FC21
:1045B00001210420FFF794FC18208DF823004FF40C
:1045C0006060ADF8200003208DF8220008A92B4878
:1045D000FDF738FD2A4800F0D7FB0020ADF81A009F
:1045E000ADF8160044F61F60ADF818004720ADF88E
:1045F000140000208DF81C0005A9214800F066FD7C
:1046000001A800F022FD4FF48070ADF8100060208A
:10461000ADF804000020ADF80C000120ADF8060054
:104620004FF49660ADF80A0001A9154800F008FCA7
:1046300040F29E70ADF80A0001A9114800F060FC3C
:104640004FF48760ADF80A0001A90D4800F0B2FCF4
:1046500001210B4800F0ECFA0821094800F042FC67
:104660000821074800F09CFC0821054800F0E0FC08
:104670000121034800F0D0FA09B000BD0008014054
:10468000002C014010B500F001F810BD0CB5002061
:10469000019000903348006840F480303149086050
:1046A00000BF3048006800F4003000900198401CC2
:1046B0000190009818B90198B0F5A06FF1D1294880
:1046C000006800F4003010B10120009001E00020EB
:1046D00000900098012843D12348006840F0100062
:1046E000214908600846006820F003000860084679
:1046F000006840F0020008601A48406819494860A4
:104700000846406848600846406840F48060486059
:104710000846406820F47C1048600846406840F431
:10472000E81048600846006840F08070086000BFEC
:104730000C48006800F000700028F9D00948406873
:1047400020F00300074948600846406840F0020036
:10475000486000BF0348406800F00C000828F9D109
:104760000CBD0000001002400020024010B50020E7
:10477000FEF7A0FD0020FEF7E1FD0020FEF77AFD28
:104780000020FEF7B7FD10BD7047000010B51348BC
:10479000006840F00100114908600846406810496F
:1047A00008400E494860084600680E4908400B4919
:1047B00008600846006820F48020086008464068C9
:1047C00020F4FE0048604FF41F008860FFF75AFF96
:1047D0004FF000600449086010BD00000010024066
:1047E0000000FFF8FFFFF6FE08ED00E0F0B50C4614
:1047F000154600220021068C4FF6FE773E400684C7
:10480000028B018C4FF60C7632407E1C06EA0316B2
:104810002E433243104EB0420ED0104EB0420BD059
:10482000B0F1804F08D00E4EB04205D00D4EB042D0
:1048300002D00D4EB04206D14FF6FD76314044F025
:104840000106314305E04FF6F576314044F00106AC
:10485000314302830184F0BD002C0140003401404B
:104860000004004000080040000C0040F0B50C4679
:104870001546002200210026078C4FF6EF7C07EA40
:104880000C070784028B018C4FF6FF7707EA0416AA
:1048900040F6FF473A404FF6FF7707EA03373A43BF
:1048A0004FF6FF7707EA05273A43114FB8420ED07B
:1048B000104FB8420BD0B0F1804F08D00E4FB84225
:1048C00005D00E4FB84202D00D4FB84206D14FF678
:1048D000DF77394046F01007394305E04FF65F7740
:1048E000394044F01007394302830184F0BD0000D1
:1048F000002C01400034014000040040000800404A
:10490000000C0040F0B50C461546002200210026A0
:10491000078C4FF6FF6C07EA0C070784828B018C2B
:104920004FF6FF7707EA04264FF60C773A404FF62A
:10493000FF7707EA03172F433A43114FB8420ED0CF
:10494000104FB8420BD0B0F1804F08D00E4FB84294
:1049500005D00E4FB84202D00D4FB84206D14FF6E7
:10496000FF57394046F48077394305E04FF2FF574F
:10497000394044F48077394382830184F0BD0000DC
:10498000002C0140003401400004004000080040B9
:10499000000C0040F0B50C46154600220021002610
:1049A000078C4EF6FF7C07EA0C070784828B018C8C
:1049B0004FF6FF7707EA043640F6FF473A404FF6D6
:1049C000FF7707EA05273A434FF6FF7707EA0337F1
:1049D0003A43114FB8420ED0104FB8420BD0B0F14D
:1049E000804F08D00E4FB84205D00E4FB84202D0CB
:1049F0000D4FB84206D14DF6FF77394046F4805747
:104A0000394305E047F6FF57394044F480573943AE
:104A100082830184F0BD0000002C0140003401407D
:104A20000004004000080040000C004010B50121C7
:104A3000274800F030F9002848D026480078401C6C
:104A40002449087024480078401C234908702148F4
:104A50000078052190FBF1F201FB12001D4908705E
:104A60001D4800784FF47A7190FBF1F201FB1200BF
:104A7000194908701748007838B9FEF783FC174ABF
:104A800017491848FDF7B6FB13E0124800780128D3
:104A900002D1FDF741FF0CE00E480078022802D158
:104AA000FCF7E0FC05E00B480078032801D1FEF795
:104AB000A5FE0D48007828B907480078032801D1E1
:104AC000FFF7BAFC0121024800F0A3F810BD000076
:104AD00000100040BC000020BD0000200AD7A33B0E
:104AE0006004002054040020BB0000201FB50121F9
:104AF0001020FFF7E5F941F61F40ADF8040009204A
:104B0000ADF808000020ADF8060001A9144800F037
:104B1000DDFA01221146124800F02DF9012110485A
:104B200000F07AF8362000F01F020121914042097E
:104B3000920002F1E022C2F8001100BF8DF80000DF
:104B400001208DF801008DF802008DF80300684601
:104B5000FEF77CFD0121024800F05EF81FBD000059
:104B60000010004010B50121214800F094F8012800
:104B70003CD12048007801280FD101031E48FDF7E1
:104B800037FB00201B4908704FF07E511B4800681E
:104B9000FBF7FCFA1949086012E01648007878B96A
:104BA0004FF480511448FDF721FB01201149087092
:104BB0004FF07E5111480068FBF7E8FA0F49086092
:104BC0000F4910480068FBF739FB04460B480168A1
:104BD0002046FBF76BFC05D800200849086001203F
:104BE000094908700121024800F013F810BD0000C7
:104BF00000140040000000200008014004000020D4
:104C000000C0C7440800002001000020CA430282FF
:104C10007047CA430282704721B1028842F0010204
:104C2000028004E002884FF6FE731A40028070474B
:104C300031B1B0F8442042F40042A0F8442005E02D
:104C4000B0F84420C2F30E02A0F844207047F0B53B
:104C50000C4615461E460021002200230189028BC6
:104C6000038C4FF6F877394021434FF6FC473A4022
:104C700040F201173A434FF6DD773B404FF6FF779E
:104C800007EA06172F433B43018102830384F0BDEB
:104C90000146888C704730B502460020002300246E
:104CA000158A05EA0103958905EA010413B10CB1DF
:104CB000012000E0002030BD70B505460C462448B8
:104CC00085420ED0234885420BD0B5F1804F08D0E5
:104CD0002148854205D02148854202D0204885429E
:104CE00000D100E000BF208850B92389A2886188E4
:104CF0002846FFF77BFDE188284600F0BBF925E058
:104D0000208804280AD12389A28861882846FFF7D1
:104D1000ADFDE188284600F0B6F917E020880828A4
:104D20000AD12389A28861882846FFF7EBFDE18834
:104D3000284600F0B5F909E02389A2886188284651
:104D4000FFF728FEE188284600F0B3F970BD0000A7
:104D5000002C0140003401400004004000080040E5
:104D6000000C004000210180418001218180002150
:104D7000C180018170471AB183890B43838102E0AE
:104D800083898B438381704701894FF6F872114004
:104D90000181704770B5002400220023058C4FF676
:104DA000FE7635400584028C8388048B4FF68F7520
:104DB0002C40B51E2C400D882C43751E2A400D89B1
:104DC0002A434D882A43144DA8420BD0134DA842C4
:104DD00008D0134DA84205D0124DA84202D0124D62
:104DE000A84213D14FF6F7752A404D892A434FF652
:104DF000FB752A408D882A434FF6FF652B404FF6FE
:104E0000FF552B408D892B43CD892B438380048311
:104E1000CD888586028470BD002C0140003401409D
:104E20000040014000440140004801400A46002182
:104E3000018B4FF6F773194011430183704700004F
:104E400070B5002400220023058C4FF6EF76354024
:104E50000584028C8388048B48F6FF752C404FF63E
:104E6000FF452C400D884FF6FF7606EA05252C43BA
:104E70004FF6DF752A400D8906EA05152A434D884D
:104E800006EA05152A43154DA84202D0144DA84242
:104E90001DD14FF67F752A404D894FF6FF7606EA01
:104EA00005152A434FF6BF752A408D8806EA051579
:104EB0002A434FF6FF352B404FF2FF752B408D896B
:104EC00006EA85052B43CD8906EA85052B438380B9
:104ED0000483CD880587028470BD0000002C01404A
:104EE000003401400A460021018B4FF2FF73194044
:104EF0004FF6FF7303EA0223194301837047000052
:104F000070B5002400220023058C4FF6FF66354063
:104F10000584028C8388848B4FF68F752C404FF666
:104F2000FC752C400D882C434FF6FF552A400D8907
:104F30004FF6FF7606EA05252A434D8806EA052541
:104F40002A43154DA84202D0144DA8421DD14FF25C
:104F5000FF752A404D894FF6FF7606EA05252A435C
:104F60004FF6FF352A408D8806EA05252A434EF67E
:104F7000FF752B404DF6FF752B408D8906EA051510
:104F80002B43CD8906EA05152B4383808483CD8886
:104F90008587028470BD0000002C01400034014070
:104FA0000A460021818B4FF6F77319401143818324
:104FB0007047000070B5002200230024058C4EF6D7
:104FC000FF7635400584038C8488828B48F6FF7514
:104FD0002A404FF6FF452A400D884FF6FF7606EA35
:104FE00005252A434DF6FF752B400D8906EA053548
:104FF0002B434D8806EA05352B430B4DA84202D0C2
:105000000A4DA84208D14BF6FF752C408D894FF60A
:10501000FF7606EA85152C4384808283CD88A0F82C
:105020004050038470BD0000002C0140003401405A
:105030000A460021818B4FF2FF7319404FF6FF7330
:1050400003EA0223194381837047002101804180D4
:105050008180C180018141818181C18170478186C8
:1050600070470187704781877047A0F840107047EC
:1050700081847047028B4FF6F3731A400283028BD0
:105080000A4302837047028B4FF2FF331A400283B8
:10509000028B4FF6FF7303EA01231A430283704722
:1050A000828B4FF6F3731A408283828B0A4382838A
:1050B0007047828B4FF2FF331A408283828B4FF608
:1050C000FF7303EA01231A43828370470022028898
:1050D0001D4B98420ED01D4B98420BD0B0F1804F23
:1050E00008D01B4B984205D01A4B984202D01A4B5D
:1050F000984204D14FF68F731A404B881A43174BCE
:10510000984207D0164B984204D04FF6FF431A40FE
:10511000CB881A4302808B8883850B8803850A4BD2
:1051200098420BD0094B984208D00E4B984205D0BC
:105130000D4B984202D00D4B984201D10B7A038659
:105140000123838270470000002C0140003401409D
:105150000004004000080040000C00400010004027
:10516000001400400040014000440140004801405C
:1051700070B5044600203F4908603F4988683F49B0
:105180000968FBF755F83B4948622146394801F068
:1051900081FD3848806A3A4908603A49B1F90A0005
:1051A000FBF72EF90546384801682846FBF746F814
:1051B000334948622146324801F06CFD3349097891
:1051C000494201EB8100FBF71BF905462C48816A37
:1051D0002846FBF72DF82E4908602C49097801EB89
:1051E0008100FBF70DF905462548816A2846FAF744
:1051F000CDFF284908602549097801EB8100FBF7BC
:10520000FFF805461E48816A2846FBF711F8224937
:1052100008601E490978494201EB8100FBF7F0F86C
:1052200005461748816A2846FAF7B0FF1B4908600F
:105230001B480068164948621A48006815494862C8
:1052400019480068144948621848006813494862C0
:1052500021460F4801F01EFD21460E4801F01AFDBF
:1052600021460D4801F016FD21460C4801F012FDC3
:1052700070BD00001C0300206004002030000020EE
:1052800050030020540400204C70000874000020DB
:105290004C02002080020020B4020020E80200201E
:1052A0000C00002010000020140000201800002036
:1052B00070B504463C4800683C4908603C4880683A
:1052C00048622146394801F0E5FC3848806A39498E
:1052D00008603949B1F90A00FBF792F805463748EA
:1052E00001682846FAF7AAFF324948622146314848
:1052F00001F0D0FC32490978C1EBC100FBF780F81E
:1053000005462C48816A2846FAF792FF2D49086025
:105310002B490978A1EBC100FBF772F80546254837
:10532000816A2846FAF732FF27490860244909783C
:10533000A1EBC100FBF764F805461E48816A2846C8
:10534000FAF776FF214908601D490978C1EBC100D1
:10535000FBF756F805461748816A2846FAF716FF04
:105360001B4908601B480068164948621A480068D3
:10537000154948621948006814494862184800688D
:105380001349486221460F4801F084FC21460E482B
:1053900001F080FC21460D4801F07CFC21460C48C0
:1053A00001F078FC70BD0000300000201C030020DC
:1053B0006004002050030020540400204C700008BA
:1053C000740000204C02002080020020B402002063
:1053D000E80200200C000020100000201400002033
:1053E0001800002070B5044600203F4908603F497E
:1053F00088683F490968FAF71BFF3B494862214624
:10540000394801F047FC3848806A3A4908603A490F
:10541000B1F90A00FAF7F4FF054638480168284652
:10542000FAF70CFF334948622146324801F032FC5A
:105430003349097801EB8100FAF7E2FF05462D4870
:10544000816A2846FAF7F4FE2E4908602C4909784B
:10545000494201EB8100FAF7D3FF05462548816AEE
:105460002846FAF793FE28490860254909784942F9
:1054700001EB8100FAF7C4FF05461E48816A284601
:10548000FAF7D6FE214908601D49097801EB810031
:10549000FAF7B6FF05461748816A2846FAF776FEFE
:1054A0001B4908601B480068164948621A48006892
:1054B000154948621948006814494862184800684C
:1054C0001349486221460F4801F0E4FB21460E488B
:1054D00001F0E0FB21460D4801F0DCFB21460C48C1
:1054E00001F0D8FB70BD00001C0300206004002008
:1054F0003000002050030020540400204C700008AD
:10550000740000204C02002080020020B402002021
:10551000E80200200C0000201000002014000020F1
:105520001800002010B540F22551274800F0F0F88F
:10553000012847D1244800F0A7F9C4B223480078D5
:1055400040B9FF2C38D101202049087000202049A3
:10555000087031E01D48007801282DD1FE2C13D0B1
:105560001C48007840B91A4801780078401C184A55
:1055700010701948445407E0154801780078401C21
:10558000134A107015484454FE2C15D100200F49C1
:1055900008701249897801EB4100FAF731FF104990
:1055A00008600E49C9784800FAF72AFF0D490860DB
:1055B0000A4800790C49087040F22551024800F071
:1055C0007FF800BF10BD0000004C00403C000020F0
:1055D0003D000020BB0000209A0100209001002027
:1055E000280000202C0000203400002038B504469C
:1055F00055E02D4804602D48007818BB10212C4838
:10560000FCF7F6FD20212A48FCF7F2FD01221146A5
:105610002848FFF7B0FB3720FEF70CF81C208DF868
:10562000000001208DF8030002208DF80100012008
:105630008DF802006846FEF709F801211D48FFF7C2
:10564000EBFA2CE019480078012828D100201A49EB
:105650000860002201211748FFF78DFB3720FDF776
:10566000DDFF1C208DF8000001208DF803000220D2
:105670008DF8010001208DF802006846FDF7E6FF75
:1056800000210C48FFF7C8FA01210A48FFF7C1FAC8
:1056900001200A49087000200449087000BF07482B
:1056A00000780028A5D038BD0800002001000020A7
:1056B000000C014000140040040000200200002003
:1056C00010B50022002340F66A14A14200D100BFA9
:1056D0000A1201249440A3B2DC43048010BD21B11E
:1056E000828942F40052828104E082894DF6FF7380
:1056F0001A408281704702460020B1F5007F00D138
:1057000000BF13880B400BB1012000E00020704760
:1057100070B50246002400230025002040F66A16DA
:10572000B14200D100BFC1F3421501F01F030126B1
:1057300006FA03F3012D02D19689334006E0022DCB
:1057400002D1168A334001E0968A33400C120126BA
:1057500006FA04F41688344013B10CB1012000E0BD
:10576000002070BDF0B5034600240026002500206F
:1057700040F66A17B94200D100BF1846C1F342147F
:1057800001F01F06012707FA06F5012C01D10C30A4
:1057900004E0022C01D1103000E014301AB1076887
:1057A0002F43076002E00768AF430760F0BD0000C9
:1057B0002DE9F04786B005460E460024A24600BFFC
:1057C000A1460027B08900B100BF2F462C8A4CF6B5
:1057D000FF700440F08804432C82AC894EF6F3102D
:1057E0000440B08831890843718908430443AC817F
:1057F000AC8A4FF6FF400440B0890443AC8201A854
:10580000FEF77EFB1F48874202D1DDF810A001E0C1
:10581000DDF80CA0A88900F4004040B10AEBCA00F2
:1058200000EB0A1031684900B0FBF1F807E00AEB21
:10583000CA0000EB0A1031688900B0FBF1F864205F
:10584000B8FBF0F004012009642101FB1089A8894C
:1058500000F4004040B1322000EBC900B0FBF1F091
:1058600000F00700044308E0322000EB0910642137
:10587000B0FBF1F000F00F0004432C8106B0BDE84E
:10588000F08700000038014001468888C0F3080016
:105890007047C1F308028280704700BFFEE7000036
:1058A0000FB4084B10B504A902AA039800F060F9E0
:1058B000044602A9002000F0F2FC204610BC5DF86E
:1058C00014FB00009F620008490050EAC12018BF85
:1058D00004204A0D18BF40F0010040F2FF72B2EB05
:1058E000515F08BF40F00200012808BF0520704743
:1058F0002DE9F0414F1E00EBC7010446D1E900013C
:1059000015461E4637F006020DD02A463346FAF7F2
:1059100005FD7F1E04EBC703D3E90023FAF7B5FEAC
:1059200037F00602F1D1022F25D0042F13D0062F15
:1059300018BFBDE8F0812A463346FAF7EFFCD4E9F8
:105940000A23FAF7A2FE2A463346FAF7E7FCD4E91F
:105950000823FAF79AFE2A463346FAF7DFFCD4E921
:105960000623FAF792FE2A463346FAF7D7FCD4E923
:105970000423FAF78AFE2A463346FAF7CFFCD4E925
:105980000223FAF782FE2A463346FAF7C7FCD4E927
:105990000023BDE8F041FAF778BE0122FAF78BBF89
:1059A000FAF773BE0022134610461146FAF714BFE9
:1059B000024A00201107FAF77EBF000001FDFFFF39
:1059C00002E008C8121F08C1002AFAD170477047C8
:1059D000002001E001C1121F002AFBD17047000026
:1059E0000149086070470000280100202DE9FF5F91
:1059F00082B00021DDE90430020DDDF840B0034340
:105A000018D044F61050A2F2FF32424315141198F8
:105A100001281FD0A5EB0B00401C5FEA000A4FF0E5
:105A200000064E4FDFF83891B046504615D5CAF102
:105A3000000413E0119801244AA3012801D16FEA60
:105A40000B010298119AC0E90031C0E9024206B088
:105A5000BDE8F09FCBF10000DFE704460021404A9B
:105A6000491842EB0450CDE9001012E0E00707D0DE
:105A700032463B4640464946FAF750FC8046894646
:105A800032463B4610461946FAF748FC06460F4692
:105A90006410002CEAD1DDE90401DDE90023BAF14C
:105AA000000F06DAFAF73AFC42464B46FAF736FCA4
:105AB00005E0FAF791FE42464B46FAF78DFE0446A2
:105AC0000E460022284BFAF725FF03D84FF0FF308F
:105AD000014607E00022254B20463146FAF7D5FD66
