:020000040800F2
:1000000098080020450100082533000871260008E3
:10001000152E0008610C0008FB55000800000000C8
:10002000000000000000000000000000B9400008CF
:10003000951A000800000000053500080545000875
:100040005F0100085F0100085F0100085F01000810
:100050005F0100085F0100085F0100085F01000800
:100060005F0100085F0100085F0100085F010008F0
:100070005F0100085F0100085F0100085F010008E0
:100080005F0100085F0100085F0100085F010008D0
:100090005F0100085F0100085F0100085F010008C0
:1000A0005F0100085F0100085F0100085F010008B0
:1000B0005F0100085F0100085F0100085F010008A0
:1000C0005F0100085F0100085F0100085F01000890
:1000D0005F0100085F0100085F0100085F01000880
:1000E0005F0100085F0100085F0100085F01000870
:1000F0005F0100085F0100085F0100085F01000860
:100100005F0100085F0100085F0100085F0100084F
:10011000855200085F010008A9470008C54800088B
:100120005F0100085F0100085F0100085F0100082F
:10013000DFF80CD000F006FC00480047FD6700081F
:10014000980800200648804706480047FEE7FEE77B
:10015000FEE7FEE7FEE7FEE7FEE7FEE7FEE7FEE777
:100160000945000831010008D2B201E000F8012B76
:10017000491EFBD270470022F6E710B513460A4627
:1001800004461946FFF7F0FF204610BDF0B480EAA0
:100190000102D40F4200B2EB410F02D202460846E0
:1001A00011464A0042D0C30DDDB2C1F3C752AD1AA9
:1001B000202D35DAC1F3160141F4000204B1524298
:1001C000C5F1200602FA06F12A411044B3EBD05FD4
:1001D00023D0C4B1012DA0EBC35009DCF0BC4FF01B
:1001E000004202EAC352DBB200F5000000F0C2B9DF
:1001F000400000F1807000EBC350A0F1807040EA35
:10020000D170490009E0490841EAC071A0EBC35030
:1002100000F50000400800EBC350F0BC00F0A1B9AD
:100220006142012202EB4101001BF6E7F0BC70477E
:1002300081F00041AAE780F00040A7E780EA0102D0
:1002400010B502F00043400022D04A001FD0010E3A
:1002500001EB1261C0F35600C2F3560240F40000F5
:1002600042F40002A0FB022000047F39140400D0F5
:10027000401C50EA124001D44000491EC2B20C0694
:1002800004EBD010401C4008802A02D003E000207C
:1002900010BD20F00100002900DA0020184310BD35
:1002A00030B480EA010202F0004530F0004221F053
:1002B000004013D090B1C30DD40DC2F31601C0F3AA
:1002C0001600E41A41F4000140F400027D3491422A
:1002D00001D3641C00E04900002C02DA30BC00208D
:1002E00070474FF400000023914201D3891A034361
:1002F00040084FEA4101F7D151B1914202D14FF08C
:10030000004105E002D24FF0010101E06FF0010170
:1003100003EBC450284430BC00F023B92DE9FE4F54
:1003200081EA030404F0004421F0004100944FF0FE
:10033000000B23F0004350EA01045ED052EA0304AC
:100340005BD0C3F30A54C1F30A552C44A4F2F3342E
:100350000194A0FB0254C1F3130141F48011C3F3D3
:10036000130343F4801301FB024400FB034E840A91
:10037000970A44EA815447EA8357A4FB0768029529
:100380008D0A05FB07854FEA932C04FB0C542705C7
:10039000029D4FEA065847EA1637B5EB08056EEBA3
:1003A000070C870E920E47EA811742EA8312A7FBD9
:1003B0000201B6EB0B0164EB00042B0D43EA0C3396
:1003C0005E1844EB1C50DA465146E7FB0201C5F3C8
:1003D00013044FEA0B3343EA14534FEA0432019CEF
:1003E00043EA0603A4F10C040294009CCDE900B496
:1003F00000F0FDF803B0BDE8F08F00200146F9E7FA
:10040000C10F80EAE0700844CA079623002100F07B
:10041000B1B896230022114600F0ACB800F00042BB
:1004200020F00040C10DC0F3160040F400007F2909
:1004300001DA00207047962903DCC1F19601C8401B
:1004400001E096398840002AF4D04042704700F01D
:10045000004230F000400AD0C10D01F56071C0F3D8
:10046000160042EA0151C2084007114370470020BC
:100470000146704701F0004330B421F0004150EADA
:10048000010206D00A0DA2F56072C1F31301002A21
:1004900002DC30BC00207047440F44EAC104C100B4
:1004A000E01830BC00EBC25000F05BB8002801DB64
:1004B000C0F10040002901DBC1F1004181427047D9
:1004C000002801DBC0F10040002901DBC1F100413F
:1004D0008842704730B50B46014600202022012497
:1004E00009E021FA02F59D4205D303FA02F5491B02
:1004F00004FA02F52844151EA2F10102F1DC30BD18
:100500002DE9F05F0546002092469B468846064648
:10051000814640241BE0284641464746224600F0DB
:1005200032FA53465A46C01A914110D31146184622
:10053000224600F019FA2D1A67EB01084F462246B1
:100540000120002100F010FA17EB00094E41201E97
:10055000A4F10104DFDC484631462A464346BDE8A3
:10056000F09F0029A8BF7047401C490008BF20F039
:100570000100704710B4B0FA80FC00FA0CF050EAA9
:10058000010404BF10BC704749B1CCF1200421FA2A
:1005900004F411FA0CF118BF012121430843A3EB25
:1005A0000C01CB1D4FEA00614FEA102042BF002032
:1005B00010BC704700EBC35010440029A4BF10BC0E
:1005C0007047401C490008BF20F0010010BC704774
:1005D00010B5141E73F1000408DA401C41F100014B
:1005E00092185B411A4301D120F0010010BD2DE9A2
:1005F000F04D92469B4611B1B1FA81F202E0B0FA99
:1006000080F22032904600F0AFF904460F4640EAEF
:100610000A0041EA0B0153465A46084313D01146DB
:1006200053EA010019D0C8F14002504600F0ABF97E
:1006300005460E4650465946424600F095F9084395
:1006400005D0012004E020463946BDE8F08D0020A9
:10065000054346EAE0762C4337430A986305E40AEB
:10066000A0EB08000022FD0A44EA47540A3002D5F4
:1006700000200146E9E7010510196941DDE9084557
:1006800000196941BDE8F04DA2E72DE9FE4F804613
:1006900081EA0300C00F0C46009021F0004123F0D6
:1006A0000045B8EB0200A94105D2404621469046DC
:1006B0001C460B46024623F00040104347D0270D4E
:1006C000C7F30A00C3F30A510290401A0190402870
:1006D0006BDAC3F3130040F4801B0098924620B1FC
:1006E0000023D2EB030A63EB0B0B01985946C0F1D0
:1006F0004002504600F038F906460D46504659462D
:10070000019A00F050F910EB08006141002487EADB
:10071000115284EAE7731A4340D0009A62B3019AF7
:10072000012A4FEA075215DC001B61EB02014FF072
:10073000004202EA0752CDE90042001C41F5801157
:1007400032462B46FFF753FF03B0BDE8F08F40461B
:100750002146F9E7001B61EB0201001C41F5801303
:1007600000185B412018A2F5001747EB030140EA8F
:10077000D570B6196D4111E06D084FEA360645EAAD
:10078000C0754FEA0752001B61EB0201001C41F5E6
:10079000801149084FEA30000019514132462B467A
:1007A00003B0BDE8F04FFFF713BF009801224000EF
:1007B0000023D0EB020263EBE073009821464FEA7E
:1007C000E074B8EB000061EB0401E9E783F000435B
:1007D0005BE781F0004158E72DE9F04D81EA030421
:1007E00004F0004B21F0004514464FF0000A23F0BE
:1007F000004150EA050220D054EA01021DD0C5F3A1
:100800000A570246C5F31303C1F31300C1F30A5696
:1008100040F4801543F48013A7EB0608101BD6465E
:1008200008F2FD3873EB050002D308F1010801E07E
:1008300092185B41B8F1000F03DA00200146BDE8D1
:10084000F08D00204FF48011064684460EE0171B01
:1008500073EB050705D3121B63EB050306434CEA54
:10086000010C49084FEA300092185B4150EA010739
:10087000EDD152EA030012D082EA040083EA0501B6
:10088000084305D0101BAB4106D20122002306E02D
:1008900000224FF0004302E06FF0010253101AEB08
:1008A00006004CEB085110EB0A0041EB0B01BDE8D0
:1008B000F04DFFF78DBE70B521F0004303430CD01F
:1008C000C1F30A550024D5EB040564EB0403D617E5
:1008D000AD1AB34102DB0020014670BD201841EB88
:1008E000025170BDC1F30A52C1F3130140F2FF334C
:1008F00041F480119A4202DA00200146704740F22A
:1009000033439A42A2F2334202DC524200F03BB837
:1009100000F02AB830B5041E71F1000404DB4FF07A
:100920000044404264EB0101141E73F1000405DB36
:100930001C464FF00043524263EB0403994208BF48
:10094000904230BD064C074D06E0E06840F00103E0
:1009500094E8070098471034AC42F6D3FFF7ECFB5D
:10096000786E0008986E0008202A04DB203A00FA0E
:1009700002F1002070479140C2F1200320FA03F3F6
:10098000194390407047202A04DB203A21FA02F0F4
:100990000021704721FA02F3D040C2F120029140B9
:1009A000084319467047202A06DBCB17203A41FA44
:1009B00002F043EAE07306E041FA02F3D040C2F1EC
:1009C000200291400843194670472DE9F04D00235D
:1009D0001A461B1A8A4103DB00200146BDE8F08D50
:1009E000C1F30A52C1F3130141F480154FF0000B1B
:1009F000D10702D100186D41521E0027044640F273
:100A0000FF11384601EB620A3E468046024600204E
:100A10004FF48011FFF7B7FFC2197141BB1846EBC5
:100A20000100B4EB030C75EB000C04D3E41A65EB86
:100A3000000517460E46241908F101006D41804655
:100A40003428E3DDF91946EB0600091BA84103D25F
:100A50004FF0FF32134601E0002213461BEB070064
:100A600046EB0A51BDE8F04DFFF7B2BD70B58C18EA
:100A700010F8015B15F0070301D110F8013B2A11B2
:100A800006D110F8012B03E010F8016B01F8016B9F
:100A90005B1EF9D12B0705D40023521E0DD401F89B
:100AA000013BFAE710F8013BCB1A921C03E013F864
:100AB000015B01F8015B521EF9D5A142D8D3002099
:100AC00070BD000010B54FF4966000F0E4FF01F037
:100AD000B3FF02F0A1F9124804F038FC4FF47A7029
:100AE00000F0D9FF02F0F2F901F0FCFE02F0DEFBAB
:100AF00003F06EFB02F0F0F903F012FC00F0EEFFE1
:100B000002F040FB05F09EFF03F0A0FE4FF448709A
:100B100006F0F6F84FF4876005F07EFD10BD00008A
:100B20000000A04070B504463E4800683E49086099
:100B30003E488068486221463B4805F04DFF3A48F0
:100B4000806A3B4908603B49B1F90A00FFF758FC4D
:100B50000546394801682846FFF770FB344948626A
:100B60002146334805F038FF34490978494201EB02
:100B70008100FFF745FC05462D48816A2846FFF7AE
:100B800057FB2F4908602D490978494201EB810044
:100B9000FFF736FC05462648816A2846FFF7F6FA35
:100BA0002849086025490978494201EB8100FFF78F
:100BB00027FC05461E48816A2846FFF739FB224973
:100BC00008601E490978494201EB8100FFF718FCD3
:100BD00005461748816A2846FFF7D8FA1B4908607E
:100BE0001B480068164948621A480068154948625F
:100BF0001948006814494862184800681349486257
:100C000021460F4805F0E8FE21460E4805F0E4FEB7
:100C100021460D4805F0E0FE21460C4805F0DCFEBB
:100C200070BD00003000002020030020640400207C
:100C30005403002058040020806D00087400002038
:100C40005002002084020020B8020020EC020020A4
:100C50000C000020100000201400002018000020CC
:100C600000BFFEE710B50446012C46D16B48007862
:100C700038B9BB206A49087003F09CFA0120674923
:100C80000870002167480068FFF710FC0BD00021B6
:100C900065480068FFF70AFC05D06448007810B981
:100CA00012206349087063495E480068FFF708FC3A
:100CB00022D861495B480068FFF7F8FBF8D85F4924
:100CC00059480068FFF7FCFBF2D85D4956480068B8
:100CD000FFF7ECFBECD85548007800280CD1FF203A
:100CE0005349087001204E49087003F063FA01204F
:100CF000544908704D4908708FE0022C46D1524883
:100D0000007838B9BC204649087003F053FA012036
:100D10004D490870002143480068FFF7C7FB0BD01E
:100D2000002141480068FFF7C1FB05D04748007823
:100D300010B912203E4908703E493A480068FFF752
:100D4000BFFB6AD83C4937480068FFF7AFFB64D85F
:100D50003A4935480068FFF7B3FB5ED83849324856
:100D60000068FFF7A3FB58D838480078002854D112
:100D7000FF202F49087001202949087003F01AFA52
:100D80000120334908703149087046E0032C44D1F2
:100D90003048007838B9BD202149087003F00AFABC
:100DA00001202C49087000211E480068FFF77EFBD7
:100DB0000BD000211C480068FFF778FB05D02648BF
:100DC000007810B912201A4908701A4915480068AD
:100DD000FFF776FB21D8184912480068FFF766FB39
:100DE0001BD8164910480068FFF76AFB15D814494C
:100DF0000D480068FFF75AFB0FD81748007860B914
:100E0000FF200B49087001200549087003F0D2F952
:100E10000120124908701049087010BD8B00002095
:100E20001C000020280000202C0000208200002050
:100E300054000020008098430080A2430000344307
:100E400000004843850000208C0000208400002022
:100E5000860000208D0000208300002087000020F5
:100E600010B50446012C04D0022C3BD0032C38D101
:100E700071E040F29E7005F073FF02F027F85348CE
:100E800000F09EFD4FF4FA7000F005FE4FF416706E
:100E900005F036FF4FF4FA7000F0FDFD02F016F891
:100EA0004A4804F053FA40F61A1005F0B5FB40F238
:100EB000DC5000F0F0FD02F009F8454800F080FD3C
:100EC0004FF47A7000F0E7FD4FF4487005F018FF1A
:100ED00001F0FCFF3E4804F039FA4FF4876005F05A
:100EE0009BFB71E04FF4876005F03AFF01F0EEFFE5
:100EF000364800F065FD4FF4FA7000F0CCFD4FF479
:100F0000167005F0FDFE4FF4FA7000F0C4FD01F01C
:100F1000DDFF2E4804F01AFA40F6E80005F07CFBED
:100F200040F2DC5000F0B7FD01F0D0FF284800F09F
:100F300047FD4FF47A7000F0AEFD4FF4487005F0B5
:100F4000DFFE01F0C3FF224804F000FA4FF487608F
:100F500005F062FB38E040F2622005F001FF01F08D
:100F6000B5FF1A4800F02CFD4FF4FA7000F093FD25
:100F70004FF4167005F0C4FE4FF4FA7000F08BFDCC
:100F800001F0A4FF114804F0E1F940F62E1005F03D
:100F900043FB40F2DC5000F07EFD01F097FF0C486F
:100FA00000F00EFD4FF47A7000F075FD4FF44870BC
:100FB00005F0A6FE01F08AFF054804F0C7F94FF4DA
:100FC000876005F029FB00BF00BF10BD0000A040F6
:100FD000CDCCCC3F10B50446012C04D0022C4BD014
:100FE000032C48D191E040F29E7005F0B9FE01F06B
:100FF0006DFF4FF4FA7000F04EFD694800F0E0FC20
:101000004FF47A7000F047FD4FF4167005F078FE4B
:101010004FF47A7000F03FFD01F058FF604804F093
:1010200095F94FF47A7000F036FD40F61A1005F08D
:10103000F3FA4FF47A7000F02EFD01F047FF5948A3
:1010400000F0BEFC4FF47A7000F025FD4FF44870BC
:1010500005F056FE4FF47A7000F01DFD01F036FFEA
:10106000504804F073F94FF47A7000F014FD4FF417
:10107000876005F0D1FA91E04FF4876005F070FECB
:1010800001F024FF4FF4FA7000F005FD444800F031
:1010900097FC4FF47A7000F0FEFC4FF4167005F0E8
:1010A0002FFE4FF47A7000F0F6FC01F00FFF3C4881
:1010B00004F04CF94FF47A7000F0EDFC40F6E800D3
:1010C00005F0AAFA4FF47A7000F0E5FC01F0FEFE9C
:1010D000344800F075FC4FF47A7000F0DCFC4FF4FB
:1010E000487005F00DFE4FF47A7000F0D4FC01F06A
:1010F000EDFE2C4804F02AF94FF47A7000F0CBFC96
:101100004FF4876005F088FA48E040F2622005F06D
:1011100027FE01F0DBFE4FF4FA7000F0BCFC204823
:1011200000F04EFC4FF47A7000F0B5FC4FF41670EE
:1011300005F0E6FD4FF47A7000F0ADFC01F0C6FE5C
:10114000174804F003F94FF47A7000F0A4FC40F65D
:101150002E1005F061FA4FF47A7000F09CFC01F05B
:10116000B5FE104800F02CFC4FF47A7000F093FCB0
:101170004FF4487005F0C4FD4FF47A7000F08BFC1A
:1011800001F0A4FE074804F0E1F84FF47A7000F093
:1011900082FC4FF4876005F03FFA00BF00BF10BD2E
:1011A0009A9925413333F33F10B531480078032134
:1011B00090FBF1F201FB12002D49087008460078FF
:1011C000401C087008460078FFF704FF4FF47A705F
:1011D00000F061FC26480078012813D125490870E9
:1011E0000020254908702549087025488078244941
:1011F0004978884203DC11202249087002E00D2062
:10120000204908701A480078022814D101201B498F
:101210000870002017490870174908701848C078EE
:1012200017498978884203DC11201649087002E0CA
:101230000D20144908700E480078032816D10020AC
:101240000E4908700B4908700B4908700E48007869
:10125000012803D00C480078042807D1152009493B
:101260000870AD200649087002F0A4FF10BD000010
:10127000BD0000207C0000207B0000207D000020BD
:101280001C000020540000208E00002010B5FE48F5
:10129000007818B1FC48007803287DD1FB4800682D
:1012A000401CFA49086008460068E62813D3F8484D
:1012B000007880B9F748007818B91320F64908700B
:1012C00009E0F4480078012805D10D20F2490870A2
:1012D0000120EF490870ED48006840F26C718842C7
:1012E00011D3EE48007870B9FF20EB490870FC205C
:1012F000EB49087002F05EFFAD20E949087001205B
:10130000E64908700BE0E148006840F2D661884287
:1013100005D3E248007810B91720DF490870002192
:10132000E0480068FFF7C2F80ED00021DE480068F0
:10133000FFF7BCF808D0DD48007828B90F20D6495F
:1013400008700120D9490870D9480078CD280ED1FD
:10135000D14800780F280AD1FF20CF49087001201A
:10136000D4490870D4480078401CD3490870D34948
:10137000D3480068FEF70AFF0446D2488168204639
:10138000FFF794F81ED8C448007814281AD1CA4828
:101390000078012816D100E098E00621CA4805F03F
:1013A00005FB1720BC490870C6488068C44908601E
:1013B000C1480078401CC0490870AD20B849087089
:1013C00002F0F8FEBA480078AD281AD1B248007889
:1013D000172816D1B8480078022812D11420AE4937
:1013E00008700120B2490870AD49087002F0E2FEB1
:1013F0000020B0490870B0480078401CAE49087021
:101400006DE2AE49AE480068FEF7C0FE0446AD4846
:1014100081682046FFF74AF818D89F4800781428BA
:1014200014D1A5480078032810D10621A64805F05C
:10143000BDFA172098490870A2488068A049086042
:101440009D480078401C9C49087048E2924800780A
:101450001728D5D1984800780428D1D19B48006836
:10146000401C9A49086008460068B0F57A7F04D1AC
:10147000AD208B49087002F09DFE94480068B0F5DD
:101480007A7FBDD38A480078AD28B9D106218E482D
:1014900005F08CFA0D2080490870FB208049087007
:1014A00002F088FE00208449087089490860894953
:1014B00008707649086074480078401C72490870CA
:1014C0000020824908607C49087008E26E48007874
:1014D000012803D06C480078042870D16B4800685C
:1014E000401C6A49086008460068B0F5167F19D3A9
:1014F000694800780D2815D16F48007890B901200F
:101500006C490870FB206649087002F053FE1220F7
:101510006149087068480078401C674908700020DD
:101520006349087062480078CD2810D1624800787D
:1015300001280CD160480078401C5F4908700120E8
:101540005749087002F036FE01206249087062486F
:101550000078012808D15F480078012804D150495B
:10156000487802F055F810E05C480078012804D172
:101570004B49887802F04CF807E059480078012878
:1015800003D14749C87802F043F85648007801284B
:1015900020D151480078E8B950480078D0B9504877
:1015A0000078B8B95048007880B93D4840783C4947
:1015B000C978884204DC11203749087003E0BDE097
:1015C0000D20354908700120474908703449487892
:1015D000FFF748FB45480078012803D13049887857
:1015E000FFF740FB42480078012803D12C49C87816
:1015F000FFF738FB314932480068FEF719FE044610
:10160000304881682046FEF751FF1CD822480078F8
:10161000152818D128480078022814D126480078C7
:10162000401C254908700621274805F0BFF91720FE
:10163000194908702248006821490860AD201849FE
:10164000087002F0B7FD1A480078AD2875D112482D
:101650000078172803D010480078FF28F6D11648E4
:1016600000780328F2D111200B490870184800684F
:10167000401C1749086008460068B0F5C87F5CD375
:10168000FB200749087035E08E0000206000002034
:1016900064000020BE0000205400002057000020FD
:1016A0001C000020280000202C0000205C000020EE
:1016B000340000206C0000205600002000009642FC
:1016C00030000020640400209C000020580000200E
:1016D000680000207E0000207800002079000020B3
:1016E0007A0000207B0000208F0000207C0000207A
:1016F0007D00002002F05EFD122079490870012073
:101700007849087078480078401C774908700120B3
:101710007649087076490870002076490870764945
:1017200008707649087076490870764908707649DD
:1017300008707649086076490870D0E06A480078F9
:10174000022803D0684800780528F6D16748007859
:10175000012807D163480078012803D16D494878F2
:1017600001F056FF6C480078012803D16949887858
:1017700001F04EFF69480078012803D16549C87817
:1017800001F046FF664967480068FEF751FD0446D0
:10179000654881682046FEF793FE0ED850480078D1
:1017A00015280AD10621614805F000F917204C4997
:1017B00008705C4800685B4908605D480078AD28A7
:1017C0000DD147480078172803D045480078FF28F6
:1017D00005D111204249087000204C49086040485A
:1017E0000078112803D03E480078FF2851D1514895
:1017F0000068401C4F49086008460068B0F5FA7F51
:101800006DD33948007802280AD1FC20414908707C
:1018100002F0D0FC34480078401C3349087006E0E0
:1018200031480078052802D1EA204149087000209B
:1018300041490870414908704149087001202B490D
:1018400008702B49087000202A4908702A4908703E
:101850002A4908703B4908703B4908703B490870A9
:101860002A49086001203A4908700020244908707C
:1018700024490870244908703649087036490870B0
:10188000364908703649087036490870364908707C
:1018900025E027480078EA2821D11148007811284E
:1018A00003D00F480078FF2819D122480068401C57
:1018B000204908600846006840F2DC5188420ED397
:1018C00017200749087011480068401C0F4908603C
:1018D00008460068A02802D3FF200149087010BD07
:1018E00054000020920000208E000020780000208C
:1018F0007B00002088000020890000208A00002052
:101900007F0000208000002081000020680000206F
:10191000560000201C000020790000207A000020E2
:101920000000964230000020640400209C0000204B
:101930003400002060000020570000205C000020E0
:101940006C0000208B0000208C0000208D00002007
:101950007E00002082000020830000208400002000
:1019600075000020760000207700002010B5104997
:10197000886AFEF753FD04B2204601F021FB0D49B1
:10198000886AFEF74BFD04B2204601F05DFB0A4970
:10199000886AFEF743FD04B2204601F0F1FA0749D8
:1019A000886AFEF73BFD04B2204601F029FB10BD1A
:1019B0005002002084020020B8020020EC02002027
:1019C00038B5044655E02D4804602D48007818BB12
:1019D00010212C4800F092FA20212A4800F08CFABD
:1019E00001221146284803F076F8372001F0A8FCC0
:1019F0001C208DF8000001208DF8030002208DF8D6
:101A0000010001208DF80200684601F0A5FC0121CB
:101A10001D4802F0B1FF2CE019480078012828D1B8
:101A200000201A49086000220121174803F053F8EA
:101A3000372001F079FC1C208DF8000001208DF882
:101A4000030002208DF8010001208DF80200684695
:101A500001F082FC00210C4802F08EFF01210A48AF
:101A600002F087FF01200A4908700020044908702D
:101A700000BF074800780028A5D038BD0800002026
:101A800001000020000C0140001400400400002070
:101A900002000020704700B5034603E04FF47A705F
:101AA00000F005F8181EA3F10103F7D100BD00EB0B
:101AB000C001C9004FF0E022516100219161052170
:101AC000116100BF4FF0E021096901F48031002964
:101AD000F8D004214FF0E0221161704710B504F0F6
:101AE0003DFE05F097F804F0DBFD05F035F810BD7C
:101AF00070B504463C4800683C4908603C48806832
:101B000048622146394804F067FF3848806A3949FD
:101B100008603949B1F90A00FEF772FC05463748FA
:101B200001682846FEF78AFB32494862214631485F
:101B300004F052FF3249097801EB8100FEF760FCA6
:101B400005462C48816A2846FEF772FB2D4908603D
:101B50002B49097801EB8100FEF752FC0546254828
:101B6000816A2846FEF712FB274908602449097854
:101B700001EB8100FEF744FC05461E48816A2846B9
:101B8000FEF756FB214908601D49097801EB8100E9
:101B9000FEF736FC05461748816A2846FEF7F6FA36
:101BA0001B4908601B480068164948621A480068CB
:101BB0001549486219480068144948621848006885
:101BC0001349486221460F4804F006FF21460E489B
:101BD00004F002FF21460D4804F0FEFE21460C48A9
:101BE00004F0FAFE70BD0000300000202003002049
:101BF000640400205403002058040020806D000875
:101C0000740000205002002084020020B80200204E
:101C1000EC0200200C000020100000201400002026
:101C20001800002070B504463A4800683A49086038
:101C30003A48806848622146374804F0CDFE36486D
:101C4000806A374908603749B1F90A00FEF7D8FBC6
:101C50000546354801682846FEF7F0FA30494862E3
:101C600021462F4804F0B8FE304909784800FEF7B5
:101C7000C7FB05462A48816A2846FEF7D9FA2C494F
:101C800008602A4909784800FEF7BAFB054624484F
:101C9000816A2846FEF77AFA2649086023490978BE
:101CA0004800FEF7ADFB05461D48816A2846FEF751
:101CB000BFFA214908601D4909784800FEF7A0FBDA
:101CC00005461748816A2846FEF760FA1B490860F6
:101CD0001B480068164948621A480068154948625E
:101CE0001948006814494862184800681349486256
:101CF00021460F4804F070FE21460E4804F06CFEA9
:101D000021460D4804F068FE21460C4804F064FEAC
:101D100070BD00003000002020030020640400207B
:101D20005403002058040020806D00087400002037
:101D30005002002084020020B8020020EC020020A3
:101D40000C000020100000201400002018000020CB
:101D50002DE9F04102460025002600200023002442
:101D6000002791F803C00CF00F0591F803C00CF0A8
:101D7000100CBCF1000F03D091F802C04CEA05052D
:101D800091F800C0BCF1000F31D0146800202BE0A6
:101D90004FF0010C0CFA00F3B1F800C00CEA030696
:101DA0009E4220D183004FF00F0C0CFA03F7BC4386
:101DB00005FA03FC4CEA040491F803C0BCF1280FB7
:101DC00006D14FF0010C0CFA00FCC2F814C00AE076
:101DD00091F803C0BCF1480F05D14FF0010C0CFA8B
:101DE00000FCC2F810C0401C0828D1D31460B1F820
:101DF00000C0BCF1FF0F34DD546800202EE000F17C
:101E0000080C4FF0010808FA0CF3B1F800C00CEA16
:101E100003069E4221D183004FF00F0C0CFA03F70A
:101E2000BC4305FA03FC4CEA040491F803C0BCF17E
:101E3000280F05D100F1080C08FA0CF8C2F814803C
:101E400091F803C0BCF1480F07D100F1080C4FF026
:101E5000010808FA0CF8C2F81080401C0828CED3FC
:101E60005460BDE8F0810000F0B50A46002300246C
:101E70000021002500F00046B6F1004F02D11D4EB2
:101E8000F16901E01B4E7168C0F3034583B200F4B1
:101E90004016B6F5401F08D121F07061154E7668E6
:101EA00026F07066134F7E6012E000F48016B6F5DF
:101EB000801F06D1032606FA05F4A14341F07061A4
:101EC00006E0460D360103FA06F6B14341F07061B3
:101ED00022B1460D360103FA06F6314300F0004602
:101EE000B6F1004F02D1034EF16101E0014E716085
:101EF000F0BD000000000140416170470161704782
:101F000007B5A2B04FF07C512498FEF797F90F90D7
:101F1000FE4880680B90FD4800680A900B99FEF718
:101F20008DF90D90F948C0680B90F84840680A9008
:101F30000B99FEF783F90C900D99FEF779F94FF0A4
:101F400080410E90FEF77AF91E90F048C0680B9021
:101F5000EE4880680A900B99FEF770F90D90EB48F7
:101F600040680B90E94800680A900B99FEF766F903
:101F70000C900D99FEF70AF94FF080410E90FEF794
:101F80005DF91F90E14880680A90E04880680990F8
:101F90000A99FEF753F90C90DC4840680A90DB4838
:101FA000406809900A99FEF749F90B900C99FEF7E1
:101FB000EDF84FF080410D90FEF740F94FF07E5163
:101FC0000E90FEF738F92090D148B0F9040009903E
:101FD000FEF716FA0B90CE48B0F904000990FEF710
:101FE0000FFA0A900B99FEF729F90D90C848B0F93D
:101FF00002000790FEF704FA0990C548B0F9020004
:102000000790FEF7FDF908900999FEF717F90B9074
:10201000BF48B0F900000790FEF7F2F90990BC48FC
:10202000B0F900000790FEF7EBF908900999FEF768
:1020300005F90A900B99FEF7A9F80C900D99FEF797
:10204000A5F80E9001F096FDB24908602298B0F90B
:1020500000000D90FEF7D4F90E90AE4801680E987E
:10206000FEF7ECF81B902298B0F902000D90FEF7F5
:10207000C7F90E90A74801680E98FEF7DFF81C908C
:102080002298B0F904000D90FEF7BAF90E90A1481D
:1020900001680E98FEF7D2F81D901F980C901D98BD
:1020A0000B900C99FEF7CAF80E9020980C901C9893
:1020B0000B900C99FEF7C2F80D900E99FEF7B8F848
:1020C000159020980C901B980B900C99FEF7B6F881
:1020D0000E901E980C901D980B900C99FEF7AEF880
:1020E0000D900E99FEF7A4F816901E980C901C986F
:1020F0000B900C99FEF7A2F80E901F980C901B986D
:102100000B900C99FEF79AF80D900E99FEF790F847
:10211000179015980D90804801680D98FEF78EF87D
:102120000E907E48006801460D900E98FEF72EF83E
:102130007A49086016980D90774801680D98FEF767
:102140007DF80E907548406801460D900E98FEF798
:102150001DF87249486017980D906F4801680D98F6
:10216000FEF76CF80E906D48806801460D900E9851
:10217000FEF70CF869498860159801460B9068488D
:102180000068FEF75BF80D902298B0F906000A90FF
:10219000FEF736F963490B90FEF750F80C900D9955
:1021A000FDF7F4FF0E905D48006801460D900E9813
:1021B000FDF7ECFF1890169801460B905848006800
:1021C000FEF73CF80D902298B0F908000A90FEF74F
:1021D00017F954490B90FEF731F80C900D99FDF763
:1021E000D5FF0E904D48406801460D900E98FDF7C2
:1021F000CDFF1990179801460B9049480068FEF7EB
:102200001DF80D902298B0F90A000A90FEF7F8F830
:1022100044490B90FEF712F80C900D99FDF7B6FFAC
:102220000E903E48806801460D900E98FDF7AEFF77
:102230001A901A980B903548C0680A900B99FDF7D0
:10224000FDFF0D9019980990304880680890099911
:10225000FDF7F4FF0B902D48406880F00040099096
:102260001898014608900998FDF7E8FF0A900B9925
:10227000FDF7DEFF0C900D99FDF7DAFF0E900F9938
:10228000FDF7DCFF14901A980B90204880680A90A4
:102290000B99FDF7D3FF0D90199809901B48C06862
:1022A00008900999FDF7CAFF0B90189809901748F4
:1022B000006808900999FDF7C1FF0A900B99FDF796
:1022C000B7FF0C900D99FDF761FF0E900F99FDF788
:1022D000B5FF13901A980B900C4840680A900B9920
:1022E000FDF7ACFF0D901998099008480068089018
:1022F0000999FDF7A3FF0B90189809900348C0684F
:1023000008900999FDF79AFF0A900DE0CC00002093
:1023100058040020C8000020280100207C04002070
:10232000240100202E9E8B3A0B99FDF72FFF0C9075
:102330000D99FDF77DFF0E900F99FDF77FFF12902D
:102340001A980B90B34800680A900B99FDF776FF36
:102350000D9019980990AF48406808900999FDF7C9
:102360006DFF0B90AB48806880F000400990189892
:10237000014608900998FDF761FF0A900B99FDF757
:1023800005FF0C900D99FDF701FF0E900F99FDF7D9
:1023900055FF11909F4800680E901499FDF7F6FEC6
:1023A0009C490860084640680E901399FDF7EEFEC0
:1023B00098494860084680680E901299FDF7E6FE3D
:1023C000944988600846C0680E901199FDF7DEFEBA
:1023D0009049C8600846C0680B900846C0680A90DB
:1023E0000B99FDF72BFF0D908A488068099089486A
:1023F000806808900999FDF721FF0B908548406897
:1024000007908448406806900799FDF717FF0990E8
:102410008048006807907F48006806900799FDF79C
:102420000DFF08900999FDF7B1FE0A900B99FDF791
:10243000ADFE0C900D99FDF7A9FE0E9001F09AFBF0
:102440001090744800680E901099FDF7F7FE7149DE
:102450000860084640680E901099FDF7EFFE6D4940
:102460004860084680680E901099FDF7E7FE6949BC
:1024700088600846C0680E901099FDF7DFFE654938
:10248000C8602298B0F90A000C90FDF7B9FF6249C4
:102490000D90FDF7D3FE0E904FF07E510E98FEF793
:1024A0000FF804D35D490E98FEF700F80DD2249979
:1024B0000E98FDF7C3FE0D902398806801460C909E
:1024C0000D98FDF763FE23998860524840680146E5
:1024D00003904FF08040FDF7B1FE04904D48C06876
:1024E000014603900498FDF7A9FE0690494800684C
:1024F000014603904FF08040FDF7A0FE0490454850
:102500008068014603900498FDF798FE05900699AF
:10251000FDF78EFE0790FDF79AFFCDE9080103F065
:1025200073FD4FF000523E4BCDE90A01FDF7F6FE78
:10253000CDE90C01FDF79EFF23994860354880687E
:10254000014601904FF08040FDF778FE029031483F
:102550008068014601900298FDF770FE04902D48B6
:102560004068014600904FF08040FDF767FE019003
:1025700028484068014600900198FDF75FFE4FF043
:102580007E510290FDF757FE03900499FDF750FE2F
:102590000590FDF75CFFCDE908011E480068014683
:1025A00001904FF08040FDF749FE029019484068C5
:1025B000014601900298FDF741FE0490154880689D
:1025C000014601904FF08040FDF738FE029011481F
:1025D000C068014601900298FDF730FE039004990F
:1025E000FDF7D4FD0590FDF732FFCDE90601DDE9E9
:1025F000082303F051FF4FF00052094BCDE90A01C7
:10260000FDF78CFECDE90C01FDF734FF239908603E
:1026100025B000BDCC000020F6FF793D000080BF52
:10262000DCA54C4010B504F08BF80446FDF7E8FE3D
:102630000B49086004F0E0FA0446FDF7E1FE0949A1
:10264000086004F01FF80446FDF7DAFE064908604A
:1026500004F074FA0446FDF7D3FE0449086010BD87
:102660000C000020100000201400002018000020A2
:1026700000BFFEE700B54FF400600F49086000F0AE
:1026800023F94FF480600C49086000F01DF94FF405
:1026900000600949091F086000F016F900F014F9FC
:1026A00000F012F900F010F94FF4006002490860E0
:1026B00000F00AF900BD0000140C014000B54FF411
:1026C00000600F49086000F0FFF84FF480600C498B
:1026D000091F086000F0F8F84FF400600849091F6E
:1026E000086000F0F1F800F0EFF800F0EDF800F00D
:1026F000EBF84FF400600249086000F0E5F800BD17
:10270000140C014000B508220021D001154B1860BF
:102710001CE04806010E4FF40060124B1B1D1860B0
:1027200000F0D2F800F0D0F84FF400600D4B1860C4
:1027300000F0CAF800F0C8F800F0C6F809480838F8
:10274000006800F4806008B141F00101101EA2F1A0
:102750000103DAB2DDD14FF40060024B1B1D18609B
:10276000084600BD100C014000B50146082221E0DA
:102770004FF40060144B186000F0A6F801F08000E0
:1027800028B14FF48060104B1B1F186003E04FF41A
:1027900080600D4B18604806010E00F095F84FF46C
:1027A0000060094B1B1F186000F08EF800F08CF8D9
:1027B00000F08AF8101EA2F10103DAB2D8D14FF46A
:1027C0000060014B186000BD140C014000B54FF4CF
:1027D0008060154908604000086000F075F81248F4
:1027E0000838006808B9012000E0002000F480608B
:1027F00008B1012000BD4FF480600B49091D08603D
:1028000000F062F808480838006800F4806008B1F9
:102810000120EFE74FF400600349091D086000F054
:1028200053F80020E6E70000100C014000B54FF41B
:1028300000600D49086000F047F84FF480600A49D5
:10284000086000F041F800F03FF84FF400600649DE
:10285000091F086000F038F84FF480600249091F32
:10286000086000F031F800BD140C014000B54FF4D1
:1028700000601449086000F027F84FF480601149A7
:10288000091F086000F020F84FF400600D49091F8F
:10289000086000F019F800F017F800F015F8094882
:1028A0000C38006800F4806028B14FF400600549DE
:1028B0000860012000BD4FF400600249086000205C
:1028C000F8E70000140C014008B50220009004E075
:1028D0009DF80000401EC0B200909DF80000002846
:1028E000F6D108BD08B50121082001F07BF94FF4AD
:1028F0004060ADF8000003208DF8020014208DF830
:10290000030069460148FFF723FA08BD000C0140A7
:1029100070B504460D460026FFF758FF012800D188
:1029200070BD2046FFF720FFFFF7A0FF012803D16D
:10293000FFF77CFF0120F3E72846FFF715FFFFF7BD
:1029400095FFFFF773FFFFF741FF611CC8B2FFF768
:102950000BFFFFF78BFF012803D1FFF767FF012073
:10296000DEE7FFF7CFFE0646FFF7A8FEFFF75EFFA4
:1029700070B2D5E770B506460C461546FFF726FF40
:10298000012800D170BD3046FFF7EEFEFFF76EFF65
:10299000012803D1FFF74AFF0120F3E72046FFF7A4
:1029A000E3FEFFF763FF2846FFF7DEFEFFF75EFF5B
:1029B000FFF73CFF0020E5E72DE9F04106460F4612
:1029C00015461C46FFF702FF012801D1BDE8F08142
:1029D0003046FFF7C9FEFFF749FF012803D1FFF793
:1029E00025FF0120F2E73846FFF7BEFEFFF73EFF66
:1029F000FFF71CFFFFF7EAFE711CC8B2FFF7B4FE39
:102A0000FFF734FF012803D1FFF710FF0120DDE7B6
:102A10000CE0FFF777FE2870012C02D1FFF74EFE85
:102A200001E0FFF727FE6D1C601EC4B2002CF0D140
:102A3000FFF7FCFE0020C9E7244825490861254826
:102A400048610020C8604FF07E5008600020886018
:102A50001E48214908611F4848610020C8604FF0A6
:102A60007E5008600020886018481C490861194899
:102A700048610020C8604FF07E50086000208860E8
:102A8000124817490861134848610020C8604FF098
:102A90007E500860002088600C48124908610D488B
:102AA00048610020C8604FF07E50086000208860B8
:102AB00006480D490861074848610020C8604FF08A
:102AC0007E50086000208860704700006666663EA1
:102AD000380200209A99D93EC0010020D801002078
:102AE000F0010020080200202002002070B50446FA
:102AF0004F485049086050485049086000215048EC
:102B00000068FDF7D3FC05D000214E480068FDF7B2
:102B1000CDFC04D100204749086048490860484876
:102B20000068444948624748006844494862214671
:102B3000404803F051FF2146404803F04DFF424812
:102B400000684249086042488068486221463F4820
:102B500003F042FF3D48806A3E4908603E49B1F9B2
:102B60000A00FDF74DFC05463C4801682846FDF784
:102B700065FB384948622146364803F02DFF2F4A4D
:102B8000916A2C4A906AFDF701FB05462F48816A3D
:102B90002846FDF74DFB32490860284A916A254ACC
:102BA000906AFDF745FB05462848816A2846FDF7EF
:102BB000EDFA2C490860214A916A1E4A906AFDF795
:102BC00037FB05462148816A2846FDF731FB264937
:102BD00008601A4A916A174A906AFDF7D7FA0546C3
:102BE0001A48816A2846FDF7D1FA20490860204832
:102BF00000681B4948621F4800681A4948621E481D
:102C00000068194948621D48006818494862214611
:102C1000134803F0E1FE2146124803F0DDFE214691
:102C2000114803F0D9FE2146104803F0D5FE70BDCF
:102C300000809D438803002000006143BC03002006
:102C4000280000202C00002030000020200300205D
:102C5000640400205403002058040020806D000804
:102C60005002002084020020B8020020EC02002064
:102C70000C0000201000002014000020180000208C
:102C800070B504464F4850490860504850490860A4
:102C9000002150480068FDF709FC05D000214E488E
:102CA0000068FDF703FC04D100204749086048494B
:102CB00008604848006844494862474800684449F9
:102CC00048622146404803F087FE2146404803F011
:102CD00083FE424800684249086042488068486272
:102CE00021463F4803F078FE3D48806A3E4908602F
:102CF0003E49B1F90A00FDF783FB05463C480168EF
:102D00002846FDF79BFA384948622146364803F0C9
:102D100063FE2F4A916A2C4A906AFDF737FA0546FE
:102D20002F48816A2846FDF783FA32490860284A0D
:102D3000916A254A906AFDF77BFA05462848816A20
:102D40002846FDF723FA2C490860214A916A1E4A59
:102D5000906AFDF76DFA05462148816A2846FDF71D
:102D600067FA264908601A4A916A174A906AFDF77D
:102D70000DFA05461A48816A2846FDF707FA2049E8
:102D80000860204800681B4948621F4800681A49CB
:102D900048621E480068194948621D480068184981
:102DA00048622146134803F017FE2146124803F0FB
:102DB00013FE2146114803F00FFE2146104803F090
:102DC0000BFE70BD00809D43F003002000003E43D9
:102DD00024040020280000202C00002030000020C7
:102DE0002003002064040020540300205804002025
:102DF000806D00085002002084020020B8020020EC
:102E0000EC0200200C000020100000201400002024
:102E10001800002000BFFEE700B585B001210420A6
:102E200000F0E0FE0121082000F0DCFE10208DF80B
:102E3000130003208DF812001020ADF8100004A933
:102E40001F48FEF785FF2020ADF8100004A91C489C
:102E5000FEF77EFF4FF48050ADF8100004A919482A
:102E6000FEF776FF372000F06BFA0121202000F0FA
:102E7000A9FEC720ADF808002C20ADF8040001A978
:102E8000114801F0D3FF01210F4801F06FFD4FF40D
:102E9000A06000F099FA37208DF8000002208DF82C
:102EA000010000208DF8020001208DF80300684623
:102EB00000F052FA0121044801F05EFD05B000BDAA
:102EC000000C0140000801400014004000200149AE
:102ED000087070470200002008B50121042000F0AE
:102EE00081FE0121082000F07DFE0121102000F06C
:102EF00079FE0121084600F075FE01211D48FEF70C
:102F0000B3FF10208DF803000320ADF800008DF80A
:102F1000020069461848FEF71BFF10208DF80300D9
:102F20004FF44050ADF8000003208DF802006946D0
:102F30001248FEF70DFF10208DF803000C20ADF8AD
:102F4000000003208DF8020069460B48FEF700FFE1
:102F500010208DF803004FF44040ADF8000003202E
:102F60008DF8020069460548FEF7F2FE00F036FAD9
:102F700008BD00000002300000100140000C0140BC
:102F800010B50446002C0BDB08210C48FEF7B4FFFB
:102F900004210A48FEF7B2FFA0B200F095FA0BE058
:102FA00008210648FEF7AAFF04210448FEF7A4FF03
:102FB000614288B200F088FA10BD000000100140A4
:102FC00010B50446002C0BDB01210C48FEF794FFE2
:102FD00002210A48FEF792FFA0B200F06BFA0BE064
:102FE00001210648FEF78AFF02210448FEF784FF0C
:102FF000614288B200F05EFA10BD0000001001408E
:1030000010B50446002C0DDB4FF480410D48FEF74F
:1030100073FF4FF400410B48FEF770FFA0B200F0C1
:1030200067FA0DE04FF480410648FEF767FF4FF462
:1030300000410448FEF760FF614288B200F058FA90
:1030400010BD0000000C014010B50446002C0DDB43
:103050004FF400510D48FEF74FFF4FF480510B48DD
:10306000FEF74CFFA0B200F039FA0DE04FF400512A
:103070000648FEF743FF4FF480510448FEF73CFF3B
:10308000614288B200F02AFA10BD0000000C014035
:103090002DE9FE4F06236A463B21D020FFF78CFC2A
:1030A00006230DF106024321D020FFF785FC002402
:1030B00058E0012000EB44001DF800001DF814103A
:1030C00040EA0120294931F81410401A00B2284979
:1030D000096821F81400032C1BDA2549096831F925
:1030E0001400FDF78DF9054604EB4401214A02EB7B
:1030F000C100294603F09AFA04EB44011D4A02EB91
:10310000C1018868FDF78AF900B21949096821F8F8
:103110001400022C24DDE01EC5B2DFF85C801449E7
:10312000096831F91400FDF76BF982464146FDF755
:1031300085F80746114951F825001149FDF77EF839
:1031400081463946FDF722F80C4941F8250006462C
:10315000FDF764F900B20649096821F8140000BFC0
:10316000601CC4B2062CA4DBBDE8FE8F70040020F6
:10317000C4000020DC0000209A99193E8804002039
:103180009A99593FF0B58BB0182105A8FCF7F3FFC9
:103190001E25052677420020039004904048002118
:1031A0000160416081604FF400503D4988800022F9
:1031B00001213C4801F08FFC3BE000BF0A20FEF7F4
:1031C0006AFCFFF765FF002416E037480168E01C41
:1031D00031F8100003A931F81410401A00B201A907
:1031E00021F8140030480168E01C31F8100003A9F0
:1031F00021F81400601C04B2032CE6DBBDF90400C6
:103200000528DBDCBDF9040010F1050FD6DBBDF9A4
:1032100006000528D2DCBDF9060010F1050FCDDB54
:10322000BDF908000528C9DCBDF9080010F1050F3B
:10323000C4DB281EA5F10101CDB2BED1002417E0E8
:10324000FFF726FF642C11DB00200CE005A951F8E4
:103250002010154A126832F91020114405AA42F8CC
:103260002010411CC8B20628F0DB00BF601C04B26D
:10327000B4F5B27FE4DB002409E005A850F824008F
:10328000001200B2064921F81400601C04B2062C9A
:10329000F3DB01221146034801F01DFC0BB0F0BD29
:1032A0007004002000100040C400002010B500246D
:1032B00000BF80226B21D020FFF75CFBC4B21E2030
:1032C000FEF7E9FB02221921D020FFF753FB20442F
:1032D000C4B203226B21D020FFF74CFB2044C4B2C0
:1032E00003221A21D020FFF745FB2044C4B2182244
:1032F0001B21D020FFF73EFB2044C4B209221C2131
:10330000D020FFF737FB2044C4B2002CD1D1752167
:10331000D020FFF7FDFAC4B2682C01D0012010BD07
:103320000020FCE77047000000F01F0201219140DF
:10333000024A430942F823107047000080E100E090
:1033400000F01F02012191404209920002F1E022A7
:10335000C2F800117047000070B5002100230F2251
:10336000C47804B3154C246804F4E064C4F5E06444
:10337000210AC1F10403CA40447804FA03F18478B5
:103380001440214309010E4C0678A155047804F03D
:103390001F050124AC4005786D11AD0005F1E02555
:1033A000C5F8004109E0047804F01F050124AC4091
:1033B000044D0678761145F8264070BD0CED00E00E
:1033C00000E400E080E100E002490143024A1160AC
:1033D000704700000000FA050CED00E000B589B070
:1033E0000121480300F0FEFB0121102000F0FAFB50
:1033F00018208DF823004FF47070ADF820000320E2
:103400008DF8220008A92948FEF7A2FC284801F0FF
:103410006BFB0020ADF81A00ADF8160040F2E73063
:10342000ADF818000B20ADF8140000208DF81C003A
:1034300005A91F4801F0FAFC01A801F0B6FC6020C4
:10344000ADF804000020ADF80C000120ADF8060036
:103450000020ADF80A0001A9154801F04BFB01A9B5
:10346000134801F09DFB01A9114801F0F9FB01A9E6
:103470000F4801F04FFC08210D4801F087FB08219F
:103480000B4801F0DFFB0821094801F039FC082155
:10349000074801F07DFC0121054801F079FA01217E
:1034A000034801F069FA09B000BD000000100140B6
:1034B0000034014010B504462146024801F07FFC6B
:1034C00010BD00000034014010B5044621460248FA
:1034D00001F077FC10BD00000034014010B5044637
:1034E0002146024801F06FFC10BD0000003401408D
:1034F00010B504462146024801F067FC10BD0000EB
:10350000003401407047000010B53F4800780C2897
:1035100005D13E4800F0E0FBFEF728FA73E03A4898
:103520000078FF2802D100F0DFFF6CE03648007819
:103530000D2805D13548FEF7DBFAFEF717FA62E0F1
:10354000314800780E2805D1304801F061FDFEF7C2
:103550000DFA58E02C4800780F2805D12B48FFF7CA
:10356000C5FAFEF703FA4EE027480078102805D187
:10357000264801F0ADFCFEF7F9F944E02248007856
:10358000172805D1214801F0DDFDFEF7EFF93AE0FB
:103590001D480078112805D11C48FDF7C3FAFEF735
:1035A000E5F930E018480078122805D11748FFF7F0
:1035B00067FBFEF7DBF926E013480078132805D1F6
:1035C0001248FEF72FFBFEF7D1F91CE00E480078F9
:1035D000142805D10D4800F0F3FCFEF7C7F912E0FE
:1035E00009480078152805D1084800F0F1FBFEF7DE
:1035F000BDF908E004480078162804D1034800F01B
:1036000063FCFEF7B3F910BD540000200AD7A33BBA
:1036100010B50446012C50D17A48007838B9AE2054
:103620007949087000F0C6FD012076490870002134
:1036300076480068FCF73AFF11D000217448006812
:10364000FCF734FF0BD07348007840B9724800781B
:1036500028B97248007810B9122071490870714970
:103660006A480068FCF72CFF26D86F496748006855
:10367000FCF71CFFF8D86D4965480068FCF720FF8F
:10368000F2D86B4962480068FCF710FFECD861483B
:103690000078002810D1FF20614908705F48007849
:1036A0000028F7D101205849087000F083FD01205F
:1036B0005949087059490870A2E0022C50D15D4860
:1036C000007838B9AF205049087000F073FD012030
:1036D0005849087000214D480068FCF7E7FE11D0FA
:1036E00000214B480068FCF7E1FE0BD052480078FF
:1036F00040B95248007828B95148007810B91220D2
:1037000047490870474941480068FCF7D9FE77D817
:1037100045493E480068FCF7C9FE71D843493C481A
:103720000068FCF7CDFE6BD8414939480068FCF7CA
:10373000BDFE65D840480078002861D1FF20384997
:1037400008703F48007800285AD101202E4908709F
:1037500000F030FD012039490870394908704FE008
:10376000032C4DD13748007838B9BA202649087063
:1037700000F020FD01203349087000212348006833
:10378000FCF794FE11D0002121480068FCF78EFE62
:103790000BD02D48007840B92C48007828B92C4827
:1037A000007810B912201E4908701E491748006899
:1037B000FCF786FE24D81C4914480068FCF776FE06
:1037C0001ED81A4912480068FCF77AFE18D8184922
:1037D0000F480068FCF76AFE12D81B48007878B9D9
:1037E000FF200F4908701A48007848B9012006499F
:1037F000087000F0DFFC01201449087014490870BB
:1038000010BD0000880000201C00002028000020BF
:103810002C00002075000020700000207F00002098
:1038200054000020008098430080A24300003443ED
:10383000000048438900002077000020720000202B
:10384000810000208A000020760000207100002006
:103850008000002010B50446012C53D140F29E7028
:1038600003F07EFA40F61A1002F0D6FEFFF72EFBA8
:1038700040F2DC50FEF70FF97948FEF7A1F84FF45B
:103880007A70FEF708F94FF4167003F039FA4FF426
:103890007A70FEF700F9FFF719FB714801F056FD49
:1038A0004FF4876002F0B8FE4FF47A70FEF7F3F839
:1038B000FFF70CFB4FF47A70FEF7EDF869480078DB
:1038C000052803D16848FEF77BF802E06748FEF759
:1038D00077F84FF47A70FEF7DEF84FF4617003F07A
:1038E0000FFAFFF7F3FA5F480078052803D15E4826
:1038F00001F02CFD02E05D4801F028FD4FF47A70E4
:10390000FEF7C9F8022C53D14FF4876003F028FA70
:1039100040F6E80002F080FEFFF7D8FA4FF4FA70A4
:10392000FEF7B9F84E48FEF74BF84FF47A70FEF701
:10393000B2F84FF4167003F0E3F94FF47A70FEF723
:10394000AAF8FFF7C3FA464801F000FD4FF487607C
:1039500002F062FE4FF47A70FEF79DF8FFF7B6FAB8
:103960004FF47A70FEF797F83E480078052803D1A7
:103970003D48FEF725F802E03C48FEF721F84FF4F9
:103980007A70FEF788F84FF4167003F0B9F9FFF774
:103990009DFA34480078052803D1334801F0D6FC5D
:1039A00002E0324801F0D2FC4FF47A70FEF773F86F
:1039B000032C53D140F2622003F0D2F940F62E10CE
:1039C00002F02AFEFFF782FA4FF4FA70FEF763F86E
:1039D0002348FDF7F5FF4FF47A70FEF75CF84FF4DB
:1039E000167003F08DF94FF47A70FEF754F8FFF774
:1039F0006DFA1B4801F0AAFC4FF4876002F00CFE40
:103A00004FF47A70FEF747F8FFF760FA4FF47A70D8
:103A1000FEF741F813480078052803D11248FDF756
:103A2000CFFF02E01148FDF7CBFF4FF47A70FEF7AD
:103A300032F84FF4617003F063F9FFF747FA094871
:103A40000078052803D1084801F080FC02E007480F
:103A500001F07CFC4FF47A70FEF71DF810BD0000F9
:103A6000CDCCCC3F8E0000200000C0409A9925416B
:103A700010B538480078032190FBF1F201FB1200E9
:103A80003449087008460078401C087008460078E1
:103A9000FFF7E0FE4FF47A70FDF7FDFF2D48007848
:103AA000012819D106212C4802F080FF01202B4962
:103AB000087000202A4908702A4908702A4880782E
:103AC00029494978884203DC11202849087040E0E0
:103AD0000D20264908703CE01E480078022819D1C4
:103AE00006211D4802F062FF01201E4908700020D7
:103AF0001B490870194908701B48C0781A49897811
:103B0000884203DC11201949087022E00D20174972
:103B100008701EE00F48007803281AD106210E48CD
:103B200002F044FF00200F4908700D4908700B494E
:103B300008700F480078022803D00D480078052847
:103B400007D1152009490870AD200749087000F019
:103B500031FB10BDBC0000209C000020790000203B
:103B6000780000207A0000201C0000205400002073
:103B70008E0000202DE9F05F04464FF07F594FF092
:103B80007C512046FCF75AFB824625462E460C48BF
:103B9000A0EB6606354629465046FCF74FFB8346A8
:103BA0002946FCF74BFB80464946FCF744FB074699
:103BB0002946FCF743FB05462846BDE8F09F000078
:103BC000DF59375F29B1064AD2690243044BDA61F3
:103BD00004E0034AD2698243014BDA617047000076
:103BE0000010024029B1064A92690243044B9A61CF
:103BF00004E0034A92698243014B9A6170470000D6
:103C00000010024030B500210022002400232D4D79
:103C10006D6805F00C0121B1042905D0082923D1D4
:103C200005E0294D056022E0274D05601FE0254D88
:103C30006D6805F47012234D6D6805F4803402251B
:103C400005EB92421CB9214D554305600BE01D4D1B
:103C50006D6805F400351DB11C4D5543056002E04B
:103C6000194D5543056002E0174D056000BF00BFC8
:103C7000144D6D6805F0F0010909154D6B5C056880
:103C8000DD4045600F4D6D6805F4E061090A104D97
:103C90006B5C4568DD4085600A4D6D6805F46051D8
:103CA000C90A0B4D6B5C4568DD40C560054D6D680C
:103CB00005F44041890B074D6B5CC568B5FBF3F516
:103CC000056130BD0010024000127A0000093D007D
:103CD0003E0000204E00002070B504462F493048B9
:103CE0000068FCF753FA2F4908602F488068486243
:103CF00021462C4802F070FE2C480078FCF789FB26
:103D000005462848816A2846FCF792FA2849086047
:103D100026480078FCF77DFB05462248816A284644
:103D2000FCF734FA2349086020480078FCF771FB5F
:103D300005461C48816A2846FCF77AFA1E49086045
:103D40001A480078FCF765FB05461648816A284644
:103D5000FCF71CFA194908601948006814494862C0
:103D600018480068134948621748006812494862B9
:103D7000164800681149486221460D4802F02CFEA1
:103D800021460C4802F028FE21460B4802F024FE92
:103D900021460A4802F020FE70BD00000000964255
:103DA0003000002020030020640400207400002064
:103DB0005002002084020020B8020020EC02002003
:103DC0000C0000201000002014000020180000202B
:103DD00070B504462F4930480068FCF729FA2F498E
:103DE00008602F488068486221462C4802F0F4FDA4
:103DF0002C480078FCF70DFB05462848816A2846C8
:103E0000FCF716FA2849086026480078FCF701FB01
:103E100005462248816A2846FCF7B8F9234908601C
:103E200020480078FCF7F5FA05461C48816A2846C8
:103E3000FCF7FEF91E4908601A480078FCF7E9FA19
:103E400005461648816A2846FCF7A0F9194908601A
:103E500019480068144948621848006813494862C4
:103E600017480068124948621648006811494862BC
:103E700021460D4802F0B0FD21460C4802F0ACFD91
:103E800021460B4802F0A8FD21460A4802F0A4FD95
:103E900070BD00000000964230000020200300208A
:103EA00064040020740000205002002084020020DE
:103EB000B8020020EC0200200C00002010000020BE
:103EC000140000201800002070B504462F49304827
:103ED0000068FCF75BF92F4908602F48806848624A
:103EE00021462C4802F078FD2C480078FCF791FA26
:103EF00005462848816A2846FCF79AF9284908604F
:103F000026480078FCF785FA05462248816A28464B
:103F1000FCF73CF92349086020480078FCF779FA5F
:103F200005461C48816A2846FCF782F91E4908604C
:103F30001A480078FCF76DFA05461648816A28464B
:103F4000FCF724F9194908601948006814494862C7
:103F500018480068134948621748006812494862C7
:103F6000164800681149486221460D4802F034FDA8
:103F700021460C4802F030FD21460B4802F02CFD92
:103F800021460A4802F028FD70BD000000001643DB
:103F90003000002020030020640400207400002072
:103FA0005002002084020020B8020020EC02002011
:103FB0000C00002010000020140000201800002039
:103FC00070B504462F4930480068FCF7DFF82F49E8
:103FD00008602F488068486221462C4802F0FCFCAB
:103FE0002C480078FCF715FA05462848816A2846CF
:103FF000FCF71EF92849086026480078FCF709FA02
:1040000005462248816A2846FCF7C0F82349086023
:1040100020480078FCF7FDF905461C48816A2846CF
:10402000FCF706F91E4908601A480078FCF7F1F918
:1040300005461648816A2846FCF7A8F81949086021
:1040400019480068144948621848006813494862D2
:1040500017480068124948621648006811494862CA
:1040600021460D4802F0B8FC21460C4802F0B4FC91
:1040700021460B4802F0B0FC21460A4802F0ACFC95
:1040800070BD000000009642300000202003002098
:1040900064040020740000205002002084020020EC
:1040A000B8020020EC0200200C00002010000020CC
:1040B00014000020180000207047000000B587B0F1
:1040C0000121C804FFF77EFD01211020FFF78AFDC2
:1040D0004FF48060ADF8180018208DF81B00032005
:1040E0008DF81A0006A92248FDF732FE4FF4006051
:1040F000ADF8180048208DF81B0003208DF81A0039
:1041000006A91B48FDF724FE4FF41650029000202C
:10411000ADF814000C20ADF812000020ADF810002E
:10412000ADF80E00ADF80C0002A9124801F0F0F94C
:10413000012240F225510F4801F0C4F94FF4A0606C
:10414000FFF742F934208DF8040001208DF80700B4
:1041500000208DF8050001208DF8060001A8FFF76A
:10416000FBF80121034801F06AF907B000BD000027
:1041700000100140004C004070B505460E4600247A
:1041800004E0285D00F006F8601C84B2B442F8DB5D
:1041900070BD000010B504462146054801F029FA1B
:1041A00000BF8021024801F056F90028F9D010BD67
:1041B000004C004010B5FF20FFF7ECFF042103483E
:1041C000FFF7DAFFFE20FFF7E5FF10BD1C0000201F
:1041D00000B587B001210805FFF7F4FC012110208C
:1041E000FFF700FD01212020FFF7FCFC18208DF8CF
:1041F0001B000420ADF8180003208DF81A0006A952
:104200002148FDF7A5FD18208DF81B004FF48050C4
:10421000ADF8180003208DF81A0006A91B48FDF719
:1042200097FD4FF4614002900020ADF814000C207F
:10423000ADF812000020ADF81000ADF80E00ADF89A
:104240000C0002A9124801F063F9012240F2255145
:104250000F4801F037F94FF4A060FFF7B5F83520AB
:104260008DF8040001208DF8070000208DF805006E
:104270008DF8060001A8FFF76FF80121044801F04E
:10428000DEF807B000BD000000140140001001403E
:104290000050004010B504462146054801F0A9F938
:1042A00000BF8021024801F0D6F80028F9D010BDE7
:1042B0000050004070B50446002504E0605DFFF743
:1042C000E9FF681CC5B2605D0028F7D170BD10B56C
:1042D000002403E0FF20FFF7DDFF641C032CF9DB63
:1042E00010BD0000F8B504460D4616466421084886
:1042F000FBF741FF2B46224606A10548009601F038
:104300007FF90348FFF7D6FFFFF7E1FFF8BD000094
:104310003001002025732E25733D222564220000E4
:1043200000B589B00121C802FFF75CFC012104201F
:10433000FFF758FC18208DF823004FF46060ADF8AB
:10434000200003208DF8220008A92B48FDF700FD6E
:104350002A4800F0C9FB0020ADF81A00ADF816009D
:1043600044F61F60ADF818004720ADF81400002097
:104370008DF81C0005A9214800F058FD01A800F0A7
:1043800014FD4FF48070ADF810006020ADF804000B
:104390000020ADF80C000120ADF806004FF461706C
:1043A000ADF80A0001A9154800F0FAFB40F29E7032
:1043B000ADF80A0001A9114800F052FC4FF48760E3
:1043C000ADF80A0001A90D4800F0A4FC01210B483A
:1043D00000F0DEFA0821094800F034FC0821074803
:1043E00000F08EFC0821054800F0D2FC01210348B2
:1043F00000F0C2FA09B000BD00080140002C0140E5
:1044000010B500F001F810BD0CB50020019000902F
:104410003348006840F480303149086000BF3048BC
:10442000006800F4003000900198401C0190009852
:1044300018B90198B0F5A06FF1D12948006800F4CF
:10444000003010B10120009001E0002000900098A1
:10445000012843D12348006840F01000214908603A
:104460000846006820F0030008600846006840F035
:10447000020008601A4840681949486008464068C8
:1044800048600846406840F48060486008464068DC
:1044900020F47C1048600846406840F4E81048600A
:1044A0000846006840F08070086000BF0C48006853
:1044B00000F000700028F9D00948406820F003009F
:1044C000074948600846406840F00200486000BF65
:1044D0000348406800F00C000828F9D10CBD00002A
:1044E000001002400020024010B50020FEF768FDD9
:1044F0000020FEF7A9FD0020FEF742FD0020FEF798
:104500007FFD10BD7047000010B51348006840F0F3
:1045100001001149086008464068104908400E49EA
:104520004860084600680E4908400B490860084684
:10453000006820F4802008600846406820F4FE00EF
:1045400048604FF41F008860FFF75AFF4FF000608B
:104550000449086010BD0000001002400000FFF890
:10456000FFFFF6FE08ED00E0F0B50C461546002210
:104570000021068C4FF6FE773E400684028B018CAC
:104580004FF60C7632407E1C06EA03162E43324369
:10459000104EB0420ED0104EB0420BD0B0F1804F52
:1045A00008D00E4EB04205D00D4EB04202D00D4E96
:1045B000B04206D14FF6FD76314044F0010631435A
:1045C00005E04FF6F576314044F0010631430283B1
:1045D0000184F0BD002C0140003401400004004083
:1045E00000080040000C0040F0B50C4615460022C3
:1045F00000210026078C4FF6EF7C07EA0C070784A2
:10460000028B018C4FF6FF7707EA041640F6FF474E
:104610003A404FF6FF7707EA03373A434FF6FF7702
:1046200007EA05273A43114FB8420ED0104FB8425F
:104630000BD0B0F1804F08D00E4FB84205D00E4FCE
:10464000B84202D00D4FB84206D14FF6DF7739405D
:1046500046F01007394305E04FF65F77394044F0E4
:104660001007394302830184F0BD0000002C014093
:10467000003401400004004000080040000C0040ED
:10468000F0B50C461546002200210026078C4FF697
:10469000FF6C07EA0C070784828B018C4FF6FF77CB
:1046A00007EA04264FF60C773A404FF6FF7707EA01
:1046B00003172F433A43114FB8420ED0104FB84260
:1046C0000BD0B0F1804F08D00E4FB84205D00E4F3E
:1046D000B84202D00D4FB84206D14FF6FF573940CD
:1046E00046F48077394305E04FF2FF57394044F4F0
:1046F0008077394382830184F0BD0000002C0140A3
:10470000003401400004004000080040000C00405C
:10471000F0B50C461546002200210026078C4EF607
:10472000FF7C07EA0C070784828B018C4FF6FF772A
:1047300007EA043640F6FF473A404FF6FF7707EAAC
:1047400005273A434FF6FF7707EA03373A43114FFD
:10475000B8420ED0104FB8420BD0B0F1804F08D005
:104760000E4FB84205D00E4FB84202D00D4FB8429E
:1047700006D14DF6FF77394046F48057394305E0BE
:1047800047F6FF57394044F4805739438283018408
:10479000F0BD0000002C0140003401400004004046
:1047A00000080040000C004010B50121214800F035
:1047B00022F900283CD020480078401C1E4908708F
:1047C0001E480078401C1D4908701B4800780521D0
:1047D00090FBF1F201FB12001749087017480078AE
:1047E0004FF47A7190FBF1F201FB1200134908704B
:1047F0001148007830B9FEF74BFC114A11491248B4
:10480000FDF77EFB0C480078012801D1FDF70AFF77
:1048100009480078022801D1FCF738FD06480078E5
:10482000032801D1FEF770FE0121024800F0A1F833
:1048300010BD000000100040BF000020C00000209C
:104840000AD7A33B64040020580400201FB50121AF
:104850001020FFF7B7F941F61F40ADF8040009201A
:10486000ADF808000020ADF8060001A9144800F0DA
:10487000DDFA01221146124800F02DF901211048FD
:1048800000F07AF8362000F01F0201219140420921
:10489000920002F1E022C2F8001100BF8DF8000082
:1048A00001208DF801008DF802008DF803006846A4
:1048B000FEF752FD0121024800F05EF81FBD000026
:1048C0000010004010B50121214800F094F80128A3
:1048D0003CD12048007801280FD101031E48FDF784
:1048E0000DFB00201B4908704FF07E511B480068EB
:1048F000FBF74CFC1949086012E01648007878B9BB
:104900004FF480511448FDF7F7FA0120114908705F
:104910004FF07E5111480068FBF738FC0F490860E2
:104920000F4910480068FBF789FC04460B480168F2
:104930002046FBF7BBFD05D8002008490860012090
:10494000094908700121024800F013F810BD000069
:104950000014004000000020000801400400002076
:1049600000C0C7440800002001000020CA430282A2
:104970007047CA430282704721B1028842F00102A7
:10498000028004E002884FF6FE731A4002807047EE
:1049900031B1B0F8442042F40042A0F8442005E0D0
:1049A000B0F84420C2F30E02A0F844207047F0B5DE
:1049B0000C4615461E460021002200230189028B69
:1049C000038C4FF6F877394021434FF6FC473A40C5
:1049D00040F201173A434FF6DD773B404FF6FF7741
:1049E00007EA06172F433B43018102830384F0BD8E
:1049F0000146888C704730B5024600200023002411
:104A0000158A05EA0103958905EA010413B10CB181
:104A1000012000E0002030BD70B505460C4624485A
:104A200085420ED0234885420BD0B5F1804F08D087
:104A30002148854205D02148854202D02048854240
:104A400000D100E000BF208850B92389A288618886
:104A50002846FFF789FDE188284600F0BBF925E0EC
:104A6000208804280AD12389A28861882846FFF774
:104A7000BBFDE188284600F0B6F917E02088082839
:104A80000AD12389A28861882846FFF7F9FDE188C9
:104A9000284600F0B5F909E02389A28861882846F4
:104AA000FFF736FEE188284600F0B3F970BD00003C
:104AB000002C014000340140000400400008004088
:104AC000000C0040002101804180012181800021F3
:104AD000C180018170471AB183890B43838102E051
:104AE00083898B438381704701894FF6F8721140A7
:104AF0000181704770B5002400220023058C4FF619
:104B0000FE7635400584028C8388048B4FF68F75C2
:104B10002C40B51E2C400D882C43751E2A400D8953
:104B20002A434D882A43144DA8420BD0134DA84266
:104B300008D0134DA84205D0124DA84202D0124D04
:104B4000A84213D14FF6F7752A404D892A434FF6F4
:104B5000FB752A408D882A434FF6FF652B404FF6A0
:104B6000FF552B408D892B43CD892B4383800483B4
:104B7000CD888586028470BD002C01400034014040
:104B80000040014000440140004801400A46002125
:104B9000018B4FF6F77319401143018370470000F2
:104BA00070B5002400220023058C4FF6EF763540C7
:104BB0000584028C8388048B48F6FF752C404FF6E1
:104BC000FF452C400D884FF6FF7606EA05252C435D
:104BD0004FF6DF752A400D8906EA05152A434D88F0
:104BE00006EA05152A43154DA84202D0144DA842E5
:104BF0001DD14FF67F752A404D894FF6FF7606EAA4
:104C000005152A434FF6BF752A408D8806EA05151B
:104C10002A434FF6FF352B404FF2FF752B408D890D
:104C200006EA85052B43CD8906EA85052B4383805B
:104C30000483CD880587028470BD0000002C0140EC
:104C4000003401400A460021018B4FF2FF731940E6
:104C50004FF6FF7303EA02231943018370470000F4
:104C600070B5002400220023058C4FF6FF66354006
:104C70000584028C8388848B4FF68F752C404FF609
:104C8000FC752C400D882C434FF6FF552A400D89AA
:104C90004FF6FF7606EA05252A434D8806EA0525E4
:104CA0002A43154DA84202D0144DA8421DD14FF2FF
:104CB000FF752A404D894FF6FF7606EA05252A43FF
:104CC0004FF6FF352A408D8806EA05252A434EF621
:104CD000FF752B404DF6FF752B408D8906EA0515B3
:104CE0002B43CD8906EA05152B4383808483CD8829
:104CF0008587028470BD0000002C01400034014013
:104D00000A460021818B4FF6F773194011438183C6
:104D10007047000070B5002200230024058C4EF679
:104D2000FF7635400584038C8488828B48F6FF75B6
:104D30002A404FF6FF452A400D884FF6FF7606EAD7
:104D400005252A434DF6FF752B400D8906EA0535EA
:104D50002B434D8806EA05352B430B4DA84202D064
:104D60000A4DA84208D14BF6FF752C408D894FF6AD
:104D7000FF7606EA85152C4384808283CD88A0F8CF
:104D80004050038470BD0000002C014000340140FD
:104D90000A460021818B4FF2FF7319404FF6FF73D3
:104DA00003EA022319438183704700210180418077
:104DB0008180C180018141818181C181704781866B
:104DC00070470187704781877047A0F8401070478F
:104DD00081847047028B4FF6F3731A400283028B73
:104DE0000A4302837047028B4FF2FF331A4002835B
:104DF000028B4FF6FF7303EA01231A4302837047C5
:104E0000828B4FF6F3731A408283828B0A4382832C
:104E10007047828B4FF2FF331A408283828B4FF6AA
:104E2000FF7303EA01231A4382837047002202883A
:104E30001D4B98420ED01D4B98420BD0B0F1804FC5
:104E400008D01B4B984205D01A4B984202D01A4BFF
:104E5000984204D14FF68F731A404B881A43174B70
:104E6000984207D0164B984204D04FF6FF431A40A1
:104E7000CB881A4302808B8883850B8803850A4B75
:104E800098420BD0094B984208D00E4B984205D05F
:104E90000D4B984202D00D4B984201D10B7A0386FC
:104EA0000123838270470000002C01400034014040
:104EB0000004004000080040000C004000100040CA
:104EC00000140040004001400044014000480140FF
:104ED00070B5044600203F4908603F4988683F4953
:104EE0000968FBF7A5F93B4948622146394801F0BA
:104EF00073FD3848806A3A4908603A49B1F90A00B6
:104F0000FBF77EFA0546384801682846FBF796F914
:104F1000334948622146324801F05EFD3349097841
:104F2000494201EB8100FBF76BFA05462C48816A88
:104F30002846FBF77DF92E4908602C49097801EBDA
:104F40008100FBF75DFA05462548816A2846FBF794
:104F50001DF9284908602549097801EB8100FBF714
:104F60004FFA05461E48816A2846FBF761F9224937
:104F700008601E490978494201EB8100FBF740FABD
:104F800005461748816A2846FBF700F91B49086067
:104F90001B480068164948621A480068154948626B
:104FA0001948006814494862184800681349486263
:104FB00021460F4801F010FD21460E4801F00CFD7E
:104FC00021460D4801F008FD21460C4801F004FD82
:104FD00070BD000020030020640400203000002089
:104FE0005403002058040020806D00087400002045
:104FF0005002002084020020B8020020EC020020B1
:105000000C000020100000201400002018000020D8
:1050100070B504463C4800683C4908603C488068DC
:1050200048622146394801F0D7FC3848806A39493E
:1050300008603949B1F90A00FBF7E2F9054637483B
:1050400001682846FBF7FAF83249486221463148A0
:1050500001F0C2FC32490978C1EBC100FBF7D0F97D
:1050600005462C48816A2846FBF7E2F82D4908607E
:105070002B490978A1EBC100FBF7C2F90546254889
:10508000816A2846FBF782F8274908602449097895
:10509000A1EBC100FBF7B4F905461E48816A28461A
:1050A000FBF7C6F8214908601D490978C1EBC1002A
:1050B000FBF7A6F905461748816A2846FBF766F80C
:1050C0001B4908601B480068164948621A48006876
:1050D0001549486219480068144948621848006830
:1050E0001349486221460F4801F076FC21460E48DC
:1050F00001F072FC21460D4801F06EFC21460C487F
:1051000001F06AFC70BD0000300000202003002088
:10511000640400205403002058040020806D00081F
:10512000740000205002002084020020B8020020F9
:10513000EC0200200C0000201000002014000020D1
:105140001800002070B5044600203F4908603F4920
:1051500088683F490968FBF76BF83B49486221467C
:10516000394801F039FC3848806A3A4908603A49C0
:10517000B1F90A00FBF744F90546384801682846AA
:10518000FBF75CF8334948622146324801F024FCC1
:105190003349097801EB8100FBF732F905462D48C8
:1051A000816A2846FBF744F82E4908602C490978A3
:1051B000494201EB8100FBF723F905462548816A46
:1051C0002846FAF7E3FF284908602549097849424B
:1051D00001EB8100FBF714F905461E48816A284659
:1051E000FBF726F8214908601D49097801EB810089
:1051F000FBF706F905461748816A2846FAF7C6FF05
:105200001B4908601B480068164948621A48006834
:1052100015494862194800681449486218480068EE
:105220001349486221460F4801F0D6FB21460E483B
:1052300001F0D2FB21460D4801F0CEFB21460C487F
:1052400001F0CAFB70BD00002003002064040020B0
:10525000300000205403002058040020806D000816
:10526000740000205002002084020020B8020020B8
:10527000EC0200200C000020100000201400002090
:105280001800002010B540F22551274800F0F0F832
:10529000012847D1244800F0A7F9C4B22348007878
:1052A00040B9FF2C38D10120204908700020204946
:1052B000087031E01D48007801282DD1FE2C13D054
:1052C0001C48007840B91A4801780078401C184AF8
:1052D00010701948445407E0154801780078401CC4
:1052E000134A107015484454FE2C15D100200F4964
:1052F00008701249897801EB4100FBF781F81049E9
:1053000008600E49C9784800FBF77AF80D49086033
:105310000A4800790C49087040F22551024800F013
:105320007FF800BF10BD0000004C00403C00002092
:105330003D000020BE0000209E01002094010020BE
:10534000280000202C0000203400002038B504463E
:1053500055E02D4804602D48007818BB10212C48DA
:10536000FCF7CCFD20212A48FCF7C8FD012211469C
:105370002848FFF7B0FB3720FDF7E2FF1C208DF82F
:10538000000001208DF8030002208DF801000120AB
:105390008DF802006846FDF7DFFF01211D48FFF789
:1053A000EBFA2CE019480078012828D100201A498E
:1053B0000860002201211748FFF78DFB3720FDF719
:1053C000B3FF1C208DF8000001208DF8030002209F
:1053D0008DF8010001208DF802006846FDF7BCFF42
:1053E00000210C48FFF7C8FA01210A48FFF7C1FA6B
:1053F00001200A49087000200449087000BF0748CE
:1054000000780028A5D038BD080000200100002049
:10541000000C0140001400400400002002000020A5
:1054200010B50022002340F66A14A14200D100BF4B
:105430000A1201249440A3B2DC43048010BD21B1C0
:10544000828942F40052828104E082894DF6FF7322
:105450001A408281704702460020B1F5007F00D1DA
:1054600000BF13880B400BB1012000E00020704703
:1054700070B50246002400230025002040F66A167D
:10548000B14200D100BFC1F3421501F01F03012654
:1054900006FA03F3012D02D19689334006E0022D6E
:1054A00002D1168A334001E0968A33400C1201265D
:1054B00006FA04F41688344013B10CB1012000E060
:1054C000002070BDF0B50346002400260025002012
:1054D00040F66A17B94200D100BF1846C1F3421422
:1054E00001F01F06012707FA06F5012C01D10C3047
:1054F00004E0022C01D1103000E014301AB107682A
:105500002F43076002E00768AF430760F0BD00006B
:105510002DE9F04786B005460E460024A24600BF9E
:10552000A1460027B08900B100BF2F462C8A4CF657
:10553000FF700440F08804432C82AC894EF6F310CF
:105540000440B08831890843718908430443AC8121
:10555000AC8A4FF6FF400440B0890443AC8201A8F6
:10556000FEF750FB1F48874202D1DDF810A001E092
:10557000DDF80CA0A88900F4004040B10AEBCA0095
:1055800000EB0A1031684900B0FBF1F807E00AEBC4
:10559000CA0000EB0A1031688900B0FBF1F8642002
:1055A000B8FBF0F004012009642101FB1089A889EF
:1055B00000F4004040B1322000EBC900B0FBF1F034
:1055C00000F00700044308E0322000EB09106421DA
:1055D000B0FBF1F000F00F0004432C8106B0BDE8F1
:1055E000F08700000038014001468888C0F30800B9
:1055F0007047C1F308028280704700BFFEE70000D9
:105600000FB4084B10B504A902AA039800F060F982
:10561000044602A9002000F0F2FC204610BC5DF810
:1056200014FB0000FF5F0008490050EAC12018BFCA
:1056300004204A0D18BF40F0010040F2FF72B2EBA7
:10564000515F08BF40F00200012808BF05207047E5
:105650002DE9F0414F1E00EBC7010446D1E90001DE
:1056600015461E4637F006020DD02A463346FAF795
:1056700055FE7F1E04EBC703D3E90023FBF705F8B3
:1056800037F00602F1D1022F25D0042F13D0062FB8
:1056900018BFBDE8F0812A463346FAF73FFED4E949
:1056A0000A23FAF7F2FF2A463346FAF737FED4E91F
:1056B0000823FAF7EAFF2A463346FAF72FFED4E921
:1056C0000623FAF7E2FF2A463346FAF727FED4E923
:1056D0000423FAF7DAFF2A463346FAF71FFED4E925
:1056E0000223FAF7D2FF2A463346FAF717FED4E927
:1056F0000023BDE8F041FAF7C8BF0122FBF7DBB891
:10570000FAF7C3BF0022134610461146FBF764B8F0
:10571000024A00201107FBF7CEB8000001FDFFFF91
:1057200002E008C8121F08C1002AFAD1704770476A
:10573000002001E001C1121F002AFBD170470000C8
:1057400001490860704700002C0100202DE9FF5F2F
:1057500082B00021DDE90430020DDDF840B00343E2
:1057600018D044F61050A2F2FF324243151411989B
:1057700001281FD0A5EB0B00401C5FEA000A4FF088
:1057800000064E4FDFF83891B046504615D5CAF1A5
:10579000000413E0119801244AA3012801D16FEA03
:1057A0000B010298119AC0E90031C0E9024206B02B
:1057B000BDE8F09FCBF10000DFE704460021404A3E
:1057C000491842EB0450CDE9001012E0E00707D081
:1057D00032463B4640464946FAF7A0FD8046894698
:1057E00032463B4610461946FAF798FD06460F46E4
:1057F0006410002CEAD1DDE90401DDE90023BAF1EF
:10580000000F06DAFAF78AFD42464B46FAF786FDA4
:1058100005E0FAF7E1FF42464B46FAF7DDFF0446A2
:105820000E460022284BFBF775F803D84FF0FF30E7
:10583000014607E00022254B20463146FAF725FFB6
:10584000FBF750F8102409E0002C0ADB0A220023A1
:10585000FAF756FE039B30321A55641E50EA0102D5
:10586000F2D1641C039AC4F111031444119A012A61
:1058700003D0012208430DD10AE0084304D00020E0
:105880004FF0110B119072E7A3EB0B056D1E0DE0AD
:105890005B4504DD4FF0000205F1010504E003DA89
:1058A0004FF00002A5F10105002AECD002981199F1
:1058B000C0E90231C0E9004579E70000000014406A
:1058C0000000F03F300000000000F0430000E03F27
:1058D0002DE9FF4F95B09B468946064600250FE20D
:1058E000252877D100242746F84A0121059400E0B5
:1058F000044316F8013F203B01FA03F01042F7D1B0
:1059000030782A2811D06FF02F033078A0F13002C0
:10591000092A16D8059A44F0020402EB820203EB2E
:1059200042021044761C0590EFE759F8042B0592CB
:10593000002A03DA504244F40054059044F0020473
:10594000761C30782E2816D116F8010F44F0040486
:105950002A280DD06FF02F023078A0F13003092BE8
:1059600009D807EB870302EB4303C718761CF3E75C
:1059700059F8047B761C30786C280FD006DC4C2854
:1059800017D068280DD06A2814D104E0742810D0EC
:105990007A280FD10DE044F400140AE044F4801496
:1059A00001E044F440147278824202D104F580147C
:1059B000761C761C307866280BD013DC582877D0FC
:1059C00009DC002875D04528F6D04628F4D04728B1
:1059D0001AD19DE118E0632835D0642879D0652874
:1059E00012D195E1702873D008DC6728F1D06928BE
:1059F0006FD06E280DD06F2806D1B5E073282CD05B
:105A0000752875D0782874D05A46179990476D1C20
:105A100075E1C4F30250022809D003280DD0D9F84B
:105A2000001004280DD00D6009F1040967E1D9F8D0
:105A30000010EA17C1E90052F6E7D9F800100D800E
:105A4000F2E70D70F0E719F8041B8DF80010002044
:105A50008DF80100EA46012003E059F804AB4FF04D
:105A6000FF3061074FF0000102D40DE008F10101A1
:105A70008846B9420FDA8045F8DB1AF80810002989
:105A8000F4D108E008F1010188468142FADB1AF8F6
:105A900008100029F6D105985B46A0EB08072146BF
:105AA0003846179A00F094FA284400EB080507E0FE
:105AB0004DE029E10DE01AF8010B5A46179990477D
:105AC000B8F10108F7D25B4621463846179A13E130
:105AD00042E00A220092C4F302524FF0000A022A66
