S315080000009008002045010008213300086D260008E5
S31508000010112E0008410D00084B550008000000008D
S31508000020000000000000000000000000ED3F00088E
S31508000030991A000800000000013500083944000834
S315080000405F0100085F0100085F0100085F01000802
S315080000505F0100085F0100085F0100085F010008F2
S315080000605F0100085F0100085F0100085F010008E2
S315080000705F0100085F0100085F0100085F010008D2
S315080000805F0100085F0100085F0100085F010008C2
S315080000905F0100085F0100085F0100085F010008B2
S315080000A05F0100085F0100085F0100085F010008A2
S315080000B05F0100085F0100085F0100085F01000892
S315080000C05F0100085F0100085F0100085F01000882
S315080000D05F0100085F0100085F0100085F01000872
S315080000E05F0100085F0100085F0100085F01000862
S315080000F05F0100085F0100085F0100085F01000852
S315080001005F0100085F0100085F0100085F01000841
S31508000110D55100085F010008DD46000815480008AB
S315080001205F0100085F0100085F0100085F01000821
S31508000130DFF80CD000F006FC004800474D670008C1
S31508000140900800200648804706480047FEE7FEE775
S31508000150FEE7FEE7FEE7FEE7FEE7FEE7FEE7FEE769
S315080001603D44000831010008D2B201E000F8012B35
S31508000170491EFBD270470022F6E710B513460A4619
S3150800018004461946FFF7F0FF204610BDF0B480EA92
S315080001900102D40F4200B2EB410F02D202460846D2
S315080001A011464A0042D0C30DDDB2C1F3C752AD1A9B
S315080001B0202D35DAC1F3160141F4000204B152428A
S315080001C0C5F1200602FA06F12A411044B3EBD05FC6
S315080001D023D0C4B1012DA0EBC35009DCF0BC4FF00D
S315080001E0004202EAC352DBB200F5000000F0C2B9D1
S315080001F0400000F1807000EBC350A0F1807040EA27
S31508000200D170490009E0490841EAC071A0EBC35022
S3150800021000F50000400800EBC350F0BC00F0A1B99F
S315080002206142012202EB4101001BF6E7F0BC704770
S3150800023081F00041AAE780F00040A7E780EA0102C2
S3150800024010B502F00043400022D04A001FD0010E2C
S3150800025001EB1261C0F35600C2F3560240F40000E7
S3150800026042F40002A0FB022000047F39140400D0E7
S31508000270401C50EA124001D44000491EC2B20C0686
S3150800028004EBD010401C4008802A02D003E000206E
S3150800029010BD20F00100002900DA0020184310BD27
S315080002A030B480EA010202F0004530F0004221F045
S315080002B0004013D090B1C30DD40DC2F31601C0F39C
S315080002C01600E41A41F4000140F400027D3491421C
S315080002D001D3641C00E04900002C02DA30BC00207F
S315080002E070474FF400000023914201D3891A034353
S315080002F040084FEA4101F7D151B1914202D14FF07E
S31508000300004105E002D24FF0010101E06FF0010162
S3150800031003EBC450284430BC00F023B92DE9FE4F46
S3150800032081EA030404F0004421F0004100944FF0F0
S31508000330000B23F0004350EA01045ED052EA03049E
S315080003405BD0C3F30A54C1F30A552C44A4F2F33420
S315080003500194A0FB0254C1F3130141F48011C3F3C5
S31508000360130343F4801301FB024400FB034E840A83
S31508000370970A44EA815447EA8357A4FB076802951B
S315080003808D0A05FB07854FEA932C04FB0C542705B9
S31508000390029D4FEA065847EA1637B5EB08056EEB95
S315080003A0070C870E920E47EA811742EA8312A7FBCB
S315080003B00201B6EB0B0164EB00042B0D43EA0C3388
S315080003C05E1844EB1C50DA465146E7FB0201C5F3BA
S315080003D013044FEA0B3343EA14534FEA0432019CE1
S315080003E043EA0603A4F10C040294009CCDE900B488
S315080003F000F0FDF803B0BDE8F08F00200146F9E7EC
S31508000400C10F80EAE0700844CA079623002100F06D
S31508000410B1B896230022114600F0ACB800F00042AD
S3150800042020F00040C10DC0F3160040F400007F29FB
S3150800043001DA00207047962903DCC1F19601C8400D
S3150800044001E096398840002AF4D04042704700F00F
S31508000450004230F000400AD0C10D01F56071C0F3CA
S31508000460160042EA0151C2084007114370470020AE
S315080004700146704701F0004330B421F0004150EACC
S31508000480010206D00A0DA2F56072C1F31301002A13
S3150800049002DC30BC00207047440F44EAC104C100A6
S315080004A0E01830BC00EBC25000F05BB8002801DB56
S315080004B0C0F10040002901DBC1F1004181427047CB
S315080004C0002801DBC0F10040002901DBC1F1004131
S315080004D08842704730B50B46014600202022012489
S315080004E009E021FA02F59D4205D303FA02F5491BF4
S315080004F004FA02F52844151EA2F10102F1DC30BD0A
S315080005002DE9F05F0546002092469B46884606463A
S31508000510814640241BE0284641464746224600F0CD
S3150800052032FA53465A46C01A914110D31146184614
S31508000530224600F019FA2D1A67EB01084F462246A3
S315080005400120002100F010FA17EB00094E41201E89
S31508000550A4F10104DFDC484631462A464346BDE895
S31508000560F09F0029A8BF7047401C490008BF20F02B
S315080005700100704710B4B0FA80FC00FA0CF050EA9B
S31508000580010404BF10BC704749B1CCF1200421FA1C
S3150800059004F411FA0CF118BF012121430843A3EB17
S315080005A00C01CB1D4FEA00614FEA102042BF002024
S315080005B010BC704700EBC35010440029A4BF10BC00
S315080005C07047401C490008BF20F0010010BC704766
S315080005D010B5141E73F1000408DA401C41F100013D
S315080005E092185B411A4301D120F0010010BD2DE994
S315080005F0F04D92469B4611B1B1FA81F202E0B0FA8B
S3150800060080F22032904600F0AFF904460F4640EAE1
S315080006100A0041EA0B0153465A46084313D01146CD
S3150800062053EA010019D0C8F14002504600F0ABF970
S3150800063005460E4650465946424600F095F9084387
S3150800064005D0012004E020463946BDE8F08D00209B
S31508000650054346EAE0762C4337430A986305E40ADD
S31508000660A0EB08000022FD0A44EA47540A3002D5E6
S3150800067000200146E9E7010510196941DDE9084549
S3150800068000196941BDE8F04DA2E72DE9FE4F804605
S3150800069081EA0300C00F0C46009021F0004123F0C8
S315080006A00045B8EB0200A94105D2404621469046CE
S315080006B01C460B46024623F00040104347D0270D40
S315080006C0C7F30A00C3F30A510290401A0190402862
S315080006D06BDAC3F3130040F4801B0098924620B1EE
S315080006E00023D2EB030A63EB0B0B01985946C0F1C2
S315080006F04002504600F038F906460D46504659461F
S31508000700019A00F050F910EB08006141002487EACD
S31508000710115284EAE7731A4340D0009A62B3019AE9
S31508000720012A4FEA075215DC001B61EB02014FF064
S31508000730004202EA0752CDE90042001C41F5801149
S3150800074032462B46FFF753FF03B0BDE8F08F40460D
S315080007502146F9E7001B61EB0201001C41F58013F5
S3150800076000185B412018A2F5001747EB030140EA81
S31508000770D570B6196D4111E06D084FEA360645EA9F
S31508000780C0754FEA0752001B61EB0201001C41F5D8
S31508000790801149084FEA30000019514132462B466C
S315080007A003B0BDE8F04FFFF713BF009801224000E1
S315080007B00023D0EB020263EBE073009821464FEA70
S315080007C0E074B8EB000061EB0401E9E783F000434D
S315080007D05BE781F0004158E72DE9F04D81EA030413
S315080007E004F0004B21F0004514464FF0000A23F0B0
S315080007F0004150EA050220D054EA01021DD0C5F393
S315080008000A570246C5F31303C1F31300C1F30A5688
S3150800081040F4801543F48013A7EB0608101BD64650
S3150800082008F2FD3873EB050002D308F1010801E070
S3150800083092185B41B8F1000F03DA00200146BDE8C3
S31508000840F08D00204FF48011064684460EE0171BF3
S3150800085073EB050705D3121B63EB050306434CEA46
S31508000860010C49084FEA300092185B4150EA01072B
S31508000870EDD152EA030012D082EA040083EA0501A8
S31508000880084305D0101BAB4106D20122002306E01F
S3150800089000224FF0004302E06FF0010253101AEBFA
S315080008A006004CEB085110EB0A0041EB0B01BDE8C2
S315080008B0F04DFFF78DBE70B521F0004303430CD011
S315080008C0C1F30A550024D5EB040564EB0403D617D7
S315080008D0AD1AB34102DB0020014670BD201841EB7A
S315080008E0025170BDC1F30A52C1F3130140F2FF333E
S315080008F041F480119A4202DA00200146704740F21C
S3150800090033439A42A2F2334202DC524200F03BB829
S3150800091000F02AB830B5041E71F1000404DB4FF06C
S315080009200044404264EB0101141E73F1000405DB28
S315080009301C464FF00043524263EB0403994208BF3A
S31508000940904230BD064C074D06E0E06840F00103D2
S3150800095094E8070098471034AC42F6D3FFF7ECFB4F
S31508000960E06D0008006E0008202A04DB203A00FA31
S3150800097002F1002070479140C2F1200320FA03F3E8
S31508000980194390407047202A04DB203A21FA02F0E6
S315080009900021704721FA02F3D040C2F120029140AB
S315080009A0084319467047202A06DBCB17203A41FA36
S315080009B002F043EAE07306E041FA02F3D040C2F1DE
S315080009C0200291400843194670472DE9F04D00234F
S315080009D01A461B1A8A4103DB00200146BDE8F08D42
S315080009E0C1F30A52C1F3130141F480154FF0000B0D
S315080009F0D10702D100186D41521E0027044640F265
S31508000A00FF11384601EB620A3E4680460246002040
S31508000A104FF48011FFF7B7FFC2197141BB1846EBB7
S31508000A200100B4EB030C75EB000C04D3E41A65EB78
S31508000A30000517460E46241908F101006D41804647
S31508000A403428E3DDF91946EB0600091BA84103D251
S31508000A504FF0FF32134601E0002213461BEB070056
S31508000A6046EB0A51BDE8F04DFFF7B2BD10B54FF49D
S31508000A70966001F012F801F0DDFF02F0CBF9134899
S31508000A8004F00CFC4FF47A7001F007F802F01CFA37
S31508000A9001F026FF02F008FC03F0AAFA03F032FB85
S31508000AA002F018FA03F0D6FB01F01AF802F068FB18
S31508000AB005F07AFF03F072FE4FF4617006F0D4F881
S31508000AC04FF4876005F050FD10BD00009A99C940A3
S31508000AD070B504463E4800683E4908603E4880684E
S31508000AE0486221463B4805F029FF3A48806A3B4957
S31508000AF008603B49B1F90A00FFF782FC0546394808
S31508000B0001682846FFF79AFB34494862214633486C
S31508000B1005F014FF34490978494201EB8100FFF7D3
S31508000B206FFC05462D48816A2846FFF781FB2F4949
S31508000B3008602D490978494201EB8100FFF760FCFE
S31508000B4005462648816A2846FFF720FB284908609B
S31508000B5025490978494201EB8100FFF751FC054612
S31508000B601E48816A2846FFF763FB224908601E492A
S31508000B700978494201EB8100FFF742FC0546174810
S31508000B80816A2846FFF702FB1B4908601B48006874
S31508000B90164948621A4800681549486219480068A3
S31508000BA014494862184800681349486221460F48A4
S31508000BB005F0C4FE21460E4805F0C0FE21460D4844
S31508000BC005F0BCFE21460C4805F0B8FE70BD0000D5
S31508000BD030000020180300205C0400204C0300208D
S31508000BE050040020E86C000870000020480200202D
S31508000BF07C020020B0020020E40200200C00002045
S31508000C0010000020140000201800002070B50446CB
S31508000C103C4800683C4908603C4880684862214670
S31508000C20394805F08BFE3848806A394908603949E1
S31508000C30B1F90A00FFF7E4FB05463748016828467C
S31508000C40FFF7FCFA324948622146314805F076FE3C
S31508000C503249097849004842FFF7D2FB05462C4835
S31508000C60816A2846FFF7E4FA2D4908602B49097876
S31508000C7049004842FFF7C4FB05462548816A2846CD
S31508000C80FFF784FA27490860244909784900484249
S31508000C90FFF7B6FB05461E48816A2846FFF7C8FADD
S31508000CA0214908601D49097849004842FFF7A8FB11
S31508000CB005461748816A2846FFF768FA1B490860FF
S31508000CC01B480068164948621A4800681549486270
S31508000CD01948006814494862184800681349486268
S31508000CE021460F4805F02AFE21460E4805F026FE45
S31508000CF021460D4805F022FE21460C4805F01EFE49
S31508000D0070BD000030000020180300205C0400209D
S31508000D104C03002050040020E86C000870000020F6
S31508000D20480200207C020020B0020020E4020020D5
S31508000D300C000020100000201400002018000020DD
S31508000D4000BFFEE710B50446012C2FD149480078AC
S31508000D5038B9BB204849087003F0C6F9012045494F
S31508000D600870002145480068FFF7A0FB0BD000215A
S31508000D7043480068FFF79AFB05D04248007810B947
S31508000D8012204149087041480078BB2870D13D4877
S31508000D90007800286CD1FF203B49087001203B49A8
S31508000DA008703B4908703749087061E0022C2FD15A
S31508000DB03848007838B9BC202F49087003F094F9F0
S31508000DC001203449087000212C480068FFF76EFBA3
S31508000DD00BD000212A480068FFF768FB05D02E488B
S31508000DE0007810B912202849087028480078BC28CD
S31508000DF03ED12948007800283AD1FF2022490870B8
S31508000E0001202249087025490870234908702FE0F7
S31508000E10032C2DD12248007838B9BD201649087010
S31508000E2003F062F901201E49087000211348006882
S31508000E30FFF73CFB0BD0002111480068FFF736FB93
S31508000E4005D01848007810B912200F4908700F48C5
S31508000E500078BD280CD11348007848B9FF200A4904
S31508000E6008700120094908700F4908700D49087073
S31508000E7010BD0000860000201C000020280000206D
S31508000E802C0000207D0000205400002034000020A3
S31508000E9080000020870000207F00002081000020BD
S31508000EA0880000207E0000208200002010B504463D
S31508000EB0012C04D0022C4DD0032C4AD195E040F2E7
S31508000EC09E7005F001FF01F0FFFF6E4800F07AFD05
S31508000ED04FF4FA7000F0E1FD40F2262005F0C4FE5A
S31508000EE04FF47A7000F0D9FD01F0EEFF664804F081
S31508000EF0D5F940F61A1005F037FB4FF4FA7000F0F2
S31508000F00CCFD01F0E1FF614800F05CFD4FF4FA709A
S31508000F1000F0C3FD4FF4487005F0A6FE01F0D4FFBB
S31508000F204FF4FA7000F0B9FD584804F0B7F94FF4D9
S31508000F30FA7000F0B2FD4FF4876005F015FB01F07A
S31508000F40C3FF4FF0804000F03DFD4FF4FA7000F00B
S31508000F50A4FD95E040F24C4005F0B6FE01F0B4FF62
S31508000F60484800F02FFD4FF4FA7000F096FD40F265
S31508000F70262005F079FE4FF47A7000F08EFD01F018
S31508000F80A3FF414804F08AF940F6E80005F0ECFAB8
S31508000F904FF4FA7000F081FD01F096FF3B4800F02F
S31508000FA011FD4FF4FA7000F078FD4FF4487005F023
S31508000FB05BFE01F089FF4FF4FA7000F06EFD3348CE
S31508000FC004F06CF94FF4FA7000F067FD4FF487608F
S31508000FD005F0CAFA01F078FF4FF0804000F0F2FC05
S31508000FE04FF4FA7000F059FD4AE040F2762005F019
S31508000FF06BFE01F069FF234800F0E4FC4FF4FA7039
S3150800100000F04BFD40F2262005F02EFE4FF47A70D4
S3150800101000F043FD01F058FF1B4804F03FF940F685
S315080010202E1005F0A1FA4FF4FA7000F036FD01F023
S315080010304BFF164800F0C6FC4FF4FA7000F02DFD81
S315080010404FF4487005F010FE01F03EFF4FF4FA70B9
S3150800105000F023FD0D4804F021F94FF4FA7000F072
S315080010601CFD4FF4876005F07FFA01F02DFF4FF065
S315080010707E5004F013F94FF4FA7000F00EFD00BF2D
S3150800108000BF10BD333353409A99A940CDCC8C3F4D
S3150800109010B50446012C04D0022C3FD0032C3CD1B9
S315080010A079E040F29E7005F00FFE01F00DFF5948F9
S315080010B000F088FC4FF47A7000F0EFFC40F226202E
S315080010C005F0D2FD4FF47A7000F0E7FC01F0FCFE63
S315080010D0504804F0E3F84FF47A7000F0DEFC40F66E
S315080010E01A1005F041FA01F0EFFE4B4800F06AFCD1
S315080010F040F2DC5000F0D1FC4FF4487005F0B4FD26
S3150800110001F0E2FE444804F0C9F84FF4FA7000F022
S31508001110C4FC4FF4876005F027FA79E040F24C40AA
S3150800112005F0D2FD01F0D0FE3A4800F04BFC4FF432
S315080011307A7000F0B2FC40F2262005F095FD4FF4D7
S315080011407A7000F0AAFC01F0BFFE324804F0A6F857
S315080011504FF47A7000F0A1FC40F6E80005F004FAB6
S3150800116001F0B2FE2C4800F02DFC40F2DC5000F0F5
S3150800117094FC4FF4487005F077FD01F0A5FE26486B
S3150800118004F08CF84FF4FA7000F087FC4FF487608F
S3150800119005F0EAF93CE040F2762005F095FD01F00D
S315080011A093FE1C4800F00EFC4FF47A7000F075FCB4
S315080011B040F2262005F058FD4FF47A7000F06DFCD9
S315080011C001F082FE134804F069F84FF47A7000F0D3
S315080011D064FC40F62E1005F0C7F901F075FE0E48BE
S315080011E000F0F0FB40F2DC5000F057FC4FF448707A
S315080011F005F03AFD01F068FE074804F04FF84FF491
S31508001200FA7000F04AFC4FF4876005F0ADF900BFAC
S3150800121000BF10BD9A9925413333F33F10B53148C5
S315080012200078032190FBF1F201FB12002D490870AA
S3150800123008460078401C087008460078FFF728FF23
S315080012404FF47A7000F029FC26480078012813D15B
S315080012502549087000202549087025490870254841
S31508001260807824494978884203DC18202249087086
S3150800127002E01320204908701A480078022814D181
S3150800128001201B4908700020174908701749087083
S315080012901848C07817498978884203DC1820164907
S315080012A0087002E01320144908700E4800780328D5
S315080012B016D100200E4908700B4908700B490870B2
S315080012C00E480078012803D00C480078042807D176
S315080012D0152009490870AD200649087002F004FF78
S315080012E010BD0000B500002078000020770000201F
S315080012F0790000201C0000205400002089000020EE
S3150800130010B5FE48007818B1FC48007803287DD14E
S31508001310FB480068401CFA49086008460068E62849
S3150800132008D3F848007828B90D20F7490870012035
S31508001330F4490870F2480068B0F5AF6F11D3F34866
S31508001340007870B9FF20F0490870FC20F049087051
S3150800135002F0CAFEAD20EE4908700120EB4908707C
S315080013600BE0E748006840F21451884205D3E74885
S31508001370007810B91720E44908700021E54800688C
S31508001380FFF794F80ED00021E3480068FFF78EF8BF
S3150800139008D0E248007828B90F20DB4908700120F8
S315080013A0DE490870DE480078CD280ED1D648007888
S315080013B00F280AD1FF20D44908700120D94908709E
S315080013C0D9480078401CD8490870D849D8480068D8
S315080013D0FEF7DCFE0446D74881682046FFF766F824
S315080013E01ED8C948007814281AD1CF480078012891
S315080013F016D10621D04805F08BFA1720C249087085
S31508001400CC488068CA490860C74800E083E000788D
S31508001410401CC5490870AD20BD49087002F064FE3D
S31508001420BF480078AD281AD1B7480078172816D1D2
S31508001430BD480078022812D11420B349087001204B
S31508001440B7490870B249087002F04EFE0020B54947
S315080014500870B5480078401CB34908704DE2B34996
S31508001460B3480068FEF792FE0446B24881682046F3
S31508001470FFF71CF818D8A4480078142814D1AA48ED
S315080014800078032810D10621AB4805F041FA172049
S315080014909D490870A7488068A5490860A248007851
S315080014A0401CA149087028E2974800781728D5D12A
S315080014B09D4800780428D1D1A0480068401C9F495F
S315080014C0086008460068B0F57A7F04D1AD209049D7
S315080014D0087002F009FE99480068B0F57A7FBDD316
S315080014E08F480078AD28B9D10621934805F010FA3F
S315080014F00D208549087000208B49087090490860BE
S315080015007F4908607D480078401C7C4908700020A7
S315080015108A490860F1E179480078012803D07748BC
S31508001520007804287ED176480068401C7449086013
S315080015300846006840F28A2188420ED3724800782D
S315080015400D280AD17848007838B912206E490870F3
S3150800155075480078401C744908707A480078012854
S3150800156004D16B49487802F05BF810E076480078B9
S31508001570012804D16649887802F052F807E07348D2
S315080015800078012803D16249C87802F049F8704802
S31508001590007801281FD16B480078E0B96A480078BE
S315080015A0C8B96A480078B0B96A48007878B958481E
S315080015B040785749C978884203DC11205249087097
S315080015C002E00D2050490870012062490870504910
S315080015D04878FFF7B7FB60480078012803D14C49E3
S315080015E08878FFF7AFFB5D480078012803D14849A2
S315080015F0C878FFF7A7FB4D494D480068FEF718FE67
S3150800160004464C4881682046FEF750FF1ED83E48DF
S31508001610007815281AD144480078012816D142487E
S31508001620007800E053E0401C3F4908700621424814
S3150800163005F06EF91720344908703D4800683C49A2
S315080016400860AD203249087002F04EFD3448007833
S31508001650AD283BD12C480078172803D02A480078B3
S31508001660FF28F6D1304800780228F2D11120264901
S31508001670087033480068401C31490860084600680D
S31508001680B0F5C87F22D3FB202149087002F02CFD53
S3150800169012201D49087019480078401C174908701F
S315080016A00120284908702A49087000202C4908702A
S315080016B02C4908702C4908702C4908702C49087068
S315080016C02C4908701E4908601749087015E10B482F
S315080016D00078022803D0094800780528F6D1194869
S315080016E00078012803D10A49487801F099FF16487D
S315080016F00078012842D1064988783DE08900002013
S315080017005C000020600000205400002062000020D9
S315080017101C000020280000202C000020610000206A
S315080017203400002068000020550000200000964282
S31508001730300000205C04002094000020580000209F
S315080017406400002074000020750000207600002048
S31508001750770000208A000020780000207900002009
S315080017608300002084000020850000207A000020E5
S315080017707B0000207C00002001F052FF5F480078C3
S31508001780012803D15E49C87801F04AFF5D495E48E1
S315080017900068FEF74DFD04465C4881682046FEF762
S315080017A08FFE16D85A480078152812D1594800785D
S315080017B078B90621584805F0ABF81720544908703F
S315080017C0514800685049086052480078401C514901
S315080017D0087052480078AD2816D14D480078172869
S315080017E003D04B480078FF280ED14A4800780128D4
S315080017F00AD1112046490870002049490860454821
S315080018000078401C4349087041480078112803D0E5
S315080018103F480078FF284AD13E480078022846D13A
S3150800182040480068401C3F49086008460068B0F513
S31508001830FA7F62D33C48007802280AD1FC20304956
S31508001840087002F051FC38480078401C3649087088
S3150800185006E035480078052802D1EA202F490870A5
S315080018600120324908703249087000203149087051
S315080018703149087031490870314908703149087092
S31508001880314908702649086030490870304908709F
S315080018903049087030490870304908703049087076
S315080018A030490870304908703049087025E01B48EF
S315080018B00078EA2821D116480078112803D0144860
S315080018C00078FF2819D117480068401C1549086098
S315080018D00846006840F2DC5188420ED317200C49AE
S315080018E008700F480068401C0D49086008460068E3
S315080018F0E62802D3FF200649087010BD76000020AE
S315080019001C00002000009642300000205C040020E5
S3150800191054000020550000209400002034000020C8
S31508001920640000205C00002089000020740000206C
S315080019307700002083000020840000208500002016
S315080019408600002087000020880000207A000020FA
S315080019507B0000207C0000207D0000207E00002007
S315080019607F00002071000020720000207300002014
S3150800197010B51049886AFEF751FD04B2204601F0F9
S315080019801DFB0D49886AFEF749FD04B2204601F0A1
S3150800199059FB0A49886AFEF741FD04B2204601F060
S315080019A0EDFA0749886AFEF739FD04B2204601F0C8
S315080019B025FB10BD480200207C020020B002002052
S315080019C0E402002038B5044655E02D4804602D4849
S315080019D0007818BB10212C4800F08EFA20212A48DE
S315080019E000F088FA01221146284803F01CF837202F
S315080019F001F0A4FC1C208DF8000001208DF80300DE
S31508001A0002208DF8010001208DF80200684601F0D9
S31508001A10A1FC01211D4802F057FF2CE01948007867
S31508001A20012828D100201A490860002201211748F8
S31508001A3002F0F9FF372001F075FC1C208DF8000034
S31508001A4001208DF8030002208DF8010001208DF891
S31508001A500200684601F07EFC00210C4802F034FFC3
S31508001A6001210A4802F02DFF01200A4908700020CA
S31508001A700449087000BF074800780028A5D038BD7B
S31508001A800800002001000020000C0140001400405E
S31508001A900400002002000020704700B5034603E05A
S31508001AA04FF47A7000F005F8181EA3F10103F7D178
S31508001AB000BD00EBC001C9004FF0E02251610021D2
S31508001AC091610521116100BF4FF0E021096901F418
S31508001AD080310029F8D004214FF0E02211617047C7
S31508001AE010B504F0E3FD05F049F804F081FD04F0B3
S31508001AF0E7FF10BD70B504463A4800683A490860E1
S31508001B003A48806848622146374804F017FF364845
S31508001B10806A374908603749B1F90A00FEF770FC50
S31508001B200546354801682846FEF788FB304948626D
S31508001B3021462F4804F002FF304909788800FEF74D
S31508001B405FFC05462A48816A2846FEF771FB2C4940
S31508001B5008602A4909788800FEF752FC0546244899
S31508001B60816A2846FEF712FB264908602349097848
S31508001B708800FEF745FC05461D48816A2846FEF79B
S31508001B8057FB214908601D4909788800FEF738FC8B
S31508001B9005461748816A2846FEF7F8FA1B49086081
S31508001BA01B480068164948621A4800681549486281
S31508001BB01948006814494862184800681349486279
S31508001BC021460F4804F0BAFE21460E4804F0B6FE38
S31508001BD021460D4804F0B2FE21460C4804F0AEFE3C
S31508001BE070BD000030000020180300205C040020AF
S31508001BF04C03002050040020E86C00087000002008
S31508001C00480200207C020020B0020020E4020020E6
S31508001C100C000020100000201400002018000020EE
S31508001C2070B504463A4800683A4908603A488068F8
S31508001C3048622146374804F081FE3648806A3749AB
S31508001C4008603749B1F90A00FEF7DAFB0546354858
S31508001C5001682846FEF7F2FA3049486221462F48BD
S31508001C6004F06CFE304909784800FEF7C9FB0546C2
S31508001C702A48816A2846FEF7DBFA2C4908602A4971
S31508001C8009784800FEF7BCFB05462448816A2846C1
S31508001C90FEF77CFA26490860234909784800FEF7CA
S31508001CA0AFFB05461D48816A2846FEF7C1FA214959
S31508001CB008601D4909784800FEF7A2FB0546174843
S31508001CC0816A2846FEF762FA1B4908601B480068C5
S31508001CD0164948621A480068154948621948006852
S31508001CE014494862184800681349486221460F4853
S31508001CF004F024FE21460E4804F020FE21460D4835
S31508001D0004F01CFE21460C4804F018FE70BD0000C5
S31508001D1030000020180300205C0400204C0300203B
S31508001D2050040020E86C00087000002048020020DB
S31508001D307C020020B0020020E40200200C000020F3
S31508001D401000002014000020180000202DE9F041A2
S31508001D50024600250026002000230024002791F8CB
S31508001D6003C00CF00F0591F803C00CF0100CBCF181
S31508001D70000F03D091F802C04CEA050591F800C09F
S31508001D80BCF1000F31D0146800202BE04FF0010C95
S31508001D900CFA00F3B1F800C00CEA03069E4220D103
S31508001DA083004FF00F0C0CFA03F7BC4305FA03FC4B
S31508001DB04CEA040491F803C0BCF1280F06D14FF091
S31508001DC0010C0CFA00FCC2F814C00AE091F803C032
S31508001DD0BCF1480F05D14FF0010C0CFA00FCC2F813
S31508001DE010C0401C0828D1D31460B1F800C0BCF15B
S31508001DF0FF0F34DD546800202EE000F1080C4FF088
S31508001E00010808FA0CF3B1F800C00CEA03069E4272
S31508001E1021D183004FF00F0C0CFA03F7BC4305FAE7
S31508001E2003FC4CEA040491F803C0BCF1280F05D161
S31508001E3000F1080C08FA0CF8C2F8148091F803C0EF
S31508001E40BCF1480F07D100F1080C4FF0010808FA59
S31508001E500CF8C2F81080401C0828CED35460BDE8A0
S31508001E60F0810000F0B50A46002300240021002571
S31508001E7000F00046B6F1004F02D11D4EF16901E0AF
S31508001E801B4E7168C0F3034583B200F44016B6F5DD
S31508001E90401F08D121F07061154E766826F07066ED
S31508001EA0134F7E6012E000F48016B6F5801F06D147
S31508001EB0032606FA05F4A14341F0706106E0460DD3
S31508001EC0360103FA06F6B14341F0706122B1460DB8
S31508001ED0360103FA06F6314300F00046B6F1004F24
S31508001EE002D1034EF16101E0014E7160F0BD0000C0
S31508001EF000000140416170470161704707B5A2B013
S31508001F004FF07C512498FEF799F90F90FE488068A7
S31508001F100B90FD4800680A900B99FEF78FF90D9013
S31508001F20F948C0680B90F84840680A900B99FEF784
S31508001F3085F90C900D99FEF77BF94FF080410E90CC
S31508001F40FEF77CF91E90F048C0680B90EE48806852
S31508001F500A900B99FEF772F90D90EB4840680B90C2
S31508001F60E94800680A900B99FEF768F90C900D99F4
S31508001F70FEF70CF94FF080410E90FEF75FF91F90BF
S31508001F80E14880680A90E048806809900A99FEF757
S31508001F9055F90C90DC4840680A90DB48406809907F
S31508001FA00A99FEF74BF90B900C99FEF7EFF84FF0EC
S31508001FB080410D90FEF742F94FF07E510E90FEF7E4
S31508001FC03AF92090D148B0F904000990FEF718FABA
S31508001FD00B90CE48B0F904000990FEF711FA0A9062
S31508001FE00B99FEF72BF90D90C848B0F90200079037
S31508001FF0FEF706FA0990C548B0F902000790FEF701
S31508002000FFF908900999FEF719F90B90BF48B0F93E
S3150800201000000790FEF7F4F90990BC48B0F90000F3
S315080020200790FEF7EDF908900999FEF707F90A9067
S315080020300B99FEF7ABF80C900D99FEF7A7F80E90E2
S3150800204001F032FDB24908602298B0F900000D90FF
S31508002050FEF7D6F90E90AE4801680E98FEF7EEF830
S315080020601B902298B0F902000D90FEF7C9F90E9060
S31508002070A74801680E98FEF7E1F81C902298B0F977
S3150800208004000D90FEF7BCF90E90A14801680E9861
S31508002090FEF7D4F81D901F980C901D980B900C997C
S315080020A0FEF7CCF80E9020980C901C980B900C9983
S315080020B0FEF7C4F80D900E99FEF7BAF81590209819
S315080020C00C901B980B900C99FEF7B8F80E901E987A
S315080020D00C901D980B900C99FEF7B0F80D900E9980
S315080020E0FEF7A6F816901E980C901C980B900C9963
S315080020F0FEF7A4F80E901F980C901B980B900C995D
S31508002100FEF79CF80D900E99FEF792F81790159821
S315080021100D90804801680D98FEF790F80E907E485D
S31508002120006801460D900E98FEF730F87A49086067
S3150800213016980D90774801680D98FEF77FF80E906F
S315080021407548406801460D900E98FEF71FF87249CB
S31508002150486017980D906F4801680D98FEF76EF85D
S315080021600E906D48806801460D900E98FEF70EF8A1
S3150800217069498860159801460B9068480068FEF71B
S315080021805DF80D902298B0F906000A90FEF738F926
S3150800219063490B90FEF752F80C900D99FDF7F6FF80
S315080021A00E905D48006801460D900E98FDF7EEFF0B
S315080021B01890169801460B9058480068FEF73EF8A6
S315080021C00D902298B0F908000A90FEF719F95449BB
S315080021D00B90FEF733F80C900D99FDF7D7FF0E908C
S315080021E04D48406801460D900E98FDF7CFFF1990AF
S315080021F0179801460B9049480068FEF71FF80D909E
S315080022002298B0F90A000A90FEF7FAF844490B90AA
S31508002210FEF714F80C900D99FDF7B8FF0E903E489E
S31508002220806801460D900E98FDF7B0FF1A901A982F
S315080022300B903548C0680A900B99FDF7FFFF0D9083
S31508002240199809903048806808900999FDF7F6FFB3
S315080022500B902D48406880F0004009901898014678
S3150800226008900998FDF7EAFF0A900B99FDF7E0FF39
S315080022700C900D99FDF7DCFF0E900F99FDF7DEFF28
S3150800228014901A980B90204880680A900B99FDF7CD
S31508002290D5FF0D90199809901B48C06808900999B0
S315080022A0FDF7CCFF0B90189809901748006808901E
S315080022B00999FDF7C3FF0A900B99FDF7B9FF0C9032
S315080022C00D99FDF763FF0E900F99FDF7B7FF139071
S315080022D01A980B900C4840680A900B99FDF7AEFFC8
S315080022E00D90199809900848006808900999FDF713
S315080022F0A5FF0B90189809900348C068089009999B
S31508002300FDF79CFF0A900DE0C40000205004002051
S31508002310C000002020010020740400201C010020B9
S315080023202E9E8B3A0B99FDF731FF0C900D99FDF710
S315080023307FFF0E900F99FDF781FF12901A980B9068
S31508002340B34800680A900B99FDF778FF0D90199825
S315080023500990AF48406808900999FDF76FFF0B9000
S31508002360AB48806880F000400990189801460890AC
S315080023700998FDF763FF0A900B99FDF707FF0C9084
S315080023800D99FDF703FF0E900F99FDF757FF119072
S315080023909F4800680E901499FDF7F8FE9C4908605E
S315080023A0084640680E901399FDF7F0FE9849486074
S315080023B0084680680E901299FDF7E8FE94498860F1
S315080023C00846C0680E901199FDF7E0FE9049C8606E
S315080023D00846C0680B900846C0680A900B99FDF736
S315080023E02DFF0D908A488068099089488068089072
S315080023F00999FDF723FF0B908548406807908448A4
S31508002400406806900799FDF719FF0990804800680B
S3150800241007907F48006806900799FDF70FFF089018
S315080024200999FDF7B3FE0A900B99FDF7AFFE0C90DC
S315080024300D99FDF7ABFE0E9001F036FB109074482F
S3150800244000680E901099FDF7F9FE71490860084674
S3150800245040680E901099FDF7F1FE6D4948600846F0
S3150800246080680E901099FDF7E9FE6949886008466C
S31508002470C0680E901099FDF7E1FE6549C86022987C
S31508002480B0F90A000C90FDF7BBFF62490D90FDF705
S31508002490D5FE0E904FF07E510E98FEF711F804D334
S315080024A05D490E98FEF702F80DD224990E98FDF7AD
S315080024B0C5FE0D902398806801460C900D98FDF78F
S315080024C065FE2399886052484068014603904FF09C
S315080024D08040FDF7B3FE04904D48C068014603905E
S315080024E00498FDF7ABFE069049480068014603903C
S315080024F04FF08040FDF7A2FE0490454880680146EB
S3150800250003900498FDF79AFE05900699FDF790FE4C
S315080025100790FDF79CFFCDE9080103F01DFD4FF07C
S3150800252000523E4BCDE90A01FDF7F8FECDE90C0154
S31508002530FDF7A0FF23994860354880680146019059
S315080025404FF08040FDF77AFE0290314880680146D8
S3150800255001900298FDF772FE04902D4840680146E6
S3150800256000904FF08040FDF769FE019028484068CA
S31508002570014600900198FDF761FE4FF07E510290EA
S31508002580FDF759FE03900499FDF752FE0590FDF7F5
S315080025905EFFCDE908011E480068014601904FF02C
S315080025A08040FDF74BFE02901948406801460190AD
S315080025B00298FDF743FE049015488068014601908D
S315080025C04FF08040FDF73AFE02901148C068014678
S315080025D001900298FDF732FE03900499FDF7D6FDA7
S315080025E00590FDF734FFCDE90601DDE9082303F080
S315080025F0FBFE4FF00052094BCDE90A01FDF78EFEAE
S31508002600CDE90C01FDF736FF2399086025B000BD1A
S31508002610C4000020F6FF793D000080BFDCA54C40D1
S3150800262010B504F035F80446FDF7EAFE0B490860D4
S3150800263004F096FA0446FDF7E3FE0949086003F03C
S31508002640C9FF0446FDF7DCFE0649086004F02AFACD
S315080026500446FDF7D5FE0449086010BD0C000020AD
S3150800266010000020140000201800002000BFFEE71C
S3150800267000B54FF400600F49086000F023F94FF4E5
S3150800268080600C49086000F01DF94FF400600949A4
S31508002690091F086000F016F900F014F900F012F9A5
S315080026A000F010F94FF400600249086000F00AF9DA
S315080026B000BD0000140C014000B54FF400600F493E
S315080026C0086000F0FFF84FF480600C49091F0860A5
S315080026D000F0F8F84FF400600849091F086000F098
S315080026E0F1F800F0EFF800F0EDF800F0EBF84FF431
S315080026F000600249086000F0E5F800BD140C0140CE
S3150800270000B508220021D001154B18601CE04806C8
S31508002710010E4FF40060124B1B1D186000F0D2F832
S3150800272000F0D0F84FF400600D4B186000F0CAF8BE
S3150800273000F0C8F800F0C6F809480838006800F440
S31508002740806008B141F00101101EA2F10103DAB25E
S31508002750DDD14FF40060024B1B1D1860084600BD12
S31508002760100C014000B50146082221E04FF4006034
S31508002770144B186000F0A6F801F0800028B14FF459
S315080027808060104B1B1F186003E04FF480600D4BF0
S3150800279018604806010E00F095F84FF40060094BE2
S315080027A01B1F186000F08EF800F08CF800F08AF80D
S315080027B0101EA2F10103DAB2D8D14FF40060014B22
S315080027C0186000BD140C014000B54FF4806015492F
S315080027D008604000086000F075F81248083800687C
S315080027E008B9012000E0002000F4806008B101204B
S315080027F000BD4FF480600B49091D086000F062F8BF
S3150800280008480838006800F4806008B10120EFE73E
S315080028104FF400600349091D086000F053F80020D2
S31508002820E6E70000100C014000B54FF400600D49C2
S31508002830086000F047F84FF480600A49086000F025
S3150800284041F800F03FF84FF400600649091F086098
S3150800285000F038F84FF480600249091F086000F05C
S3150800286031F800BD140C014000B54FF4006014495E
S31508002870086000F027F84FF480601149091F0860C6
S3150800288000F020F84FF400600D49091F086000F0B9
S3150800289019F800F017F800F015F809480C38006820
S315080028A000F4806028B14FF40060054908600120F3
S315080028B000BD4FF40060024908600020F8E70000F8
S315080028C0140C014008B50220009004E09DF80000B1
S315080028D0401EC0B200909DF800000028F6D108BD41
S315080028E008B50121082001F017F94FF44060ADF84A
S315080028F0000003208DF8020014208DF803006946B5
S315080029000148FFF723FA08BD000C014070B50446DC
S315080029100D460026FFF758FF012800D170BD204656
S31508002920FFF720FFFFF7A0FF012803D1FFF77CFF81
S315080029300120F3E72846FFF715FFFFF795FFFFF796
S3150800294073FFFFF741FF611CC8B2FFF70BFFFFF7E4
S315080029508BFF012803D1FFF767FF0120DEE7FFF7AA
S31508002960CFFE0646FFF7A8FEFFF75EFF70B2D5E773
S3150800297070B506460C461546FFF726FF012800D116
S3150800298070BD3046FFF7EEFEFFF76EFF012803D154
S31508002990FFF74AFF0120F3E72046FFF7E3FEFFF7BC
S315080029A063FF2846FFF7DEFEFFF75EFFFFF73CFFF3
S315080029B00020E5E72DE9F04106460F4615461C4678
S315080029C0FFF702FF012801D1BDE8F0813046FFF785
S315080029D0C9FEFFF749FF012803D1FFF725FF0120AC
S315080029E0F2E73846FFF7BEFEFFF73EFFFFF71CFF8C
S315080029F0FFF7EAFE711CC8B2FFF7B4FEFFF734FF13
S31508002A00012803D1FFF710FF0120DDE70CE0FFF7EF
S31508002A1077FE2870012C02D1FFF74EFE01E0FFF782
S31508002A2027FE6D1C601EC4B2002CF0D1FFF7FCFE19
S31508002A300020C9E72448254908612548486100203F
S31508002A40C8604FF07E500860002088601E48214903
S31508002A5008611F4848610020C8604FF07E50086032
S31508002A600020886018481C490861194848610020F8
S31508002A70C8604FF07E5008600020886012481749E9
S31508002A800861134848610020C8604FF07E5008600E
S31508002A90002088600C48124908610D4848610020EA
S31508002AA0C8604FF07E5008600020886006480D49CF
S31508002AB00861074848610020C8604FF07E500860EA
S31508002AC000208860704700006666663E3002002077
S31508002AD09A99D93EB8010020D0010020E8010020CB
S31508002AE0000200201802002070B504464F485049DD
S31508002AF00860504850490860002150480068FDF7B2
S31508002B00D5FC05D000214E480068FDF7CFFC04D15E
S31508002B100020474908604849086048480068444911
S31508002B20486247480068444948622146404803F0DD
S31508002B3005FF2146404803F001FF42480068424924
S31508002B40086042488068486221463F4803F0F6FE1E
S31508002B503D48806A3E4908603E49B1F90A00FDF7DA
S31508002B604FFC05463C4801682846FDF767FB38498F
S31508002B7048622146364803F0E1FE2F4A916A2C4AFC
S31508002B80906AFDF703FB05462F48816A2846FDF73C
S31508002B904FFB32490860284A916A254A906AFDF730
S31508002BA047FB05462848816A2846FDF7EFFA2C496F
S31508002BB00860214A916A1E4A906AFDF739FB054664
S31508002BC02148816A2846FDF733FB264908601A4AD8
S31508002BD0916A174A906AFDF7D9FA05461A48816A32
S31508002BE02846FDF7D3FA20490860204800681B49A3
S31508002BF048621F4800681A4948621E480068194911
S31508002C0048621D480068184948622146134803F07F
S31508002C1095FE2146124803F091FE2146114803F01D
S31508002C208DFE2146104803F089FE70BD00809D4345
S31508002C308003002000006143B40300202800002020
S31508002C402C00002030000020180300205C0400201F
S31508002C504C03002050040020E86C000848020020BD
S31508002C607C020020B0020020E40200200C000020B4
S31508002C7010000020140000201800002070B504463B
S31508002C804F4850490860504850490860002150484C
S31508002C900068FDF70BFC05D000214E480068FDF7DB
S31508002CA005FC04D10020474908604849086048489F
S31508002CB000684449486247480068444948622146D2
S31508002CC0404803F03BFE2146404803F037FE4248A1
S31508002CD000684249086042488068486221463F4881
S31508002CE003F02CFE3D48806A3E4908603E49B1F92A
S31508002CF00A00FDF785FB05463C4801682846FDF7AE
S31508002D009DFA384948622146364803F017FE2F4A8D
S31508002D10916A2C4A906AFDF739FA05462F48816A66
S31508002D202846FDF785FA32490860284A916A254AF5
S31508002D30906AFDF77DFA05462848816A2846FDF718
S31508002D4025FA2C490860214A916A1E4A906AFDF7BD
S31508002D506FFA05462148816A2846FDF769FA264929
S31508002D6008601A4A916A174A906AFDF70FFA0546EB
S31508002D701A48816A2846FDF709FA2049086020485A
S31508002D8000681B4948621F4800681A4948621E487D
S31508002D900068194948621D48006818494862214672
S31508002DA0134803F0CBFD2146124803F0C7FD214620
S31508002DB0114803F0C3FD2146104803F0BFFD70BD5E
S31508002DC000809D43E803002000003E431C040020C9
S31508002DD0280000202C0000203000002018030020C6
S31508002DE05C0400204C03002050040020E86C000816
S31508002DF0480200207C020020B0020020E4020020E5
S31508002E000C000020100000201400002018000020EC
S31508002E1000BFFEE700B585B00121042000F07CFE66
S31508002E200121082000F078FE10208DF813000320F9
S31508002E308DF812001020ADF8100004A91F48FEF7FF
S31508002E4085FF2020ADF8100004A91C48FEF77EFF78
S31508002E504FF48050ADF8100004A91948FEF776FF24
S31508002E60372000F06BFA0121202000F045FEC7202C
S31508002E70ADF808002C20ADF8040001A9114801F0AE
S31508002E807DFF01210F4801F019FD4FF4A06000F005
S31508002E9099FA37208DF8000002208DF801000020ED
S31508002EA08DF8020001208DF80300684600F052FAFA
S31508002EB00121044801F008FD05B000BD000C0140E1
S31508002EC000080140001400400020014908707047BE
S31508002ED00200002008B50121042000F01DFE012192
S31508002EE0082000F019FE0121102000F015FE01212E
S31508002EF0084600F011FE01211D48FEF7B3FF102019
S31508002F008DF803000320ADF800008DF8020069462D
S31508002F101848FEF71BFF10208DF803004FF44050A9
S31508002F20ADF8000003208DF8020069461248FEF746
S31508002F300DFF10208DF803000C20ADF800000320CB
S31508002F408DF8020069460B48FEF700FF10208DF841
S31508002F5003004FF44040ADF8000003208DF802004E
S31508002F6069460548FEF7F2FE00F036FA08BD00008D
S31508002F700002300000100140000C014010B5044664
S31508002F80002C0BDB08210C48FEF7B4FF04210A4885
S31508002F90FEF7B2FFA0B200F095FA0BE0082106484A
S31508002FA0FEF7AAFF04210448FEF7A4FF614288B28F
S31508002FB000F088FA10BD00000010014010B5044664
S31508002FC0002C0BDB01210C48FEF794FF02210A486E
S31508002FD0FEF792FFA0B200F06BFA0BE0012106485B
S31508002FE0FEF78AFF02210448FEF784FF614288B291
S31508002FF000F05EFA10BD00000010014010B504464E
S31508003000002C0DDB4FF480410D48FEF773FF4FF49B
S3150800301000410B48FEF770FFA0B200F067FA0DE01A
S315080030204FF480410648FEF767FF4FF40041044815
S31508003030FEF760FF614288B200F058FA10BD000042
S31508003040000C014010B50446002C0DDB4FF400516E
S315080030500D48FEF74FFF4FF480510B48FEF74CFF23
S31508003060A0B200F039FA0DE04FF400510648FEF719
S3150800307043FF4FF480510448FEF73CFF614288B293
S3150800308000F02AFA10BD0000000C01402DE9FE4FA1
S3150800309006236A463B21D020FFF78CFC06230DF158
S315080030A006024321D020FFF785FC002458E00120C2
S315080030B000EB44001DF800001DF8141040EA01203A
S315080030C0294931F81410401A00B22849096821F82C
S315080030D01400032C1BDA2549096831F91400FDF799
S315080030E08FF9054604EB4401214A02EBC100294643
S315080030F003F044FA04EB44011D4A02EBC101886857
S31508003100FDF78CF900B21949096821F81400022C58
S3150800311024DDE01EC5B2DFF85C801449096831F980
S315080031201400FDF76DF982464146FDF787F8074614
S31508003130114951F825001149FDF780F881463946AD
S31508003140FDF724F80C4941F825000646FDF766F90F
S3150800315000B20649096821F8140000BF601CC4B211
S31508003160062CA4DBBDE8FE8F68040020BC00002006
S31508003170D40000209A99193E800400209A99593F54
S31508003180F0B58BB0182105A8FCF7F5FF1E25052616
S315080031907742002003900490404800210160416076
S315080031A081604FF400503D498880002201213C4847
S315080031B001F039FC3BE000BF0A20FEF76EFCFFF782
S315080031C065FF002416E037480168E01C31F8100056
S315080031D003A931F81410401A00B201A921F8140005
S315080031E030480168E01C31F8100003A921F81400E2
S315080031F0601C04B2032CE6DBBDF904000528DBDC01
S31508003200BDF9040010F1050FD6DBBDF90600052847
S31508003210D2DCBDF9060010F1050FCDDBBDF90800BB
S315080032200528C9DCBDF9080010F1050FC4DB281E06
S31508003230A5F10101CDB2BED1002417E0FFF726FFA4
S31508003240642C11DB00200CE005A951F82010154A62
S31508003250126832F91020114405AA42F82010411CC0
S31508003260C8B20628F0DB00BF601C04B2B4F5B27F12
S31508003270E4DB002409E005A850F82400001200B297
S31508003280064921F81400601C04B2062CF3DB01225F
S315080032901146034801F0C7FB0BB0F0BD68040020D7
S315080032A000100040BC00002010B5002400BF80229A
S315080032B06B21D020FFF75CFBC4B21E20FEF7EDFBA6
S315080032C002221921D020FFF753FB2044C4B203225F
S315080032D06B21D020FFF74CFB2044C4B203221A21ED
S315080032E0D020FFF745FB2044C4B218221B21D0206A
S315080032F0FFF73EFB2044C4B209221C21D020FFF769
S3150800330037FB2044C4B2002CD1D17521D020FFF759
S31508003310FDFAC4B2682C01D0012010BD0020FCE7DC
S315080033207047000000F01F0201219140024A43093C
S3150800333042F823107047000080E100E000F01F0209
S31508003340012191404209920002F1E022C2F80011DF
S315080033507047000070B5002100230F22C47804B31B
S31508003360154C246804F4E064C4F5E064210AC1F14C
S315080033700403CA40447804FA03F1847814402143CC
S3150800338009010E4C0678A155047804F01F0501249E
S31508003390AC4005786D11AD0005F1E025C5F8004192
S315080033A009E0047804F01F050124AC40044D0678B2
S315080033B0761145F8264070BD0CED00E000E400E00B
S315080033C080E100E002490143024A116070470000AB
S315080033D00000FA050CED00E000B589B001214803AC
S315080033E000F09AFB0121102000F096FB18208DF8BA
S315080033F023004FF47070ADF8200003208DF82200EA
S3150800340008A92948FEF7A2FC284801F015FB002068
S31508003410ADF81A00ADF8160040F2E730ADF818001E
S315080034200B20ADF8140000208DF81C0005A91F48D4
S3150800343001F0A4FC01A801F060FC6020ADF80400CE
S315080034400020ADF80C000120ADF806000020ADF80C
S315080034500A0001A9154801F0F5FA01A9134801F077
S3150800346047FB01A9114801F0A3FB01A90F4801F088
S31508003470F9FB08210D4801F031FB08210B4801F042
S3150800348089FB0821094801F0E3FB0821074801F0F8
S3150800349027FC0121054801F023FA0121034801F020
S315080034A013FA09B000BD00000010014000340140C5
S315080034B010B504462146024801F029FC10BD00005B
S315080034C00034014010B504462146024801F021FCAB
S315080034D010BD00000034014010B5044621460248DC
S315080034E001F019FC10BD00000034014010B5044677
S315080034F02146024801F011FC10BD000000340140CD
S315080035007047000010B5444800780C2805D1434898
S3150800351000F07CFBFEF72CFA7DE03F480078FF2898
S3150800352002D100F07BFF76E03B4800780D2805D1F4
S315080035303A48FEF7DFFAFEF71BFA6CE036480078E1
S315080035400E2805D1354801F00BFDFEF711FA62E0A9
S31508003550314800780F2805D13048FFF7C5FAFEF73D
S3150800356007FA58E02C480078102805D12B4801F0B6
S3150800357057FCFEF7FDF94EE027480078172805D1D5
S31508003580264801F087FDFEF7F3F944E02248007863
S31508003590112805D12148FDF79BFAFEF7E9F93AE02B
S315080035A01D480078122805D11C48FFF767FBFEF76F
S315080035B0DFF930E018480078132805D11748FEF7D8
S315080035C02FFBFEF7D5F926E013480078182805D111
S315080035D01248FDF71BFBFEF7CBF91CE00E480078F6
S315080035E0142805D10D4800F085FCFEF7C1F912E054
S315080035F009480078152805D1084800F083FBFEF72E
S31508003600B7F908E004480078162804D1034800F002
S31508003610F5FBFEF7ADF910BD540000200AD7A33B11
S3150800362010B50446012C35D15248007838B9AE2079
S315080036305149087000F058FD01204E4908700021D4
S315080036404E480068FCF732FF11D000214C4800684C
S31508003650FCF72CFF0BD04B48007840B94A48007855
S3150800366028B94A48007810B91220494908704948CB
S315080036700078AE287CD143480078002878D1FF200E
S31508003680434908700120434908703F4908703D497D
S3150800369008706DE0022C35D13F48007838B9AF2064
S315080036A03549087000F020FD01203B4908700021CB
S315080036B032480068FCF7FAFE11D00021304800684D
S315080036C0FCF7F4FE0BD03548007840B9344800784A
S315080036D028B93448007810B912202D4908702D48A9
S315080036E00078AF2844D12D480078002840D1FF2023
S315080036F02749087001202749087029490870274971
S31508003700087035E0032C33D12748007838B9BA2039
S315080037101949087000F0E8FC0120234908700021C7
S3150800372016480068FCF7C2FE11D00021144800684C
S31508003730FCF7BCFE0BD01D48007840B91C48007841
S3150800374028B91C48007810B9122011490870114888
S315080037500078BA280CD11548007848B9FF200C49DA
S31508003760087001200B490870114908700F49087044
S3150800377010BD0000830000201C0000202800002047
S315080037802C000020710000206C0000207A00002028
S31508003790540000203400002084000020730000201C
S315080037A06E0000207C0000208500002072000020AA
S315080037B06D0000207B00002010B50446012C4BD17B
S315080037C040F29E7003F080FA40F61A1002F0CCFE22
S315080037D0FFF77AFB6F48FEF7F5F84FF4FA70FEF735
S315080037E05CF940F2262003F03FFA4FF47A70FEF7B0
S315080037F054F9FFF769FB674801F050FD4FF48760FD
S3150800380002F0B2FE4FF47A70FEF747F9FFF75CFB59
S3150800381061480078052803D16048FEF7D3F802E02E
S315080038205F48FEF7CFF840F2DC50FEF736F94FF462
S31508003830487003F019FAFFF747FB57480078052840
S3150800384003D1564801F02AFD02E0554801F026FD4D
S315080038504FF4FA70FEF721F9022C4BD140F24C4096
S3150800386003F032FA40F6E80002F07EFEFFF72CFB82
S315080038704848FEF7A7F84FF4FA70FEF70EF940F23B
S31508003880262003F0F1F94FF47A70FEF706F9FFF7F0
S315080038901BFB404801F002FD4FF4876002F064FE0E
S315080038A04FF47A70FEF7F9F8FFF70EFB3A480078FE
S315080038B0052803D13948FEF785F802E03848FEF7AF
S315080038C081F840F2DC50FEF7E8F840F2262003F0D3
S315080038D0CBF9FFF7F9FA30480078052803D12F48C5
S315080038E001F0DCFC02E02E4801F0D8FC4FF4FA7037
S315080038F0FEF7D3F8032C4BD140F2762003F0E4F917
S3150800390040F62E1002F030FEFFF7DEFA2148FEF7E9
S3150800391059F84FF4FA70FEF7C0F840F2262003F083
S31508003920A3F94FF47A70FEF7B8F8FFF7CDFA1948FD
S3150800393001F0B4FC4FF4876002F016FE4FF47A707B
S31508003940FEF7ABF8FFF7C0FA13480078052803D14D
S315080039501248FEF737F802E01148FEF733F840F24E
S31508003960DC50FEF79AF84FF4487003F07DF9FFF73C
S31508003970ABFA09480078052803D1084801F08EFCFF
S3150800398002E0074801F08AFC4FF4FA70FEF785F862
S3150800399010BD0000CDCCCC3F890000200000C040FF
S315080039A09A99254110B538480078032190FBF1F221
S315080039B001FB12003449087008460078401C08705C
S315080039C008460078FFF7F8FE4FF47A70FEF765F8B8
S315080039D02D480078012819D106212C4802F098FFB5
S315080039E001202B49087000202A4908702A490870C6
S315080039F02A48807829494978884203DC18202849CA
S31508003A00087040E01320264908703CE01E480078FC
S31508003A10022819D106211D4802F07AFF01201E4905
S31508003A20087000201B490870194908701B48C0789F
S31508003A301A498978884203DC18201949087022E057
S31508003A401320174908701EE00F48007803281AD17A
S31508003A5006210E4802F05CFF00200F4908700D4948
S31508003A6008700B4908700F480078022803D00D48E3
S31508003A700078052807D1152009490870AD2007499F
S31508003A80087000F031FB10BDB4000020940000203F
S31508003A907500002074000020760000201C0000201D
S31508003AA054000020890000202DE9F05F04464FF0FD
S31508003AB07F594FF07C512046FCF7C0FB82462546CD
S31508003AC02E460C48A0EB6606354629465046FCF7B6
S31508003AD0B5FB83462946FCF7B1FB80464946FCF709
S31508003AE0AAFB07462946FCF7A9FB05462846BDE872
S31508003AF0F09F0000DF59375F29B1064AD2690243B1
S31508003B00044BDA6104E0034AD2698243014BDA6165
S31508003B10704700000010024029B1064A9269024324
S31508003B20044B9A6104E0034A92698243014B9A6105
S31508003B30704700000010024030B500210022002422
S31508003B4000232D4D6D6805F00C0121B1042905D01F
S31508003B50082923D105E0294D056022E0274D056097
S31508003B601FE0254D6D6805F47012234D6D6805F448
S31508003B708034022505EB92421CB9214D5543056058
S31508003B800BE01D4D6D6805F400351DB11C4D554300
S31508003B90056002E0194D5543056002E0174D0560C2
S31508003BA000BF00BF144D6D6805F0F0010909154DF9
S31508003BB06B5C0568DD4045600F4D6D6805F4E06196
S31508003BC0090A104D6B5C4568DD4085600A4D6D68D5
S31508003BD005F46051C90A0B4D6B5C4568DD40C5604C
S31508003BE0054D6D6805F44041890B074D6B5CC5684A
S31508003BF0B5FBF3F5056130BD0010024000127A00EE
S31508003C0000093D003E0000204E00002070B5044625
S31508003C102F4930480068FCF7B9FA2F4908602F4841
S31508003C208068486221462C4802F088FE2C480078B5
S31508003C30FCF7EFFB05462848816A2846FCF7F8FAA0
S31508003C402849086026480078FCF7E3FB0546224821
S31508003C50816A2846FCF79AFA2349086020480078C2
S31508003C60FCF7D7FB05461C48816A2846FCF7E0FAAC
S31508003C701E4908601A480078FCF7CBFB054616482B
S31508003C80816A2846FCF782FA1949086019480068CB
S31508003C90144948621848006813494862174800687A
S31508003CA012494862164800681149486221460D487B
S31508003CB002F044FE21460C4802F040FE21460B481D
S31508003CC002F03CFE21460A4802F038FE70BD0000AC
S31508003CD00000964230000020180300205C040020F3
S31508003CE070000020480200207C020020B00200205C
S31508003CF0E40200200C000020100000201400002020
S31508003D001800002070B504462F4930480068FCF7B3
S31508003D108FFA2F4908602F488068486221462C4848
S31508003D2002F00CFE2C480078FCF773FB0546284881
S31508003D30816A2846FCF77CFA2849086026480078F4
S31508003D40FCF767FB05462248816A2846FCF71EFAF7
S31508003D502349086020480078FCF75BFB05461C48A9
S31508003D60816A2846FCF764FA1E4908601A480078F2
S31508003D70FCF74FFB05461648816A2846FCF706FA03
S31508003D8019490860194800681449486218480068C3
S31508003D90134948621748006812494862164800687D
S31508003DA01149486221460D4802F0C8FD21460C48D3
S31508003DB002F0C4FD21460B4802F0C0FD21460A4820
S31508003DC002F0BCFD70BD00000000B44230000020C7
S31508003DD0180300205C040020700000204802002020
S31508003DE07C020020B0020020E40200200C00002023
S31508003DF010000020140000201800002070B50446AA
S31508003E002F4930480068FCF7C1F92F4908602F4848
S31508003E108068486221462C4802F090FD2C480078BC
S31508003E20FCF7F7FA05462848816A2846FCF700FA9F
S31508003E302849086026480078FCF7EBFA0546224828
S31508003E40816A2846FCF7A2F92349086020480078C9
S31508003E50FCF7DFFA05461C48816A2846FCF7E8F9AC
S31508003E601E4908601A480078FCF7D3FA0546164832
S31508003E70816A2846FCF78AF91949086019480068D2
S31508003E801449486218480068134948621748006888
S31508003E9012494862164800681149486221460D4889
S31508003EA002F04CFD21460C4802F048FD21460B481D
S31508003EB002F044FD21460A4802F040FD70BD0000AC
S31508003EC00000164330000020180300205C04002080
S31508003ED070000020480200207C020020B00200206A
S31508003EE0E40200200C00002010000020140000202E
S31508003EF01800002070B504462F4930480068FCF7C2
S31508003F0045F92F4908602F488068486221462C48A1
S31508003F1002F014FD2C480078FCF77BFA0546284881
S31508003F20816A2846FCF784F92849086026480078FB
S31508003F30FCF76FFA05462248816A2846FCF726F9F7
S31508003F402349086020480078FCF763FA05461C48B0
S31508003F50816A2846FCF76CF91E4908601A480078F9
S31508003F60FCF757FA05461648816A2846FCF70EF903
S31508003F7019490860194800681449486218480068D1
S31508003F80134948621748006812494862164800688B
S31508003F901149486221460D4802F0D0FC21460C48DA
S31508003FA002F0CCFC21460B4802F0C8FC21460A4820
S31508003FB002F0C4FC70BD00000000B44230000020CE
S31508003FC0180300205C04002070000020480200202E
S31508003FD07C020020B0020020E40200200C00002031
S31508003FE01000002014000020180000207047000070
S31508003FF000B587B00121C804FFF77EFD0121102016
S31508004000FFF78AFD4FF48060ADF8180018208DF888
S315080040101B0003208DF81A0006A92248FDF796FE14
S315080040204FF40060ADF8180048208DF81B000320F7
S315080040308DF81A0006A91B48FDF788FE4FF416509E
S3150800404002900020ADF814000C20ADF812000020F4
S31508004050ADF81000ADF80E00ADF80C0002A9124834
S3150800406001F0FEF9012240F225510F4801F0D2F97C
S315080040704FF4A060FFF7A6F934208DF8040001205C
S315080040808DF8070000208DF8050001208DF8060040
S3150800409001A8FFF75FF90121034801F078F907B095
S315080040A000BD000000100140004C004070B50546F8
S315080040B00E46002404E0285D00F006F8601C84B271
S315080040C0B442F8DB70BD000010B504462146054829
S315080040D001F037FA00BF8021024801F064F9002890
S315080040E0F9D010BD004C004010B5FF20FFF7ECFFDB
S315080040F004210348FFF7DAFFFE20FFF7E5FF10BDAE
S315080041001C00002000B587B001210805FFF7F4FC64
S3150800411001211020FFF700FD01212020FFF7FCFCFC
S3150800412018208DF81B000420ADF8180003208DF820
S315080041301A0006A92148FDF709FE18208DF81B006C
S315080041404FF48050ADF8180003208DF81A0006A920
S315080041501B48FDF7FBFD4FF4614002900020ADF8C7
S3150800416014000C20ADF812000020ADF81000ADF8D0
S315080041700E00ADF80C0002A9124801F071F90122EF
S3150800418040F225510F4801F045F94FF4A060FFF7BA
S3150800419019F935208DF8040001208DF80700002054
S315080041A08DF805008DF8060001A8FFF7D3F8012160
S315080041B0044801F0ECF807B000BD00000014014007
S315080041C0001001400050004010B50446214605483D
S315080041D001F0B7F900BF8021024801F0E4F8002891
S315080041E0F9D010BD0050004070B50446002504E023
S315080041F0605DFFF7E9FF681CC5B2605D0028F7D16E
S3150800420070BD10B5002403E0FF20FFF7DDFF641C36
S31508004210032CF9DB10BD0000F8B504460D4616461A
S3150800422064210848FBF7A7FF2B46224606A1054846
S31508004230009601F08DF90348FFF7D6FFFFF7E1FF77
S31508004240F8BD00002801002025732E25733D222580
S315080042506422000000B589B00121C802FFF75CFCA2
S3150800426001210420FFF758FC18208DF823004FF48D
S315080042706060ADF8200003208DF8220008A92B48BD
S31508004280FDF764FD2A4800F0D7FB0020ADF81A00B8
S31508004290ADF8160044F61F60ADF818004720ADF8D3
S315080042A0140000208DF81C0005A9214800F066FDC1
S315080042B001A800F022FD4FF48070ADF810006020D0
S315080042C0ADF804000020ADF80C000120ADF806009A
S315080042D04FF44870ADF80A0001A9154800F008FC2B
S315080042E040F29E70ADF80A0001A9114800F060FC82
S315080042F04FF48760ADF80A0001A90D4800F0B2FC3A
S3150800430001210B4800F0ECFA0821094800F042FCAC
S315080043100821074800F09CFC0821054800F0E0FC4D
S315080043200121034800F0D0FA09B000BD0008014099
S31508004330002C014010B500F001F810BD0CB50020A6
S31508004340019000903348006840F480303149086095
S3150800435000BF3048006800F4003000900198401C07
S315080043600190009818B90198B0F5A06FF1D12948C5
S31508004370006800F4003010B10120009001E0002030
S3150800438000900098012843D12348006840F01000A7
S31508004390214908600846006820F0030008600846BE
S315080043A0006840F0020008601A48406819494860E9
S315080043B00846406848600846406840F4806048609F
S315080043C00846406820F47C1048600846406840F477
S315080043D0E81048600846006840F08070086000BF32
S315080043E00C48006800F000700028F9D009484068B9
S315080043F020F00300074948600846406840F002007C
S31508004400486000BF0348406800F00C000828F9D14E
S315080044100CBD0000001002400020024010B500202C
S31508004420FEF7CCFD0020FEF70DFE0020FEF7A6FDE8
S315080044300020FEF7E3FD10BD7047000010B51348D5
S31508004440006840F0010011490860084640681049B4
S3150800445008400E494860084600680E4908400B495E
S3150800446008600846006820F480200860084640680E
S3150800447020F4FE0048604FF41F008860FFF75AFFDB
S315080044804FF000600449086010BD000000100240AB
S315080044900000FFF8FFFFF6FE08ED00E0F0B50C4659
S315080044A0154600220021068C4FF6FE773E4006840C
S315080044B0028B018C4FF60C7632407E1C06EA0316F8
S315080044C02E433243104EB0420ED0104EB0420BD09F
S315080044D0B0F1804F08D00E4EB04205D00D4EB04216
S315080044E002D00D4EB04206D14FF6FD76314044F06B
S315080044F00106314305E04FF6F576314044F00106F2
S31508004500314302830184F0BD002C01400034014090
S315080045100004004000080040000C0040F0B50C46BE
S315080045201546002200210026078C4FF6EF7C07EA85
S315080045300C070784028B018C4FF6FF7707EA0416EF
S3150800454040F6FF473A404FF6FF7707EA03373A4304
S315080045504FF6FF7707EA05273A43114FB8420ED0C0
S31508004560104FB8420BD0B0F1804F08D00E4FB8426A
S3150800457005D00E4FB84202D00D4FB84206D14FF6BD
S31508004580DF77394046F01007394305E04FF65F7785
S31508004590394044F01007394302830184F0BD000016
S315080045A0002C01400034014000040040000800408F
S315080045B0000C0040F0B50C461546002200210026E6
S315080045C0078C4FF6FF6C07EA0C070784828B018C71
S315080045D04FF6FF7707EA04264FF60C773A404FF670
S315080045E0FF7707EA03172F433A43114FB8420ED015
S315080045F0104FB8420BD0B0F1804F08D00E4FB842DA
S3150800460005D00E4FB84202D00D4FB84206D14FF62C
S31508004610FF57394046F48077394305E04FF2FF5794
S31508004620394044F48077394382830184F0BD000021
S31508004630002C0140003401400004004000080040FE
S31508004640000C0040F0B50C46154600220021002655
S31508004650078C4EF6FF7C07EA0C070784828B018CD1
S315080046604FF6FF7707EA043640F6FF473A404FF61B
S31508004670FF7707EA05273A434FF6FF7707EA033736
S315080046803A43114FB8420ED0104FB8420BD0B0F192
S31508004690804F08D00E4FB84205D00E4FB84202D010
S315080046A00D4FB84206D14DF6FF77394046F480578C
S315080046B0394305E047F6FF57394044F480573943F4
S315080046C082830184F0BD0000002C014000340140C3
S315080046D00004004000080040000C004010B501210D
S315080046E0274800F030F9002848D026480078401CB2
S315080046F02449087024480078401C2349087021483A
S315080047000078052190FBF1F201FB12001D490870A3
S315080047101D4800784FF47A7190FBF1F201FB120004
S31508004720194908701748007838B9FEF7AFFC174AD8
S3150800473017491848FDF7E2FB13E0124800780128EC
S3150800474002D1FDF76DFF0CE00E480078022802D171
S31508004750FCF7D6FD05E00B480078032801D1FEF7E3
S31508004760D1FE0D48007828B907480078032801D1FA
S31508004770FFF7BAFC0121024800F0A3F810BD0000BB
S3150800478000100040B7000020B80000200AD7A33B5D
S315080047905C04002050040020B60000201FB501214B
S315080047A01020FFF7A9F941F61F40ADF804000920CB
S315080047B0ADF808000020ADF8060001A9144800F07D
S315080047C0DDFA01221146124800F02DF901211048A0
S315080047D000F07AF8362000F01F02012191404209C4
S315080047E0920002F1E022C2F8001100BF8DF8000025
S315080047F001208DF801008DF802008DF80300684647
S31508004800FEF7A8FD0121024800F05EF81FBD000072
S315080048100010004010B50121214800F094F8012845
S315080048203CD12048007801280FD101031E48FDF726
S3150800483063FB00201B4908704FF07E511B48006837
S31508004840FBF7A4FC1949086012E01648007878B905
S315080048504FF480511448FDF74DFB012011490870AB
S315080048604FF07E5111480068FBF790FC0F4908602D
S315080048700F4910480068FBF7E1FC04460B4801683D
S315080048802046FBF713FE05D80020084908600120DA
S31508004890094908700121024800F013F810BD00000C
S315080048A00014004000000020000801400400002019
S315080048B000C0C7440800002001000020CA43028245
S315080048C07047CA430282704721B1028842F001024A
S315080048D0028004E002884FF6FE731A400280704791
S315080048E031B1B0F8442042F40042A0F8442005E073
S315080048F0B0F84420C2F30E02A0F844207047F0B581
S315080049000C4615461E460021002200230189028B0B
S31508004910038C4FF6F877394021434FF6FC473A4067
S3150800492040F201173A434FF6DD773B404FF6FF77E3
S3150800493007EA06172F433B43018102830384F0BD30
S315080049400146888C704730B50246002000230024B3
S31508004950158A05EA0103958905EA010413B10CB124
S31508004960012000E0002030BD70B505460C462448FD
S3150800497085420ED0234885420BD0B5F1804F08D02A
S315080049802148854205D02148854202D020488542E3
S3150800499000D100E000BF208850B92389A288618829
S315080049A02846FFF77BFDE188284600F0BBF925E09D
S315080049B0208804280AD12389A28861882846FFF717
S315080049C0ADFDE188284600F0B6F917E020880828EA
S315080049D00AD12389A28861882846FFF7EBFDE1887A
S315080049E0284600F0B5F909E02389A2886188284697
S315080049F0FFF728FEE188284600F0B3F970BD0000ED
S31508004A00002C01400034014000040040000800402A
S31508004A10000C004000210180418001218180002195
S31508004A20C180018170471AB183890B43838102E0F3
S31508004A3083898B438381704701894FF6F872114049
S31508004A400181704770B5002400220023058C4FF6BB
S31508004A50FE7635400584028C8388048B4FF68F7565
S31508004A602C40B51E2C400D882C43751E2A400D89F6
S31508004A702A434D882A43144DA8420BD0134DA84209
S31508004A8008D0134DA84205D0124DA84202D0124DA7
S31508004A90A84213D14FF6F7752A404D892A434FF697
S31508004AA0FB752A408D882A434FF6FF652B404FF643
S31508004AB0FF552B408D892B43CD892B438380048357
S31508004AC0CD888586028470BD002C014000340140E3
S31508004AD00040014000440140004801400A460021C8
S31508004AE0018B4FF6F7731940114301837047000095
S31508004AF070B5002400220023058C4FF6EF7635406A
S31508004B000584028C8388048B48F6FF752C404FF683
S31508004B10FF452C400D884FF6FF7606EA05252C43FF
S31508004B204FF6DF752A400D8906EA05152A434D8892
S31508004B3006EA05152A43154DA84202D0144DA84287
S31508004B401DD14FF67F752A404D894FF6FF7606EA46
S31508004B5005152A434FF6BF752A408D8806EA0515BE
S31508004B602A434FF6FF352B404FF2FF752B408D89B0
S31508004B7006EA85052B43CD8906EA85052B438380FE
S31508004B800483CD880587028470BD0000002C01408F
S31508004B90003401400A460021018B4FF2FF73194089
S31508004BA04FF6FF7303EA0223194301837047000097
S31508004BB070B5002400220023058C4FF6FF663540A9
S31508004BC00584028C8388848B4FF68F752C404FF6AC
S31508004BD0FC752C400D882C434FF6FF552A400D894D
S31508004BE04FF6FF7606EA05252A434D8806EA052587
S31508004BF02A43154DA84202D0144DA8421DD14FF2A2
S31508004C00FF752A404D894FF6FF7606EA05252A43A1
S31508004C104FF6FF352A408D8806EA05252A434EF6C3
S31508004C20FF752B404DF6FF752B408D8906EA051555
S31508004C302B43CD8906EA05152B4383808483CD88CB
S31508004C408587028470BD0000002C014000340140B5
S31508004C500A460021818B4FF6F77319401143818369
S31508004C607047000070B5002200230024058C4EF61C
S31508004C70FF7635400584038C8488828B48F6FF7559
S31508004C802A404FF6FF452A400D884FF6FF7606EA7A
S31508004C9005252A434DF6FF752B400D8906EA05358D
S31508004CA02B434D8806EA05352B430B4DA84202D007
S31508004CB00A4DA84208D14BF6FF752C408D894FF650
S31508004CC0FF7606EA85152C4384808283CD88A0F872
S31508004CD04050038470BD0000002C014000340140A0
S31508004CE00A460021818B4FF2FF7319404FF6FF7376
S31508004CF003EA02231943818370470021018041801A
S31508004D008180C180018141818181C181704781860D
S31508004D1070470187704781877047A0F84010704731
S31508004D2081847047028B4FF6F3731A400283028B15
S31508004D300A4302837047028B4FF2FF331A400283FD
S31508004D40028B4FF6FF7303EA01231A430283704767
S31508004D50828B4FF6F3731A408283828B0A438283CF
S31508004D607047828B4FF2FF331A408283828B4FF64D
S31508004D70FF7303EA01231A438283704700220288DD
S31508004D801D4B98420ED01D4B98420BD0B0F1804F68
S31508004D9008D01B4B984205D01A4B984202D01A4BA2
S31508004DA0984204D14FF68F731A404B881A43174B13
S31508004DB0984207D0164B984204D04FF6FF431A4044
S31508004DC0CB881A4302808B8883850B8803850A4B18
S31508004DD098420BD0094B984208D00E4B984205D002
S31508004DE00D4B984202D00D4B984201D10B7A03869F
S31508004DF00123838270470000002C014000340140E3
S31508004E000004004000080040000C0040001000406C
S31508004E1000140040004001400044014000480140A1
S31508004E2070B5044600203F4908603F4988683F49F5
S31508004E300968FBF7FDF93B4948622146394801F004
S31508004E407DFD3848806A3A4908603A49B1F90A004E
S31508004E50FBF7D6FA0546384801682846FBF7EEF907
S31508004E60334948622146324801F068FD33490978DA
S31508004E70494201EB8100FBF7C3FA05462C48816AD3
S31508004E802846FBF7D5F92E4908602C49097801EB25
S31508004E908100FBF7B5FA05462548816A2846FBF7DF
S31508004EA075F9284908602549097801EB8100FBF75F
S31508004EB0A7FA05461E48816A2846FBF7B9F922492A
S31508004EC008601E490978494201EB8100FBF798FA08
S31508004ED005461748816A2846FBF758F91B490860B2
S31508004EE01B480068164948621A480068154948620E
S31508004EF01948006814494862184800681349486206
S31508004F0021460F4801F01AFD21460E4801F016FD0C
S31508004F1021460D4801F012FD21460C4801F00EFD10
S31508004F2070BD0000180300205C040020300000203B
S31508004F304C03002050040020E86C00087000002094
S31508004F40480200207C020020B0020020E402002073
S31508004F500C0000201000002014000020180000207B
S31508004F6070B504463C4800683C4908603C4880687F
S31508004F7048622146394801F0E1FC3848806A3949D7
S31508004F8008603949B1F90A00FBF73AFA0546374885
S31508004F9001682846FBF752F93249486221463148EA
S31508004FA001F0CCFC32490978C1EBC100FBF728FABD
S31508004FB005462C48816A2846FBF73AF92D490860C8
S31508004FC02B490978A1EBC100FBF71AFA05462548D3
S31508004FD0816A2846FBF7DAF82749086024490978E0
S31508004FE0A1EBC100FBF70CFA05461E48816A284664
S31508004FF0FBF71EF9214908601D490978C1EBC10074
S31508005000FBF7FEF905461748816A2846FBF7BEF8FE
S315080050101B4908601B480068164948621A48006818
S3150800502015494862194800681449486218480068D2
S315080050301349486221460F4801F080FC21460E4874
S3150800504001F07CFC21460D4801F078FC21460C480D
S3150800505001F074FC70BD0000300000201803002029
S315080050605C0400204C03002050040020E86C000873
S3150800507070000020480200207C020020B0020020B8
S31508005080E40200200C00002010000020140000207C
S315080050901800002070B5044600203F4908603F49C3
S315080050A088683F490968FBF7C3F83B4948622146C7
S315080050B0394801F043FC3848806A3A4908603A4959
S315080050C0B1F90A00FBF79CF90546384801682846F5
S315080050D0FBF7B4F8334948622146324801F02EFC02
S315080050E03349097801EB8100FBF78AF905462D4813
S315080050F0816A2846FBF79CF82E4908602C490978EE
S31508005100494201EB8100FBF77BF905462548816A90
S315080051102846FBF73BF8284908602549097849429B
S3150800512001EB8100FBF76CF905461E48816A2846A3
S31508005130FBF77EF8214908601D49097801EB8100D3
S31508005140FBF75EF905461748816A2846FBF71EF8FD
S315080051501B4908601B480068164948621A480068D7
S315080051601549486219480068144948621848006891
S315080051701349486221460F4801F0E0FB21460E48D4
S3150800518001F0DCFB21460D4801F0D8FB21460C480E
S3150800519001F0D4FB70BD0000180300205C04002059
S315080051A0300000204C03002050040020E86C000862
S315080051B070000020480200207C020020B002002077
S315080051C0E40200200C00002010000020140000203B
S315080051D01800002010B540F22551274800F0F0F8D5
S315080051E0012847D1244800F0A7F9C4B2234800781B
S315080051F040B9FF2C38D101202049087000202049E9
S31508005200087031E01D48007801282DD1FE2C13D0F6
S315080052101C48007840B91A4801780078401C184A9A
S3150800522010701948445407E0154801780078401C66
S31508005230134A107015484454FE2C15D100200F4906
S3150800524008701249897801EB4100FBF7D9F8104933
S3150800525008600E49C9784800FBF7D2F80D4908607E
S315080052600A4800790C49087040F22551024800F0B6
S315080052707FF800BF10BD0000004C00403C00002035
S315080052803D000020B6000020960100208C01002079
S31508005290280000202C0000203400002038B50446E1
S315080052A055E02D4804602D48007818BB10212C487D
S315080052B0FCF722FE20212A48FCF71EFE0122114691
S315080052C02848FFF7B0FB3720FEF738F81C208DF882
S315080052D0000001208DF8030002208DF8010001204E
S315080052E08DF802006846FEF735F801211D48FFF7DC
S315080052F0EBFA2CE019480078012828D100201A4931
S315080053000860002201211748FFF78DFB3720FEF7BA
S3150800531009F81C208DF8000001208DF803000220F2
S315080053208DF8010001208DF802006846FEF712F894
S3150800533000210C48FFF7C8FA01210A48FFF7C1FA0D
S3150800534001200A49087000200449087000BF074870
S3150800535000780028A5D038BD0800002001000020EC
S31508005360000C014000140040040000200200002048
S3150800537010B50022002340F66A14A14200D100BFEE
S315080053800A1201249440A3B2DC43048010BD21B163
S31508005390828942F40052828104E082894DF6FF73C5
S315080053A01A408281704702460020B1F5007F00D17D
S315080053B000BF13880B400BB1012000E000207047A6
S315080053C070B50246002400230025002040F66A1620
S315080053D0B14200D100BFC1F3421501F01F030126F7
S315080053E006FA03F3012D02D19689334006E0022D11
S315080053F002D1168A334001E0968A33400C12012600
S3150800540006FA04F41688344013B10CB1012000E002
S31508005410002070BDF0B503460024002600250020B4
S3150800542040F66A17B94200D100BF1846C1F34214C4
S3150800543001F01F06012707FA06F5012C01D10C30E9
S3150800544004E0022C01D1103000E014301AB10768CC
S315080054502F43076002E00768AF430760F0BD00000E
S315080054602DE9F04786B005460E460024A24600BF41
S31508005470A1460027B08900B100BF2F462C8A4CF6FA
S31508005480FF700440F08804432C82AC894EF6F31072
S315080054900440B08831890843718908430443AC81C4
S315080054A0AC8A4FF6FF400440B0890443AC8201A899
S315080054B0FEF742FB1F48874202D1DDF810A001E043
S315080054C0DDF80CA0A88900F4004040B10AEBCA0038
S315080054D000EB0A1031684900B0FBF1F807E00AEB67
S315080054E0CA0000EB0A1031688900B0FBF1F86420A5
S315080054F0B8FBF0F004012009642101FB1089A88992
S3150800550000F4004040B1322000EBC900B0FBF1F0D6
