S3150800000090080020450100083D33000889260008AD
S315080000102D2E0008390D00081755000800000000AD
S31508000020000000000000000000000000B93F0008C2
S31508000030BD1A0008000000001D3500080544000828
S315080000405F0100085F0100085F0100085F01000802
S315080000505F0100085F0100085F0100085F010008F2
S315080000605F0100085F0100085F0100085F010008E2
S315080000705F0100085F0100085F0100085F010008D2
S315080000805F0100085F0100085F0100085F010008C2
S315080000905F0100085F0100085F0100085F010008B2
S315080000A05F0100085F0100085F0100085F010008A2
S315080000B05F0100085F0100085F0100085F01000892
S315080000C05F0100085F0100085F0100085F01000882
S315080000D05F0100085F0100085F0100085F01000872
S315080000E05F0100085F0100085F0100085F01000862
S315080000F05F0100085F0100085F0100085F01000852
S315080001005F0100085F0100085F0100085F01000841
S31508000110A15100085F010008A9460008E147000848
S315080001205F0100085F0100085F0100085F01000821
S31508000130DFF80CD000F006FC0048004719670008F5
S31508000140900800200648804706480047FEE7FEE775
S31508000150FEE7FEE7FEE7FEE7FEE7FEE7FEE7FEE769
S315080001600944000831010008D2B201E000F8012B69
S31508000170491EFBD270470022F6E710B513460A4619
S3150800018004461946FFF7F0FF204610BDF0B480EA92
S315080001900102D40F4200B2EB410F02D202460846D2
S315080001A011464A0042D0C30DDDB2C1F3C752AD1A9B
S315080001B0202D35DAC1F3160141F4000204B152428A
S315080001C0C5F1200602FA06F12A411044B3EBD05FC6
S315080001D023D0C4B1012DA0EBC35009DCF0BC4FF00D
S315080001E0004202EAC352DBB200F5000000F0C2B9D1
S315080001F0400000F1807000EBC350A0F1807040EA27
S31508000200D170490009E0490841EAC071A0EBC35022
S3150800021000F50000400800EBC350F0BC00F0A1B99F
S315080002206142012202EB4101001BF6E7F0BC704770
S3150800023081F00041AAE780F00040A7E780EA0102C2
S3150800024010B502F00043400022D04A001FD0010E2C
S3150800025001EB1261C0F35600C2F3560240F40000E7
S3150800026042F40002A0FB022000047F39140400D0E7
S31508000270401C50EA124001D44000491EC2B20C0686
S3150800028004EBD010401C4008802A02D003E000206E
S3150800029010BD20F00100002900DA0020184310BD27
S315080002A030B480EA010202F0004530F0004221F045
S315080002B0004013D090B1C30DD40DC2F31601C0F39C
S315080002C01600E41A41F4000140F400027D3491421C
S315080002D001D3641C00E04900002C02DA30BC00207F
S315080002E070474FF400000023914201D3891A034353
S315080002F040084FEA4101F7D151B1914202D14FF07E
S31508000300004105E002D24FF0010101E06FF0010162
S3150800031003EBC450284430BC00F023B92DE9FE4F46
S3150800032081EA030404F0004421F0004100944FF0F0
S31508000330000B23F0004350EA01045ED052EA03049E
S315080003405BD0C3F30A54C1F30A552C44A4F2F33420
S315080003500194A0FB0254C1F3130141F48011C3F3C5
S31508000360130343F4801301FB024400FB034E840A83
S31508000370970A44EA815447EA8357A4FB076802951B
S315080003808D0A05FB07854FEA932C04FB0C542705B9
S31508000390029D4FEA065847EA1637B5EB08056EEB95
S315080003A0070C870E920E47EA811742EA8312A7FBCB
S315080003B00201B6EB0B0164EB00042B0D43EA0C3388
S315080003C05E1844EB1C50DA465146E7FB0201C5F3BA
S315080003D013044FEA0B3343EA14534FEA0432019CE1
S315080003E043EA0603A4F10C040294009CCDE900B488
S315080003F000F0FDF803B0BDE8F08F00200146F9E7EC
S31508000400C10F80EAE0700844CA079623002100F06D
S31508000410B1B896230022114600F0ACB800F00042AD
S3150800042020F00040C10DC0F3160040F400007F29FB
S3150800043001DA00207047962903DCC1F19601C8400D
S3150800044001E096398840002AF4D04042704700F00F
S31508000450004230F000400AD0C10D01F56071C0F3CA
S31508000460160042EA0151C2084007114370470020AE
S315080004700146704701F0004330B421F0004150EACC
S31508000480010206D00A0DA2F56072C1F31301002A13
S3150800049002DC30BC00207047440F44EAC104C100A6
S315080004A0E01830BC00EBC25000F05BB8002801DB56
S315080004B0C0F10040002901DBC1F1004181427047CB
S315080004C0002801DBC0F10040002901DBC1F1004131
S315080004D08842704730B50B46014600202022012489
S315080004E009E021FA02F59D4205D303FA02F5491BF4
S315080004F004FA02F52844151EA2F10102F1DC30BD0A
S315080005002DE9F05F0546002092469B46884606463A
S31508000510814640241BE0284641464746224600F0CD
S3150800052032FA53465A46C01A914110D31146184614
S31508000530224600F019FA2D1A67EB01084F462246A3
S315080005400120002100F010FA17EB00094E41201E89
S31508000550A4F10104DFDC484631462A464346BDE895
S31508000560F09F0029A8BF7047401C490008BF20F02B
S315080005700100704710B4B0FA80FC00FA0CF050EA9B
S31508000580010404BF10BC704749B1CCF1200421FA1C
S3150800059004F411FA0CF118BF012121430843A3EB17
S315080005A00C01CB1D4FEA00614FEA102042BF002024
S315080005B010BC704700EBC35010440029A4BF10BC00
S315080005C07047401C490008BF20F0010010BC704766
S315080005D010B5141E73F1000408DA401C41F100013D
S315080005E092185B411A4301D120F0010010BD2DE994
S315080005F0F04D92469B4611B1B1FA81F202E0B0FA8B
S3150800060080F22032904600F0AFF904460F4640EAE1
S315080006100A0041EA0B0153465A46084313D01146CD
S3150800062053EA010019D0C8F14002504600F0ABF970
S3150800063005460E4650465946424600F095F9084387
S3150800064005D0012004E020463946BDE8F08D00209B
S31508000650054346EAE0762C4337430A986305E40ADD
S31508000660A0EB08000022FD0A44EA47540A3002D5E6
S3150800067000200146E9E7010510196941DDE9084549
S3150800068000196941BDE8F04DA2E72DE9FE4F804605
S3150800069081EA0300C00F0C46009021F0004123F0C8
S315080006A00045B8EB0200A94105D2404621469046CE
S315080006B01C460B46024623F00040104347D0270D40
S315080006C0C7F30A00C3F30A510290401A0190402862
S315080006D06BDAC3F3130040F4801B0098924620B1EE
S315080006E00023D2EB030A63EB0B0B01985946C0F1C2
S315080006F04002504600F038F906460D46504659461F
S31508000700019A00F050F910EB08006141002487EACD
S31508000710115284EAE7731A4340D0009A62B3019AE9
S31508000720012A4FEA075215DC001B61EB02014FF064
S31508000730004202EA0752CDE90042001C41F5801149
S3150800074032462B46FFF753FF03B0BDE8F08F40460D
S315080007502146F9E7001B61EB0201001C41F58013F5
S3150800076000185B412018A2F5001747EB030140EA81
S31508000770D570B6196D4111E06D084FEA360645EA9F
S31508000780C0754FEA0752001B61EB0201001C41F5D8
S31508000790801149084FEA30000019514132462B466C
S315080007A003B0BDE8F04FFFF713BF009801224000E1
S315080007B00023D0EB020263EBE073009821464FEA70
S315080007C0E074B8EB000061EB0401E9E783F000434D
S315080007D05BE781F0004158E72DE9F04D81EA030413
S315080007E004F0004B21F0004514464FF0000A23F0B0
S315080007F0004150EA050220D054EA01021DD0C5F393
S315080008000A570246C5F31303C1F31300C1F30A5688
S3150800081040F4801543F48013A7EB0608101BD64650
S3150800082008F2FD3873EB050002D308F1010801E070
S3150800083092185B41B8F1000F03DA00200146BDE8C3
S31508000840F08D00204FF48011064684460EE0171BF3
S3150800085073EB050705D3121B63EB050306434CEA46
S31508000860010C49084FEA300092185B4150EA01072B
S31508000870EDD152EA030012D082EA040083EA0501A8
S31508000880084305D0101BAB4106D20122002306E01F
S3150800089000224FF0004302E06FF0010253101AEBFA
S315080008A006004CEB085110EB0A0041EB0B01BDE8C2
S315080008B0F04DFFF78DBE70B521F0004303430CD011
S315080008C0C1F30A550024D5EB040564EB0403D617D7
S315080008D0AD1AB34102DB0020014670BD201841EB7A
S315080008E0025170BDC1F30A52C1F3130140F2FF333E
S315080008F041F480119A4202DA00200146704740F21C
S3150800090033439A42A2F2334202DC524200F03BB829
S3150800091000F02AB830B5041E71F1000404DB4FF06C
S315080009200044404264EB0101141E73F1000405DB28
S315080009301C464FF00043524263EB0403994208BF3A
S31508000940904230BD064C074D06E0E06840F00103D2
S3150800095094E8070098471034AC42F6D3FFF7ECFB4F
S31508000960C86D0008E86D0008202A04DB203A00FA62
S3150800097002F1002070479140C2F1200320FA03F3E8
S31508000980194390407047202A04DB203A21FA02F0E6
S315080009900021704721FA02F3D040C2F120029140AB
S315080009A0084319467047202A06DBCB17203A41FA36
S315080009B002F043EAE07306E041FA02F3D040C2F1DE
S315080009C0200291400843194670472DE9F04D00234F
S315080009D01A461B1A8A4103DB00200146BDE8F08D42
S315080009E0C1F30A52C1F3130141F480154FF0000B0D
S315080009F0D10702D100186D41521E0027044640F265
S31508000A00FF11384601EB620A3E4680460246002040
S31508000A104FF48011FFF7B7FFC2197141BB1846EBB7
S31508000A200100B4EB030C75EB000C04D3E41A65EB78
S31508000A30000517460E46241908F101006D41804647
S31508000A403428E3DDF91946EB0600091BA84103D251
S31508000A504FF0FF32134601E0002213461BEB070056
S31508000A6046EB0A51BDE8F04DFFF7B2BD10B54FF49D
S31508000A70966001F024F801F0EBFF02F0D9F913486B
S31508000A8004F0F2FB4FF47A7001F019F802F02AFA32
S31508000A9001F034FF02F016FC03F090FA03F018FB9D
S31508000AA002F026FA03F0BCFB01F02CF802F076FB04
S31508000AB005F064FF03F058FE4FF4966006F0C6F89A
S31508000AC04FF4876005F036FD10BD00009A99C940BD
S31508000AD070B504463E4800683E4908603E4880684E
S31508000AE0486221463B4805F013FF3A48806A3B496D
S31508000AF008603B49B1F90A00FFF782FC0546394808
S31508000B0001682846FFF79AFB34494862214633486C
S31508000B1005F0FEFE34490978494201EB8100FFF7EA
S31508000B206FFC05462D48816A2846FFF781FB2F4949
S31508000B3008602D490978494201EB8100FFF760FCFE
S31508000B4005462648816A2846FFF720FB284908609B
S31508000B5025490978494201EB8100FFF751FC054612
S31508000B601E48816A2846FFF763FB224908601E492A
S31508000B700978494201EB8100FFF742FC0546174810
S31508000B80816A2846FFF702FB1B4908601B48006874
S31508000B90164948621A4800681549486219480068A3
S31508000BA014494862184800681349486221460F48A4
S31508000BB005F0AEFE21460E4805F0AAFE21460D4870
S31508000BC005F0A6FE21460C4805F0A2FE70BD000001
S31508000BD030000020180300205C0400204C0300208D
S31508000BE050040020CC6C0008700000204802002049
S31508000BF07C020020B0020020E40200200C00002045
S31508000C0010000020140000201800002070B50446CB
S31508000C103A4800683A4908603A4880684862214676
S31508000C20374805F075FE3648806A374908603749FF
S31508000C30B1F90A00FFF7E4FB05463548016828467E
S31508000C40FFF7FCFA3049486221462F4805F060FE56
S31508000C50304909784842FFF7D3FB05462A48816A96
S31508000C602846FFF7E5FA2C4908602A4909784842D8
S31508000C70FFF7C6FB05462448816A2846FFF786FA29
S31508000C8026490860234909784842FFF7B9FB054613
S31508000C901D48816A2846FFF7CBFA214908601D4995
S31508000CA009784842FFF7ACFB05461748816A28468B
S31508000CB0FFF76CFA1B4908601B480068164948622A
S31508000CC01A48006815494862194800681449486274
S31508000CD0184800681349486221460F4805F018FE6F
S31508000CE021460E4805F014FE21460D4805F010FE73
S31508000CF021460C4805F00CFE70BD000030000020AF
S31508000D00180300205C0400204C0300205004002037
S31508000D10CC6C000870000020480200207C020020ED
S31508000D20B0020020E40200200C0000201000002081
S31508000D30140000201800002000BFFEE710B5044686
S31508000D40012C2FD14948007838B9BB20484908708A
S31508000D5003F0B0F9012045490870002145480068AC
S31508000D60FFF7A4FB0BD0002143480068FFF79EFB62
S31508000D7005D04248007810B90F204149087041480B
S31508000D800078BB2870D13D48007800286CD1FF2038
S31508000D903B49087001203B4908703B4908703749B0
S31508000DA0087061E0022C2FD13848007838B9BC2089
S31508000DB02F49087003F07EF9012034490870002194
S31508000DC02C480068FFF772FB0BD000212A48006800
S31508000DD0FFF76CFB05D02E48007810B90F2028497C
S31508000DE0087028480078BC283ED129480078002891
S31508000DF03AD1FF2022490870012022490870254966
S31508000E000870234908702FE0032C2DD1224800785A
S31508000E1038B9BD201649087003F04CF901201E495F
S31508000E200870002113480068FFF740FB0BD000212B
S31508000E3011480068FFF73AFB05D01848007810B942
S31508000E400F200F4908700F480078BD280CD11348A9
S31508000E50007848B9FF200A49087001200949087036
S31508000E600F4908700D49087010BD00008600002063
S31508000E701C000020280000202C0000207D000020F7
S31508000E805400002034000020800000208700002045
S31508000E907F00002081000020880000207E000020BE
S31508000EA08200002010B50446012C04D0022C4DD037
S31508000EB0032C4AD195E040F29E7005F0F7FE02F049
S31508000EC011F86E4800F090FD4FF4FA7000F0F7FD47
S31508000ED040F2262005F0BAFE4FF4FA7000F0EFFD56
S31508000EE002F000F8664804F0BFF940F61A1005F05B
S31508000EF021FB4FF4FA7000F0E2FD01F0F3FF6148C0
S31508000F0000F072FD4FF4FA7000F0D9FD4FF49660C8
S31508000F1005F09CFE01F0E6FF4FF4FA7000F0CFFDF5
S31508000F20584804F0A1F94FF4FA7000F0C8FD4FF4E0
S31508000F30876005F0FFFA01F0D5FF4FF0804000F01A
S31508000F4053FD4FF4FA7000F0BAFD95E040F22E40DA
S31508000F5005F0ACFE01F0C6FF484800F045FD4FF429
S31508000F60FA7000F0ACFD40F2262005F06FFE4FF453
S31508000F70FA7000F0A4FD01F0B5FF414804F074F9D9
S31508000F8040F6E80005F0D6FA4FF4FA7000F097FD3F
S31508000F9001F0A8FF3B4800F027FD4FF4FA7000F077
S31508000FA08EFD4FF4966005F051FE01F09BFF4FF45D
S31508000FB0FA7000F084FD334804F056F94FF4FA70DD
S31508000FC000F07DFD4FF4876005F0B4FA01F08AFF62
S31508000FD04FF0804000F008FD4FF4FA7000F06FFD06
S31508000FE04AE040F2762005F061FE01F07BFF2348D7
S31508000FF000F0FAFC4FF4FA7000F061FD40F226208A
S3150800100005F024FE4FF4FA7000F059FD01F06AFF6E
S315080010101B4804F029F940F62E1005F08BFA4FF418
S31508001020FA7000F04CFD01F05DFF164800F0DCFC9C
S315080010304FF4FA7000F043FD4FF4966005F006FE93
S3150800104001F050FF4FF4FA7000F039FD0D4804F036
S315080010500BF94FF4FA7000F032FD4FF4876005F093
S3150800106069FA01F03FFF4FF07E5004F0FDF84FF4A7
S31508001070FA7000F024FD00BF00BF10BD00006040FC
S315080010800000B0406666E63F10B50446012C04D061
S31508001090022C43D0032C40D181E040F29E7005F02B
S315080010A005FE01F01FFF5F4800F09EFC4FF47A70C2
S315080010B000F005FD40F2262005F0C8FD4FF4FA7051
S315080010C000F0FDFC01F00EFF564804F0CDF84FF491
S315080010D07A7000F0F4FC40F61A1005F02BFA4FF47B
S315080010E0FA7000F0ECFC01F0FDFE4F4800F07CFCC5
S315080010F040F2DC5000F0E3FC4FF4966005F0A6FDE4
S3150800110001F0F0FE484804F0AFF84FF4FA7000F02A
S31508001110D6FC4FF4876005F00DFA81E040F22E40C8
S3150800112005F0C4FD01F0DEFE3E4800F05DFC4FF41C
S315080011307A7000F0C4FC40F2262005F087FD4FF4D3
S31508001140FA7000F0BCFC01F0CDFE364804F08CF8CD
S315080011504FF47A7000F0B3FC40F6E80005F0EAF9BF
S315080011604FF4FA7000F0ABFC01F0BCFE2E4800F01C
S315080011703BFC40F2DC5000F0A2FC4FF4966005F010
S3150800118065FD01F0AFFE284804F06EF84FF4FA70DA
S3150800119000F095FC4FF4876005F0CCF940E040F28A
S315080011A0762005F083FD01F09DFE1E4800F01CFC2C
S315080011B04FF47A7000F083FC40F2262005F046FDD5
S315080011C04FF4FA7000F07BFC01F08CFE154804F031
S315080011D04BF84FF47A7000F072FC40F62E1005F0CA
S315080011E0A9F94FF4FA7000F06AFC01F07BFE0E488C
S315080011F000F0FAFB40F2DC5000F061FC4FF4966018
S3150800120005F024FD01F06EFE074804F02DF84FF4B2
S31508001210FA7000F054FC4FF4876005F08BF900BFB4
S3150800122000BF10BD000040413333F33F10B52948D5
S315080012300078032190FBF1F201FB120025490870A2
S3150800124008460078401C087008460078FFF71CFF1F
S315080012504FF47A7000F033FC1E480078012813D149
S315080012601D49087000201D4908701D4908701D4851
S3150800127080781C494978884203DC18201A49087086
S3150800128002E013201849087012480078022814D181
S3150800129001201349087000200F4908700F4908708B
S315080012A01048C0780F498978884203DC18200E490F
S315080012B0087002E013200C490870064800780328D5
S315080012C006D10020064908700349087003490870CA
S315080012D010BD0000B500002078000020770000202F
S315080012E0790000201C0000205400002010B5FE489C
S315080012F0007818B1FC48007803287DD1FB480068BF
S31508001300401CFA49086008460068E62808D3F848E9
S31508001310007828B90D20F74908700120F4490870AB
S31508001320F2480068B0F5AF6F11D3F348007870B98A
S31508001330FF20F0490870FC20F049087002F0BAFE58
S31508001340AD20EE4908700120EB4908700BE0E7482C
S31508001350006840F21451884205D3E748007810B96E
S315080013601720E44908700021E5480068FFF79EF851
S315080013700ED00021E3480068FFF798F808D0E24845
S31508001380007828B90F20DB4908700120DE4908706B
S31508001390DE480078CD280ED1D64800780F280AD125
S315080013A0FF20D44908700120D9490870D948007827
S315080013B0401CD8490870D849D8480068FEF7E6FEA8
S315080013C00446D74881682046FFF770F81ED8C948F2
S315080013D0007814281AD1CF480078012816D106219A
S315080013E0D04805F07FFA1720C2490870CC488068B3
S315080013F0CA490860C74800E083E00078401CC54930
S315080014000870AD20BD49087002F054FEBF48007848
S31508001410AD281AD1B7480078172816D1BD480078E4
S31508001420022812D11420B34908700120B749087060
S31508001430B249087002F03EFE0020B5490870B5486A
S315080014400078401CB349087066E2B349B34800689F
S31508001450FEF79CFE0446B24881682046FFF726F848
S3150800146018D8A4480078142814D1AA480078032864
S3150800147010D10621AB4805F035FA17209D490870AA
S31508001480A7488068A5490860A2480078401CA14979
S31508001490087041E2974800781728D5D19D4800780A
S315080014A00428D1D1A0480068401C9F490860084616
S315080014B00068B0F5966F04D1AD209049087002F027
S315080014C0F9FD99480068B0F5966FBDD38F48007846
S315080014D0AD28B9D10621934805F004FA0D208549AF
S315080014E0087000208B490870904908607F49086099
S315080014F07D480078401C7C49087000208A490860AD
S315080015000AE279480078012803D077480078042849
S315080015107ED176480068401C744908600846006811
S3150800152040F28A2188420ED3724800780D280AD1E3
S315080015307848007838B9FF206E49087075480078F1
S31508001540401C744908707A480078012804D16B4910
S31508001550487802F073F810E076480078012804D13C
S315080015606649887802F06AF807E073480078012827
S3150800157003D16249C87802F061F8704800780128FA
S315080015800CD16B48007848B96A48007830B96A487F
S31508001590007818B959494878FFF7D0FB68480078A9
S315080015A0012803D155498878FFF7C8FB65480078B4
S315080015B0012803D15149C878FFF7C0FB5F48007876
S315080015C088B95F48007870B95E48007858B95148BC
S315080015D00078012807D11520464908704D4800783B
S315080015E0401C4C4908704C494C480068FEF720FEE0
S315080015F004464B4881682046FEF758FF1ED83D48EA
S31508001600007815281AD143480078022816D100E038
S3150800161055E00621434805F065F917203549087055
S315080016203E4800683D490860AD203449087002F01C
S3150800163041FD38480078401C364908703348007820
S31508001640AD283BD12B480078172803D029480078C5
S31508001650FF28F6D12F4800780328F2D11120254912
S31508001660087032480068401C30490860084600681F
S31508001670B0F5C87F22D3FB202049087002F01AFD76
S3150800168012201C49087018480078401C1649087032
S315080016900120274908702949087000202A4908703E
S315080016A02A4908702A4908702A4908702A49087080
S315080016B02A4908701D490860164908702CE10A482D
S315080016C00078022803D0084800780528F6D118487B
S315080016D00078012803D10949487801F0AFFF154879
S315080016E00078012840D13BE0890000205C000020FA
S315080016F06000002054000020620000201C0000202A
S31508001700280000202C000020610000203400002062
S315080017106800002055000020000096423000002096
S315080017205C0400209400002058000020640000207B
S315080017307400002075000020760000207700002045
S315080017407800002079000020830000208400002013
S31508001750850000207A0000207B0000207C00002005
S315080017606E49887801F06AFF6D480078012803D130
S315080017706A49C87801F062FF6A48007880B96A4801
S31508001780007868B96648007850B96848007838B96A
S3150800179015206749087065480078401C6349087039
S315080017A0644965480068FEF743FD04466348816856
S315080017B02046FEF785FE17D85D480078152813D110
S315080017C05A48007801280FD106215D4805F08AF8A5
S315080017D01720574908705848006857490860534801
S315080017E00078401C5149087056480078AD2816D133
S315080017F04F480078172803D04D480078FF280ED1A7
S315080018004A48007802280AD1112049490870002060
S315080018104D49086045480078401C444908704448CA
S315080018200078112803D042480078FF284AD13F485B
S315080018300078032846D145480068401C434908609B
S3150800184008460068B0F5FA7F66D341480078022852
S315080018500AD1FC203149087002F02CFC3C4800787B
S31508001860401C3B49087006E039480078052802D133
S31508001870EA203449087001202A4908703549087059
S3150800188000203549087035490870354908703549CA
S31508001890087035490870354908702B49086034497D
S315080018A00870344908703449087034490870344956
S315080018B00870344908703449087034490870344946
S315080018C0087029E01F480078EA2825D118480078CA
S315080018D0112803D016480078FF281DD11348007830
S315080018E0032819D119480068401C18490860084699
S315080018F0006840F2DC5188420ED317200C49087064
S3150800190011480068401C1049086008460068E62827
S3150800191002D3FF200649087010BD00001C000020F5
S315080019207600002074000020750000205500002075
S315080019305400002000009642300000205C0400207D
S315080019409400002034000020640000205C00002081
S3150800195089000020770000208300002084000020F2
S3150800196085000020860000208700002088000020CF
S315080019707A0000207B0000207C0000207D000020EB
S315080019807E0000207F0000207100002072000020E9
S315080019907300002010B51049886AFEF73FFD04B2AF
S315080019A0204601F019FB0D49886AFEF737FD04B297
S315080019B0204601F055FB0A49886AFEF72FFD04B256
S315080019C0204601F0E9FA0749886AFEF727FD04B2BE
S315080019D0204601F021FB10BD480200207C020020B1
S315080019E0B0020020E402002038B5044655E02D4830
S315080019F004602D48007818BB10212C4800F08AFA9C
S31508001A0020212A4800F084FA01221146284802F0CB
S31508001A10F0FF372001F0A0FC1C208DF80000012003
S31508001A208DF8030002208DF8010001208DF80200D0
S31508001A30684601F09DFC01211D4802F02BFF2CE0B1
S31508001A4019480078012828D100201A490860002280
S31508001A500121174802F0CDFF372001F071FC1C2048
S31508001A608DF8000001208DF8030002208DF8010092
S31508001A7001208DF80200684601F07AFC00210C4826
S31508001A8002F008FF01210A4802F001FF01200A4975
S31508001A90087000200449087000BF0748007800282D
S31508001AA0A5D038BD0800002001000020000C014028
S31508001AB0001400400400002002000020704700B512
S31508001AC0034603E04FF47A7000F005F8181EA3F1F8
S31508001AD00103F7D100BD00EBC001C9004FF0E022B9
S31508001AE05161002191610521116100BF4FF0E0218C
S31508001AF0096901F480310029F8D004214FF0E02269
S31508001B001161704710B504F0B7FD05F029F804F027
S31508001B1055FD04F0C7FF10BD70B504463A48006885
S31508001B203A4908603A48806848622146374804F0CE
S31508001B30EFFE3648806A374908603749B1F90A0026
S31508001B40FEF75EFC0546354801682846FEF776FB33
S31508001B503049486221462F4804F0DAFE30490978B0
S31508001B608800FEF74DFC05462A48816A2846FEF796
S31508001B705FFB2C4908602A4909788800FEF740FC73
S31508001B8005462448816A2846FEF700FB2649086070
S31508001B90234909788800FEF733FC05461D48816A03
S31508001BA02846FEF745FB214908601D490978880043
S31508001BB0FEF726FC05461748816A2846FEF7E6FA28
S31508001BC01B4908601B480068164948621A4800689D
S31508001BD01549486219480068144948621848006857
S31508001BE01349486221460F4804F092FE21460E48E2
S31508001BF004F08EFE21460D4804F08AFE21460C4864
S31508001C0004F086FE70BD0000300000201803002096
S31508001C105C0400204C03002050040020CC6C000813
S31508001C2070000020480200207C020020B00200203C
S31508001C30E40200200C000020100000201400002000
S31508001C401800002070B5044638480068384908600E
S31508001C503848806848622146354804F059FE3448B9
S31508001C60806A354908603549B1F90A00FEF7C8FBAC
S31508001C700546334801682846FEF7E0FA2E494862C9
S31508001C8021462D4804F044FE2E490878FEF7B8FB95
S31508001C9005462948816A2846FEF7CAFA2A4908608D
S31508001CA028490878FEF7ACFB05462348816A28468A
S31508001CB0FEF76CFA2549086022490878FEF7A0FB6A
S31508001CC005461D48816A2846FEF7B2FA204908608B
S31508001CD01C490878FEF794FB05461748816A28468A
S31508001CE0FEF754FA1B4908601B4800681649486203
S31508001CF01A48006815494862194800681449486234
S31508001D00184800681349486221460F4804F000FE47
S31508001D1021460E4804F0FCFD21460D4804F0F8FD66
S31508001D2021460C4804F0F4FD70BD00003000002088
S31508001D30180300205C0400204C03002050040020F7
S31508001D40CC6C000870000020480200207C020020AD
S31508001D50B0020020E40200200C0000201000002041
S31508001D6014000020180000202DE9F0410246002545
S31508001D700026002000230024002791F803C00CF059
S31508001D800F0591F803C00CF0100CBCF1000F03D03E
S31508001D9091F802C04CEA050591F800C0BCF1000FA5
S31508001DA031D0146800202BE04FF0010C0CFA00F338
S31508001DB0B1F800C00CEA03069E4220D183004FF01A
S31508001DC00F0C0CFA03F7BC4305FA03FC4CEA0404AF
S31508001DD091F803C0BCF1280F06D14FF0010C0CFA9C
S31508001DE000FCC2F814C00AE091F803C0BCF1480F21
S31508001DF005D14FF0010C0CFA00FCC2F810C0401CCB
S31508001E000828D1D31460B1F800C0BCF1FF0F34DD47
S31508001E10546800202EE000F1080C4FF0010808FA7B
S31508001E200CF3B1F800C00CEA03069E4221D18300E8
S31508001E304FF00F0C0CFA03F7BC4305FA03FC4CEA07
S31508001E40040491F803C0BCF1280F05D100F1080C71
S31508001E5008FA0CF8C2F8148091F803C0BCF1480FD0
S31508001E6007D100F1080C4FF0010808FA0CF8C2F87F
S31508001E701080401C0828CED35460BDE8F0810000CD
S31508001E80F0B50A46002300240021002500F000468C
S31508001E90B6F1004F02D11D4EF16901E01B4E716883
S31508001EA0C0F3034583B200F44016B6F5401F08D1C7
S31508001EB021F07061154E766826F07066134F7E60C5
S31508001EC012E000F48016B6F5801F06D1032606FA3E
S31508001ED005F4A14341F0706106E0460D360103FAA8
S31508001EE006F6B14341F0706122B1460D360103FA98
S31508001EF006F6314300F00046B6F1004F02D1034E14
S31508001F00F16101E0014E7160F0BD00000000014082
S31508001F10416170470161704707B5A2B04FF07C5127
S31508001F202498FEF78BF90F90FE4880680B90FD48C1
S31508001F3000680A900B99FEF781F90D90F948C06878
S31508001F400B90F84840680A900B99FEF777F90C90C1
S31508001F500D99FEF76DF94FF080410E90FEF76EF978
S31508001F601E90F048C0680B90EE4880680A900B995E
S31508001F70FEF764F90D90EB4840680B90E948006855
S31508001F800A900B99FEF75AF90C900D99FEF7FEF890
S31508001F904FF080410E90FEF751F91F90E148806896
S31508001FA00A90E048806809900A99FEF747F90C906C
S31508001FB0DC4840680A90DB48406809900A99FEF7B1
S31508001FC03DF90B900C99FEF7E1F84FF080410D9022
S31508001FD0FEF734F94FF07E510E90FEF72CF920905B
S31508001FE0D148B0F904000990FEF70AFA0B90CE48DA
S31508001FF0B0F904000990FEF703FA0A900B99FEF768
S315080020001DF90D90C848B0F902000790FEF7F8F9D7
S315080020100990C548B0F902000790FEF7F1F9089053
S315080020200999FEF70BF90B90BF48B0F90000079025
S31508002030FEF7E6F90990BC48B0F900000790FEF7EC
S31508002040DFF908900999FEF7F9F80A900B99FEF757
S315080020509DF80C900D99FEF799F80E9001F046FD43
S31508002060B24908602298B0F900000D90FEF7C8F949
S315080020700E90AE4801680E98FEF7E0F81B9022987D
S31508002080B0F902000D90FEF7BBF90E90A74801685B
S315080020900E98FEF7D3F81C902298B0F904000D901C
S315080020A0FEF7AEF90E90A14801680E98FEF7C6F83D
S315080020B01D901F980C901D980B900C99FEF7BEF872
S315080020C00E9020980C901C980B900C99FEF7B6F879
S315080020D00D900E99FEF7ACF8159020980C901B9869
S315080020E00B900C99FEF7AAF80E901E980C901D9866
S315080020F00B900C99FEF7A2F80D900E99FEF798F83A
S3150800210016901E980C901C980B900C99FEF796F852
S315080021100E901F980C901B980B900C99FEF78EF852
S315080021200D900E99FEF784F8179015980D90804833
S3150800213001680D98FEF782F80E907E480068014601
S315080021400D900E98FEF722F87A49086016980D90B9
S31508002150774801680D98FEF771F80E907548406843
S3150800216001460D900E98FEF711F8724948601798C7
S315080021700D906F4801680D98FEF760F80E906D484F
S31508002180806801460D900E98FEF700F86949886048
S31508002190159801460B9068480068FEF74FF80D90B1
S315080021A02298B0F906000A90FEF72AF963490B90BF
S315080021B0FEF744F80C900D99FDF7E8FF0E905D4880
S315080021C0006801460D900E98FDF7E0FF18901698E6
S315080021D001460B9058480068FEF730F80D90229893
S315080021E0B0F908000A90FEF70BF954490B90FEF770
S315080021F025F80C900D99FDF7C9FF0E904D484068DB
S3150800220001460D900E98FDF7C1FF199017980146E3
S315080022100B9049480068FEF711F80D902298B0F91E
S315080022200A000A90FEF7ECF844490B90FEF706F808
S315080022300C900D99FDF7AAFF0E903E48806801465E
S315080022400D900E98FDF7A2FF1A901A980B90354834
S31508002250C0680A900B99FDF7F1FF0D90199809903F
S315080022603048806808900999FDF7E8FF0B902D48DB
S31508002270406880F00040099018980146089009982F
S31508002280FDF7DCFF0A900B99FDF7D2FF0C900D992C
S31508002290FDF7CEFF0E900F99FDF7D0FF14901A9810
S315080022A00B90204880680A900B99FDF7C7FF0D90A0
S315080022B0199809901B48C06808900999FDF7BEFF50
S315080022C00B90189809901748006808900999FDF727
S315080022D0B5FF0A900B99FDF7ABFF0C900D99FDF72A
S315080022E055FF0E900F99FDF7A9FF13901A980B90BA
S315080022F00C4840680A900B99FDF7A0FF0D901998B5
S3150800230009900848006808900999FDF797FF0B900F
S31508002310189809900348C06808900999FDF78EFF38
S315080023200A900DE0C400002050040020C0000020E0
S3150800233020010020740400201C0100202E9E8B3AE8
S315080023400B99FDF723FF0C900D99FDF771FF0E9081
S315080023500F99FDF773FF12901A980B90B34800680F
S315080023600A900B99FDF76AFF0D9019980990AF48E6
S31508002370406808900999FDF761FF0B90AB488068A3
S3150800238080F0004009901898014608900998FDF7D2
S3150800239055FF0A900B99FDF7F9FE0C900D99FDF77C
S315080023A0F5FE0E900F99FDF749FF11909F480068BA
S315080023B00E901499FDF7EAFE9C49086008464068A5
S315080023C00E901399FDF7E2FE984948600846806822
S315080023D00E901299FDF7DAFE944988600846C0689F
S315080023E00E901199FDF7D2FE9049C8600846C0685C
S315080023F00B900846C0680A900B99FDF71FFF0D90D1
S315080024008A48806809908948806808900999FDF784
S3150800241015FF0B90854840680790844840680690E9
S315080024200799FDF70BFF09908048006807907F48D9
S31508002430006806900799FDF701FF08900999FDF7CE
S31508002440A5FE0A900B99FDF7A1FE0C900D99FDF7D4
S315080024509DFE0E9001F04AFB1090744800680E909D
S315080024601099FDF7EBFE71490860084640680E9022
S315080024701099FDF7E3FE6D494860084680680E909E
S315080024801099FDF7DBFE694988600846C0680E901A
S315080024901099FDF7D3FE6549C8602298B0F90A007D
S315080024A00C90FDF7ADFF62490D90FDF7C7FE0E9043
S315080024B04FF07E510E98FEF703F804D35D490E9847
S315080024C0FDF7F4FF0DD224990E98FDF7B7FE0D908F
S315080024D02398806801460C900D98FDF757FE2399BE
S315080024E0886052484068014603904FF08040FDF7E7
S315080024F0A5FE04904D48C068014603900498FDF770
S315080025009DFE069049480068014603904FF08040BA
S31508002510FDF794FE049045488068014603900498A8
S31508002520FDF78CFE05900699FDF782FE0790FDF7EC
S315080025308EFFCDE9080103F0F5FC4FF000523E4B43
S31508002540CDE90A01FDF7EAFECDE90C01FDF792FF98
S315080025502399486035488068014601904FF08040CD
S31508002560FDF76CFE0290314880680146019002989A
S31508002570FDF764FE04902D484068014600904FF030
S315080025808040FDF75BFE01902848406801460090B0
S315080025900198FDF753FE4FF07E510290FDF74BFE72
S315080025A003900499FDF744FE0590FDF750FFCDE929
S315080025B008011E480068014601904FF08040FDF76B
S315080025C03DFE029019484068014601900298FDF7C1
S315080025D035FE049015488068014601904FF080400A
S315080025E0FDF72CFE02901148C0680146019002983A
S315080025F0FDF724FE03900499FDF7C8FD0590FDF745
S3150800260026FFCDE90601DDE9082303F0D3FE4FF0E6
S315080026100052094BCDE90A01FDF780FECDE90C0110
S31508002620FDF728FF2399086025B000BDC4000020E7
S31508002630F6FF793D000080BFDCA54C4010B504F0DC
S315080026400DF80446FDF7DCFE0B49086004F07AFA3B
S315080026500446FDF7D5FE0949086003F0A1FF0446C4
S31508002660FDF7CEFE0649086004F00EFA0446FDF7AB
S31508002670C7FE0449086010BD0C00002010000020A9
S31508002680140000201800002000BFFEE700B54FF434
S3150800269000600F49086000F023F94FF480600C4988
S315080026A0086000F01DF94FF400600949091F086029
S315080026B000F016F900F014F900F012F900F010F91C
S315080026C04FF400600249086000F00AF900BD0000F6
S315080026D0140C014000B54FF400600F49086000F083
S315080026E0FFF84FF480600C49091F086000F0F8F8FD
S315080026F04FF400600849091F086000F0F1F800F07F
S31508002700EFF800F0EDF800F0EBF84FF4006002493E
S31508002710086000F0E5F800BD140C014000B5082279
S315080027200021D001154B18601CE04806010E4FF435
S315080027300060124B1B1D186000F0D2F800F0D0F8AC
S315080027404FF400600D4B186000F0CAF800F0C8F8A6
S3150800275000F0C6F809480838006800F4806008B137
S3150800276041F00101101EA2F10103DAB2DDD14FF4E6
S315080027700060024B1B1D1860084600BD100C014086
S3150800278000B50146082221E04FF40060144B18609A
S3150800279000F0A6F801F0800028B14FF48060104BD5
S315080027A01B1F186003E04FF480600D4B1860480645
S315080027B0010E00F095F84FF40060094B1B1F1860D6
S315080027C000F08EF800F08CF800F08AF8101EA2F1DE
S315080027D00103DAB2D8D14FF40060014B186000BD8E
S315080027E0140C014000B54FF480601549086040009C
S315080027F0086000F075F812480838006808B9012022
S3150800280000E0002000F4806008B1012000BD4FF40C
S3150800281080600B49091D086000F062F8084808380E
S31508002820006800F4806008B10120EFE74FF400600B
S315080028300349091D086000F053F80020E6E7000088
S31508002840100C014000B54FF400600D49086000F017
S3150800285047F84FF480600A49086000F041F800F034
S315080028603FF84FF400600649091F086000F038F881
S315080028704FF480600249091F086000F031F800BD76
S31508002880140C014000B54FF400601449086000F0CC
S3150800289027F84FF480601149091F086000F020F8F6
S315080028A04FF400600D49091F086000F019F800F0A0
S315080028B017F800F015F809480C38006800F480602D
S315080028C028B14FF4006005490860012000BD4FF4A7
S315080028D00060024908600020F8E70000140C014077
S315080028E008B50220009004E09DF80000401EC0B222
S315080028F000909DF800000028F6D108BD08B5012112
S31508002900082001F02BF94FF44060ADF800000320D1
S315080029108DF8020014208DF8030069460148FFF778
S3150800292023FA08BD000C014070B504460D46002682
S31508002930FFF758FF012800D170BD2046FFF720FF9A
S31508002940FFF7A0FF012803D1FFF77CFF0120F3E77B
S315080029502846FFF715FFFFF795FFFFF773FFFFF709
S3150800296041FF611CC8B2FFF70BFFFFF78BFF012879
S3150800297003D1FFF767FF0120DEE7FFF7CFFE064624
S31508002980FFF7A8FEFFF75EFF70B2D5E770B50646FB
S315080029900C461546FFF726FF012800D170BD3046C4
S315080029A0FFF7EEFEFFF76EFF012803D1FFF74AFF98
S315080029B00120F3E72046FFF7E3FEFFF763FF28460B
S315080029C0FFF7DEFEFFF75EFFFFF73CFF0020E5E7B7
S315080029D02DE9F04106460F4615461C46FFF702FF4D
S315080029E0012801D1BDE8F0813046FFF7C9FEFFF79F
S315080029F049FF012803D1FFF725FF0120F2E73846F2
S31508002A00FFF7BEFEFFF73EFFFFF71CFFFFF7EAFEE4
S31508002A10711CC8B2FFF7B4FEFFF734FF012803D1D3
S31508002A20FFF710FF0120DDE70CE0FFF777FE2870BF
S31508002A30012C02D1FFF74EFE01E0FFF727FE6D1CC1
S31508002A40601EC4B2002CF0D1FFF7FCFE0020C9E7D7
S31508002A50244825490861254848610020C8604FF088
S31508002A607E500860002088601E48214908611F487A
S31508002A7048610020C8604FF07E50086000208860DA
S31508002A8018481C490861194848610020C8604FF079
S31508002A907E5008600020886012481749086113486C
S31508002AA048610020C8604FF07E50086000208860AA
S31508002AB00C48124908610D4848610020C8604FF06B
S31508002AC07E5008600020886006480D49086107485E
S31508002AD048610020C8604FF07E500860002088607A
S31508002AE0704700006666663E300200209A99D93E15
S31508002AF0B8010020D0010020E801002000020020D3
S31508002B001802002070B504464F48504908605048DE
S31508002B1050490860002150480068FDF7C7FC05D0F9
S31508002B2000214E480068FDF7C1FC04D10020474942
S31508002B300860484908604848006844494862474868
S31508002B400068444948622146404803F0E1FE2146B0
S31508002B50404803F0DDFE42480068424908604248A2
S31508002B608068486221463F4803F0D2FE3D48806AA5
S31508002B703E4908603E49B1F90A00FDF741FC0546A1
S31508002B803C4801682846FDF759FB38494862214602
S31508002B90364803F0BDFE2F4A916A2C4A906AFDF723
S31508002BA0F5FA05462F48816A2846FDF741FB324962
S31508002BB00860284A916A254A906AFDF739FB054656
S31508002BC02848816A2846FDF7E1FA2C490860214A17
S31508002BD0916A1E4A906AFDF72BFB05462148816AD1
S31508002BE02846FDF725FB264908601A4A916A174ABE
S31508002BF0906AFDF7CBFA05461A48816A2846FDF71A
S31508002C00C5FA20490860204800681B4948621F48E1
S31508002C1000681A4948621E480068194948621D48F2
S31508002C200068184948622146134803F071FE214698
S31508002C30124803F06DFE2146114803F069FE21464D
S31508002C40104803F065FE70BD00809D438003002098
S31508002C5000006143B4030020280000202C00002057
S31508002C6030000020180300205C0400204C030020DC
S31508002C7050040020CC6C0008480200207C0200208A
S31508002C80B0020020E40200200C0000201000002002
S31508002C90140000201800002070B504464F4850491B
S31508002CA00860504850490860002150480068FDF700
S31508002CB0FDFB05D000214E480068FDF7F7FB04D15F
S31508002CC00020474908604849086048480068444960
S31508002CD0486247480068444948622146404803F02C
S31508002CE017FE2146404803F013FE42480068424951
S31508002CF0086042488068486221463F4803F008FE5B
S31508002D003D48806A3E4908603E49B1F90A00FDF728
S31508002D1077FB05463C4801682846FDF78FFA38498F
S31508002D2048622146364803F0F3FD2F4A916A2C4A39
S31508002D30906AFDF72BFA05462F48816A2846FDF763
S31508002D4077FA32490860284A916A254A906AFDF757
S31508002D506FFA05462848816A2846FDF717FA2C496E
S31508002D600860214A916A1E4A906AFDF761FA05468B
S31508002D702148816A2846FDF75BFA264908601A4AFF
S31508002D80916A174A906AFDF701FA05461A48816A58
S31508002D902846FDF7FBF920490860204800681B49CA
S31508002DA048621F4800681A4948621E48006819495F
S31508002DB048621D480068184948622146134803F0CE
S31508002DC0A7FD2146124803F0A3FD2146114803F04A
S31508002DD09FFD2146104803F09BFD70BD00809D4372
S31508002DE0E803002000003E431C04002028000020C1
S31508002DF02C00002030000020180300205C0400206E
S31508002E004C03002050040020CC6C00084802002027
S31508002E107C020020B0020020E40200200C00002002
S31508002E2010000020140000201800002000BFFEE754
S31508002E3000B585B00121042000F090FE012108208C
S31508002E4000F08CFE10208DF8130003208DF8120078
S31508002E501020ADF8100004A91F48FEF785FF2020B2
S31508002E60ADF8100004A91C48FEF77EFF4FF4805009
S31508002E70ADF8100004A91948FEF776FF372000F0D0
S31508002E806BFA0121202000F059FEC720ADF8080092
S31508002E902C20ADF8040001A9114801F055FF0121C5
S31508002EA00F4801F0F1FC4FF4A06000F099FA3720C2
S31508002EB08DF8000002208DF8010000208DF8020030
S31508002EC001208DF80300684600F052FA01210448F3
S31508002ED001F0E0FC05B000BD000C0140000801400F
S31508002EE000140040002001490870704702000020C5
S31508002EF008B50121042000F031FE0121082000F068
S31508002F002DFE0121102000F029FE0121084600F0BF
S31508002F1025FE01211D48FEF7B3FF10208DF803009A
S31508002F200320ADF800008DF8020069461848FEF740
S31508002F301BFF10208DF803004FF44050ADF8000039
S31508002F4003208DF8020069461248FEF70DFF10208F
S31508002F508DF803000C20ADF8000003208DF8020060
S31508002F6069460B48FEF700FF10208DF803004FF462
S31508002F704040ADF8000003208DF802006946054878
S31508002F80FEF7F2FE00F036FA08BD00000002300037
S31508002F9000100140000C014010B50446002C0BDB64
S31508002FA008210C48FEF7B4FF04210A48FEF7B2FFD1
S31508002FB0A0B200F095FA0BE008210648FEF7AAFF32
S31508002FC004210448FEF7A4FF614288B200F088FA9B
S31508002FD010BD00000010014010B50446002C0BDBA4
S31508002FE001210C48FEF794FF02210A48FEF792FFDA
S31508002FF0A0B200F06BFA0BE001210648FEF78AFF43
S3150800300002210448FEF784FF614288B200F05EFAA6
S3150800301010BD00000010014010B50446002C0DDB61
S315080030204FF480410D48FEF773FF4FF400410B48FB
S31508003030FEF770FFA0B200F067FA0DE04FF480418A
S315080030400648FEF767FF4FF400410448FEF760FFA5
S31508003050614288B200F058FA10BD0000000C014029
S3150800306010B50446002C0DDB4FF400510D48FEF751
S315080030704FFF4FF480510B48FEF74CFFA0B200F00B
S3150800308039FA0DE04FF400510648FEF743FF4FF4B6
S3150800309080510448FEF73CFF614288B200F02AFAE4
S315080030A010BD0000000C01402DE9FE4F06236A46BC
S315080030B03B21D020FFF78CFC06230DF106024321A5
S315080030C0D020FFF785FC002458E0012000EB4400DF
S315080030D01DF800001DF8141040EA0120294931F8AE
S315080030E01410401A00B22849096821F81400032C64
S315080030F01BDA2549096831F91400FDF781F90546F7
S3150800310004EB4401214A02EBC100294603F01CFAEC
S3150800311004EB44011D4A02EBC1018868FDF77EF9FC
S3150800312000B21949096821F81400022C24DDE01EB2
S31508003130C5B2DFF85C801449096831F91400FDF757
S315080031405FF982464146FDF779F80746114951F875
S3150800315025001149FDF772F881463946FDF716F83C
S315080031600C4941F825000646FDF758F900B206490C
S31508003170096821F8140000BF601CC4B2062CA4DB41
S31508003180BDE8FE8F68040020BC000020D4000020A3
S315080031909A99193E800400209A99593FF0B58BB048
S315080031A0182105A8FCF7E7FF1E250526774200200B
S315080031B003900490404800210160416081604FF40B
S315080031C000503D498880002201213C4801F011FC4D
S315080031D03BE000BF0A20FEF772FCFFF765FF0024FC
S315080031E016E037480168E01C31F8100003A931F8E9
S315080031F01410401A00B201A921F8140030480168D9
S31508003200E01C31F8100003A921F81400601C04B270
S31508003210032CE6DBBDF904000528DBDCBDF9040058
S3150800322010F1050FD6DBBDF906000528D2DCBDF97D
S31508003230060010F1050FCDDBBDF908000528C9DC2D
S31508003240BDF9080010F1050FC4DB281EA5F1010120
S31508003250CDB2BED1002417E0FFF726FF642C11DBA0
S3150800326000200CE005A951F82010154A126832F919
S315080032701020114405AA42F82010411CC8B206289D
S31508003280F0DB00BF601C04B2B4F5B27FE4DB0024B7
S3150800329009E005A850F82400001200B2064921F8F2
S315080032A01400601C04B2062CF3DB01221146034805
S315080032B001F09FFB0BB0F0BD680400200010004031
S315080032C0BC00002010B5002400BF80226B21D0204E
S315080032D0FFF75CFBC4B21E20FEF7F1FB02221921A0
S315080032E0D020FFF753FB2044C4B203226B21D02021
S315080032F0FFF74CFB2044C4B203221A21D020FFF763
S3150800330045FB2044C4B218221B21D020FFF73EFB00
S315080033102044C4B209221C21D020FFF737FB2044E1
S31508003320C4B2002CD1D17521D020FFF7FDFAC4B262
S31508003330682C01D0012010BD0020FCE77047000072
S3150800334000F01F0201219140024A430942F8231066
S315080033507047000080E100E000F01F020121914063
S315080033604209920002F1E022C2F8001170470000FB
S3150800337070B5002100230F22C47804B3154C2468C5
S3150800338004F4E064C4F5E064210AC1F10403CA4008
S31508003390447804FA03F184781440214309010E4C59
S315080033A00678A155047804F01F050124AC40057879
S315080033B06D11AD0005F1E025C5F8004109E0047876
S315080033C004F01F050124AC40044D0678761145F833
S315080033D0264070BD0CED00E000E400E080E100E06E
S315080033E002490143024A1160704700000000FA05CD
S315080033F00CED00E000B589B00121480300F0AEFBF2
S315080034000121102000F0AAFB18208DF823004FF4A4
S315080034107070ADF8200003208DF8220008A929480D
S31508003420FEF7A2FC284801F0EDFA0020ADF81A00D4
S31508003430ADF8160040F2E730ADF818000B20ADF8ED
S31508003440140000208DF81C0005A91F4801F07CFC1B
S3150800345001A801F038FC6020ADF804000020ADF8A2
S315080034600C000120ADF806000020ADF80A0001A9FD
S31508003470154801F0CDFA01A9134801F01FFB01A96F
S31508003480114801F07BFB01A90F4801F0D1FB082187
S315080034900D4801F009FB08210B4801F061FB0821E2
S315080034A0094801F0BBFB0821074801F0FFFB012191
S315080034B0054801F0FBF90121034801F0EBF909B0D1
S315080034C000BD0000001001400034014010B504465C
S315080034D02146024801F001FC10BD000000340140FD
S315080034E010B504462146024801F0F9FB10BD00005C
S315080034F00034014010B504462146024801F0F1FBAC
S3150800350010BD00000034014010B5044621460248AB
S3150800351001F0E9FB10BD00000034014070470000CF
S3150800352010B5444800780C2805D1434800F090FBB4
S31508003530FEF730FA7DE03F480078FF2802D100F018
S3150800354053FF76E03B4800780D2805D13A48FEF748
S31508003550E3FAFEF71FFA6CE0364800780E2805D124
S31508003560354801F0E3FCFEF715FA62E031480078C9
S315080035700F2805D13048FFF7C5FAFEF70BFA58E0D1
S315080035802C480078102805D12B4801F02FFCFEF7AF
S3150800359001FA4EE027480078172805D1264801F099
S315080035A05FFDFEF7F7F944E022480078112805D1B7
S315080035B02148FDF78DFAFEF7EDF93AE01D48007847
S315080035C0122805D11C48FFF767FBFEF7E3F930E040
S315080035D018480078132805D11748FEF733FBFEF77D
S315080035E0D9F926E013480078182805D11248FDF7BE
S315080035F00DFBFEF7CFF91CE00E480078142805D11C
S315080036000D4800F07BFCFEF7C5F912E00948007882
S31508003610152805D1084800F097FBFEF7BBF908E026
S3150800362004480078162804D1034800F0EBFBFEF79F
S31508003630B1F910BD540000200AD7A33B10B50446C3
S31508003640012C35D15248007838B9AE205149087056
S3150800365000F030FD01204E49087000214E480068F0
S31508003660FCF724FF11D000214C480068FCF71EFF28
S315080036700BD04B48007840B94A48007828B94A48E0
S31508003680007810B912204949087049480078AE28D0
S315080036907CD143480078002878D1FF204349087038
S315080036A00120434908703F4908703D4908706DE09C
S315080036B0022C35D13F48007838B9AF203549087013
S315080036C000F0F8FC01203B490870002132480068E8
S315080036D0FCF7ECFE11D0002130480068FCF7E6FE46
S315080036E00BD03548007840B93448007828B93448B2
S315080036F0007810B912202D4908702D480078AF2897
S3150800370044D12D480078002840D1FF202749087069
S31508003710012027490870294908702749087035E0AB
S31508003720032C33D12748007838B9BA2019490870CC
S3150800373000F0C0FC012023490870002116480068E3
S31508003740FCF7B4FE11D0002114480068FCF7AEFE61
S315080037500BD01D48007840B91C48007828B91C4889
S31508003760007810B912201149087011480078BA2853
S315080037700CD11548007848B9FF200C49087001207B
S315080037800B490870114908700F49087010BD0000F0
S31508003790830000201C000020280000202C000020A8
S315080037A0710000206C0000207A00002054000020E0
S315080037B03400002084000020730000206E000020E2
S315080037C07C00002085000020720000206D0000208B
S315080037D07B00002010B50446012C53D140F29E70A0
S315080037E003F064FA40F61A1002F0A4FE4FF4FA70D9
S315080037F0FEF765F9FFF776FB7948FEF7F5F84FF41B
S31508003800FA70FEF75CF940F2262003F01FFA4FF42F
S31508003810FA70FEF754F9FFF765FB714801F024FDCD
S315080038204FF4FA70FEF74BF94FF4876002F082FE08
S31508003830FFF758FB6B480078052803D16A48FEF75E
S31508003840D3F802E06948FEF7CFF84FF4FA70FEF7AE
S3150800385036F94FF4966003F0F9F9FFF743FB4FF496
S31508003860FA70FEF72CF95F480078052803D15E4800
S3150800387001F0FAFC02E05D4801F0F6FC4FF4FA703C
S31508003880FEF71DF9022C53D140F22E4003F00EFA32
S3150800389040F6E80002F04EFE4FF4FA70FEF70FF914
S315080038A0FFF720FB4E48FEF79FF84FF4FA70FEF735
S315080038B006F940F2262003F0C9F94FF4FA70FEF72C
S315080038C0FEF8FFF70FFB464801F0CEFC4FF4FA70FE
S315080038D0FEF7F5F84FF4876002F02CFEFFF702FBBF
S315080038E040480078052803D13F48FEF77DF802E0F6
S315080038F03E48FEF779F84FF4FA70FEF7E0F84FF411
S31508003900966003F0A3F9FFF7EDFA4FF4FA70FEF7A5
S31508003910D6F834480078052803D1334801F0A4FCCA
S3150800392002E0324801F0A0FC4FF4FA70FEF7C7F83F
S31508003930032C53D140F2762003F0B8F940F62E1046
S3150800394002F0F8FD4FF4FA70FEF7B9F8FFF7CAFA75
S315080039502348FEF749F84FF4FA70FEF7B0F840F23C
S31508003960262003F073F94FF4FA70FEF7A8F8FFF76C
S31508003970B9FA1B4801F078FC4FF4FA70FEF79FF885
S315080039804FF4876002F0D6FDFFF7ACFA15480078C9
S31508003990052803D11448FEF727F802E01348FEF776
S315080039A023F84FF4FA70FEF78AF84FF4966003F09E
S315080039B04DF9FFF797FA4FF4FA70FEF780F80948C1
S315080039C00078052803D1084801F04EFC02E00748B4
S315080039D001F04AFC4FF4FA70FEF771F810BD0000CA
S315080039E033333340890000200000C04000004041C6
S315080039F010B537480078032190FBF1F201FB12005D
S31508003A003349087008460078401C08700846007854
S31508003A10FFF7E0FE4FF47A70FEF751F82C4800786D
S31508003A20012819D106212B4802F05CFF01202A49FA
S31508003A3008700020294908702949087029488078A3
S31508003A4028494978884203DC1820274908703DE050
S31508003A5013202549087039E01D480078022819D135
S31508003A6006211C4802F03EFF01201D49087000206F
S31508003A701A490870184908701A48C0781949897887
S31508003A80884203DC1820184908701FE013201649DD
S31508003A9008701BE00E480078032817D106210D4848
S31508003AA002F020FF00200E4908700C4908700A49E8
S31508003AB008700C48C0780B494978884203DB1820FF
S31508003AC00949087002E013200749087010BD000074
S31508003AD0B400002094000020750000207400002027
S31508003AE0760000201C000020540000202DE9F05F1D
S31508003AF004464FF07F594FF07C512046FCF79EFB59
S31508003B00824625462E460C48A0EB660635462946CB
S31508003B105046FCF793FB83462946FCF78FFB804605
S31508003B204946FCF788FB07462946FCF787FB054606
S31508003B302846BDE8F09F0000DF59375F29B1064ADD
S31508003B40D2690243044BDA6104E0034AD26982432C
S31508003B50014BDA61704700000010024029B1064A9D
S31508003B6092690243044B9A6104E0034A92698243CC
S31508003B70014B9A61704700000010024030B50021E1
S31508003B800022002400232D4D6D6805F00C0121B19B
S31508003B90042905D0082923D105E0294D056022E02E
S31508003BA0274D05601FE0254D6D6805F47012234DFD
S31508003BB06D6805F48034022505EB92421CB9214D47
S31508003BC0554305600BE01D4D6D6805F400351DB1C4
S31508003BD01C4D5543056002E0194D5543056002E04A
S31508003BE0174D056000BF00BF144D6D6805F0F00164
S31508003BF00909154D6B5C0568DD4045600F4D6D681C
S31508003C0005F4E061090A104D6B5C4568DD40856086
S31508003C100A4D6D6805F46051C90A0B4D6B5C456821
S31508003C20DD40C560054D6D6805F44041890B074DBB
S31508003C306B5CC568B5FBF3F5056130BD0010024045
S31508003C4000127A0000093D003E0000204E000020C8
S31508003C5070B504462F4930480068FCF797FA2F4993
S31508003C6008602F488068486221462C4802F050FEBA
S31508003C702C480078FCF7CDFB05462848816A28467B
S31508003C80FCF7D6FA2849086026480078FCF7C1FBF5
S31508003C9005462248816A2846FCF778FA23490860CF
S31508003CA020480078FCF7B5FB05461C48816A28467B
S31508003CB0FCF7BEFA1E4908601A480078FCF7A9FB0B
S31508003CC005461648816A2846FCF760FA19490860CD
S31508003CD01948006814494862184800681349486238
S31508003CE01748006812494862164800681149486230
S31508003CF021460D4802F00CFE21460C4802F008FE4B
S31508003D0021460B4802F004FE21460A4802F000FE4E
S31508003D1070BD000000009642300000201803002005
S31508003D205C04002070000020480200207C0200206D
S31508003D30B0020020E40200200C0000201000002041
S31508003D40140000201800002010B504462149224816
S31508003D500068FCF76DFA21490860214880684862C6
S31508003D6021461E4802F0D4FD1C48806A80F00040B7
S31508003D701C4908601948806A1B4908601748806A08
S31508003D8080F00040194908601448806A184908609C
S31508003D90184800681349486217480068124948627B
S31508003DA01648006811494862154800681049486273
S31508003DB021460C4802F0ACFD21460B4802F0A8FD4E
S31508003DC021460A4802F0A4FD2146094802F0A0FD52
S31508003DD010BD0000000096423000002018030020A5
S31508003DE05C040020480200207C020020B00200206B
S31508003DF0E40200200C00002010000020140000201F
S31508003E001800002070B504462F4930480068FCF7B2
S31508003E10BDF92F4908602F488068486221462C481A
S31508003E2002F076FD2C480078FCF7F3FA0546284898
S31508003E30816A2846FCF7FCF9284908602648007874
S31508003E40FCF7E7FA05462248816A2846FCF79EF9F8
S31508003E502349086020480078FCF7DBFA05461C4829
S31508003E60816A2846FCF7E4F91E4908601A48007872
S31508003E70FCF7CFFA05461648816A2846FCF786F904
S31508003E8019490860194800681449486218480068C2
S31508003E90134948621748006812494862164800687C
S31508003EA01149486221460D4802F032FD21460C4868
S31508003EB002F02EFD21460B4802F02AFD21460A484B
S31508003EC002F026FD70BD00000000164330000020F9
S31508003ED0180300205C04002070000020480200201F
S31508003EE07C020020B0020020E40200200C00002022
S31508003EF010000020140000201800002010B5044609
S31508003F00214922480068FCF741F9214908602148FF
S31508003F108068486221461E4802F0FAFC1C48806AFE
S31508003F2080F000401C4908601948806A1B490860EF
S31508003F301748806A80F00040194908601448806A6A
S31508003F401849086018480068134948621748006805
S31508003F5012494862164800681149486215480068BF
S31508003F601049486221460C4802F0D2FC21460B480B
S31508003F7002F0CEFC21460A4802F0CAFC214609484E
S31508003F8002F0C6FC10BD000000009642300000207A
S31508003F90180300205C040020480200207C02002050
S31508003FA0B0020020E40200200C00002010000020CF
S31508003FB014000020180000207047000000B587B0E4
S31508003FC00121C804FFF7BAFD01211020FFF7C6FD3D
S31508003FD04FF48060ADF8180018208DF81B000320F8
S31508003FE08DF81A0006A92248FDF7BEFE4FF40060B8
S31508003FF0ADF8180048208DF81B0003208DF81A002C
S3150800400006A91B48FDF7B0FE4FF416500290002093
S31508004010ADF814000C20ADF812000020ADF8100021
S31508004020ADF80E00ADF80C0002A9124801F0FEF931
S31508004030012240F225510F4801F0D2F94FF4A06051
S31508004040FFF7CEF934208DF8040001208DF807001B
S3150800405000208DF8050001208DF8060001A8FFF75D
S3150800406087F90121034801F078F907B000BD00007F
S3150800407000100140004C004070B505460E4600246D
S3150800408004E0285D00F006F8601C84B2B442F8DB50
S3150800409070BD000010B504462146054801F037FA00
S315080040A000BF8021024801F064F90028F9D010BD4C
S315080040B0004C004010B5FF20FFF7ECFF0421034831
S315080040C0FFF7DAFFFE20FFF7E5FF10BD1C00002012
S315080040D000B587B001210805FFF730FD0121102042
S315080040E0FFF73CFD01212020FFF738FD18208DF849
S315080040F01B000420ADF8180003208DF81A0006A945
S315080041002148FDF731FE18208DF81B004FF480502A
S31508004110ADF8180003208DF81A0006A91B48FDF70C
S3150800412023FE4FF4614002900020ADF814000C20E5
S31508004130ADF812000020ADF81000ADF80E00ADF88D
S315080041400C0002A9124801F071F9012240F225512A
S315080041500F4801F045F94FF4A060FFF741F9352003
S315080041608DF8040001208DF8070000208DF8050061
S315080041708DF8060001A8FFF7FBF80121044801F0B5
S31508004180ECF807B000BD0000001401400010014023
S315080041900050004010B504462146054801F0B7F91D
S315080041A000BF8021024801F0E4F80028F9D010BDCC
S315080041B00050004070B50446002504E0605DFFF736
S315080041C0E9FF681CC5B2605D0028F7D170BD10B55F
S315080041D0002403E0FF20FFF7DDFF641C032CF9DB56
S315080041E010BD0000F8B504460D4616466421084879
S315080041F0FBF7C1FF2B46224606A10548009601F0AB
S315080042008DF90348FFF7D6FFFFF7E1FFF8BD000079
S315080042102801002025732E25733D222564220000DF
S3150800422000B589B00121C802FFF798FC01210420D6
S31508004230FFF794FC18208DF823004FF46060ADF862
S31508004240200003208DF8220008A92B48FDF78CFDD5
S315080042502A4800F0D7FB0020ADF81A00ADF8160082
S3150800426044F61F60ADF818004720ADF8140000208A
S315080042708DF81C0005A9214800F066FD01A800F08C
S3150800428022FD4FF48070ADF810006020ADF80400F0
S315080042900020ADF80C000120ADF806004FF496603A
S315080042A0ADF80A0001A9154800F008FC40F29E7016
S315080042B0ADF80A0001A9114800F060FC4FF48760C8
S315080042C0ADF80A0001A90D4800F0B2FC01210B481F
S315080042D000F0ECFA0821094800F042FC08210748DA
S315080042E000F09CFC0821054800F0E0FC0121034889
S315080042F000F0D0FA09B000BD00080140002C0140CA
S3150800430010B500F001F810BD0CB500200190009022
S315080043103348006840F480303149086000BF3048AF
S31508004320006800F4003000900198401C0190009845
S3150800433018B90198B0F5A06FF1D12948006800F4C2
S31508004340003010B10120009001E000200090009894
S31508004350012843D12348006840F01000214908602D
S315080043600846006820F0030008600846006840F028
S31508004370020008601A4840681949486008464068BB
S3150800438048600846406840F48060486008464068CF
S3150800439020F47C1048600846406840F4E8104860FD
S315080043A00846006840F08070086000BF0C48006846
S315080043B000F000700028F9D00948406820F0030092
S315080043C0074948600846406840F00200486000BF58
S315080043D00348406800F00C000828F9D10CBD00001D
S315080043E0001002400020024010B50020FEF7F4FD40
S315080043F00020FEF735FE0020FEF7CEFD0020FEF772
S315080044000BFE10BD7047000010B51348006840F059
S3150800441001001149086008464068104908400E49DD
S315080044204860084600680E4908400B490860084677
S31508004430006820F4802008600846406820F4FE00E2
S3150800444048604FF41F008860FFF75AFF4FF000607E
S315080044500449086010BD0000001002400000FFF883
S31508004460FFFFF6FE08ED00E0F0B50C461546002203
S315080044700021068C4FF6FE773E400684028B018C9F
S315080044804FF60C7632407E1C06EA03162E4332435C
S31508004490104EB0420ED0104EB0420BD0B0F1804F45
S315080044A008D00E4EB04205D00D4EB04202D00D4E89
S315080044B0B04206D14FF6FD76314044F0010631434D
S315080044C005E04FF6F576314044F0010631430283A4
S315080044D00184F0BD002C0140003401400004004076
S315080044E000080040000C0040F0B50C4615460022B6
S315080044F000210026078C4FF6EF7C07EA0C07078495
S31508004500028B018C4FF6FF7707EA041640F6FF4741
S315080045103A404FF6FF7707EA03373A434FF6FF77F5
S3150800452007EA05273A43114FB8420ED0104FB84252
S315080045300BD0B0F1804F08D00E4FB84205D00E4FC1
S31508004540B84202D00D4FB84206D14FF6DF77394050
S3150800455046F01007394305E04FF65F77394044F0D7
S315080045601007394302830184F0BD0000002C014086
S31508004570003401400004004000080040000C0040E0
S31508004580F0B50C461546002200210026078C4FF68A
S31508004590FF6C07EA0C070784828B018C4FF6FF77BE
S315080045A007EA04264FF60C773A404FF6FF7707EAF4
S315080045B003172F433A43114FB8420ED0104FB84253
S315080045C00BD0B0F1804F08D00E4FB84205D00E4F31
S315080045D0B84202D00D4FB84206D14FF6FF573940C0
S315080045E046F48077394305E04FF2FF57394044F4E3
S315080045F08077394382830184F0BD0000002C014096
S31508004600003401400004004000080040000C00404F
S31508004610F0B50C461546002200210026078C4EF6FA
S31508004620FF7C07EA0C070784828B018C4FF6FF771D
S3150800463007EA043640F6FF473A404FF6FF7707EA9F
S3150800464005273A434FF6FF7707EA03373A43114FF0
S31508004650B8420ED0104FB8420BD0B0F1804F08D0F8
S315080046600E4FB84205D00E4FB84202D00D4FB84291
S3150800467006D14DF6FF77394046F48057394305E0B1
S3150800468047F6FF57394044F48057394382830184FB
S31508004690F0BD0000002C0140003401400004004039
S315080046A000080040000C004010B50121274800F022
S315080046B030F9002848D026480078401C244908705C
S315080046C024480078401C23490870214800780521B1
S315080046D090FBF1F201FB12001D4908701D48007895
S315080046E04FF47A7190FBF1F201FB12001949087038
S315080046F01748007838B9FEF7D7FC174A17491848FB
S31508004700FDF70AFC13E012480078012802D1FDF7EC
S3150800471095FF0CE00E480078022802D1FCF7E6FD6A
S3150800472005E00B480078032801D1FEF7F9FE0D488D
S31508004730007828B907480078032801D1FFF7BAFCA2
S315080047400121024800F0A3F810BD00000010004047
S31508004750B7000020B80000200AD7A33B5C0400205D
S3150800476050040020B60000201FB501211020FFF7D5
S31508004770E5F941F61F40ADF804000920ADF8080038
S315080047800020ADF8060001A9144800F0DDFA012260
S315080047901146124800F02DF90121104800F07AF868
S315080047A0362000F01F02012191404209920002F1D1
S315080047B0E022C2F8001100BF8DF8000001208DF834
S315080047C001008DF802008DF803006846FEF7D0FD5B
S315080047D00121024800F05EF81FBD000000100040ED
S315080047E010B50121214800F094F801283CD1204851
S315080047F0007801280FD101031E48FDF78BFB002026
S315080048001B4908704FF07E511B480068FBF7BEFC39
S315080048101949086012E01648007878B94FF48051B3
S315080048201448FDF775FB0120114908704FF07E51B9
S3150800483011480068FBF7AAFC0F4908600F491048A1
S315080048400068FBF7FBFC04460B4801682046FBF7AB
S315080048502DFE05D80020084908600120094908707E
S315080048600121024800F013F810BD000000140040B2
S3150800487000000020000801400400002000C0C744D2
S315080048800800002001000020CA4302827047CA437C
S315080048900282704721B1028842F00102028004E0D8
S315080048A002884FF6FE731A400280704731B1B0F89D
S315080048B0442042F40042A0F8442005E0B0F8442021
S315080048C0C2F30E02A0F844207047F0B50C46154610
S315080048D01E460021002200230189028B038C4FF615
S315080048E0F877394021434FF6FC473A4040F2011722
S315080048F03A434FF6DD773B404FF6FF7707EA061750
S315080049002F433B43018102830384F0BD0146888C13
S31508004910704730B50246002000230024158A05EAB0
S315080049200103958905EA010413B10CB1012000E0E1
S31508004930002030BD70B505460C46244885420ED089
S31508004940234885420BD0B5F1804F08D021488542CF
S3150800495005D02148854202D02048854200D100E092
S3150800496000BF208850B92389A28861882846FFF7A6
S315080049707BFDE188284600F0BBF925E0208804285D
S315080049800AD12389A28861882846FFF7ADFDE18808
S31508004990284600F0B6F917E0208808280AD12389A6
S315080049A0A28861882846FFF7EBFDE188284600F0D3
S315080049B0B5F909E02389A28861882846FFF728FE09
S315080049C0E188284600F0B3F970BD0000002C0140CC
S315080049D0003401400004004000080040000C00407C
S315080049E0002101804180012181800021C18001814F
S315080049F070471AB183890B43838102E083898B430D
S31508004A008381704701894FF6F8721140018170471A
S31508004A1070B5002400220023058C4FF6FE7635403B
S31508004A200584028C8388048B4FF68F752C40B51E3F
S31508004A302C400D882C43751E2A400D892A434D8823
S31508004A402A43144DA8420BD0134DA84208D0134D43
S31508004A50A84205D0124DA84202D0124DA84213D141
S31508004A604FF6F7752A404D892A434FF6FB752A40BB
S31508004A708D882A434FF6FF652B404FF6FF552B408E
S31508004A808D892B43CD892B4383800483CD888586E6
S31508004A90028470BD002C01400034014000400140F2
S31508004AA000440140004801400A460021018B4FF6A8
S31508004AB0F7731940114301837047000070B500244D
S31508004AC000220023058C4FF6EF7635400584028CCC
S31508004AD08388048B48F6FF752C404FF6FF452C401B
S31508004AE00D884FF6FF7606EA05252C434FF6DF7547
S31508004AF02A400D8906EA05152A434D8806EA051552
S31508004B002A43154DA84202D0144DA8421DD14FF68E
S31508004B107F752A404D894FF6FF7606EA05152A4322
S31508004B204FF6BF752A408D8806EA05152A434FF6C3
S31508004B30FF352B404FF2FF752B408D8906EA850518
S31508004B402B43CD8906EA85052B4383800483CD88CC
S31508004B500587028470BD0000002C01400034014026
S31508004B600A460021018B4FF2FF7319404FF6FF7377
S31508004B7003EA0223194301837047000070B5002435
S31508004B8000220023058C4FF6FF6635400584028C0B
S31508004B908388848B4FF68F752C404FF6FC752C4016
S31508004BA00D882C434FF6FF552A400D894FF6FF76A0
S31508004BB006EA05252A434D8806EA05252A43154DA2
S31508004BC0A84202D0144DA8421DD14FF2FF752A40C3
S31508004BD04D894FF6FF7606EA05252A434FF6FF3537
S31508004BE02A408D8806EA05252A434EF6FF752B408E
S31508004BF04DF6FF752B408D8906EA05152B43CD89A1
S31508004C0006EA05152B4383808483CD88858702842D
S31508004C1070BD0000002C0140003401400A46002106
S31508004C20818B4FF6F7731940114381837047000053
S31508004C3070B5002200230024058C4EF6FF76354019
S31508004C400584038C8488828B48F6FF752A404FF6C4
S31508004C50FF452A400D884FF6FF7606EA05252A43C2
S31508004C604DF6FF752B400D8906EA05352B434D8811
S31508004C7006EA05352B430B4DA84202D00A4DA84239
S31508004C8008D14BF6FF752C408D894FF6FF7606EA5C
S31508004C9085152C4384808283CD88A0F840500384F0
S31508004CA070BD0000002C0140003401400A46002176
S31508004CB0818B4FF2FF7319404FF6FF7303EA022305
S31508004CC01943818370470021018041808180C1801A
S31508004CD0018141818181C181704781867047018741
S31508004CE0704781877047A0F84010704781847047E5
S31508004CF0028B4FF6F3731A400283028B0A43028330
S31508004D007047028B4FF2FF331A400283028B4FF62D
S31508004D10FF7303EA01231A4302837047828B4FF617
S31508004D20F3731A408283828B0A4382837047828B8D
S31508004D304FF2FF331A408283828B4FF6FF7303EAE2
S31508004D4001231A4382837047002202881D4B98422A
S31508004D500ED01D4B98420BD0B0F1804F08D01B4B9C
S31508004D60984205D01A4B984202D01A4B984204D161
S31508004D704FF68F731A404B881A43174B984207D041
S31508004D80164B984204D04FF6FF431A40CB881A4375
S31508004D9002808B8883850B8803850A4B98420BD043
S31508004DA0094B984208D00E4B984205D00D4B9842B5
S31508004DB002D00D4B984201D10B7A038601238382D8
S31508004DC070470000002C01400034014000040040F8
S31508004DD000080040000C004000100040001400408D
S31508004DE000400140004401400048014070B50446B7
S31508004DF000203F4908603F4988683F490968FBF732
S31508004E0017FA3B4948622146394801F081FD38487E
S31508004E10806A3A4908603A49B1F90A00FBF7F0FA9C
S31508004E200546384801682846FBF708FA33494862B8
S31508004E302146324801F06CFD33490978494201EBB5
S31508004E408100FBF7DDFA05462C48816A2846FBF700
S31508004E50EFF92E4908602C49097801EB8100FBF728
S31508004E60CFFA05462548816A2846FBF78FF928496F
S31508004E7008602549097801EB8100FBF7C1FA054668
S31508004E801E48816A2846FBF7D3F9224908601E495D
S31508004E900978494201EB8100FBF7B2FA0546174843
S31508004EA0816A2846FBF772F91B4908601B480068A7
S31508004EB0164948621A480068154948621948006840
S31508004EC014494862184800681349486221460F4841
S31508004ED001F01EFD21460E4801F01AFD21460D4837
S31508004EE001F016FD21460C4801F012FD70BD0000C8
S31508004EF0180300205C040020300000204C0300202A
S31508004F0050040020CC6C00087000002048020020E5
S31508004F107C020020B0020020E40200200C000020E1
S31508004F2010000020140000201800002070B5044668
S31508004F303C4800683C4908603C488068486221460D
S31508004F40394801F0E5FC3848806A3949086039492A
S31508004F50B1F90A00FBF754FA0546374801682846AE
S31508004F60FBF76CF9324948622146314801F0D0FC1A
S31508004F7032490978C1EBC100FBF742FA05462C48CD
S31508004F80816A2846FBF754F92D4908602B490978A8
S31508004F90A1EBC100FBF734FA05462548816A284685
S31508004FA0FBF7F4F82749086024490978A1EBC10002
S31508004FB0FBF726FA05461E48816A2846FBF738F9A4
S31508004FC0214908601D490978C1EBC100FBF718FAA9
S31508004FD005461748816A2846FBF7D8F81B49086032
S31508004FE01B480068164948621A480068154948620D
S31508004FF01948006814494862184800681349486205
S3150800500021460F4801F084FC21460E4801F080FC39
S3150800501021460D4801F07CFC21460C4801F078FC3D
S3150800502070BD000030000020180300205C0400203A
S315080050304C03002050040020CC6C000870000020AF
S31508005040480200207C020020B0020020E402002072
S315080050500C0000201000002014000020180000207A
S3150800506070B5044600203F4908603F4988683F49B3
S315080050700968FBF7DDF83B4948622146394801F0E3
S3150800508047FC3848806A3A4908603A49B1F90A0043
S31508005090FBF7B6F90546384801682846FBF7CEF807
S315080050A0334948622146324801F032FC33490978CF
S315080050B001EB8100FBF7A4F905462D48816A2846CD
S315080050C0FBF7B6F82E4908602C490978494201EBE6
S315080050D08100FBF795F905462548816A2846FBF7BE
S315080050E055F82849086025490978494201EB8100A5
S315080050F0FBF786F905461E48816A2846FBF798F8A5
S31508005100214908601D49097801EB8100FBF778F908
S3150800511005461748816A2846FBF738F81B49086090
S315080051201B480068164948621A48006815494862CB
S3150800513019480068144948621848006813494862C3
S3150800514021460F4801F0E4FB21460E4801F0E0FB3A
S3150800515021460D4801F0DCFB21460C4801F0D8FB3E
S3150800516070BD0000180300205C04002030000020F9
S315080051704C03002050040020CC6C0008700000206E
S31508005180480200207C020020B0020020E402002031
S315080051900C00002010000020140000201800002039
S315080051A010B540F22551274800F0F0F8012847D1FC
S315080051B0244800F0A7F9C4B22348007840B9FF2C68
S315080051C038D101202049087000202049087031E0B4
S315080051D01D48007801282DD1FE2C13D01C480078D4
S315080051E040B91A4801780078401C184A10701948C6
S315080051F0445407E0154801780078401C134A10709B
S3150800520015484454FE2C15D100200F490870124940
S31508005210897801EB4100FBF7F3F8104908600E495D
S31508005220C9784800FBF7ECF80D4908600A48007988
S315080052300C49087040F22551024800F07FF800BF7B
S3150800524010BD0000004C00403C0000203D0000203E
S31508005250B6000020960100208C01002028000020BE
S315080052602C0000203400002038B5044655E02D48AF
S3150800527004602D48007818BB10212C48FCF74AFE1C
S3150800528020212A48FCF746FE012211462848FFF746
S31508005290B0FB3720FEF760F81C208DF800000120CF
S315080052A08DF8030002208DF8010001208DF8020018
S315080052B06846FEF75DF801211D48FFF7EBFA2CE07A
S315080052C019480078012828D100201A4908600022C8
S315080052D001211748FFF78DFB3720FEF731F81C2010
S315080052E08DF8000001208DF8030002208DF80100DA
S315080052F001208DF802006846FEF73AF800210C48AE
S31508005300FFF7C8FA01210A48FFF7C1FA01200A493E
S31508005310087000200449087000BF07480078002874
S31508005320A5D038BD0800002001000020000C01406F
S3150800533000140040040000200200002010B50022DE
S31508005340002340F66A14A14200D100BF0A120124C4
S315080053509440A3B2DC43048010BD21B1828942F493
S315080053600052828104E082894DF6FF731A408281D9
S31508005370704702460020B1F5007F00D100BF1388B0
S315080053800B400BB1012000E00020704770B50246C3
S31508005390002400230025002040F66A16B14200D1F9
S315080053A000BFC1F3421501F01F03012606FA03F3F5
S315080053B0012D02D19689334006E0022D02D1168AC4
S315080053C0334001E0968A33400C12012606FA04F4AB
S315080053D01688344013B10CB1012000E0002070BDDE
S315080053E0F0B50346002400260025002040F66A177B
S315080053F0B94200D100BF1846C1F3421401F01F0696
S31508005400012707FA06F5012C01D10C3004E0022C1D
S3150800541001D1103000E014301AB107682F43076035
S3150800542002E00768AF430760F0BD00002DE9F047CA
S3150800543086B005460E460024A24600BFA1460027B0
S31508005440B08900B100BF2F462C8A4CF6FF70044085
S31508005450F08804432C82AC894EF6F3100440B088D9
S3150800546031890843718908430443AC81AC8A4FF6F5
S31508005470FF400440B0890443AC8201A8FEF77EFBD6
S315080054801F48874202D1DDF810A001E0DDF80CA024
S31508005490A88900F4004040B10AEBCA0000EB0A10E4
S315080054A031684900B0FBF1F807E00AEBCA0000EBE7
S315080054B00A1031688900B0FBF1F86420B8FBF0F0F7
S315080054C004012009642101FB1089A88900F4004021
S315080054D040B1322000EBC900B0FBF1F000F0070044
S315080054E0044308E0322000EB09106421B0FBF1F018
S315080054F000F00F0004432C8106B0BDE8F0870000D9
S315080055000038014001468888C0F308007047C1F397
