:020000040800F2
:100000009808002045010008A1330008ED260008EB
:10001000912E0008610C0008FF5600080000000047
:10002000000000000000000000000000BD410008CA
:10003000111B000800000000813500080946000877
:100040005F0100085F0100085F0100085F01000810
:100050005F0100085F0100085F0100085F01000800
:100060005F0100085F0100085F0100085F010008F0
:100070005F0100085F0100085F0100085F010008E0
:100080005F0100085F0100085F0100085F010008D0
:100090005F0100085F0100085F0100085F010008C0
:1000A0005F0100085F0100085F0100085F010008B0
:1000B0005F0100085F0100085F0100085F010008A0
:1000C0005F0100085F0100085F0100085F01000890
:1000D0005F0100085F0100085F0100085F01000880
:1000E0005F0100085F0100085F0100085F01000870
:1000F0005F0100085F0100085F0100085F01000860
:100100005F0100085F0100085F0100085F0100084F
:10011000895300085F010008AD480008C94900087C
:100120005F0100085F0100085F0100085F0100082F
:10013000DFF80CD000F006FC004800470169000819
:10014000980800200648804706480047FEE7FEE77B
:10015000FEE7FEE7FEE7FEE7FEE7FEE7FEE7FEE777
:100160000D46000831010008D2B201E000F8012B71
:10017000491EFBD270470022F6E710B513460A4627
:1001800004461946FFF7F0FF204610BDF0B480EAA0
:100190000102D40F4200B2EB410F02D202460846E0
:1001A00011464A0042D0C30DDDB2C1F3C752AD1AA9
:1001B000202D35DAC1F3160141F4000204B1524298
:1001C000C5F1200602FA06F12A411044B3EBD05FD4
:1001D00023D0C4B1012DA0EBC35009DCF0BC4FF01B
:1001E000004202EAC352DBB200F5000000F0C2B9DF
:1001F000400000F1807000EBC350A0F1807040EA35
:10020000D170490009E0490841EAC071A0EBC35030
:1002100000F50000400800EBC350F0BC00F0A1B9AD
:100220006142012202EB4101001BF6E7F0BC70477E
:1002300081F00041AAE780F00040A7E780EA0102D0
:1002400010B502F00043400022D04A001FD0010E3A
:1002500001EB1261C0F35600C2F3560240F40000F5
:1002600042F40002A0FB022000047F39140400D0F5
:10027000401C50EA124001D44000491EC2B20C0694
:1002800004EBD010401C4008802A02D003E000207C
:1002900010BD20F00100002900DA0020184310BD35
:1002A00030B480EA010202F0004530F0004221F053
:1002B000004013D090B1C30DD40DC2F31601C0F3AA
:1002C0001600E41A41F4000140F400027D3491422A
:1002D00001D3641C00E04900002C02DA30BC00208D
:1002E00070474FF400000023914201D3891A034361
:1002F00040084FEA4101F7D151B1914202D14FF08C
:10030000004105E002D24FF0010101E06FF0010170
:1003100003EBC450284430BC00F023B92DE9FE4F54
:1003200081EA030404F0004421F0004100944FF0FE
:10033000000B23F0004350EA01045ED052EA0304AC
:100340005BD0C3F30A54C1F30A552C44A4F2F3342E
:100350000194A0FB0254C1F3130141F48011C3F3D3
:10036000130343F4801301FB024400FB034E840A91
:10037000970A44EA815447EA8357A4FB0768029529
:100380008D0A05FB07854FEA932C04FB0C542705C7
:10039000029D4FEA065847EA1637B5EB08056EEBA3
:1003A000070C870E920E47EA811742EA8312A7FBD9
:1003B0000201B6EB0B0164EB00042B0D43EA0C3396
:1003C0005E1844EB1C50DA465146E7FB0201C5F3C8
:1003D00013044FEA0B3343EA14534FEA0432019CEF
:1003E00043EA0603A4F10C040294009CCDE900B496
:1003F00000F0FDF803B0BDE8F08F00200146F9E7FA
:10040000C10F80EAE0700844CA079623002100F07B
:10041000B1B896230022114600F0ACB800F00042BB
:1004200020F00040C10DC0F3160040F400007F2909
:1004300001DA00207047962903DCC1F19601C8401B
:1004400001E096398840002AF4D04042704700F01D
:10045000004230F000400AD0C10D01F56071C0F3D8
:10046000160042EA0151C2084007114370470020BC
:100470000146704701F0004330B421F0004150EADA
:10048000010206D00A0DA2F56072C1F31301002A21
:1004900002DC30BC00207047440F44EAC104C100B4
:1004A000E01830BC00EBC25000F05BB8002801DB64
:1004B000C0F10040002901DBC1F1004181427047D9
:1004C000002801DBC0F10040002901DBC1F100413F
:1004D0008842704730B50B46014600202022012497
:1004E00009E021FA02F59D4205D303FA02F5491B02
:1004F00004FA02F52844151EA2F10102F1DC30BD18
:100500002DE9F05F0546002092469B468846064648
:10051000814640241BE0284641464746224600F0DB
:1005200032FA53465A46C01A914110D31146184622
:10053000224600F019FA2D1A67EB01084F462246B1
:100540000120002100F010FA17EB00094E41201E97
:10055000A4F10104DFDC484631462A464346BDE8A3
:10056000F09F0029A8BF7047401C490008BF20F039
:100570000100704710B4B0FA80FC00FA0CF050EAA9
:10058000010404BF10BC704749B1CCF1200421FA2A
:1005900004F411FA0CF118BF012121430843A3EB25
:1005A0000C01CB1D4FEA00614FEA102042BF002032
:1005B00010BC704700EBC35010440029A4BF10BC0E
:1005C0007047401C490008BF20F0010010BC704774
:1005D00010B5141E73F1000408DA401C41F100014B
:1005E00092185B411A4301D120F0010010BD2DE9A2
:1005F000F04D92469B4611B1B1FA81F202E0B0FA99
:1006000080F22032904600F0AFF904460F4640EAEF
:100610000A0041EA0B0153465A46084313D01146DB
:1006200053EA010019D0C8F14002504600F0ABF97E
:1006300005460E4650465946424600F095F9084395
:1006400005D0012004E020463946BDE8F08D0020A9
:10065000054346EAE0762C4337430A986305E40AEB
:10066000A0EB08000022FD0A44EA47540A3002D5F4
:1006700000200146E9E7010510196941DDE9084557
:1006800000196941BDE8F04DA2E72DE9FE4F804613
:1006900081EA0300C00F0C46009021F0004123F0D6
:1006A0000045B8EB0200A94105D2404621469046DC
:1006B0001C460B46024623F00040104347D0270D4E
:1006C000C7F30A00C3F30A510290401A0190402870
:1006D0006BDAC3F3130040F4801B0098924620B1FC
:1006E0000023D2EB030A63EB0B0B01985946C0F1D0
:1006F0004002504600F038F906460D46504659462D
:10070000019A00F050F910EB08006141002487EADB
:10071000115284EAE7731A4340D0009A62B3019AF7
:10072000012A4FEA075215DC001B61EB02014FF072
:10073000004202EA0752CDE90042001C41F5801157
:1007400032462B46FFF753FF03B0BDE8F08F40461B
:100750002146F9E7001B61EB0201001C41F5801303
:1007600000185B412018A2F5001747EB030140EA8F
:10077000D570B6196D4111E06D084FEA360645EAAD
:10078000C0754FEA0752001B61EB0201001C41F5E6
:10079000801149084FEA30000019514132462B467A
:1007A00003B0BDE8F04FFFF713BF009801224000EF
:1007B0000023D0EB020263EBE073009821464FEA7E
:1007C000E074B8EB000061EB0401E9E783F000435B
:1007D0005BE781F0004158E72DE9F04D81EA030421
:1007E00004F0004B21F0004514464FF0000A23F0BE
:1007F000004150EA050220D054EA01021DD0C5F3A1
:100800000A570246C5F31303C1F31300C1F30A5696
:1008100040F4801543F48013A7EB0608101BD6465E
:1008200008F2FD3873EB050002D308F1010801E07E
:1008300092185B41B8F1000F03DA00200146BDE8D1
:10084000F08D00204FF48011064684460EE0171B01
:1008500073EB050705D3121B63EB050306434CEA54
:10086000010C49084FEA300092185B4150EA010739
:10087000EDD152EA030012D082EA040083EA0501B6
:10088000084305D0101BAB4106D20122002306E02D
:1008900000224FF0004302E06FF0010253101AEB08
:1008A00006004CEB085110EB0A0041EB0B01BDE8D0
:1008B000F04DFFF78DBE70B521F0004303430CD01F
:1008C000C1F30A550024D5EB040564EB0403D617E5
:1008D000AD1AB34102DB0020014670BD201841EB88
:1008E000025170BDC1F30A52C1F3130140F2FF334C
:1008F00041F480119A4202DA00200146704740F22A
:1009000033439A42A2F2334202DC524200F03BB837
:1009100000F02AB830B5041E71F1000404DB4FF07A
:100920000044404264EB0101141E73F1000405DB36
:100930001C464FF00043524263EB0403994208BF48
:10094000904230BD064C074D06E0E06840F00103E0
:1009500094E8070098471034AC42F6D3FFF7ECFB5D
:10096000806F0008A06F0008202A04DB203A00FAFC
:1009700002F1002070479140C2F1200320FA03F3F6
:10098000194390407047202A04DB203A21FA02F0F4
:100990000021704721FA02F3D040C2F120029140B9
:1009A000084319467047202A06DBCB17203A41FA44
:1009B00002F043EAE07306E041FA02F3D040C2F1EC
:1009C000200291400843194670472DE9F04D00235D
:1009D0001A461B1A8A4103DB00200146BDE8F08D50
:1009E000C1F30A52C1F3130141F480154FF0000B1B
:1009F000D10702D100186D41521E0027044640F273
:100A0000FF11384601EB620A3E468046024600204E
:100A10004FF48011FFF7B7FFC2197141BB1846EBC5
:100A20000100B4EB030C75EB000C04D3E41A65EB86
:100A3000000517460E46241908F101006D41804655
:100A40003428E3DDF91946EB0600091BA84103D25F
:100A50004FF0FF32134601E0002213461BEB070064
:100A600046EB0A51BDE8F04DFFF7B2BD70B58C18EA
:100A700010F8015B15F0070301D110F8013B2A11B2
:100A800006D110F8012B03E010F8016B01F8016B9F
:100A90005B1EF9D12B0705D40023521E0DD401F89B
:100AA000013BFAE710F8013BCB1A921C03E013F864
:100AB000015B01F8015B521EF9D5A142D8D3002099
:100AC00070BD000010B54FF4966001F022F801F0FF
:100AD000F1FF02F0DFF9124804F0BAFC4FF47A702B
:100AE00001F017F802F030FA01F03AFF02F01CFCB6
:100AF00003F0F0FB02F02EFA03F094FC01F02CF866
:100B000002F07EFB06F020F803F022FF4FF416708F
:100B100006F078F94FF4876005F000FE10BD000084
:100B20000000A04070B504463E4800683E49086099
:100B30003E488068486221463B4805F0CFFF3A486E
:100B4000806A3B4908603B49B1F90A00FFF758FC4D
:100B50000546394801682846FFF770FB344948626A
:100B60002146334805F0BAFF34490978494201EB80
:100B70008100FFF745FC05462D48816A2846FFF7AE
:100B800057FB2F4908602D490978494201EB810044
:100B9000FFF736FC05462648816A2846FFF7F6FA35
:100BA0002849086025490978494201EB8100FFF78F
:100BB00027FC05461E48816A2846FFF739FB224973
:100BC00008601E490978494201EB8100FFF718FCD3
:100BD00005461748816A2846FFF7D8FA1B4908607E
:100BE0001B480068164948621A480068154948625F
:100BF0001948006814494862184800681349486257
:100C000021460F4805F06AFF21460E4805F066FFB1
:100C100021460D4805F062FF21460C4805F05EFFB5
:100C200070BD00003000002020030020640400207C
:100C30005403002058040020846E00087400002033
:100C40005002002084020020B8020020EC020020A4
:100C50000C000020100000201400002018000020CC
:100C600000BFFEE710B50446012C5AD18948007830
:100C700038B9BB208849087003F01EFB0120854964
:100C80000870002185480068FFF710FC0BD0002198
:100C900083480068FFF70AFC05D08248007810B945
:100CA00012208149087081497C480068FFF708FCE0
:100CB00026D87F4979480068FFF7F8FB20D87D499E
:100CC00077480068FFF7FCFB1AD87B497448006836
:100CD000FFF7ECFB14D87348007888B977480078A0
:100CE000CD280DD1FF207049087001206A49087095
:100CF00003F0E2FA0120724908706A490870C8E0FE
:100D00006E480078CD28FAD1664800780028F6D1E0
:100D100001206A490870AF205F49087003F0CCFADF
:100D2000B7E0022C5AD16748007838B9BC205A493C
:100D3000087003F0C1FA0120624908700021574889
:100D40000068FFF7B3FB0BD0002155480068FFF7A0
:100D5000ADFB05D05C48007810B9122052490870EC
:100D600052494E480068FFF7ABFB26D850494B4824
:100D70000068FFF79BFB20D84E4949480068FFF701
:100D80009FFB1AD84C4946480068FFF78FFB14D8E0
:100D90004D48007888B949480078CD280DD1FF200A
:100DA0004149087001203C49087003F085FA012090
:100DB00046490870444908706BE040480078CD28E7
:100DC00067D141480078002863D101203B49087071
:100DD000AF203149087003F06FFA5AE0032C58D164
:100DE0003B48007838B9BD202B49087003F064FAFD
:100DF000012037490870002128480068FFF756FB9A
:100E00000BD0002126480068FFF750FB05D0314881
:100E1000007810B912202449087024491F4800683E
:100E2000FFF74EFB26D822491C480068FFF73EFB1F
:100E300020D820491A480068FFF742FB1AD81E49FB
:100E400017480068FFF732FB14D82248007888B9A9
:100E50001A480078CD280DD1FF20134908700120D1
:100E60000D49087003F028FA01201B490870194940
:100E700008700EE011480078CD280AD11548007896
:100E800038B901200D490870AF200349087003F0FC
:100E900013FA10BD8B0000201C0000202800002049
:100EA0002C00002082000020540000200080984385
:100EB0000080A24300003443000048433400002077
:100EC000850000208C000020840000208600002087
:100ED0008D000020830000208700002010B504460C
:100EE000012C04D0022C3BD0032C38D171E04FF4FC
:100EF000167005F0B7FF02F027F8534800F09EFD8A
:100F00004FF4FA7000F005FE4FF4967005F07AFF8A
:100F10004FF4FA7000F0FDFD02F016F84A4804F0B4
:100F200097FA40F62E1005F0F9FB40F2DC5000F085
:100F3000F0FD02F009F8454800F080FD4FF47A70AA
:100F400000F0E7FD4FF4FA7005F05CFF01F0FCFFE4
:100F50003E4804F07DFA4FF4876005F0DFFB71E056
:100F60004FF4876005F07EFF01F0EEFF364800F099
:100F700065FD4FF4FA7000F0CCFD4FF4967005F06B
:100F800041FF4FF4FA7000F0C4FD01F0DDFF2E4880
:100F900004F05EFA40F6FC0005F0C0FB40F2DC50C5
:100FA00000F0B7FD01F0D0FF284800F047FD4FF4F6
:100FB0007A7000F0AEFD4FF4FA7005F023FF01F0F7
:100FC000C3FF224804F044FA4FF4876005F0A6FB03
:100FD00038E040F2AE6005F045FF01F0B5FF1A4879
:100FE00000F02CFD4FF4FA7000F093FD4FF4967072
:100FF00005F008FF4FF4FA7000F08BFD01F0A4FF3C
:10100000114804F025FA40F6FC0005F087FB40F299
:10101000DC5000F07EFD01F097FF0C4800F00EFD63
:101020004FF47A7000F075FD4FF4FA7005F0EAFEA7
:1010300001F08AFF054804F00BFA4FF4876005F0D1
:101040006DFB00BF00BF10BD0000A040CDCCCC3F69
:1010500010B50446012C04D0022C4BD0032C48D1EF
:1010600091E04FF4167005F0FDFE01F06DFF4FF4B6
:10107000FA7000F04EFD694800F0E0FC4FF47A7021
:1010800000F047FD4FF4967005F0BCFE4FF47A7007
:1010900000F03FFD01F058FF604804F0D9F94FF42B
:1010A0007A7000F036FD40F62E1005F037FB4FF455
:1010B0007A7000F02EFD01F047FF594800F0BEFCA9
:1010C0004FF47A7000F025FD4FF4FA7005F09AFEA7
:1010D0004FF47A7000F01DFD01F036FF504804F027
:1010E000B7F94FF47A7000F014FD4FF4876005F003
:1010F00015FB91E04FF4876005F0B4FE01F024FF8A
:101100004FF4FA7000F005FD444800F097FC4FF4EE
:101110007A7000F0FEFC4FF4967005F073FE4FF409
:101120007A7000F0F6FC01F00FFF3C4804F090F9F3
:101130004FF47A7000F0EDFC40F6FC0005F0EEFA9A
:101140004FF47A7000F0E5FC01F0FEFE344800F048
:1011500075FC4FF47A7000F0DCFC4FF4FA7005F087
:1011600051FE4FF47A7000F0D4FC01F0EDFE2C48F3
:1011700004F06EF94FF47A7000F0CBFC4FF4876006
:1011800005F0CCFA48E040F2AE6005F06BFE01F0ED
:10119000DBFE4FF4FA7000F0BCFC204800F04EFC7F
:1011A0004FF47A7000F0B5FC4FF4967005F02AFE0B
:1011B0004FF47A7000F0ADFC01F0C6FE174804F061
:1011C00047F94FF47A7000F0A4FC40F6FC0005F0FB
:1011D000A5FA4FF47A7000F09CFC01F0B5FE1048BF
:1011E00000F02CFC4FF47A7000F093FC4FF4FA708E
:1011F00005F008FE4FF47A7000F08BFC01F0A4FEBD
:10120000074804F025F94FF47A7000F082FC4FF49F
:10121000876005F083FA00BF00BF10BD9A99254191
:101220003333F33F10B531480078032190FBF1F2DE
:1012300001FB12002D49087008460078401C087018
:1012400008460078FFF704FF4FF47A7000F061FC65
:1012500026480078012813D1254908700020254927
:1012600008702549087025488078244949788842C3
:1012700003DC11202249087002E00D20204908708B
:101280001A480078022814D101201B490870002058
:1012900017490870174908701848C07817498978A5
:1012A000884203DC11201649087002E00D20144921
:1012B00008700E480078032816D100200E490870E7
:1012C0000B4908700B4908700E480078012803D0BC
:1012D0000C480078042807D1152009490870AD2072
:1012E0000649087002F0E8FF10BD0000BD000020B4
:1012F0007C0000207B0000207D0000201C000020DE
:10130000540000208E00002010B5FE48007818B16F
:10131000FC48007803287DD1FB480068401CFA494E
:10132000086008460068E62813D3F848007880B9BA
:10133000F748007818B91320F649087009E0F44816
:101340000078012805D10D20F24908700120EF49ED
:101350000870ED48006840F26C71884211D3EE4885
:10136000007870B9FF20EB490870FC20EB49087049
:1013700002F0A2FFAD20E94908700120E64908709B
:101380000BE0E148006840F2D661884205D3E248AC
:10139000007810B91720DF4908700021E048006884
:1013A000FFF784F80ED00021DE480068FFF77EF8D2
:1013B00008D0DD48007828B90F20D64908700120F0
:1013C000D9490870D9480078CD280ED1D148007885
:1013D0000F280AD1FF20CF4908700120D449087096
:1013E000D4480078401CD3490870D349D3480068DA
:1013F000FEF7CCFE0446D24881682046FFF756F837
:101400001ED8C448007814281AD1CA480078012888
:1014100016D100E098E00621CA4805F049FB1720E4
:10142000BC490870C6488068C4490860C148007853
:10143000401CC0490870AD20B849087002F03CFF5C
:10144000BA480078AD281AD1B2480078172816D1CA
:10145000B8480078022812D11420AE490870012043
:10146000B2490870AD49087002F026FF0020B0496B
:101470000870B0480078401CAE4908706DE2AE4973
:10148000AE480068FEF782FE0446AD4881682046FB
:10149000FFF70CF818D89F480078142814D1A548F5
:1014A0000078032810D10621A64805F001FB17207B
:1014B00098490870A2488068A04908609D48007853
:1014C000401C9C49087048E2924800781728D5D102
:1014D000984800780428D1D19B480068401C9A495C
:1014E000086008460068B0F57A7F04D1AD208B49CA
:1014F000087002F0E1FE94480068B0F57A7FBDD331
:101500008A480078AD28B9D106218E4805F0D0FA76
:101510000D2080490870FB208049087002F0CCFE45
:101520000020844908708949086089490870764913
:10153000086074480078401C724908700020824995
:1015400008607C49087008E26E480078012803D0E2
:101550006C480078042870D16B480068401C6A49C8
:10156000086008460068B0F5167F19D3694800780E
:101570000D2815D16F48007890B901206C4908708A
:10158000FB206649087002F097FE1220614908703E
:1015900068480078401C674908700020634908705B
:1015A00062480078CD2810D16248007801280CD11B
:1015B00060480078401C5F49087001205749087056
:1015C00002F07AFE01206249087062480078012822
:1015D00008D15F480078012804D15049487802F0CA
:1015E00055F810E05C480078012804D14B49887810
:1015F00002F04CF807E059480078012803D1474928
:10160000C87802F043F856480078012820D15148A4
:101610000078E8B950480078D0B950480078B8B997
:101620005048007880B93D4840783C49C9788842A4
:1016300004DC11203749087003E0BDE00D20354976
:10164000087001204749087034494878FFF70AFBC1
:1016500045480078012803D130498878FFF702FB1C
:1016600042480078012803D12C49C878FFF7FAFADC
:10167000314932480068FEF7DBFD04463048816896
:101680002046FEF713FF1CD822480078152818D1F1
:1016900028480078022814D126480078401C2549A3
:1016A00008700621274805F003FA17201949087029
:1016B0002248006821490860AD201849087002F0EE
:1016C000FBFD1A480078AD2875D11248007817281C
:1016D00003D010480078FF28F6D116480078032878
:1016E000F2D111200B49087018480068401C1749B6
:1016F000086008460068B0F5C87F5CD3FB20074946
:10170000087035E08E00002060000020640000209A
:10171000BE00002054000020570000201C000020C4
:10172000280000202C0000205C0000203400002055
:101730006C0000205600002000009642300000207F
:10174000640400209C000020580000206800002055
:101750007E00002078000020790000207A00002020
:101760007B0000208F0000207C0000207D000020F6
:1017700002F0A2FD12207949087001207849087012
:1017800078480078401C7749087001207649087035
:1017900076490870002076490870764908707649C5
:1017A000087076490870764908707649087076495D
:1017B000086076490870D0E06A480078022803D0B3
:1017C000684800780528F6D167480078012807D1D5
:1017D00063480078012803D16D49487801F056FF2D
:1017E0006C480078012803D16949887801F04EFFE0
:1017F00069480078012803D16549C87801F046FF9F
:10180000664967480068FEF713FD0446654881682D
:101810002046FEF755FE0ED85048007815280AD10C
:101820000621614805F044F917204C4908705C48CE
:1018300000685B4908605D480078AD280DD14748D5
:101840000078172803D045480078FF2805D11120DB
:101850004249087000204C4908604048007811282F
:1018600003D03E480078FF2851D151480068401C01
:101870004F49086008460068B0F5FA7F6DD33948D3
:10188000007802280AD1FC204149087002F014FDBA
:1018900034480078401C3349087006E0314800782D
:1018A000052802D1EA20414908700020414908700A
:1018B000414908704149087001202B4908702B49A3
:1018C000087000202A4908702A4908702A490870BF
:1018D0003B4908703B4908703B4908702A49086039
:1018E00001203A49087000202449087024490870F2
:1018F000244908703649087036490870364908701E
:1019000036490870364908703649087025E027487E
:101910000078EA2821D111480078112803D00F4817
:101920000078FF2819D122480068401C204908602F
:101930000846006840F2DC5188420ED31720074960
:10194000087011480068401C0F490860084600688C
:10195000A02802D3FF200149087010BD54000020C8
:10196000920000208E000020780000207B000020E4
:1019700088000020890000208A0000207F000020CD
:101980008000002081000020680000205600002018
:101990001C000020790000207A0000200000964200
:1019A00030000020640400209C000020340000204F
:1019B00060000020570000205C0000206C00002028
:1019C0008B0000208C0000208D0000207E00002075
:1019D0008200002083000020840000207500002089
:1019E000760000207700002010B51049886AFEF7C5
:1019F00015FD04B2204601F021FB0D49886AFEF76F
:101A00000DFD04B2204601F05DFB0A49886AFEF72D
:101A100005FD04B2204601F0F1FA0749886AFEF795
:101A2000FDFC04B2204601F029FB10BD500200204D
:101A300084020020B8020020EC02002038B50446E1
:101A400055E02D4804602D48007818BB10212C4823
:101A500000F092FA20212A4800F08CFA0122114667
:101A6000284803F0BAF8372001F0A8FC1C208DF8B4
:101A7000000001208DF8030002208DF801000120F4
:101A80008DF80200684601F0A5FC01211D4802F016
:101A9000F5FF2CE019480078012828D100201A49C8
:101AA000086000220121174803F097F8372001F061
:101AB00079FC1C208DF8000001208DF80300022025
:101AC0008DF8010001208DF80200684601F082FCCB
:101AD00000210C4802F0D2FF01210A4802F0CBFF9E
:101AE00001200A49087000200449087000BF074817
:101AF00000780028A5D038BD080000200100002093
:101B0000000C0140001400400400002002000020EE
:101B1000704700B5034603E04FF47A7000F005F813
:101B2000181EA3F10103F7D100BD00EBC001C900ED
:101B30004FF0E0225161002191610521116100BF48
:101B40004FF0E021096901F480310029F8D0042127
:101B50004FF0E0221161704710B504F081FE05F0EE
:101B6000DBF804F01FFE05F079F810BD70B50446EF
:101B70003C4800683C4908603C488068486221460F
:101B8000394804F0ABFF3848806A39490860394960
:101B9000B1F90A00FEF734FC0546374801682846CB
:101BA000FEF74CFB324948622146314804F096FF6B
:101BB0003249097801EB8100FEF722FC05462C48EA
:101BC000816A2846FEF734FB2D4908602B490978C5
:101BD00001EB8100FEF714FC05462548816A284682
:101BE000FEF7D4FA274908602449097801EB8100FF
:101BF000FEF706FC05461E48816A2846FEF718FBDC
:101C0000214908601D49097801EB8100FEF7F8FBC6
:101C100005461748816A2846FEF7B8FA1B4908604E
:101C20001B480068164948621A480068154948620E
:101C30001948006814494862184800681349486206
:101C400021460F4804F04AFF21460E4804F046FFA3
:101C500021460D4804F042FF21460C4804F03EFFA7
:101C600070BD00003000002020030020640400202C
:101C70005403002058040020846E000874000020E3
:101C80005002002084020020B8020020EC02002054
:101C90000C0000201000002014000020180000207C
:101CA00070B504463A4800683A4908603A48806886
:101CB00048622146374804F011FF3648806A3749A8
:101CC00008603749B1F90A00FEF79AFB0546354826
:101CD00001682846FEF7B2FA3049486221462F488B
:101CE00004F0FCFE304909784800FEF789FB054600
:101CF0002A48816A2846FEF79BFA2C4908602A493F
:101D000009784800FEF77CFB05462448816A28468E
:101D1000FEF73CFA26490860234909784800FEF797
:101D20006FFB05461D48816A2846FEF781FA214966
:101D300008601D4909784800FEF762FB0546174810
:101D4000816A2846FEF722FA1B4908601B48006892
:101D5000164948621A4800681549486219480068DF
:101D600014494862184800681349486221460F48E0
:101D700004F0B4FE21460E4804F0B0FE21460D48A2
:101D800004F0ACFE21460C4804F0A8FE70BD000033
:101D900030000020200300206404002054030020B1
:101DA00058040020846E00087400002050020020B7
:101DB00084020020B8020020EC0200200C00002069
:101DC0001000002014000020180000202DE9F04130
:101DD000024600250026002000230024002791F859
:101DE00003C00CF00F0591F803C00CF0100CBCF10F
:101DF000000F03D091F802C04CEA050591F800C02D
:101E0000BCF1000F31D0146800202BE04FF0010C22
:101E10000CFA00F3B1F800C00CEA03069E4220D190
:101E200083004FF00F0C0CFA03F7BC4305FA03FCD8
:101E30004CEA040491F803C0BCF1280F06D14FF01E
:101E4000010C0CFA00FCC2F814C00AE091F803C0BF
:101E5000BCF1480F05D14FF0010C0CFA00FCC2F8A0
:101E600010C0401C0828D1D31460B1F800C0BCF1E8
:101E7000FF0F34DD546800202EE000F1080C4FF015
:101E8000010808FA0CF3B1F800C00CEA03069E4200
:101E900021D183004FF00F0C0CFA03F7BC4305FA75
:101EA00003FC4CEA040491F803C0BCF1280F05D1EF
:101EB00000F1080C08FA0CF8C2F8148091F803C07D
:101EC000BCF1480F07D100F1080C4FF0010808FAE7
:101ED0000CF8C2F81080401C0828CED35460BDE82E
:101EE000F0810000F0B50A460023002400210025FF
:101EF00000F00046B6F1004F02D11D4EF16901E03D
:101F00001B4E7168C0F3034583B200F44016B6F56A
:101F1000401F08D121F07061154E766826F070667A
:101F2000134F7E6012E000F48016B6F5801F06D1D4
:101F3000032606FA05F4A14341F0706106E0460D60
:101F4000360103FA06F6B14341F0706122B1460D45
:101F5000360103FA06F6314300F00046B6F1004FB1
:101F600002D1034EF16101E0014E7160F0BD00004D
:101F700000000140416170470161704707B5A2B0A0
:101F80004FF07C512498FEF759F90F90FE48806875
:101F90000B90FD4800680A900B99FEF74FF90D90E1
:101FA000F948C0680B90F84840680A900B99FEF712
:101FB00045F90C900D99FEF73BF94FF080410E90DA
:101FC000FEF73CF91E90F048C0680B90EE48806820
:101FD0000A900B99FEF732F90D90EB4840680B9090
:101FE000E94800680A900B99FEF728F90C900D99C2
:101FF000FEF7CCF84FF080410E90FEF71FF91F90CE
:10200000E14880680A90E048806809900A99FEF7E4
:1020100015F90C90DC4840680A90DB48406809904C
:102020000A99FEF70BF90B900C99FEF7AFF84FF0F9
:1020300080410D90FEF702F94FF07E510E90FEF7B1
:10204000FAF82090D148B0F904000990FEF7D8F9C9
:102050000B90CE48B0F904000990FEF7D1F90A9030
:102060000B99FEF7EBF80D90C848B0F90200079005
:10207000FEF7C6F90990C548B0F902000790FEF7CF
:10208000BFF908900999FEF7D9F80B90BF48B0F94D
:1020900000000790FEF7B4F90990BC48B0F90000C1
:1020A0000790FEF7ADF908900999FEF7C7F80A9076
:1020B0000B99FEF76BF80C900D99FEF767F80E90F0
:1020C00001F0DAFDB24908602298B0F900000D90E5
:1020D000FEF796F90E90AE4801680E98FEF7AEF83E
:1020E0001B902298B0F902000D90FEF789F90E902E
:1020F000A74801680E98FEF7A1F81C902298B0F945
:1021000004000D90FEF77CF90E90A14801680E982E
:10211000FEF794F81D901F980C901D980B900C9949
:10212000FEF78CF80E9020980C901C980B900C9950
:10213000FEF784F80D900E99FEF77AF81590209826
:102140000C901B980B900C99FEF778F80E901E9847
:102150000C901D980B900C99FEF770F80D900E994D
:10216000FEF766F816901E980C901C980B900C9930
:10217000FEF764F80E901F980C901B980B900C992A
:10218000FEF75CF80D900E99FEF752F8179015982F
:102190000D90804801680D98FEF750F80E907E482B
:1021A000006801460D900E98FDF7F0FF7A4908602F
:1021B00016980D90774801680D98FEF73FF80E903D
:1021C0007548406801460D900E98FDF7DFFF724993
:1021D000486017980D906F4801680D98FEF72EF82B
:1021E0000E906D48806801460D900E98FDF7CEFF69
:1021F00069498860159801460B9068480068FEF7A9
:102200001DF80D902298B0F906000A90FEF7F8F834
:1022100063490B90FEF712F80C900D99FDF7B6FF8D
:102220000E905D48006801460D900E98FDF7AEFFD8
:102230001890169801460B9058480068FDF7FEFF6D
:102240000D902298B0F908000A90FEF7D9F8544989
:102250000B90FDF7F3FF0C900D99FDF797FF0E9093
:102260004D48406801460D900E98FDF78FFF19907C
:10227000179801460B9049480068FDF7DFFF0D9065
:102280002298B0F90A000A90FEF7BAF844490B9078
:10229000FDF7D4FF0C900D99FDF778FF0E903E48A6
:1022A000806801460D900E98FDF770FF1A901A98FD
:1022B0000B903548C0680A900B99FDF7BFFF0D9051
:1022C000199809903048806808900999FDF7B6FF81
:1022D0000B902D48406880F0004009901898014606
:1022E00008900998FDF7AAFF0A900B99FDF7A0FF47
:1022F0000C900D99FDF79CFF0E900F99FDF79EFF36
:1023000014901A980B90204880680A900B99FDF75A
:1023100095FF0D90199809901B48C068089009997D
:10232000FDF78CFF0B9018980990174800680890EB
:102330000999FDF783FF0A900B99FDF779FF0C903F
:102340000D99FDF723FF0E900F99FDF777FF13907E
:102350001A980B900C4840680A900B99FDF76EFF95
:102360000D90199809900848006808900999FDF7A0
:1023700065FF0B90189809900348C0680890099968
:10238000FDF75CFF0A900DE0CC000020580400200F
:10239000C8000020280100207C0400202401002027
:1023A0002E9E8B3A0B99FDF7F1FE0C900D99FDF7DF
:1023B0003FFF0E900F99FDF741FF12901A980B9076
:1023C000B34800680A900B99FDF738FF0D901998F3
:1023D0000990AF48406808900999FDF72FFF0B90CE
:1023E000AB48806880F0004009901898014608903A
:1023F0000998FDF723FF0A900B99FDF7C7FE0C9093
:102400000D99FDF7C3FE0E900F99FDF717FF119080
:102410009F4800680E901499FDF7B8FE9C4908602B
:10242000084640680E901399FDF7B0FE9849486041
:10243000084680680E901299FDF7A8FE94498860BE
:102440000846C0680E901199FDF7A0FE9049C8603B
:102450000846C0680B900846C0680A900B99FDF7C3
:10246000EDFE0D908A488068099089488068089040
:102470000999FDF7E3FE0B90854840680790844872
:10248000406806900799FDF7D9FE099080480068DA
:1024900007907F48006806900799FDF7CFFE0890E7
:1024A0000999FDF773FE0A900B99FDF76FFE0C90EA
:1024B0000D99FDF76BFE0E9001F0DEFB1090744855
:1024C00000680E901099FDF7B9FE71490860084642
:1024D00040680E901099FDF7B1FE6D4948600846BE
:1024E00080680E901099FDF7A9FE6949886008463A
:1024F000C0680E901099FDF7A1FE6549C86022984A
:10250000B0F90A000C90FDF77BFF62490D90FDF7D2
:1025100095FE0E904FF07E510E98FDF7D1FF04D33B
:102520005D490E98FDF7C2FF0DD224990E98FDF774
:1025300085FE0D902398806801460C900D98FDF75C
:1025400025FE2399886052484068014603904FF069
:102550008040FDF773FE04904D48C068014603902B
:102560000498FDF76BFE0690494800680146039009
:102570004FF08040FDF762FE0490454880680146B8
:1025800003900498FDF75AFE05900699FDF750FE5A
:102590000790FDF75CFFCDE9080103F0B7FD4FF0B0
:1025A00000523E4BCDE90A01FDF7B8FECDE90C0122
:1025B000FDF760FF23994860354880680146019027
:1025C0004FF08040FDF73AFE0290314880680146A6
:1025D00001900298FDF732FE04902D4840680146B4
:1025E00000904FF08040FDF729FE01902848406898
:1025F000014600900198FDF721FE4FF07E510290B8
:10260000FDF719FE03900499FDF712FE0590FDF702
:102610001EFFCDE908011E480068014601904FF0F9
:102620008040FDF70BFE029019484068014601907A
:102630000298FDF703FE049015488068014601905A
:102640004FF08040FDF7FAFD02901148C068014646
:1026500001900298FDF7F2FD03900499FDF796FDB5
:102660000590FDF7F4FECDE90601DDE9082303F04E
:1026700095FF4FF00052094BCDE90A01FDF74EFEE0
:10268000CDE90C01FDF7F6FE2399086025B000BDE9
:10269000CC000020F6FF793D000080BFDCA54C4057
:1026A00010B504F0CFF80446FDF7AAFE0B49086008
:1026B00004F024FB0446FDF7A3FE0949086004F07A
:1026C00063F80446FDF79CFE0649086004F0B8FA7A
:1026D0000446FDF795FE0449086010BD0C0000207B
:1026E00010000020140000201800002000BFFEE7AA
:1026F00000B54FF400600F49086000F023F94FF473
:1027000080600C49086000F01DF94FF40060094931
:10271000091F086000F016F900F014F900F012F932
:1027200000F010F94FF400600249086000F00AF967
:1027300000BD0000140C014000B54FF400600F49CB
:10274000086000F0FFF84FF480600C49091F086032
:1027500000F0F8F84FF400600849091F086000F025
:10276000F1F800F0EFF800F0EDF800F0EBF84FF4BE
:1027700000600249086000F0E5F800BD140C01405B
:1027800000B508220021D001154B18601CE0480656
:10279000010E4FF40060124B1B1D186000F0D2F8C0
:1027A00000F0D0F84FF400600D4B186000F0CAF84C
:1027B00000F0C8F800F0C6F809480838006800F4CE
:1027C000806008B141F00101101EA2F10103DAB2EC
:1027D000DDD14FF40060024B1B1D1860084600BDA0
:1027E000100C014000B50146082221E04FF40060C2
:1027F000144B186000F0A6F801F0800028B14FF4E7
:102800008060104B1B1F186003E04FF480600D4B7D
:1028100018604806010E00F095F84FF40060094B6F
:102820001B1F186000F08EF800F08CF800F08AF89A
:10283000101EA2F10103DAB2D8D14FF40060014BAF
:10284000186000BD140C014000B54FF480601549BC
:1028500008604000086000F075F812480838006809
:1028600008B9012000E0002000F4806008B10120D8
:1028700000BD4FF480600B49091D086000F062F84C
:1028800008480838006800F4806008B10120EFE7CC
:102890004FF400600349091D086000F053F8002060
:1028A000E6E70000100C014000B54FF400600D4950
:1028B000086000F047F84FF480600A49086000F0B3
:1028C00041F800F03FF84FF400600649091F086026
:1028D00000F038F84FF480600249091F086000F0EA
:1028E00031F800BD140C014000B54FF400601449EC
:1028F000086000F027F84FF480601149091F086054
:1029000000F020F84FF400600D49091F086000F046
:1029100019F800F017F800F015F809480C380068AD
:1029200000F4806028B14FF4006005490860012080
:1029300000BD4FF40060024908600020F8E7000085
:10294000140C014008B50220009004E09DF800003E
:10295000401EC0B200909DF800000028F6D108BDCE
:1029600008B50121082001F0BFF94FF44060ADF82F
:10297000000003208DF8020014208DF80300694642
:102980000148FFF723FA08BD000C014070B504466A
:102990000D460026FFF758FF012800D170BD2046E4
:1029A000FFF720FFFFF7A0FF012803D1FFF77CFF0F
:1029B0000120F3E72846FFF715FFFFF795FFFFF724
:1029C00073FFFFF741FF611CC8B2FFF70BFFFFF772
:1029D0008BFF012803D1FFF767FF0120DEE7FFF738
:1029E000CFFE0646FFF7A8FEFFF75EFF70B2D5E701
:1029F00070B506460C461546FFF726FF012800D1A4
:102A000070BD3046FFF7EEFEFFF76EFF012803D1E1
:102A1000FFF74AFF0120F3E72046FFF7E3FEFFF749
:102A200063FF2846FFF7DEFEFFF75EFFFFF73CFF80
:102A30000020E5E72DE9F04106460F4615461C4605
:102A4000FFF702FF012801D1BDE8F0813046FFF712
:102A5000C9FEFFF749FF012803D1FFF725FF012039
:102A6000F2E73846FFF7BEFEFFF73EFFFFF71CFF19
:102A7000FFF7EAFE711CC8B2FFF7B4FEFFF734FFA0
:102A8000012803D1FFF710FF0120DDE70CE0FFF77D
:102A900077FE2870012C02D1FFF74EFE01E0FFF710
:102AA00027FE6D1C601EC4B2002CF0D1FFF7FCFEA7
:102AB0000020C9E7244825490861254848610020CD
:102AC000C8604FF07E500860002088601E48214991
:102AD00008611F4848610020C8604FF07E500860C0
:102AE0000020886018481C49086119484861002086
:102AF000C8604FF07E500860002088601248174977
:102B00000861134848610020C8604FF07E5008609B
:102B1000002088600C48124908610D484861002077
:102B2000C8604FF07E5008600020886006480D495C
:102B30000861074848610020C8604FF07E50086077
:102B400000208860704700006666663E38020020FC
:102B50009A99D93EC0010020D8010020F001002040
:102B6000080200202002002070B504464F4850495A
:102B70000860504850490860002150480068FDF73F
:102B800095FC05D000214E480068FDF78FFC04D16C
:102B9000002047490860484908604848006844499F
:102BA000486247480068444948622146404803F06B
:102BB00095FF2146404803F091FF42480068424992
:102BC000086042488068486221463F4803F086FF1B
:102BD0003D48806A3E4908603E49B1F90A00FDF768
:102BE0000FFC05463C4801682846FDF727FB38499D
:102BF00048622146364803F071FF2F4A916A2C4AF9
:102C0000906AFDF7C3FA05462F48816A2846FDF70A
:102C10000FFB32490860284A916A254A906AFDF7FD
:102C200007FB05462848816A2846FDF7AFFA2C497C
:102C30000860214A916A1E4A906AFDF7F9FA054632
:102C40002148816A2846FDF7F3FA264908601A4AA6
:102C5000916A174A906AFDF799FA05461A48816AFF
:102C60002846FDF793FA20490860204800681B4970
:102C700048621F4800681A4948621E48006819499E
:102C800048621D480068184948622146134803F00D
:102C900025FF2146124803F021FF2146114803F089
:102CA0001DFF2146104803F019FF70BD00809D43B1
:102CB0008803002000006143BC030020280000209E
:102CC0002C0000203000002020030020640400209D
:102CD0005403002058040020846E00085002002095
:102CE00084020020B8020020EC0200200C0000202A
:102CF00010000020140000201800002070B50446C9
:102D00004F485049086050485049086000215048D9
:102D10000068FDF7CBFB05D000214E480068FDF7A9
:102D2000C5FB04D10020474908604849086048486D
:102D3000006844494862474800684449486221465F
:102D4000404803F0CBFE2146404803F0C7FE42480E
:102D500000684249086042488068486221463F480E
:102D600003F0BCFE3D48806A3E4908603E49B1F927
:102D70000A00FDF745FB05463C4801682846FDF77B
:102D80005DFA384948622146364803F0A7FE2F4ACB
:102D9000916A2C4A906AFDF7F9F905462F48816A35
:102DA0002846FDF745FA32490860284A916A254AC3
:102DB000906AFDF73DFA05462848816A2846FDF7E6
:102DC000E5F92C490860214A916A1E4A906AFDF78C
:102DD0002FFA05462148816A2846FDF729FA264937
:102DE00008601A4A916A174A906AFDF7CFF90546BA
:102DF0001A48816A2846FDF7C9F920490860204829
:102E000000681B4948621F4800681A4948621E480A
:102E10000068194948621D480068184948622146FF
:102E2000134803F05BFE2146124803F057FE21468B
:102E3000114803F053FE2146104803F04FFE70BDC9
:102E400000809D43F003002000003E432404002046
:102E5000280000202C00002030000020200300204B
:102E6000640400205403002058040020846E0008ED
:102E70005002002084020020B8020020EC02002052
:102E80000C0000201000002014000020180000207A
:102E900000BFFEE700B585B00121042000F024FF4B
:102EA0000121082000F020FF10208DF813000320DE
:102EB0008DF812001020ADF8100004A91F48FEF78D
:102EC00085FF2020ADF8100004A91C48FEF77EFF06
:102ED0004FF48050ADF8100004A91948FEF776FFB2
:102EE000372000F06BFA0121202000F0EDFEC72012
:102EF000ADF808002C20ADF8040001A9114802F03B
:102F000017F801210F4801F0B3FD4FF4A06000F065
:102F100099FA37208DF8000002208DF8010000207A
:102F20008DF8020001208DF80300684600F052FA87
:102F30000121044801F0A2FD05B000BD000C0140D4
:102F4000000801400014004000200149087070474B
:102F50000200002008B50121042000F0C5FE012177
:102F6000082000F0C1FE0121102000F0BDFE01216B
:102F7000084600F0B9FE01211D48FEF7B3FF1020FE
:102F80008DF803000320ADF800008DF802006946BB
:102F90001848FEF71BFF10208DF803004FF4405037
:102FA000ADF8000003208DF8020069461248FEF7D4
:102FB0000DFF10208DF803000C20ADF80000032059
:102FC0008DF8020069460B48FEF700FF10208DF8CF
:102FD00003004FF44040ADF8000003208DF80200DC
:102FE00069460548FEF7F2FE00F036FA08BD00001B
:102FF0000002300000100140000C014010B50446F2
:10300000002C0BDB08210C48FEF7B4FF04210A4812
:10301000FEF7B2FFA0B200F095FA0BE008210648D7
:10302000FEF7AAFF04210448FEF7A4FF614288B21C
:1030300000F088FA10BD00000010014010B50446F1
:10304000002C0BDB01210C48FEF794FF02210A48FB
:10305000FEF792FFA0B200F06BFA0BE001210648E8
:10306000FEF78AFF02210448FEF784FF614288B21E
:1030700000F05EFA10BD00000010014010B50446DB
:10308000002C0DDB4FF480410D48FEF773FF4FF429
:1030900000410B48FEF770FFA0B200F067FA0DE0A8
:1030A0004FF480410648FEF767FF4FF400410448A3
:1030B000FEF760FF614288B200F058FA10BD0000D0
:1030C000000C014010B50446002C0DDB4FF40051FC
:1030D0000D48FEF74FFF4FF480510B48FEF74CFFB1
:1030E000A0B200F039FA0DE04FF400510648FEF7A7
:1030F00043FF4FF480510448FEF73CFF614288B221
:1031000000F02AFA10BD0000000C01402DE9FE4F2E
:1031100006236A463B21D020FFF78CFC06230DF1E5
:1031200006024321D020FFF785FC002458E001204F
:1031300000EB44001DF800001DF8141040EA0120C7
:10314000294931F81410401A00B22849096821F8B9
:103150001400032C1BDA2549096831F91400FDF726
:103160004FF9054604EB4401214A02EBC100294610
:1031700003F0DEFA04EB44011D4A02EBC10188684A
:10318000FDF74CF900B21949096821F81400022C26
:1031900024DDE01EC5B2DFF85C801449096831F90E
:1031A0001400FDF72DF982464146FDF747F8074622
:1031B000114951F825001149FDF740F8814639467B
:1031C000FCF7E4FF0C4941F825000646FDF726F917
:1031D00000B20649096821F8140000BF601CC4B29F
:1031E000062CA4DBBDE8FE8F70040020C400002084
:1031F000DC0000209A99193E880400209A99593FD2
:10320000F0B58BB0182105A8FCF7B5FF1E250526E3
:103210007742002003900490404800210160416003
:1032200081604FF400503D498880002201213C48D4
:1032300001F0D3FC3BE000BF0A20FEF76AFCFFF779
:1032400065FF002416E037480168E01C31F81000E3
:1032500003A931F81410401A00B201A921F8140092
:1032600030480168E01C31F8100003A921F814006F
:10327000601C04B2032CE6DBBDF904000528DBDC8E
:10328000BDF9040010F1050FD6DBBDF906000528D5
:10329000D2DCBDF9060010F1050FCDDBBDF9080049
:1032A0000528C9DCBDF9080010F1050FC4DB281E94
:1032B000A5F10101CDB2BED1002417E0FFF726FF32
:1032C000642C11DB00200CE005A951F82010154AF0
:1032D000126832F91020114405AA42F82010411C4E
:1032E000C8B20628F0DB00BF601C04B2B4F5B27FA0
:1032F000E4DB002409E005A850F82400001200B225
:10330000064921F81400601C04B2062CF3DB0122EC
:103310001146034801F061FC0BB0F0BD70040020C1
:1033200000100040C400002010B5002400BF80221F
:103330006B21D020FFF75CFBC4B21E20FEF7E9FB37
:1033400002221921D020FFF753FB2044C4B20322EC
:103350006B21D020FFF74CFB2044C4B203221A217A
:10336000D020FFF745FB2044C4B218221B21D020F7
:10337000FFF73EFB2044C4B209221C21D020FFF7F6
:1033800037FB2044C4B2002CD1D17521D020FFF7E7
:10339000FDFAC4B2682C01D0012010BD0020FCE76A
:1033A0007047000000F01F0201219140024A4309CA
:1033B00042F823107047000080E100E000F01F0297
:1033C000012191404209920002F1E022C2F800116D
:1033D0007047000070B5002100230F22C47804B3A9
:1033E000154C246804F4E064C4F5E064210AC1F1DA
:1033F0000403CA40447804FA03F18478144021435A
:1034000009010E4C0678A155047804F01F0501242B
:10341000AC4005786D11AD0005F1E025C5F800411F
:1034200009E0047804F01F050124AC40044D06783F
:10343000761145F8264070BD0CED00E000E400E098
:1034400080E100E002490143024A11607047000038
:103450000000FA050CED00E000B589B00121480339
:1034600000F042FC0121102000F03EFC18208DF8F5
:1034700023004FF47070ADF8200003208DF8220077
:1034800008A92948FEF7A2FC284801F0AFFB00205C
:10349000ADF81A00ADF8160040F2E730ADF81800AC
:1034A0000B20ADF8140000208DF81C0005A91F4862
:1034B00001F03EFD01A801F0FAFC6020ADF8040027
:1034C0000020ADF80C000120ADF806000020ADF89A
:1034D0000A0001A9154801F08FFB01A9134801F06A
:1034E000E1FB01A9114801F03DFC01A90F4801F0E1
:1034F00093FC08210D4801F0CBFB08210B4801F09B
:1035000023FC0821094801F07DFC0821074801F04F
:10351000C1FC0121054801F0BDFA0121034801F079
:10352000ADFA09B000BD00000010014000340140B8
:1035300010B504462146024801F0C3FC10BD00004E
:103540000034014010B504462146024801F0BBFC9E
:1035500010BD00000034014010B504462146024869
:1035600001F0B3FC10BD00000034014010B504466A
:103570002146024801F0ABFC10BD000000340140C0
:103580007047000010B53F4800780C2805D13E4830
:1035900000F024FCFEF728FA73E03A480078FF2890
:1035A00002D101F023F86CE0364800780D2805D1EF
:1035B0003548FEF7DBFAFEF717FA62E0314800788B
:1035C0000E2805D1304801F0A5FDFEF70DFA58E0B0
:1035D0002C4800780F2805D12B48FFF7C5FAFEF7D5
:1035E00003FA4EE027480078102805D1264801F05C
:1035F000F1FCFEF7F9F944E022480078172805D1DC
:10360000214801F021FEFEF7EFF93AE01D4800786D
:10361000112805D11C48FDF785FAFEF7E5F930E0E1
:1036200018480078122805D11748FFF767FBFEF706
:10363000DBF926E013480078132805D11248FEF77D
:103640002FFBFEF7D1F91CE00E480078142805D1B5
:103650000D4800F037FDFEF7C7F912E00948007881
:10366000152805D1084800F035FCFEF7BDF908E043
:1036700004480078162804D1034800F0A7FCFEF7A0
:10368000B3F910BD540000200AD7A33B10B504467F
:10369000012C64D19B48007838B9AE209A49087053
:1036A00000F00AFE01209749087000219748006841
:1036B000FCF7FCFE11D0002195480068FCF7F6FEEF
:1036C0000BD09448007840B99348007828B99348C3
:1036D000007810B912209249087092498B4800680E
:1036E000FCF7EEFE2AD8904988480068FCF7DEFE19
:1036F00024D88E4986480068FCF7E2FE1ED88C4923
:1037000083480068FCF7D2FE18D882480078A8B930
:1037100088480078CD2811D1FF20814908707F4862
:103720000078002809D101207749087000F0C4FD15
:1037300001207949087079490870E1E07D480078F6
:10374000CD28FAD1734800780028F6D101207949B4
:103750000870AF206C49087000F0AEFDD0E0022C7C
:1037600067D17548007838B9AF206749087000F014
:10377000A3FD012070490870002164480068FCF72F
:1037800095FE11D0002162480068FCF78FFE0BD037
:103790006A48007840B96A48007828B969480078D2
:1037A00010B912205E4908705E4958480068FCF75D
:1037B00087FE2DD85C4955480068FCF777FE27D86E
:1037C0005A4953480068FCF77BFE21D858495048B5
:1037D0000068FCF76BFE1BD858480078C0B9554804
:1037E0000078CD2814D1FF204D4908705548007845
:1037F00020B901204449087000F05EFD514800786E
:1038000000287DD101204E4908704E49087077E0AC
:1038100048480078CD2873D14848007800286FD1F7
:10382000012044490870AF203749087000F044FD7A
:1038300066E0032C64D14448007838B9BA20324994
:10384000087000F039FD01203F49087000212F4821
:103850000068FCF72BFE11D000212D480068FCF712
:1038600025FE0BD03948007840B93948007828B98E
:103870003848007810B9122029490870294923488E
:103880000068FCF71DFE2CD8274920480068FCF78B
:103890000DFE26D825491E480068FCF711FE20D8E9
:1038A00023491B480068FCF701FE1AD82748007816
:1038B000B8B920480078CD2813D1FF2018490870E6
:1038C0002448007820B901200F49087000F0F4FC6A
:1038D0002048007820B901201D4908701D49087052
:1038E0000EE014480078CD280AD11848007838B97D
:1038F000012010490870AF200349087000F0DCFC7B
:1039000010BD0000880000201C00002028000020BE
:103910002C00002075000020700000207F00002097
:1039200054000020008098430080A24300003443EC
:103930000000484334000020890000207700002068
:1039400072000020810000208A0000207600002004
:10395000710000208000002010B50446012C53D1D6
:103960004FF4167003F07EFA40F62E1002F0D6FEE9
:10397000FFF7EAFA40F2DC50FEF7CBF87948FEF7A1
:103980005DF84FF47A70FEF7C4F84FF4967003F0C8
:1039900039FA4FF47A70FEF7BCF8FFF7D5FA7148A0
:1039A00001F056FD4FF4876002F0B8FE4FF47A70D4
:1039B000FEF7AFF8FFF7C8FA4FF47A70FEF7A9F8F0
:1039C00069480078052803D16848FEF737F802E017
:1039D0006748FEF733F84FF47A70FEF79AF84FF421
:1039E000167003F00FFAFFF7AFFA5F48007805286A
:1039F00003D15E4801F02CFD02E05D4801F028FD96
:103A00004FF47A70FEF785F8022C53D14FF487609B
:103A100003F028FA40F6FC0002F080FEFFF794FA6B
:103A20004FF4FA70FEF775F84E48FEF707F84FF4BA
:103A30007A70FEF76EF84FF4967003F0E3F94FF4E6
:103A40007A70FEF766F8FFF77FFA464801F000FD4E
:103A50004FF4876002F062FE4FF47A70FEF759F877
:103A6000FFF772FA4FF47A70FEF753F83E48007889
:103A7000052803D13D48FDF7E1FF02E03C48FDF792
:103A8000DDFF4FF47A70FEF744F84FF4967003F0C0
:103A9000B9F9FFF759FA34480078052803D13348BB
:103AA00001F0D6FC02E0324801F0D2FC4FF47A700B
:103AB000FEF72FF8032C53D140F2AE6003F0D2F999
:103AC00040F6FC0002F02AFEFFF73EFA4FF4FA70CF
:103AD000FEF71FF82348FDF7B1FF4FF47A70FEF7A9
:103AE00018F84FF4967003F08DF94FF47A70FEF7E2
:103AF00010F8FFF729FA1B4801F0AAFC4FF4876081
:103B000002F00CFE4FF47A70FEF703F8FFF71CFA90
:103B10004FF47A70FDF7FDFF13480078052803D1B4
:103B20001248FDF78BFF02E01148FDF787FF4FF4C5
:103B30007A70FDF7EEFF4FF4167003F063F9FFF7AC
:103B400003FA09480078052803D1084801F080FCF1
:103B500002E0074801F07CFC4FF47A70FDF7D9FFD2
:103B600010BD0000CDCCCC3F8E0000200000C04036
:103B70009A99254110B538480078032190FBF1F25D
:103B800001FB12003449087008460078401C087098
:103B900008460078FFF7E0FE4FF47A70FDF7B9FFB2
:103BA0002D480078012819D106212C4802F080FF09
:103BB00001202B49087000202A4908702A49087002
:103BC0002A48807829494978884203DC112028490D
:103BD000087040E00D20264908703CE01E4800783F
:103BE000022819D106211D4802F062FF01201E495A
:103BF000087000201B490870194908701B48C078DC
:103C00001A498978884203DC11201949087022E09A
:103C10000D20174908701EE00F48007803281AD1BC
:103C200006210E4802F044FF00200F4908700D499C
:103C300008700B4908700F480078022803D00D481F
:103C40000078052807D1152009490870AD200749DB
:103C5000087000F031FB10BDBC0000209C0000206B
:103C600079000020780000207A0000201C0000204D
:103C7000540000208E0000202DE9F05F04464FF034
:103C80007F594FF07C512046FCF7D8FA82462546F2
:103C90002E460C48A0EB6606354629465046FCF7F2
:103CA000CDFA83462946FCF7C9FA80464946FCF717
:103CB000C2FA07462946FCF7C1FA05462846BDE880
:103CC000F09F0000DF59375F29B1064AD2690243ED
:103CD000044BDA6104E0034AD2698243014BDA61A2
:103CE000704700000010024029B1064A9269024361
:103CF000044B9A6104E0034A92698243014B9A6142
:103D0000704700000010024030B50021002200245E
:103D100000232D4D6D6805F00C0121B1042905D05B
:103D2000082923D105E0294D056022E0274D0560D3
:103D30001FE0254D6D6805F47012234D6D6805F484
:103D40008034022505EB92421CB9214D5543056094
:103D50000BE01D4D6D6805F400351DB11C4D55433C
:103D6000056002E0194D5543056002E0174D0560FE
:103D700000BF00BF144D6D6805F0F0010909154D35
:103D80006B5C0568DD4045600F4D6D6805F4E061D2
:103D9000090A104D6B5C4568DD4085600A4D6D6811
:103DA00005F46051C90A0B4D6B5C4568DD40C56088
:103DB000054D6D6805F44041890B074D6B5CC56886
:103DC000B5FBF3F5056130BD0010024000127A002A
:103DD00000093D003E0000204E00002070B5044662
:103DE0002F4930480068FCF7D1F92F4908602F4867
:103DF0008068486221462C4802F070FE2C4800780A
:103E0000FCF707FB05462848816A2846FCF710FAAC
:103E10002849086026480078FCF7FBFA0546224846
:103E2000816A2846FCF7B2F92349086020480078E7
:103E3000FCF7EFFA05461C48816A2846FCF7F8F9BA
:103E40001E4908601A480078FCF7E3FA0546164850
:103E5000816A2846FCF79AF91949086019480068F0
:103E600014494862184800681349486217480068B6
:103E700012494862164800681149486221460D48B7
:103E800002F02CFE21460C4802F028FE21460B4889
:103E900002F024FE21460A4802F020FE70BD000018
:103EA000000096423000002020030020640400201F
:103EB000740000205002002084020020B80200207C
:103EC000EC0200200C000020100000201400002054
:103ED0001800002070B504462F4930480068FCF7F0
:103EE000A7F92F4908602F488068486221462C486E
:103EF00002F0F4FD2C480078FCF78BFA05462848C0
:103F0000816A2846FCF794F9284908602648007819
:103F1000FCF77FFA05462248816A2846FCF736F905
:103F20002349086020480078FCF773FA05461C48CE
:103F3000816A2846FCF77CF91E4908601A48007817
:103F4000FCF767FA05461648816A2846FCF71EF911
:103F500019490860194800681449486218480068FF
:103F600013494862174800681249486216480068B9
:103F70001149486221460D4802F0B0FD21460C4827
:103F800002F0ACFD21460B4802F0A8FD21460A488C
:103F900002F0A4FD70BD0000000096423000002039
:103FA0002003002064040020740000205002002040
:103FB00084020020B8020020EC0200200C00002047
:103FC00010000020140000201800002070B50446E6
:103FD0002F4930480068FCF7D9F82F4908602F486E
:103FE0008068486221462C4802F078FD2C48007811
:103FF000FCF70FFA05462848816A2846FCF718F9AD
:104000002849086026480078FCF703FA054622484C
:10401000816A2846FCF7BAF82349086020480078EE
:10402000FCF7F7F905461C48816A2846FCF700F9B9
:104030001E4908601A480078FCF7EBF90546164857
:10404000816A2846FCF7A2F81949086019480068F7
:1040500014494862184800681349486217480068C4
:1040600012494862164800681149486221460D48C5
:1040700002F034FD21460C4802F030FD21460B4889
:1040800002F02CFD21460A4802F028FD70BD000018
:1040900000001643300000202003002064040020AC
:1040A000740000205002002084020020B80200208A
:1040B000EC0200200C000020100000201400002062
:1040C0001800002070B504462F4930480068FCF7FE
:1040D0005DF82F4908602F488068486221462C48C7
:1040E00002F0FCFC2C480078FCF793F905462848C0
:1040F000816A2846FCF79CF8284908602648007821
:10410000FCF787F905462248816A2846FCF73EF805
:104110002349086020480078FCF77BF905461C48D5
:10412000816A2846FCF784F81E4908601A4800781E
:10413000FCF76FF905461648816A2846FCF726F811
:10414000194908601948006814494862184800680D
:1041500013494862174800681249486216480068C7
:104160001149486221460D4802F0B8FC21460C482E
:1041700002F0B4FC21460B4802F0B0FC21460A488C
:1041800002F0ACFC70BD0000000096423000002040
:10419000200300206404002074000020500200204E
:1041A00084020020B8020020EC0200200C00002055
:1041B00010000020140000201800002070470000AC
:1041C00000B587B00121C804FFF77EFD0121102052
:1041D000FFF78AFD4FF48060ADF8180018208DF8C5
:1041E0001B0003208DF81A0006A92248FDF7EEFDFA
:1041F0004FF40060ADF8180048208DF81B00032034
:104200008DF81A0006A91B48FDF7E0FD4FF4165083
:1042100002900020ADF814000C20ADF81200002030
:10422000ADF81000ADF80E00ADF80C0002A9124870
:1042300001F0F0F9012240F225510F4801F0C4F9D4
:104240004FF4A060FFF7FEF834208DF80400012041
:104250008DF8070000208DF8050001208DF806007C
:1042600001A8FFF7B7F80121034801F06AF907B088
:1042700000BD000000100140004C004070B5054634
:104280000E46002404E0285D00F006F8601C84B2AD
:10429000B442F8DB70BD000010B504462146054865
:1042A00001F029FA00BF8021024801F056F90028E8
:1042B000F9D010BD004C004010B5FF20FFF7ECFF17
:1042C00004210348FFF7DAFFFE20FFF7E5FF10BDEA
:1042D0001C00002000B587B001210805FFF7F4FCA1
:1042E00001211020FFF700FD01212020FFF7FCFC39
:1042F00018208DF81B000420ADF8180003208DF85D
:104300001A0006A92148FDF761FD18208DF81B0051
:104310004FF48050ADF8180003208DF81A0006A95C
:104320001B48FDF753FD4FF4614002900020ADF8AB
:1043300014000C20ADF812000020ADF81000ADF80C
:104340000E00ADF80C0002A9124801F063F9012239
:1043500040F225510F4801F037F94FF4A060FFF704
:1043600071F835208DF8040001208DF80700002039
:104370008DF805008DF8060001A8FFF72BF8012144
:10438000044801F0DEF807B000BD00000014014051
:10439000001001400050004010B504462146054879
:1043A00001F0A9F900BF8021024801F0D6F80028E9
:1043B000F9D010BD0050004070B50446002504E05F
:1043C000605DFFF7E9FF681CC5B2605D0028F7D1AA
:1043D00070BD10B5002403E0FF20FFF7DDFF641C73
:1043E000032CF9DB10BD0000F8B504460D46164657
:1043F00064210848FBF7BFFE2B46224606A105486C
:10440000009601F07FF90348FFF7D6FFFFF7E1FFC1
:10441000F8BD00003001002025732E25733D2225B4
:104420006422000000B589B00121C802FFF75CFCDE
:1044300001210420FFF758FC18208DF823004FF4C9
:104440006060ADF8200003208DF8220008A92B48F9
:10445000FDF7BCFC2A4800F0C9FB0020ADF81A00AB
:10446000ADF8160044F61F60ADF818004720ADF80F
:10447000140000208DF81C0005A9214800F058FD0B
:1044800001A800F014FD4FF48070ADF8100060201A
:10449000ADF804000020ADF80C000120ADF80600D6
:1044A0004FF42F70ADF80A0001A9154800F0FAFB8F
:1044B0004FF41670ADF80A0001A9114800F052FC43
:1044C0004FF48760ADF80A0001A90D4800F0A4FC84
:1044D00001210B4800F0DEFA0821094800F034FC05
:1044E0000821074800F08EFC0821054800F0D2FCA6
:1044F0000121034800F0C2FA09B000BD00080140E4
:10450000002C014010B500F001F810BD0CB50020E2
:10451000019000903348006840F4803031490860D1
:1045200000BF3048006800F4003000900198401C43
:104530000190009818B90198B0F5A06FF1D1294801
:10454000006800F4003010B10120009001E000206C
:1045500000900098012843D12348006840F01000E3
:10456000214908600846006820F0030008600846FA
:10457000006840F0020008601A4840681949486025
:104580000846406848600846406840F480604860DB
:104590000846406820F47C1048600846406840F4B3
:1045A000E81048600846006840F08070086000BF6E
:1045B0000C48006800F000700028F9D009484068F5
:1045C00020F00300074948600846406840F00200B8
:1045D000486000BF0348406800F00C000828F9D18B
:1045E0000CBD0000001002400020024010B5002069
:1045F000FEF724FD0020FEF765FD0020FEF7FEFC1F
:104600000020FEF73BFD10BD7047000010B51348B9
:10461000006840F0010011490860084640681049F0
:1046200008400E494860084600680E4908400B499A
:1046300008600846006820F480200860084640684A
:1046400020F4FE0048604FF41F008860FFF75AFF17
:104650004FF000600449086010BD000000100240E7
:104660000000FFF8FFFFF6FE08ED00E0F0B50C4695
:10467000154600220021068C4FF6FE773E40068448
:10468000028B018C4FF60C7632407E1C06EA031634
:104690002E433243104EB0420ED0104EB0420BD0DB
:1046A000B0F1804F08D00E4EB04205D00D4EB04252
:1046B00002D00D4EB04206D14FF6FD76314044F0A7
:1046C0000106314305E04FF6F576314044F001062E
:1046D000314302830184F0BD002C014000340140CD
:1046E0000004004000080040000C0040F0B50C46FB
:1046F0001546002200210026078C4FF6EF7C07EAC2
:104700000C070784028B018C4FF6FF7707EA04162B
:1047100040F6FF473A404FF6FF7707EA03373A4340
:104720004FF6FF7707EA05273A43114FB8420ED0FC
:10473000104FB8420BD0B0F1804F08D00E4FB842A6
:1047400005D00E4FB84202D00D4FB84206D14FF6F9
:10475000DF77394046F01007394305E04FF65F77C1
:10476000394044F01007394302830184F0BD000052
:10477000002C0140003401400004004000080040CB
:10478000000C0040F0B50C46154600220021002622
:10479000078C4FF6FF6C07EA0C070784828B018CAD
:1047A0004FF6FF7707EA04264FF60C773A404FF6AC
:1047B000FF7707EA03172F433A43114FB8420ED051
:1047C000104FB8420BD0B0F1804F08D00E4FB84216
:1047D00005D00E4FB84202D00D4FB84206D14FF669
:1047E000FF57394046F48077394305E04FF2FF57D1
:1047F000394044F48077394382830184F0BD00005E
:10480000002C01400034014000040040000800403A
:10481000000C0040F0B50C46154600220021002691
:10482000078C4EF6FF7C07EA0C070784828B018C0D
:104830004FF6FF7707EA043640F6FF473A404FF657
:10484000FF7707EA05273A434FF6FF7707EA033772
:104850003A43114FB8420ED0104FB8420BD0B0F1CE
:10486000804F08D00E4FB84205D00E4FB84202D04C
:104870000D4FB84206D14DF6FF77394046F48057C8
:10488000394305E047F6FF57394044F48057394330
:1048900082830184F0BD0000002C014000340140FF
:1048A0000004004000080040000C004010B5012149
:1048B000214800F022F900283CD020480078401C14
:1048C0001E4908701E480078401C1D4908701B488E
:1048D0000078052190FBF1F201FB120017490870E6
:1048E000174800784FF47A7190FBF1F201FB120047
:1048F000134908701148007830B9FEF707FC114AD7
:1049000011491248FDF73AFB0C480078012801D103
:10491000FDF7C6FE09480078022801D1FCF7F4FC37
:1049200006480078032801D1FEF72CFE0121024839
:1049300000F0A1F810BD000000100040BF000020F2
:10494000C00000200AD7A33B6404002058040020C4
:104950001FB501211020FFF7B7F941F61F40ADF850
:1049600004000920ADF808000020ADF8060001A9F8
:10497000144800F0DDFA01221146124800F02DF92A
:104980000121104800F07AF8362000F01F020121C2
:1049900091404209920002F1E022C2F8001100BFEA
:1049A0008DF8000001208DF801008DF802008DF8CF
:1049B00003006846FEF70EFD0121024800F05EF894
:1049C0001FBD00000010004010B50121214800F07B
:1049D00094F801283CD12048007801280FD1010328
:1049E0001E48FDF7C9FA00201B4908704FF07E51A0
:1049F0001B480068FBF7CAFB1949086012E016481B
:104A0000007878B94FF480511448FDF7B3FA0120CB
:104A1000114908704FF07E5111480068FBF7B6FB52
:104A20000F4908600F4910480068FBF707FC04466F
:104A30000B4801682046FBF739FD05D800200849DE
:104A400008600120094908700121024800F013F8AC
:104A500010BD0000001400400000002000080140CC
:104A60000400002000C0C74408000020010000200E
:104A7000CA4302827047CA430282704721B102884A
:104A800042F00102028004E002884FF6FE731A40F1
:104A90000280704731B1B0F8442042F40042A0F8DF
:104AA000442005E0B0F84420C2F30E02A0F84420F0
:104AB0007047F0B50C4615461E4600210022002323
:104AC0000189028B038C4FF6F877394021434FF66A
:104AD000FC473A4040F201173A434FF6DD773B403E
:104AE0004FF6FF7707EA06172F433B430181028306
:104AF0000384F0BD0146888C704730B50246002023
:104B000000230024158A05EA0103958905EA0104BA
:104B100013B10CB1012000E0002030BD70B5054696
:104B20000C46244885420ED0234885420BD0B5F16F
:104B3000804F08D02148854205D02148854202D0C7
:104B40002048854200D100E000BF208850B9238969
:104B5000A28861882846FFF789FDE188284600F091
:104B6000BBF925E0208804280AD12389A28861881E
:104B70002846FFF7BBFDE188284600F0B6F917E0AC
:104B8000208808280AD12389A28861882846FFF74F
:104B9000F9FDE188284600F0B5F909E02389A288EB
:104BA00061882846FFF736FEE188284600F0B3F911
:104BB00070BD0000002C01400034014000040040A2
:104BC00000080040000C00400021018041800121CC
:104BD00081800021C180018170471AB183890B4314
:104BE000838102E083898B438381704701894FF67B
:104BF000F87211400181704770B500240022002333
:104C0000058C4FF6FE7635400584028C8388048B34
:104C10004FF68F752C40B51E2C400D882C43751E09
:104C20002A400D892A434D882A43144DA8420BD0AF
:104C3000134DA84208D0134DA84205D0124DA842EA
:104C400002D0124DA84213D14FF6F7752A404D8974
:104C50002A434FF6FB752A408D882A434FF6FF659D
:104C60002B404FF6FF552B408D892B43CD892B438D
:104C700083800483CD888586028470BD002C01402A
:104C80000034014000400140004401400048014020
:104C90000A460021018B4FF6F77319401143018337
:104CA0007047000070B5002400220023058C4FF6E9
:104CB000EF7635400584028C8388048B48F6FF75B7
:104CC0002C404FF6FF452C400D884FF6FF7606EA44
:104CD00005252C434FF6DF752A400D8906EA051598
:104CE0002A434D8806EA05152A43154DA84202D0ED
:104CF000144DA8421DD14FF67F752A404D894FF6BD
:104D0000FF7606EA05152A434FF6BF752A408D88BF
:104D100006EA05152A434FF6FF352B404FF2FF7583
:104D20002B408D8906EA85052B43CD8906EA85054A
:104D30002B4383800483CD880587028470BD0000E7
:104D4000002C0140003401400A460021018B4FF243
:104D5000FF7319404FF6FF7303EA022319430183DF
:104D60007047000070B5002400220023058C4FF628
:104D7000FF6635400584028C8388848B4FF68F75DF
:104D80002C404FF6FC752C400D882C434FF6FF55F8
:104D90002A400D894FF6FF7606EA05252A434D88FD
:104DA00006EA05252A43154DA84202D0144DA84213
:104DB0001DD14FF2FF752A404D894FF6FF7606EA66
:104DC00005252A434FF6FF352A408D8806EA05253A
:104DD0002A434EF6FF752B404DF6FF752B408D890B
:104DE00006EA05152B43CD8906EA05152B4383807A
:104DF0008483CD888587028470BD0000002C01402B
:104E0000003401400A460021818B4FF6F7731940A8
:104E1000114381837047000070B5002200230024F5
:104E2000058C4EF6FF7635400584038C8488828B92
:104E300048F6FF752A404FF6FF452A400D884FF689
:104E4000FF7606EA05252A434DF6FF752B400D89AE
:104E500006EA05352B434D8806EA05352B430B4DF5
:104E6000A84202D00A4DA84208D14BF6FF752C404B
:104E70008D894FF6FF7606EA85152C438480828360
:104E8000CD88A0F84050038470BD0000002C014084
:104E9000003401400A460021818B4FF2FF73194014
:104EA0004FF6FF7303EA0223194381837047002101
:104EB000018041808180C180018141818181C181E6
:104EC0007047818670470187704781877047A0F8D7
:104ED0004010704781847047028B4FF6F3731A407D
:104EE0000283028B0A4302837047028B4FF2FF3327
:104EF0001A400283028B4FF6FF7303EA01231A4321
:104F000002837047828B4FF6F3731A408283828B41
:104F10000A4382837047828B4FF2FF331A408283A9
:104F2000828B4FF6FF7303EA01231A438283704793
:104F3000002202881D4B98420ED01D4B98420BD088
:104F4000B0F1804F08D01B4B984205D01A4B9842C5
:104F500002D01A4B984204D14FF68F731A404B88F7
:104F60001A43174B984207D0164B984204D04FF67D
:104F7000FF431A40CB881A4302808B8883850B88B5
:104F800003850A4B98420BD0094B984208D00E4B30
:104F9000984205D00D4B984202D00D4B984201D15A
:104FA0000B7A03860123838270470000002C0140A6
:104FB000003401400004004000080040000C0040A4
:104FC0000010004000140040004001400044014037
:104FD0000048014070B5044600203F4908603F4941
:104FE00088683F490968FBF723F93B494862214635
:104FF000394801F073FD3848806A3A4908603A49F7
:10500000B1F90A00FBF7FCF9054638480168284663
:10501000FBF714F9334948622146324801F05EFD3E
:1050200033490978494201EB8100FBF7E9F905466C
:105030002C48816A2846FBF7FBF82E4908602C496A
:10504000097801EB8100FBF7DBF905462548816A09
:105050002846FBF79BF8284908602549097801EBA9
:105060008100FBF7CDF905461E48816A2846FBF70B
:10507000DFF8224908601E490978494201EB8100A6
:10508000FBF7BEF905461748816A2846FBF77EF80C
:105090001B4908601B480068164948621A480068A6
:1050A0001549486219480068144948621848006860
:1050B0001349486221460F4801F010FD21460E4871
:1050C00001F00CFD21460D4801F008FD21460C4879
:1050D00001F004FD70BD00002003002064040020E6
:1050E000300000205403002058040020846E000883
:1050F000740000205002002084020020B80200202A
:10510000EC0200200C000020100000201400002001
:105110001800002070B504463C4800683C4908600F
:105120003C48806848622146394801F0D7FC38483D
:10513000806A394908603949B1F90A00FBF760F91A
:105140000546374801682846FBF778F83249486237
:105150002146314801F0C2FC32490978C1EBC10057
:10516000FBF74EF905462C48816A2846FBF760F8A4
:105170002D4908602B490978A1EBC100FBF740F9E4
:1051800005462548816A2846FBF700F8274908604C
:1051900024490978A1EBC100FBF732F905461E4806
:1051A000816A2846FBF744F8214908601D490978BF
:1051B000C1EBC100FBF724F905461748816A284670
:1051C000FAF7E4FF1B4908601B480068164948626B
:1051D0001A4800681549486219480068144948622D
:1051E000184800681349486221460F4801F076FCD0
:1051F00021460E4801F072FC21460D4801F06EFC7C
:1052000021460C4801F06AFC70BD0000300000200F
:1052100020030020640400205403002058040020D0
:10522000846E0008740000205002002084020020D8
:10523000B8020020EC0200200C000020100000202A
:10524000140000201800002070B5044600203F49DB
:1052500008603F4988683F490968FAF7E9FF3B4918
:1052600048622146394801F039FC3848806A3A4999
:1052700008603A49B1F90A00FBF7C2F80546384818
:1052800001682846FAF7DAFF334948622146324876
:1052900001F024FC3349097801EB8100FBF7B0F8F9
:1052A00005462D48816A2846FAF7C2FF2E49086054
:1052B0002C490978494201EB8100FBF7A1F805462A
:1052C0002548816A2846FAF761FF28490860254980
:1052D0000978494201EB8100FBF792F805461E4828
:1052E000816A2846FAF7A4FF214908601D49097818
:1052F00001EB8100FBF784F805461748816A2846D0
:10530000FAF744FF1B4908601B48006816494862C9
:105310001A480068154948621948006814494862EB
:10532000184800681349486221460F4801F0D6FB2F
:1053300021460E4801F0D2FB21460D4801F0CEFB7C
:1053400021460C4801F0CAFB70BD0000200300207C
:105350006404002030000020540300205804002082
:10536000846E000874000020500200208402002097
:10537000B8020020EC0200200C00002010000020E9
:10538000140000201800002010B540F225512748D5
:1053900000F0F0F8012847D1244800F0A7F9C4B282
:1053A0002348007840B9FF2C38D1012020490870EB
:1053B00000202049087031E01D48007801282DD1D7
:1053C000FE2C13D01C48007840B91A4801780078A8
:1053D000401C184A10701948445407E015480178D9
:1053E0000078401C134A107015484454FE2C15D107
:1053F00000200F4908701249897801EB4100FAF743
:10540000FFFF104908600E49C9784800FAF7F8FF15
:105410000D4908600A4800790C49087040F225518E
:10542000024800F07FF800BF10BD0000004C0040B3
:105430003C0000203D000020BE0000209E01002016
:1054400094010020280000202C00002034000020BF
:1054500038B5044655E02D4804602D48007818BB47
:1054600010212C48FCF788FD20212A48FCF784FDF8
:10547000012211462848FFF7B0FB3720FDF79EFFB9
:105480001C208DF8000001208DF8030002208DF80B
:10549000010001208DF802006846FDF79BFF012105
:1054A0001D48FFF7EBFA2CE019480078012828D1B5
:1054B00000201A490860002201211748FFF78DFBE0
:1054C0003720FDF76FFF1C208DF8000001208DF8BC
:1054D000030002208DF8010001208DF802006846CB
:1054E000FDF778FF00210C48FFF7C8FA01210A48B0
:1054F000FFF7C1FA01200A4908700020044908702A
:1055000000BF074800780028A5D038BD080000205B
:1055100001000020000C01400014004004000020A5
:105520000200002010B50022002340F66A14A142B8
:1055300000D100BF0A1201249440A3B2DC430480CE
:1055400010BD21B1828942F40052828104E0828937
:105550004DF6FF731A408281704702460020B1F574
:10556000007F00D100BF13880B400BB1012000E089
:105570000020704770B5024600240023002500205B
:1055800040F66A16B14200D100BFC1F3421501F0E6
:105590001F03012606FA03F3012D02D19689334039
:1055A00006E0022D02D1168A334001E0968A33408C
:1055B0000C12012606FA04F41688344013B10CB11B
:1055C000012000E0002070BDF0B503460024002655
:1055D0000025002040F66A17B94200D100BF1846E6
:1055E000C1F3421401F01F06012707FA06F5012C4A
:1055F00001D10C3004E0022C01D1103000E0143055
:105600001AB107682F43076002E00768AF430760DD
:10561000F0BD00002DE9F04786B005460E46002497
:10562000A24600BFA1460027B08900B100BF2F46A7
:105630002C8A4CF6FF700440F08804432C82AC891D
:105640004EF6F3100440B08831890843718908434D
:105650000443AC81AC8A4FF6FF400440B089044358
:10566000AC8201A8FEF750FB1F48874202D1DDF84B
:1056700010A001E0DDF80CA0A88900F4004040B1C2
:105680000AEBCA0000EB0A1031684900B0FBF1F8E0
:1056900007E00AEBCA0000EB0A1031688900B0FB92
:1056A000F1F86420B8FBF0F004012009642101FB4B
:1056B0001089A88900F4004040B1322000EBC900F5
:1056C000B0FBF1F000F00700044308E0322000EBEB
:1056D00009106421B0FBF1F000F00F0004432C81AD
:1056E00006B0BDE8F0870000003801400146888818
:1056F000C0F308007047C1F308028280704700BF02
:10570000FEE700000FB4084B10B504A902AA0398E5
:1057100000F060F9044602A9002000F0F2FC2046E7
:1057200010BC5DF814FB000003610008490050EA5A
:10573000C12018BF04204A0D18BF40F0010040F2FC
:10574000FF72B2EB515F08BF40F00200012808BFB2
:10575000052070472DE9F0414F1E00EBC7010446BC
:10576000D1E9000115461E4637F006020DD02A4643
:105770003346FAF7D3FD7F1E04EBC703D3E90023BA
:10578000FAF783FF37F00602F1D1022F25D0042F5C
:1057900013D0062F18BFBDE8F0812A463346FAF72A
:1057A000BDFDD4E90A23FAF770FF2A463346FAF71B
:1057B000B5FDD4E90823FAF768FF2A463346FAF71D
:1057C000ADFDD4E90623FAF760FF2A463346FAF71F
:1057D000A5FDD4E90423FAF758FF2A463346FAF721
:1057E0009DFDD4E90223FAF750FF2A463346FAF723
:1057F00095FDD4E90023BDE8F041FAF746BF012248
:10580000FBF759B8FAF741BF00221346104611467C
:10581000FAF7E2BF024A00201107FBF74CB800007C
:1058200001FDFFFF02E008C8121F08C1002AFAD1DB
:1058300070477047002001E001C1121F002AFBD110
:105840007047000001490860704700002C010020EB
:105850002DE9FF5F82B00021DDE90430020DDDF8A3
:1058600040B0034318D044F61050A2F2FF32424336
:105870001514119801281FD0A5EB0B00401C5FEAFE
:10588000000A4FF000064E4FDFF83891B046504600
:1058900015D5CAF1000413E0119801244AA3012888
:1058A00001D16FEA0B010298119AC0E90031C0E9F9
:1058B000024206B0BDE8F09FCBF10000DFE70446EE
:1058C0000021404A491842EB0450CDE9001012E093
:1058D000E00707D032463B4640464946FAF71EFDF0
:1058E0008046894632463B4610461946FAF716FD71
:1058F00006460F466410002CEAD1DDE90401DDE91B
:105900000023BAF1000F06DAFAF708FD42464B46CB
:10591000FAF704FD05E0FAF75FFF42464B46FAF757
:105920005BFF04460E460022284BFAF7F3FF03D82C
:105930004FF0FF30014607E00022254B204631465C
:10594000FAF7A3FEFAF7CEFF102409E0002C0ADBD9
:105950000A220023FAF7D4FD039B30321A55641E45
:1059600050EA0102F2D1641C039AC4F111031444F9
:10597000119A012A03D0012208430DD10AE00843FD
:1059800004D000204FF0110B119072E7A3EB0B0530
:105990006D1E0DE05B4504DD4FF0000205F10105D1
:1059A00004E003DA4FF00002A5F10105002AECD073
:1059B00002981199C0E90231C0E9004579E7000079
:1059C000000014400000F03F300000000000F043F1
:1059D0000000E03F2DE9FF4F95B09B468946064603
:1059E00000250FE2252877D100242746F84A012117
:1059F000059400E0044316F8013F203B01FA03F050
:105A00001042F7D130782A2811D06FF02F03307868
:105A1000A0F13002092A16D8059A44F0020402EBDC
:105A2000820203EB42021044761C0590EFE759F81E
:105A3000042B0592002A03DA504244F400540590E6
:105A400044F00204761C30782E2816D116F8010F87
:105A500044F004042A280DD06FF02F023078A0F112
:105A60003003092B09D807EB870302EB4303C71860
:105A7000761CF3E759F8047B761C30786C280FD03D
:105A800006DC4C2817D068280DD06A2814D104E011
:105A9000742810D07A280FD10DE044F400140AE0E5
:105AA00044F4801401E044F440147278824202D13C
:105AB00004F58014761C761C307866280BD013DC35
:105AC000582877D009DC002875D04528F6D046281C
:105AD000F4D047281AD19DE118E0632835D0642816
