:020000040800F2
:10000000900800204501000859330008A526000883
:10001000492E0008390D00084B550008000000006B
:10002000000000000000000000000000ED3F00089C
:10003000D91A0008000000003935000839440008CA
:100040005F0100085F0100085F0100085F01000810
:100050005F0100085F0100085F0100085F01000800
:100060005F0100085F0100085F0100085F010008F0
:100070005F0100085F0100085F0100085F010008E0
:100080005F0100085F0100085F0100085F010008D0
:100090005F0100085F0100085F0100085F010008C0
:1000A0005F0100085F0100085F0100085F010008B0
:1000B0005F0100085F0100085F0100085F010008A0
:1000C0005F0100085F0100085F0100085F01000890
:1000D0005F0100085F0100085F0100085F01000880
:1000E0005F0100085F0100085F0100085F01000870
:1000F0005F0100085F0100085F0100085F01000860
:100100005F0100085F0100085F0100085F0100084F
:10011000D55100085F010008DD46000815480008B9
:100120005F0100085F0100085F0100085F0100082F
:10013000DFF80CD000F006FC004800474D670008CF
:10014000900800200648804706480047FEE7FEE783
:10015000FEE7FEE7FEE7FEE7FEE7FEE7FEE7FEE777
:100160003D44000831010008D2B201E000F8012B43
:10017000491EFBD270470022F6E710B513460A4627
:1001800004461946FFF7F0FF204610BDF0B480EAA0
:100190000102D40F4200B2EB410F02D202460846E0
:1001A00011464A0042D0C30DDDB2C1F3C752AD1AA9
:1001B000202D35DAC1F3160141F4000204B1524298
:1001C000C5F1200602FA06F12A411044B3EBD05FD4
:1001D00023D0C4B1012DA0EBC35009DCF0BC4FF01B
:1001E000004202EAC352DBB200F5000000F0C2B9DF
:1001F000400000F1807000EBC350A0F1807040EA35
:10020000D170490009E0490841EAC071A0EBC35030
:1002100000F50000400800EBC350F0BC00F0A1B9AD
:100220006142012202EB4101001BF6E7F0BC70477E
:1002300081F00041AAE780F00040A7E780EA0102D0
:1002400010B502F00043400022D04A001FD0010E3A
:1002500001EB1261C0F35600C2F3560240F40000F5
:1002600042F40002A0FB022000047F39140400D0F5
:10027000401C50EA124001D44000491EC2B20C0694
:1002800004EBD010401C4008802A02D003E000207C
:1002900010BD20F00100002900DA0020184310BD35
:1002A00030B480EA010202F0004530F0004221F053
:1002B000004013D090B1C30DD40DC2F31601C0F3AA
:1002C0001600E41A41F4000140F400027D3491422A
:1002D00001D3641C00E04900002C02DA30BC00208D
:1002E00070474FF400000023914201D3891A034361
:1002F00040084FEA4101F7D151B1914202D14FF08C
:10030000004105E002D24FF0010101E06FF0010170
:1003100003EBC450284430BC00F023B92DE9FE4F54
:1003200081EA030404F0004421F0004100944FF0FE
:10033000000B23F0004350EA01045ED052EA0304AC
:100340005BD0C3F30A54C1F30A552C44A4F2F3342E
:100350000194A0FB0254C1F3130141F48011C3F3D3
:10036000130343F4801301FB024400FB034E840A91
:10037000970A44EA815447EA8357A4FB0768029529
:100380008D0A05FB07854FEA932C04FB0C542705C7
:10039000029D4FEA065847EA1637B5EB08056EEBA3
:1003A000070C870E920E47EA811742EA8312A7FBD9
:1003B0000201B6EB0B0164EB00042B0D43EA0C3396
:1003C0005E1844EB1C50DA465146E7FB0201C5F3C8
:1003D00013044FEA0B3343EA14534FEA0432019CEF
:1003E00043EA0603A4F10C040294009CCDE900B496
:1003F00000F0FDF803B0BDE8F08F00200146F9E7FA
:10040000C10F80EAE0700844CA079623002100F07B
:10041000B1B896230022114600F0ACB800F00042BB
:1004200020F00040C10DC0F3160040F400007F2909
:1004300001DA00207047962903DCC1F19601C8401B
:1004400001E096398840002AF4D04042704700F01D
:10045000004230F000400AD0C10D01F56071C0F3D8
:10046000160042EA0151C2084007114370470020BC
:100470000146704701F0004330B421F0004150EADA
:10048000010206D00A0DA2F56072C1F31301002A21
:1004900002DC30BC00207047440F44EAC104C100B4
:1004A000E01830BC00EBC25000F05BB8002801DB64
:1004B000C0F10040002901DBC1F1004181427047D9
:1004C000002801DBC0F10040002901DBC1F100413F
:1004D0008842704730B50B46014600202022012497
:1004E00009E021FA02F59D4205D303FA02F5491B02
:1004F00004FA02F52844151EA2F10102F1DC30BD18
:100500002DE9F05F0546002092469B468846064648
:10051000814640241BE0284641464746224600F0DB
:1005200032FA53465A46C01A914110D31146184622
:10053000224600F019FA2D1A67EB01084F462246B1
:100540000120002100F010FA17EB00094E41201E97
:10055000A4F10104DFDC484631462A464346BDE8A3
:10056000F09F0029A8BF7047401C490008BF20F039
:100570000100704710B4B0FA80FC00FA0CF050EAA9
:10058000010404BF10BC704749B1CCF1200421FA2A
:1005900004F411FA0CF118BF012121430843A3EB25
:1005A0000C01CB1D4FEA00614FEA102042BF002032
:1005B00010BC704700EBC35010440029A4BF10BC0E
:1005C0007047401C490008BF20F0010010BC704774
:1005D00010B5141E73F1000408DA401C41F100014B
:1005E00092185B411A4301D120F0010010BD2DE9A2
:1005F000F04D92469B4611B1B1FA81F202E0B0FA99
:1006000080F22032904600F0AFF904460F4640EAEF
:100610000A0041EA0B0153465A46084313D01146DB
:1006200053EA010019D0C8F14002504600F0ABF97E
:1006300005460E4650465946424600F095F9084395
:1006400005D0012004E020463946BDE8F08D0020A9
:10065000054346EAE0762C4337430A986305E40AEB
:10066000A0EB08000022FD0A44EA47540A3002D5F4
:1006700000200146E9E7010510196941DDE9084557
:1006800000196941BDE8F04DA2E72DE9FE4F804613
:1006900081EA0300C00F0C46009021F0004123F0D6
:1006A0000045B8EB0200A94105D2404621469046DC
:1006B0001C460B46024623F00040104347D0270D4E
:1006C000C7F30A00C3F30A510290401A0190402870
:1006D0006BDAC3F3130040F4801B0098924620B1FC
:1006E0000023D2EB030A63EB0B0B01985946C0F1D0
:1006F0004002504600F038F906460D46504659462D
:10070000019A00F050F910EB08006141002487EADB
:10071000115284EAE7731A4340D0009A62B3019AF7
:10072000012A4FEA075215DC001B61EB02014FF072
:10073000004202EA0752CDE90042001C41F5801157
:1007400032462B46FFF753FF03B0BDE8F08F40461B
:100750002146F9E7001B61EB0201001C41F5801303
:1007600000185B412018A2F5001747EB030140EA8F
:10077000D570B6196D4111E06D084FEA360645EAAD
:10078000C0754FEA0752001B61EB0201001C41F5E6
:10079000801149084FEA30000019514132462B467A
:1007A00003B0BDE8F04FFFF713BF009801224000EF
:1007B0000023D0EB020263EBE073009821464FEA7E
:1007C000E074B8EB000061EB0401E9E783F000435B
:1007D0005BE781F0004158E72DE9F04D81EA030421
:1007E00004F0004B21F0004514464FF0000A23F0BE
:1007F000004150EA050220D054EA01021DD0C5F3A1
:100800000A570246C5F31303C1F31300C1F30A5696
:1008100040F4801543F48013A7EB0608101BD6465E
:1008200008F2FD3873EB050002D308F1010801E07E
:1008300092185B41B8F1000F03DA00200146BDE8D1
:10084000F08D00204FF48011064684460EE0171B01
:1008500073EB050705D3121B63EB050306434CEA54
:10086000010C49084FEA300092185B4150EA010739
:10087000EDD152EA030012D082EA040083EA0501B6
:10088000084305D0101BAB4106D20122002306E02D
:1008900000224FF0004302E06FF0010253101AEB08
:1008A00006004CEB085110EB0A0041EB0B01BDE8D0
:1008B000F04DFFF78DBE70B521F0004303430CD01F
:1008C000C1F30A550024D5EB040564EB0403D617E5
:1008D000AD1AB34102DB0020014670BD201841EB88
:1008E000025170BDC1F30A52C1F3130140F2FF334C
:1008F00041F480119A4202DA00200146704740F22A
:1009000033439A42A2F2334202DC524200F03BB837
:1009100000F02AB830B5041E71F1000404DB4FF07A
:100920000044404264EB0101141E73F1000405DB36
:100930001C464FF00043524263EB0403994208BF48
:10094000904230BD064C074D06E0E06840F00103E0
:1009500094E8070098471034AC42F6D3FFF7ECFB5D
:10096000F86D0008186E0008202A04DB203A00FA0F
:1009700002F1002070479140C2F1200320FA03F3F6
:10098000194390407047202A04DB203A21FA02F0F4
:100990000021704721FA02F3D040C2F120029140B9
:1009A000084319467047202A06DBCB17203A41FA44
:1009B00002F043EAE07306E041FA02F3D040C2F1EC
:1009C000200291400843194670472DE9F04D00235D
:1009D0001A461B1A8A4103DB00200146BDE8F08D50
:1009E000C1F30A52C1F3130141F480154FF0000B1B
:1009F000D10702D100186D41521E0027044640F273
:100A0000FF11384601EB620A3E468046024600204E
:100A10004FF48011FFF7B7FFC2197141BB1846EBC5
:100A20000100B4EB030C75EB000C04D3E41A65EB86
:100A3000000517460E46241908F101006D41804655
:100A40003428E3DDF91946EB0600091BA84103D25F
:100A50004FF0FF32134601E0002213461BEB070064
:100A600046EB0A51BDE8F04DFFF7B2BD10B54FF4AB
:100A7000966001F032F801F0F9FF02F0E7F913484F
:100A800004F00CFC4FF47A7001F027F802F038FA09
:100A900001F042FF02F024FC03F0AAFA03F032FB5B
:100AA00002F034FA03F0D6FB01F03AF802F084FBCE
:100AB00005F07EFF03F072FE4FF4966006F0DEF85C
:100AC0004FF4876005F050FD10BD00009A99C940B1
:100AD00070B504463E4800683E4908603E4880685C
:100AE000486221463B4805F02DFF3A48806A3B4961
:100AF00008603B49B1F90A00FFF782FC0546394816
:100B000001682846FFF79AFB34494862214633487A
:100B100005F018FF34490978494201EB8100FFF7DD
:100B20006FFC05462D48816A2846FFF781FB2F4957
:100B300008602D490978494201EB8100FFF760FC0C
:100B400005462648816A2846FFF720FB28490860A9
:100B500025490978494201EB8100FFF751FC054620
:100B60001E48816A2846FFF763FB224908601E4938
:100B70000978494201EB8100FFF742FC054617481E
:100B8000816A2846FFF702FB1B4908601B48006882
:100B9000164948621A4800681549486219480068B1
:100BA00014494862184800681349486221460F48B2
:100BB00005F0C8FE21460E4805F0C4FE21460D484A
:100BC00005F0C0FE21460C4805F0BCFE70BD0000DB
:100BD00030000020180300205C0400204C0300209B
:100BE00050040020FC6C0008700000204802002027
:100BF0007C020020B0020020E40200200C00002053
:100C000010000020140000201800002070B50446D9
:100C10003A4800683A4908603A4880684862214684
:100C2000374805F08FFE3648806A374908603749F3
:100C3000B1F90A00FFF7E4FB05463548016828468C
:100C4000FFF7FCFA3049486221462F4805F07AFE4A
:100C5000304909784842FFF7D3FB05462A48816AA4
:100C60002846FFF7E5FA2C4908602A4909784842E6
:100C7000FFF7C6FB05462448816A2846FFF786FA37
:100C800026490860234909784842FFF7B9FB054621
:100C90001D48816A2846FFF7CBFA214908601D49A3
:100CA00009784842FFF7ACFB05461748816A284699
:100CB000FFF76CFA1B4908601B4800681649486238
:100CC0001A48006815494862194800681449486282
:100CD000184800681349486221460F4805F032FE63
:100CE00021460E4805F02EFE21460D4805F02AFE4D
:100CF00021460C4805F026FE70BD000030000020A3
:100D0000180300205C0400204C0300205004002045
:100D1000FC6C000870000020480200207C020020CB
:100D2000B0020020E40200200C000020100000208F
:100D3000140000201800002000BFFEE710B5044694
:100D4000012C2FD14948007838B9BB204849087098
:100D500003F0CAF9012045490870002145480068A0
:100D6000FFF7A4FB0BD0002143480068FFF79EFB70
:100D700005D04248007810B90F2041490870414819
:100D80000078BB2870D13D48007800286CD1FF2046
:100D90003B49087001203B4908703B4908703749BE
:100DA000087061E0022C2FD13848007838B9BC2097
:100DB0002F49087003F098F9012034490870002188
:100DC0002C480068FFF772FB0BD000212A4800680E
:100DD000FFF76CFB05D02E48007810B90F2028498A
:100DE000087028480078BC283ED12948007800289F
:100DF0003AD1FF2022490870012022490870254974
:100E00000870234908702FE0032C2DD12248007868
:100E100038B9BD201649087003F066F901201E4953
:100E20000870002113480068FFF740FB0BD0002139
:100E300011480068FFF73AFB05D01848007810B950
:100E40000F200F4908700F480078BD280CD11348B7
:100E5000007848B9FF200A49087001200949087044
:100E60000F4908700D49087010BD00008600002071
:100E70001C000020280000202C0000207D00002005
:100E80005400002034000020800000208700002053
:100E90007F00002081000020880000207E000020CC
:100EA0008200002010B50446012C04D0022C4DD045
:100EB000032C4AD195E040F29E7005F00FFF02F03E
:100EC0001FF86E4800F09EFD4FF4FA7000F005FE2A
:100ED00040F2262005F0D2FE4FF4FA7000F0FDFD3E
:100EE00002F00EF8664804F0D9F940F61A1005F041
:100EF0003BFB4FF4FA7000F0F0FD02F001F861489E
:100F000000F080FD4FF4FA7000F0E7FD4FF49660BA
:100F100005F0B4FE01F0F4FF4FF4FA7000F0DDFDCF
:100F2000584804F0BBF94FF4FA7000F0D6FD4FF4C6
:100F3000876005F019FB01F0E3FF4FF0804000F0FF
:100F400061FD4FF4FA7000F0C8FD95E040F22E40CC
:100F500005F0C4FE01F0D4FF484800F053FD4FF403
:100F6000FA7000F0BAFD40F2262005F087FE4FF43B
:100F7000FA7000F0B2FD01F0C3FF414804F08EF9B1
:100F800040F6E80005F0F0FA4FF4FA7000F0A5FD25
:100F900001F0B6FF3B4800F035FD4FF4FA7000F069
:100FA0009CFD4FF4966005F069FE01F0A9FF4FF437
:100FB000FA7000F092FD334804F070F94FF4FA70C3
:100FC00000F08BFD4FF4876005F0CEFA01F098FF3A
:100FD0004FF0804000F016FD4FF4FA7000F07DFDF8
:100FE0004AE040F2762005F079FE01F089FF2348BF
:100FF00000F008FD4FF4FA7000F06FFD40F226207B
:1010000005F03CFE4FF4FA7000F067FD01F078FF48
:101010001B4804F043F940F62E1005F0A5FA4FF4F2
:10102000FA7000F05AFD01F06BFF164800F0EAFC80
:101030004FF4FA7000F051FD4FF4966005F01EFE7B
:1010400001F05EFF4FF4FA7000F047FD0D4804F028
:1010500025F94FF4FA7000F040FD4FF4876005F079
:1010600083FA01F04DFF4FF07E5004F017F94FF472
:10107000FA7000F032FD00BF00BF10BD00006040FC
:101080000000B0406666E63F10B50446012C04D06F
:10109000022C43D0032C40D181E040F29E7005F039
:1010A0001DFE01F02DFF5F4800F0ACFC4FF4FA701C
:1010B00000F013FD40F2262005F0E0FD4FF4FA7039
:1010C00000F00BFD01F01CFF564804F0E7F84FF468
:1010D000FA7000F002FD40F61A1005F045FA4FF4E0
:1010E000FA7000F0FAFC01F00BFF4F4800F08AFCA8
:1010F0004FF4FA7000F0F1FC4FF4966005F0BEFD7D
:1011000001F0FEFE484804F0C9F84FF4FA7000F010
:10111000E4FC4FF4876005F027FA81E040F22E40AE
:1011200005F0DCFD01F0ECFE3E4800F06BFC4FF4F6
:10113000FA7000F0D2FC40F2262005F09FFD4FF43B
:10114000FA7000F0CAFC01F0DBFE364804F0A6F8A5
:101150004FF4FA7000F0C1FC40F6E80005F004FA24
:101160004FF4FA7000F0B9FC01F0CAFE2E4800F00E
:1011700049FC4FF4FA7000F0B0FC4FF4966005F0B3
:101180007DFD01F0BDFE284804F088F84FF4FA70A8
:1011900000F0A3FC4FF4876005F0E6F940E040F270
:1011A000762005F09BFD01F0ABFE1E4800F02AFC06
:1011B0004FF4FA7000F091FC40F2262005F05EFD3D
:1011C0004FF4FA7000F089FC01F09AFE154804F023
:1011D00065F84FF4FA7000F080FC40F62E1005F030
:1011E000C3F94FF4FA7000F078FC01F089FE0E4864
:1011F00000F008FC4FF4FA7000F06FFC4FF49660BA
:1012000005F03CFD01F07CFE074804F047F84FF480
:10121000FA7000F062FC4FF4876005F0A5F900BF9A
:1012200000BF10BD000040413333F33F10B52E48DE
:101230000078032190FBF1F201FB12002A490870AB
:1012400008460078401C087008460078FFF71CFF2D
:101250004FF47A7000F041FC23480078012813D144
:10126000224908700020224908702249087022484B
:10127000807821494978884203DC18201F4908708A
:1012800002E013201D49087017480078022814D185
:10129000012018490870002014490870144908708A
:1012A0001548C07814498978884203DC182013490E
:1012B000087002E01320114908700B4800780328D9
:1012C00011D100200B4908700849087008490870BE
:1012D0000B480078012803D009480078042802D17F
:1012E00015200649087010BDB500002078000020C8
:1012F00077000020790000201C000020540000200E
:101300008900002010B5FE48007818B1FC4800782C
:1013100003287DD1FB480068401CFA490860084654
:101320000068B0F58C7F08D3F748007828B90D2005
:10133000F64908700120F4490870F248006840F24C
:101340000E61884211D3F248007870B9FF20EF494E
:101350000870FC20EF49087002F0C6FEAD20ED4990
:1013600008700120EA4908700BE0E648006840F286
:101370004651884205D3E648007810B91720E34962
:1013800008700021E4480068FFF790F80ED00021B3
:10139000E2480068FFF78AF808D0E148007828B9E9
:1013A0000F20DA4908700120DD490870DD48007817
:1013B000CD280ED1D54800780F280AD1FF20D34977
:1013C00008700120D8490870D8480078401CD749D7
:1013D0000870D749D7480068FEF7D8FE0446D648BB
:1013E00081682046FFF762F81FD8C84800781428A3
:1013F0001BD1CE480078012817D10621CF4805F02F
:101400008BFA1720C1490870CB488068C94900E0B1
:1014100086E00860C5480078401CC4490870AD20CB
:10142000BC49087002F060FE84E2BE480078AD2836
:101430001AD1B6480078172816D1BC48007802287F
:1014400012D11420B14908700120B6490870B14981
:10145000087002F049FE0020B3490870B3480078D4
:10146000401CB249087065E2B149B2480068FEF715
:101470008DFE0446B04881682046FFF717F818D85B
:10148000A2480078142814D1A8480078032810D165
:101490000621AA4805F040FA17209C490870A64882
:1014A0008068A4490860A1480078401C9F490870E2
:1014B00040E2964800781728B6D19C480078042866
:1014C000B2D19F480068401C9D49086008460068EA
:1014D000B0F5966F04D1AD208E49087002F004FE7D
:1014E00097480068B0F5966F9ED38E480078AD2877
:1014F0009AD10621914805F00FFA0D208349087012
:1015000000208A4908708F4908607E4908607C483D
:101510000078401C7A49087000208949086009E277
:1015200077480078012803D07548007804287DD1D9
:1015300074480068401C734908600846006840F21F
:101540008A2188420ED3714800780D280AD1774845
:10155000007838B9FF206D49087074480078401C45
:101560007249087078480078012804D169494878A0
:1015700002F072F810E075480078012804D165493E
:10158000887802F069F807E071480078012803D1F3
:101590006049C87802F060F86E48007801280DD1E3
:1015A0006948007850B96948007838B968480078C7
:1015B00020B958494878FFF7C1FB10E06648007829
:1015C000012804D153498878FFF7B8FB07E0634846
:1015D0000078012803D14F49C878FFF7AFFB5D4879
:1015E000007890B95C48007878B95C48007860B9B8
:1015F0004E480078012808D11520444908704B480E
:101600000078401C494908702AE049494948006867
:10161000FEF70EFE0446484881682046FEF746FF66
:101620001ED83A48007815281AD100E054E03F4807
:101630000078022814D10621404805F06DF91720E2
:10164000324908703B4800683A490860AD2031498A
:10165000087002F049FD35480078401C3349087095
:1016600030480078AD2836D128480078172803D0B4
:1016700026480078FF28F6D12C4800780328F2D1BC
:101680001120224908702F480068401C2D4908602D
:1016900008460068B0F5C87F1DD312201B490870AA
:1016A00017480078401C1649087001202649087028
:1016B0002849087000202A4908702A4908702A49D8
:1016C00008702A4908702A4908702A4908701D497B
:1016D0000860164908702DE109480078022803D0F7
:1016E000074800780528F6D117480078012803D16B
:1016F0000849487801F0B0FF1448007801283BE021
:10170000890000205C0000206000002054000020C0
:10171000620000201C000020280000202C00002077
:1017200061000020340000206800002055000020E7
:1017300000009642300000205C040020940000204D
:101740005800002064000020740000207500002074
:10175000760000207700002078000020790000202B
:101760008300002084000020850000207A000020F3
:101770007B0000207C00002003D16F49887801F0B5
:101780006BFF6E480078012803D16B49C87801F0DF
:1017900063FF6B48007888B96A48007870B9674879
:1017A000007858B96848007840B915206749087032
:1017B00065480078401C6449087023E06449654826
:1017C0000068FEF735FD0446634881682046FEF751
:1017D00077FE17D85D480078152813D15A4800784D
:1017E00001280FD106215D4805F096F817205749CA
:1017F0000870584800685749086053480078401CF2
:101800005149087056480078AD2816D14F480078E5
:10181000172803D04D480078FF280ED14A48007899
:1018200002280AD111204949087000204D4908605A
:1018300045480078401C4449087044480078112805
:1018400003D042480078FF284AD13F480078032857
:1018500046D145480068401C434908600846006876
:10186000B0F5FA7F66D34148007802280AD1FC20FF
:101870003149087002F038FC3C480078401C3B4974
:10188000087006E039480078052802D1EA2034497A
:10189000087001202A490870354908700020354930
:1018A0000870354908703549087035490870354960
:1018B0000870354908702B4908603449087034496C
:1018C0000870344908703449087034490870344944
:1018D000087034490870344908703449087029E0A8
:1018E0001F480078EA2825D118480078112803D02D
:1018F00016480078FF281DD113480078032819D115
:1019000019480068401C184908600846006840F201
:10191000DC5188420ED317200C490870114800682A
:10192000401C1049086008460068E62802D3FF20E2
:101930000649087010BD00001C0000207600002041
:101940007400002075000020550000205400002085
:1019500000009642300000205C040020940000202B
:1019600034000020640000205C000020890000207A
:1019700077000020830000208400002085000020E4
:101980008600002087000020880000207A000020C8
:101990007B0000207C0000207D0000207E000020D5
:1019A0007F000020710000207200002073000020E2
:1019B00010B51049886AFEF731FD04B2204601F0E7
:1019C00019FB0D49886AFEF729FD04B2204601F093
:1019D00055FB0A49886AFEF721FD04B2204601F052
:1019E000E9FA0749886AFEF719FD04B2204601F0BA
:1019F00021FB10BD480200207C020020B002002024
:101A0000E402002038B5044655E02D4804602D4816
:101A1000007818BB10212C4800F08AFA20212A48AF
:101A200000F084FA01221146284802F0FCFF37201A
:101A300001F0A0FC1C208DF8000001208DF80300AF
:101A400002208DF8010001208DF80200684601F0A7
:101A50009DFC01211D4802F037FF2CE01948007859
:101A6000012828D100201A490860002201211748C6
:101A700002F0D9FF372001F071FC1C208DF8000026
:101A800001208DF8030002208DF8010001208DF85F
:101A90000200684601F07AFC00210C4802F014FFB5
:101AA00001210A4802F00DFF01200A4908700020B8
:101AB0000449087000BF074800780028A5D038BD49
:101AC0000800002001000020000C0140001400402C
:101AD0000400002002000020704700B5034603E028
:101AE0004FF47A7000F005F8181EA3F10103F7D146
:101AF00000BD00EBC001C9004FF0E02251610021A0
:101B000091610521116100BF4FF0E021096901F4E5
:101B100080310029F8D004214FF0E0221161704794
:101B200010B504F0C3FD05F033F804F061FD04F0D6
:101B3000D1FF10BD70B504463A4800683A490860C4
:101B40003A48806848622146374804F0FBFE364830
:101B5000806A374908603749B1F90A00FEF750FC3E
:101B60000546354801682846FEF768FB304948625B
:101B700021462F4804F0E6FE304909788800FEF738
:101B80003FFC05462A48816A2846FEF751FB2C494E
:101B900008602A4909788800FEF732FC0546244887
:101BA000816A2846FEF7F2FA264908602349097837
:101BB0008800FEF725FC05461D48816A2846FEF789
:101BC00037FB214908601D4909788800FEF718FC99
:101BD00005461748816A2846FEF7D8FA1B4908606F
:101BE0001B480068164948621A480068154948624F
:101BF0001948006814494862184800681349486247
:101C000021460F4804F09EFE21460E4804F09AFE3D
:101C100021460D4804F096FE21460C4804F092FE41
:101C200070BD000030000020180300205C0400207C
:101C30004C03002050040020FC6C000870000020C1
:101C4000480200207C020020B0020020E4020020B4
:101C50000C000020100000201400002018000020BC
:101C600070B50446384800683849086038488068CC
:101C700048622146354804F065FE3448806A35499B
:101C800008603549B1F90A00FEF7BAFB054633484A
:101C900001682846FEF7D2FA2E49486221462D48AF
:101CA00004F050FE2E490878FEF7AAFB05462948A5
:101CB000816A2846FEF7BCFA2A4908602849087854
:101CC000FEF79EFB05462348816A2846FEF75EFA2A
:101CD0002549086022490878FEF792FB05461D4811
:101CE000816A2846FEF7A4FA204908601C49087852
:101CF000FEF786FB05461748816A2846FEF746FA36
:101D00001B4908601B480068164948621A48006869
:101D10001549486219480068144948621848006823
:101D20001349486221460F4804F00CFE21460E4834
:101D300004F008FE21460D4804F004FE21460C483C
:101D400004F000FE70BD00003000002018030020E9
:101D50005C0400204C03002050040020FC6C0008B0
:101D600070000020480200207C020020B002002009
:101D7000E40200200C0000201000002014000020CD
:101D8000180000202DE9F041024600250026002021
:101D900000230024002791F803C00CF00F0591F8F0
:101DA00003C00CF0100CBCF1000F03D091F802C07E
:101DB0004CEA050591F800C0BCF1000F31D0146861
:101DC00000202BE04FF0010C0CFA00F3B1F800C03A
:101DD0000CEA03069E4220D183004FF00F0C0CFA50
:101DE00003F7BC4305FA03FC4CEA040491F803C072
:101DF000BCF1280F06D14FF0010C0CFA00FCC2F820
:101E000014C00AE091F803C0BCF1480F05D14FF0AF
:101E1000010C0CFA00FCC2F810C0401C0828D1D3F9
:101E20001460B1F800C0BCF1FF0F34DD546800202D
:101E30002EE000F1080C4FF0010808FA0CF3B1F89D
:101E400000C00CEA03069E4221D183004FF00F0C24
:101E50000CFA03F7BC4305FA03FC4CEA040491F8BE
:101E600003C0BCF1280F05D100F1080C08FA0CF8EA
:101E7000C2F8148091F803C0BCF1480F07D100F1FB
:101E8000080C4FF0010808FA0CF8C2F81080401C4A
:101E90000828CED35460BDE8F0810000F0B50A46B2
:101EA000002300240021002500F00046B6F1004F79
:101EB00002D11D4EF16901E01B4E7168C0F303456C
:101EC00083B200F44016B6F5401F08D121F07061CE
:101ED000154E766826F07066134F7E6012E000F4AF
:101EE0008016B6F5801F06D1032606FA05F4A14335
:101EF00041F0706106E0460D360103FA06F6B14383
:101F000041F0706122B1460D360103FA06F6314305
:101F100000F00046B6F1004F02D1034EF16101E03E
:101F2000014E7160F0BD000000000140416170474A
:101F30000161704707B5A2B04FF07C512498FEF7BD
:101F40007DF90F90FE4880680B90FD4800680A906C
:101F50000B99FEF773F90D90F948C0680B90F8489B
:101F600040680A900B99FEF769F90C900D99FEF7FD
:101F70005FF94FF080410E90FEF760F91E90F04837
:101F8000C0680B90EE4880680A900B99FEF756F9EE
:101F90000D90EB4840680B90E94800680A900B9957
:101FA000FEF74CF90C900D99FEF7F0F84FF08041D8
:101FB0000E90FEF743F91F90E14880680A90E048D0
:101FC000806809900A99FEF739F90C90DC4840685E
:101FD0000A90DB48406809900A99FEF72FF90B90A8
:101FE0000C99FEF7D3F84FF080410D90FEF726F9DB
:101FF0004FF07E510E90FEF71EF92090D148B0F9B7
:1020000004000990FEF7FCF90B90CE48B0F90400EB
:102010000990FEF7F5F90A900B99FEF70FF90D906C
:10202000C848B0F902000790FEF7EAF90990C548E0
:10203000B0F902000790FEF7E3F908900999FEF75E
:10204000FDF80B90BF48B0F900000790FEF7D8F9F3
:102050000990BC48B0F900000790FEF7D1F908904C
:102060000999FEF7EBF80A900B99FEF78FF80C90A0
:102070000D99FEF78BF80E9001F052FDB249086001
:102080002298B0F900000D90FEF7BAF90E90AE4814
:1020900001680E98FEF7D2F81B902298B0F9020062
:1020A0000D90FEF7ADF90E90A74801680E98FEF767
:1020B000C5F81C902298B0F904000D90FEF7A0F925
:1020C0000E90A14801680E98FEF7B8F81D901F9871
:1020D0000C901D980B900C99FEF7B0F80E9020987C
:1020E0000C901C980B900C99FEF7A8F80D900E9987
:1020F000FEF79EF8159020980C901B980B900C9969
:10210000FEF79CF80E901E980C901D980B900C9961
:10211000FEF794F80D900E99FEF78AF816901E9827
:102120000C901C980B900C99FEF788F80E901F9855
:102130000C901B980B900C99FEF780F80D900E995F
:10214000FEF776F8179015980D90804801680D9865
:10215000FEF774F80E907E48006801460D900E98C8
:10216000FEF714F87A49086016980D9077480168D0
:102170000D98FEF763F80E907548406801460D9083
:102180000E98FEF703F87249486017980D906F4853
:1021900001680D98FEF752F80E906D488068014670
:1021A0000D900E98FDF7F2FF694988601598014679
:1021B0000B9068480068FEF741F80D902298B0F93E
:1021C00006000A90FEF71CF963490B90FEF736F8FB
:1021D0000C900D99FDF7DAFF0E905D4800680146FE
:1021E0000D900E98FDF7D2FF1890169801460B90AF
:1021F00058480068FEF722F80D902298B0F90800C0
:102200000A90FEF7FDF854490B90FEF717F80C9072
:102210000D99FDF7BBFF0E904D48406801460D90AB
:102220000E98FDF7B3FF1990179801460B90494897
:102230000068FEF703F80D902298B0F90A000A90A2
:10224000FEF7DEF844490B90FDF7F8FF0C900D996E
:10225000FDF79CFF0E903E48806801460D900E9859
:10226000FDF794FF1A901A980B903548C0680A90B1
:102270000B99FDF7E3FF0D9019980990304880689D
:1022800008900999FDF7DAFF0B902D48406880F01F
:10229000004009901898014608900998FDF7CEFF74
:1022A0000A900B99FDF7C4FF0C900D99FDF7C0FF44
:1022B0000E900F99FDF7C2FF14901A980B902048CA
:1022C00080680A900B99FDF7B9FF0D901998099055
:1022D0001B48C06808900999FDF7B0FF0B9018984B
:1022E00009901748006808900999FDF7A7FF0A9020
:1022F0000B99FDF79DFF0C900D99FDF747FF0E9090
:102300000F99FDF79BFF13901A980B900C484068AB
:102310000A900B99FDF792FF0D90199809900848C3
:10232000006808900999FDF789FF0B9018980990AB
:102330000348C06808900999FDF780FF0A900DE0F6
:10234000C400002050040020C00000202001002014
:10235000740400201C0100202E9E8B3A0B99FDF77F
:1023600015FF0C900D99FDF763FF0E900F99FDF787
:1023700065FF12901A980B90B34800680A900B9969
:10238000FDF75CFF0D9019980990AF4840680890E0
:102390000999FDF753FF0B90AB48806880F000402F
:1023A00009901898014608900998FDF747FF0A9090
:1023B0000B99FDF7EBFE0C900D99FDF7E7FE0E90E3
:1023C0000F99FDF73BFF11909F4800680E901499FC
:1023D000FDF7DCFE9C490860084640680E901399A2
:1023E000FDF7D4FE98494860084680680E9012991F
:1023F000FDF7CCFE944988600846C0680E9011999C
:10240000FDF7C4FE9049C8600846C0680B900846B6
:10241000C0680A900B99FDF711FF0D908A488068FB
:1024200009908948806808900999FDF707FF0B908B
:102430008548406807908448406806900799FDF7F2
:10244000FDFE09908048006807907F48006806906C
:102450000799FDF7F3FE08900999FDF797FE0A909A
:102460000B99FDF793FE0C900D99FDF78FFE0E90E2
:1024700001F056FB1090744800680E901099FDF71B
:10248000DDFE71490860084640680E901099FDF71E
:10249000D5FE6D494860084680680E901099FDF79A
:1024A000CDFE694988600846C0680E901099FDF716
:1024B000C5FE6549C8602298B0F90A000C90FDF786
:1024C0009FFF62490D90FDF7B9FE0E904FF07E51CF
:1024D0000E98FDF7F5FF04D35D490E98FDF7E6FF72
:1024E0000DD224990E98FDF7A9FE0D9023988068CF
:1024F00001460C900D98FDF749FE239988605248DB
:102500004068014603904FF08040FDF797FE04902D
:102510004D48C068014603900498FDF78FFE069071
:1025200049480068014603904FF08040FDF786FE61
:10253000049045488068014603900498FDF77EFEAC
:1025400005900699FDF774FE0790FDF780FFCDE931
:10255000080103F001FD4FF000523E4BCDE90A01A6
:10256000FDF7DCFECDE90C01FDF784FF23994860FF
:1025700035488068014601904FF08040FDF75EFECF
:10258000029031488068014601900298FDF756FE9E
:1025900004902D484068014600904FF08040FDF7C0
:1025A0004DFE019028484068014600900198FDF7D3
:1025B00045FE4FF07E510290FDF73DFE03900499D9
:1025C000FDF736FE0590FDF742FFCDE908011E48F4
:1025D0000068014601904FF08040FDF72FFE029009
:1025E00019484068014601900298FDF727FE0490C3
:1025F00015488068014601904FF08040FDF71EFEAF
:1026000002901148C068014601900298FDF716FE3D
:1026100003900499FDF7BAFD0590FDF718FFCDE989
:102620000601DDE9082303F0DFFE4FF00052094BFD
:10263000CDE90A01FDF772FECDE90C01FDF71AFFA5
:102640002399086025B000BDC4000020F6FF793D45
:10265000000080BFDCA54C4010B504F019F804461A
:10266000FDF7CEFE0B49086004F084FA0446FDF73E
:10267000C7FE0949086003F0ADFF0446FDF7C0FE40
:102680000649086004F018FA0446FDF7B9FE04494B
:10269000086010BD0C000020100000201400002075
:1026A0001800002000BFFEE700B54FF400600F499E
:1026B000086000F023F94FF480600C49086000F0D6
:1026C0001DF94FF400600949091F086000F016F970
:1026D00000F014F900F012F900F010F94FF4006066
:1026E0000249086000F00AF900BD0000140C014026
:1026F00000B54FF400600F49086000F0FFF84FF498
:1027000080600C49091F086000F0F8F84FF4006081
:102710000849091F086000F0F1F800F0EFF800F038
:10272000EDF800F0EBF84FF400600249086000F0AB
:10273000E5F800BD140C014000B508220021D001CD
:10274000154B18601CE04806010E4FF40060124B58
:102750001B1D186000F0D2F800F0D0F84FF40060B4
:102760000D4B186000F0CAF800F0C8F800F0C6F889
:1027700009480838006800F4806008B141F00101A0
:10278000101EA2F10103DAB2DDD14FF40060024B5A
:102790001B1D1860084600BD100C014000B5014625
:1027A000082221E04FF40060144B186000F0A6F8F6
:1027B00001F0800028B14FF48060104B1B1F18609F
:1027C00003E04FF480600D4B18604806010E00F0E6
:1027D00095F84FF40060094B1B1F186000F08EF84D
:1027E00000F08CF800F08AF8101EA2F10103DAB2B2
:1027F000D8D14FF40060014B186000BD140C0140AB
:1028000000B54FF48060154908604000086000F092
:1028100075F812480838006808B9012000E0002067
:1028200000F4806008B1012000BD4FF480600B49C6
:10283000091D086000F062F808480838006800F4D4
:10284000806008B10120EFE74FF400600349091DE3
:10285000086000F053F80020E6E70000100C01408B
:1028600000B54FF400600D49086000F047F84FF4E0
:1028700080600A49086000F041F800F03FF84FF42A
:1028800000600649091F086000F038F84FF48060C6
:102890000249091F086000F031F800BD140C014026
:1028A00000B54FF400601449086000F027F84FF4B9
:1028B00080601149091F086000F020F84FF40060A3
:1028C0000D49091F086000F019F800F017F800F032
:1028D00015F809480C38006800F4806028B14FF4FE
:1028E000006005490860012000BD4FF40060024906
:1028F00008600020F8E70000140C014008B5022031
:10290000009004E09DF80000401EC0B200909DF8C9
:1029100000000028F6D108BD08B50121082001F00B
:1029200037F94FF44060ADF8000003208DF8020045
:1029300014208DF8030069460148FFF723FA08BD0B
:10294000000C014070B504460D460026FFF758FF05
:10295000012800D170BD2046FFF720FFFFF7A0FF40
:10296000012803D1FFF77CFF0120F3E72846FFF79A
:1029700015FFFFF795FFFFF773FFFFF741FF611C9E
:10298000C8B2FFF70BFFFFF78BFF012803D1FFF75A
:1029900067FF0120DEE7FFF7CFFE0646FFF7A8FE40
:1029A000FFF75EFF70B2D5E770B506460C461546D8
:1029B000FFF726FF012800D170BD3046FFF7EEFE7D
:1029C000FFF76EFF012803D1FFF74AFF0120F3E76D
:1029D0002046FFF7E3FEFFF763FF2846FFF7DEFE22
:1029E000FFF75EFFFFF73CFF0020E5E72DE9F04130
:1029F00006460F4615461C46FFF702FF012801D187
:102A0000BDE8F0813046FFF7C9FEFFF749FF012816
:102A100003D1FFF725FF0120F2E73846FFF7BEFE9E
:102A2000FFF73EFFFFF71CFFFFF7EAFE711CC8B27D
:102A3000FFF7B4FEFFF734FF012803D1FFF710FFC3
:102A40000120DDE70CE0FFF777FE2870012C02D1B2
:102A5000FFF74EFE01E0FFF727FE6D1C601EC4B2BB
:102A6000002CF0D1FFF7FCFE0020C9E724482549DF
:102A70000861254848610020C8604FF07E5008601A
:102A8000002088601E48214908611F4848610020D5
:102A9000C8604FF07E5008600020886018481C49CC
:102AA0000861194848610020C8604FF07E500860F6
:102AB00000208860124817490861134848610020C7
:102AC000C8604FF07E500860002088600C481249B2
:102AD00008610D4848610020C8604FF07E500860D2
:102AE0000020886006480D490861074848610020B9
:102AF000C8604FF07E50086000208860704700007A
:102B00006666663E300200209A99D93EB8010020E0
:102B1000D0010020E801002000020020180200205F
:102B200070B504464F485049086050485049086005
:102B3000002150480068FDF7B9FC05D000214E483F
:102B40000068FDF7B3FC04D10020474908604849FC
:102B5000086048480068444948624748006844495A
:102B600048622146404803F0EDFE2146404803F00C
:102B7000E9FE42480068424908604248806848626D
:102B800021463F4803F0DEFE3D48806A3E4908602A
:102B90003E49B1F90A00FDF733FC05463C4801689F
:102BA0002846FDF74BFB384948622146364803F07A
:102BB000C9FE2F4A916A2C4A906AFDF7E7FA05464A
:102BC0002F48816A2846FDF733FB32490860284ABE
:102BD000916A254A906AFDF72BFB05462848816AD1
:102BE0002846FDF7D3FA2C490860214A916A1E4A0B
:102BF000906AFDF71DFB05462148816A2846FDF7CE
:102C000017FB264908601A4A916A174A906AFDF72D
:102C1000BDFA05461A48816A2846FDF7B7FA2049E9
:102C20000860204800681B4948621F4800681A492C
:102C300048621E480068194948621D4800681849E2
:102C400048622146134803F07DFE2146124803F0F6
:102C500079FE2146114803F075FE2146104803F025
:102C600071FE70BD0080984380030020000048433F
:102C7000B4030020280000202C0000203000002099
:102C8000180300205C0400204C03002050040020A6
:102C9000FC6C0008480200207C020020B0020020EA
:102CA000E40200200C00002010000020140000208E
:102CB0001800002070B504464F485049086050483D
:102CC00050490860002150480068FDF7EFFB05D02F
:102CD00000214E480068FDF7E9FB04D10020474978
:102CE00008604849086048480068444948624748C5
:102CF0000068444948622146404803F023FE2146CB
:102D0000404803F01FFE42480068424908604248BC
:102D10008068486221463F4803F014FE3D48806ABF
:102D20003E4908603E49B1F90A00FDF769FB0546D6
:102D30003C4801682846FDF781FA38494862214637
:102D4000364803F0FFFD2F4A916A2C4A906AFDF73E
:102D50001DFA05462F48816A2846FDF769FA32496F
:102D60000860284A916A254A906AFDF761FA05468B
:102D70002848816A2846FDF709FA2C490860214A4B
:102D8000916A1E4A906AFDF753FA05462148816A06
:102D90002846FDF74DFA264908601A4A916A174AF3
:102DA000906AFDF7F3F905461A48816A2846FDF74F
:102DB000EDF920490860204800681B4948621F4817
:102DC00000681A4948621E480068194948621D484F
:102DD0000068184948622146134803F0B3FD2146B4
:102DE000124803F0AFFD2146114803F0ABFD214628
:102DF000104803F0A7FD70BD00809843E803002051
:102E0000000048431C040020280000202C00002063
:102E100030000020180300205C0400204C03002038
:102E200050040020FC6C0008480200207C020020B6
:102E3000B0020020E40200200C000020100000205E
:102E4000140000201800002000BFFEE700B585B088
:102E50000121042000F09CFE0121082000F098FED2
:102E600010208DF8130003208DF812001020ADF80B
:102E7000100004A91F48FEF785FF2020ADF81000C0
:102E800004A91C48FEF77EFF4FF48050ADF81000F7
:102E900004A91948FEF776FF372000F06BFA0121EC
:102EA000202000F065FEC720ADF808002C20ADF80A
:102EB000040001A9114801F061FF01210F4801F050
:102EC000FDFC4FF4A06000F099FA37208DF8000067
:102ED00002208DF8010000208DF8020001208DF8FD
:102EE0000300684600F052FA0121044801F0ECFCAE
:102EF00005B000BD000C0140000801400014004076
:102F000000200149087070470200002008B5012127
:102F1000042000F03DFE0121082000F039FE0121CF
:102F2000102000F035FE0121084600F031FE01219D
:102F30001D48FEF7B3FF10208DF803000320ADF805
:102F400000008DF8020069461848FEF71BFF1020AC
:102F50008DF803004FF44050ADF8000003208DF8C9
:102F6000020069461248FEF70DFF10208DF803009D
:102F70000C20ADF8000003208DF8020069460B48D4
:102F8000FEF700FF10208DF803004FF44040ADF82D
:102F9000000003208DF8020069460548FEF7F2FEA6
:102FA00000F036FA08BD00000002300000100140B9
:102FB000000C014010B50446002C0BDB08210C4826
:102FC000FEF7B4FF04210A48FEF7B2FFA0B200F0FA
:102FD00095FA0BE008210648FEF7AAFF04210448F1
:102FE000FEF7A4FF614288B200F088FA10BD00002D
:102FF0000010014010B50446002C0BDB01210C48E9
:10300000FEF794FF02210A48FEF792FFA0B200F0FB
:103010006BFA0BE001210648FEF78AFF0221044803
:10302000FEF784FF614288B200F05EFA10BD000036
:103030000010014010B50446002C0DDB4FF4804118
:103040000D48FEF773FF4FF400410B48FEF770FF89
:10305000A0B200F067FA0DE04FF480410648FEF799
:1030600067FF4FF400410448FEF760FF614288B2F9
:1030700000F058FA10BD0000000C014010B50446E5
:10308000002C0DDB4FF400510D48FEF74FFF4FF4BD
:1030900080510B48FEF74CFFA0B200F039FA0DE06A
:1030A0004FF400510648FEF743FF4FF480510448A7
:1030B000FEF73CFF614288B200F02AFA10BD000022
:1030C000000C01402DE9FE4F06236A463B21D0202B
:1030D000FFF78CFC06230DF106024321D020FFF7F9
:1030E00085FC002458E0012000EB44001DF800009E
:1030F0001DF8141040EA0120294931F81410401A33
:1031000000B22849096821F81400032C1BDA25496C
:10311000096831F91400FDF773F9054604EB440121
:10312000214A02EBC100294603F028FA04EB4401CE
:103130001D4A02EBC1018868FDF770F900B2194918
:10314000096821F81400022C24DDE01EC5B2DFF866
:103150005C801449096831F91400FDF751F9824681
:103160004146FDF76BF80746114951F82500114912
:10317000FDF764F881463946FDF708F80C4941F837
:1031800025000646FDF74AF900B20649096821F80C
:10319000140000BF601CC4B2062CA4DBBDE8FE8F87
:1031A00068040020BC000020D40000209A99193E39
:1031B000800400209A99593FF0B58BB0182105A8DA
:1031C000FCF7D9FF1E2505267742002003900490C6
:1031D000404800210160416081604FF400503D494A
:1031E0008880002201213C4801F01DFC3BE000BF2B
:1031F0000A20FEF772FCFFF765FF002416E037484F
:103200000168E01C31F8100003A931F81410401ACD
:1032100000B201A921F8140030480168E01C31F81F
:10322000100003A921F81400601C04B2032CE6DB93
:10323000BDF904000528DBDCBDF9040010F1050F21
:10324000D6DBBDF906000528D2DCBDF9060010F179
:10325000050FCDDBBDF908000528C9DCBDF9080064
:1032600010F1050FC4DB281EA5F10101CDB2BED1BE
:10327000002417E0FFF726FF642C11DB00200CE090
:1032800005A951F82010154A126832F9102011448E
:1032900005AA42F82010411CC8B20628F0DB00BF86
:1032A000601C04B2B4F5B27FE4DB002409E005A899
:1032B00050F82400001200B2064921F81400601CE6
:1032C00004B2062CF3DB01221146034801F0ABFBEC
:1032D0000BB0F0BD6804002000100040BC000020CE
:1032E00010B5002400BF80226B21D020FFF75CFBCB
:1032F000C4B21E20FEF7F1FB02221921D020FFF7F5
:1033000053FB2044C4B203226B21D020FFF74CFBB7
:103310002044C4B203221A21D020FFF745FB2044E9
:10332000C4B218221B21D020FFF73EFB2044C4B2B8
:1033300009221C21D020FFF737FB2044C4B2002C07
:10334000D1D17521D020FFF7FDFAC4B2682C01D08D
:10335000012010BD0020FCE77047000000F01F02B4
:1033600001219140024A430942F8231070470000AE
:1033700080E100E000F01F0201219140420992002B
:1033800002F1E022C2F800117047000070B5002180
:1033900000230F22C47804B3154C246804F4E064BD
:1033A000C4F5E064210AC1F10403CA40447804FA78
:1033B00003F184781440214309010E4C0678A1558D
:1033C000047804F01F050124AC4005786D11AD00B0
:1033D00005F1E025C5F8004109E0047804F01F0577
:1033E0000124AC40044D0678761145F8264070BDA6
:1033F0000CED00E000E400E080E100E00249014360
:10340000024A1160704700000000FA050CED00E070
:1034100000B589B00121480300F0BAFB012110205A
:1034200000F0B6FB18208DF823004FF47070ADF853
:10343000200003208DF8220008A92948FEF7A2FCED
:10344000284801F0F9FA0020ADF81A00ADF816008E
:1034500040F2E730ADF818000B20ADF81400002062
:103460008DF81C0005A91F4801F088FC01A801F097
:1034700044FC6020ADF804000020ADF80C000120F1
:10348000ADF806000020ADF80A0001A9154801F0CA
:10349000D9FA01A9134801F02BFB01A9114801F049
:1034A00087FB01A90F4801F0DDFB08210D4801F061
:1034B00015FB08210B4801F06DFB0821094801F0BC
:1034C000C7FB0821074801F00BFC0121054801F06A
:1034D00007FA0121034801F0F7F909B000BD000027
:1034E000001001400034014010B504462146024856
:1034F00001F00DFC10BD00000034014010B5044681
:103500002146024801F005FC10BD000000340140D6
:1035100010B504462146024801F0FDFB10BD000035
:103520000034014010B504462146024801F0F5FB85
:1035300010BD0000003401407047000010B5444841
:1035400000780C2805D1434800F09CFBFEF730FAC8
:103550007DE03F480078FF2802D100F05FFF76E071
:103560003B4800780D2805D13A48FEF7E3FAFEF70C
:103570001FFA6CE0364800780E2805D1354801F076
:10358000EFFCFEF715FA62E0314800780F2805D10C
:103590003048FFF7C5FAFEF70BFA58E02C480078E0
:1035A000102805D12B4801F03BFCFEF701FA4EE054
:1035B00027480078172805D1264801F06BFDFEF753
:1035C000F7F944E022480078112805D12148FDF799
:1035D0007FFAFEF7EDF93AE01D480078122805D190
:1035E0001C48FFF767FBFEF7E3F930E01848007866
:1035F000132805D11748FEF733FBFEF7D9F926E06B
:1036000013480078182805D11248FDF7FFFAFEF795
:10361000CFF91CE00E480078142805D10D4800F0C1
:1036200087FCFEF7C5F912E009480078152805D196
:10363000084800F0A3FBFEF7BBF908E00448007857
:10364000162804D1034800F0F7FBFEF7B1F910BDCE
:10365000540000200AD7A33B10B50446012C35D1F5
:103660005248007838B9AE205149087000F03CFD4E
:1036700001204E49087000214E480068FCF716FFF3
:1036800011D000214C480068FCF710FF0BD04B48CC
:10369000007840B94A48007828B94A48007810B9FB
:1036A00012204949087049480078AE287CD1434827
:1036B0000078002878D1FF20434908700120434951
:1036C00008703F4908703D4908706DE0022C35D103
:1036D0003F48007838B9AF203549087000F004FD44
:1036E00001203B490870002132480068FCF7DEFEEB
:1036F00011D0002130480068FCF7D8FE0BD03548C7
:10370000007840B93448007828B93448007810B9B6
:1037100012202D4908702D480078AF2844D12D483B
:103720000078002840D1FF20274908700120274950
:103730000870294908702749087035E0032C33D1F7
:103740002748007838B9BA201949087000F0CCFC35
:10375000012023490870002116480068FCF7A6FEE6
:1037600011D0002114480068FCF7A0FE0BD01D48C2
:10377000007840B91C48007828B91C48007810B976
:1037800012201149087011480078BA280CD1154848
:10379000007848B9FF200C49087001200B490870D7
:1037A000114908700F49087010BD00008300002007
:1037B0001C000020280000202C00002071000020A8
:1037C0006C0000207A00002054000020340000200B
:1037D00084000020730000206E0000207C00002088
:1037E00085000020720000206D0000207B0000207A
:1037F00010B50446012C53D140F29E7003F06EFACE
:1038000040F61A1002F0B0FE4FF4FA70FEF765F9B8
:10381000FFF776FB7948FEF7F5F84FF4FA70FEF7FC
:103820005CF940F2262003F029FA4FF4FA70FEF713
:1038300054F9FFF765FB714801F030FD4FF4FA7061
:10384000FEF74BF94FF4876002F08EFEFFF758FB4E
:103850006B480078052803D16A48FEF7D3F802E0E8
:103860006948FEF7CFF84FF4FA70FEF736F94FF4D7
:10387000966003F003FAFFF743FB4FF4FA70FEF78C
:103880002CF95F480078052803D15E4801F006FD59
:1038900002E05D4801F002FD4FF4FA70FEF71DF9F9
:1038A000022C53D140F22E4003F018FA40F6E80003
:1038B00002F05AFE4FF4FA70FEF70FF9FFF720FB03
:1038C0004E48FEF79FF84FF4FA70FEF706F940F203
:1038D000262003F0D3F94FF4FA70FEF7FEF8FFF755
:1038E0000FFB464801F0DAFC4FF4FA70FEF7F5F8EA
:1038F0004FF4876002F038FEFFF702FB4048007883
:10390000052803D13F48FEF77DF802E03E48FEF768
:1039100079F84FF4FA70FEF7E0F84FF4966003F090
:10392000ADF9FFF7EDFA4FF4FA70FEF7D6F8344828
:103930000078052803D1334801F0B0FC02E032489A
:1039400001F0ACFC4FF4FA70FEF7C7F8032C53D12A
:1039500040F2762003F0C2F940F62E1002F004FE89
:103960004FF4FA70FEF7B9F8FFF7CAFA2348FEF7EA
:1039700049F84FF4FA70FEF7B0F840F2262003F051
:103980007DF94FF4FA70FEF7A8F8FFF7B9FA1B4873
:1039900001F084FC4FF4FA70FEF79FF84FF4876053
:1039A00002F0E2FDFFF7ACFA15480078052803D1D4
:1039B0001448FEF727F802E01348FEF723F84FF407
:1039C000FA70FEF78AF84FF4966003F057F9FFF7A4
:1039D00097FA4FF4FA70FEF780F809480078052846
:1039E00003D1084801F05AFC02E0074801F056FCF8
:1039F0004FF4FA70FEF771F810BD00003333334016
:103A0000890000200000C0400000404110B53C4843
:103A10000078032190FBF1F201FB12003849087095
:103A200008460078401C087008460078FFF7E0FE62
:103A30004FF47A70FEF751F831480078012819D117
:103A40000621304802F068FF01202F49087000204D
:103A50002E4908702E4908702E4880782D494978E3
:103A6000884203DC18202C49087048E013202A49BA
:103A7000087044E022480078022819D10621214824
:103A800002F04AFF01202249087000201F490870F7
:103A90001D4908701F48C0781E498978884203DC98
:103AA00018201D4908702AE013201B49087026E0E1
:103AB00013480078032822D10621124802F02CFF77
:103AC000002013490870114908700F490870114807
:103AD000C07810494978884203DB18200E490870E5
:103AE00002E013200C4908700C480078022803D02B
:103AF0000A480078052802D115200749087010BD32
:103B0000B400002094000020750000207400002004
:103B1000760000201C0000205400002089000020B6
:103B20002DE9F05F04464FF07F594FF07C5120465D
:103B3000FCF784FB824625462E460C48A0EB660621
:103B4000354629465046FCF779FB83462946FCF763
:103B500075FB80464946FCF76EFB07462946FCF795
:103B60006DFB05462846BDE8F09F0000DF59375F32
:103B700029B1064AD2690243044BDA6104E0034AE0
:103B8000D2698243014BDA617047000000100240A5
:103B900029B1064A92690243044B9A6104E0034A40
:103BA00092698243014B9A61704700000010024005
:103BB00030B500210022002400232D4D6D6805F052
:103BC0000C0121B1042905D0082923D105E0294D94
:103BD000056022E0274D05601FE0254D6D6805F466
:103BE0007012234D6D6805F48034022505EB924276
:103BF0001CB9214D554305600BE01D4D6D6805F462
:103C000000351DB11C4D5543056002E0194D55436B
:103C1000056002E0174D056000BF00BF144D6D68E0
:103C200005F0F0010909154D6B5C0568DD40456044
:103C30000F4D6D6805F4E061090A104D6B5C456835
:103C4000DD4085600A4D6D6805F46051C90A0B4D71
:103C50006B5C4568DD40C560054D6D6805F440410D
:103C6000890B074D6B5CC568B5FBF3F5056130BD8D
:103C70000010024000127A0000093D003E000020C2
:103C80004E00002070B504462F4930480068FCF70C
:103C90007DFA2F4908602F488068486221462C48E9
:103CA00002F050FE2C480078FCF7B3FB054628488C
:103CB000816A2846FCF7BCFA284908602648007843
:103CC000FCF7A7FB05462248816A2846FCF75EFA06
:103CD0002349086020480078FCF79BFB05461C48F8
:103CE000816A2846FCF7A4FA1E4908601A48007841
:103CF000FCF78FFB05461648816A2846FCF746FA12
:103D00001949086019480068144948621848006851
:103D1000134948621748006812494862164800680B
:103D20001149486221460D4802F00CFE21460C481C
:103D300002F008FE21460B4802F004FE21460A4824
:103D400002F000FE70BD000000009642300000202E
:103D5000180300205C0400207000002048020020AE
:103D60007C020020B0020020E40200200C000020B1
:103D700010000020140000201800002010B5044698
:103D8000214922480068FCF753FA2149086021487C
:103D90008068486221461E4802F0D4FD1C48806AB3
:103DA00080F000401C4908601948806A1B4908607F
:103DB0001748806A80F00040194908601448806AFA
:103DC0001849086018480068134948621748006895
:103DD000124948621648006811494862154800684F
:103DE0001049486221460C4802F0ACFD21460B48C0
:103DF00002F0A8FD21460A4802F0A4FD2146094828
:103E000002F0A0FD10BD000000009642300000202E
:103E1000180300205C040020480200207C020020DF
:103E2000B0020020E40200200C000020100000205E
:103E3000140000201800002070B504462F493048B7
:103E40000068FCF7A3F92F4908602F488068486292
:103E500021462C4802F076FD2C480078FCF7D9FA70
:103E600005462848816A2846FCF7E2F92849086097
:103E700026480078FCF7CDFA05462248816A284694
:103E8000FCF784F92349086020480078FCF7C1FA60
:103E900005461C48816A2846FCF7CAF91E49086095
:103EA0001A480078FCF7B5FA05461648816A284694
:103EB000FCF76CF919490860194800681449486210
:103EC0001848006813494862174800681249486258
:103ED000164800681149486221460D4802F032FD3B
:103EE00021460C4802F02EFD21460B4802F02AFD27
:103EF00021460A4802F026FD70BD0000000016436E
:103F000030000020180300205C0400207000002016
:103F1000480200207C020020B0020020E4020020C1
:103F20000C000020100000201400002018000020C9
:103F300010B50446214922480068FCF727F92149B9
:103F4000086021488068486221461E4802F0FAFC59
:103F50001C48806A80F000401C4908601948806A4B
:103F60001B4908601748806A80F0004019490860C2
:103F70001448806A18490860184800681349486264
:103F8000174800681249486216480068114948629B
:103F9000154800681049486221460C4802F0D2FCDE
:103FA00021460B4802F0CEFC21460A4802F0CAFC2A
:103FB0002146094802F0C6FC10BD000000009642F0
:103FC00030000020180300205C040020480200207C
:103FD0007C020020B0020020E40200200C0000203F
:103FE000100000201400002018000020704700007E
:103FF00000B587B00121C804FFF7BAFD01211020E8
:10400000FFF7C6FD4FF48060ADF8180018208DF85A
:104010001B0003208DF81A0006A92248FDF7B2FE06
:104020004FF40060ADF8180048208DF81B00032005
:104030008DF81A0006A91B48FDF7A4FE4FF4165090
:1040400002900020ADF814000C20ADF81200002002
:10405000ADF81000ADF80E00ADF80C0002A9124842
:1040600001F0FEF9012240F225510F4801F0D2F98A
:104070004FF4A060FFF7C2F934208DF8040001204E
:104080008DF8070000208DF8050001208DF806004E
:1040900001A8FFF77BF90121034801F078F907B087
:1040A00000BD000000100140004C004070B5054606
:1040B0000E46002404E0285D00F006F8601C84B27F
:1040C000B442F8DB70BD000010B504462146054837
:1040D00001F037FA00BF8021024801F064F900289E
:1040E000F9D010BD004C004010B5FF20FFF7ECFFE9
:1040F00004210348FFF7DAFFFE20FFF7E5FF10BDBC
:104100001C00002000B587B001210805FFF730FD35
:1041100001211020FFF73CFD01212020FFF738FD91
:1041200018208DF81B000420ADF8180003208DF82E
:104130001A0006A92148FDF725FE18208DF81B005E
:104140004FF48050ADF8180003208DF81A0006A92E
:104150001B48FDF717FE4FF4614002900020ADF8B8
:1041600014000C20ADF812000020ADF81000ADF8DE
:104170000E00ADF80C0002A9124801F071F90122FD
:1041800040F225510F4801F045F94FF4A060FFF7C8
:1041900035F935208DF8040001208DF80700002046
:1041A0008DF805008DF8060001A8FFF7EFF8012152
:1041B000044801F0ECF807B000BD00000014014015
:1041C000001001400050004010B50446214605484B
:1041D00001F0B7F900BF8021024801F0E4F800289F
:1041E000F9D010BD0050004070B50446002504E031
:1041F000605DFFF7E9FF681CC5B2605D0028F7D17C
:1042000070BD10B5002403E0FF20FFF7DDFF641C44
:10421000032CF9DB10BD0000F8B504460D46164628
:1042200064210848FBF7A7FF2B46224606A1054854
:10423000009601F08DF90348FFF7D6FFFFF7E1FF85
:10424000F8BD00002801002025732E25733D22258E
:104250006422000000B589B00121C802FFF798FC74
:1042600001210420FFF794FC18208DF823004FF45F
:104270006060ADF8200003208DF8220008A92B48CB
:10428000FDF780FD2A4800F0D7FB0020ADF81A00AA
:10429000ADF8160044F61F60ADF818004720ADF8E1
:1042A000140000208DF81C0005A9214800F066FDCF
:1042B00001A800F022FD4FF48070ADF810006020DE
:1042C000ADF804000020ADF80C000120ADF80600A8
:1042D0004FF49660ADF80A0001A9154800F008FCFB
:1042E00040F29E70ADF80A0001A9114800F060FC90
:1042F0004FF48760ADF80A0001A90D4800F0B2FC48
:1043000001210B4800F0ECFA0821094800F042FCBA
:104310000821074800F09CFC0821054800F0E0FC5B
:104320000121034800F0D0FA09B000BD00080140A7
:10433000002C014010B500F001F810BD0CB50020B4
:10434000019000903348006840F4803031490860A3
:1043500000BF3048006800F4003000900198401C15
:104360000190009818B90198B0F5A06FF1D12948D3
:10437000006800F4003010B10120009001E000203E
:1043800000900098012843D12348006840F01000B5
:10439000214908600846006820F0030008600846CC
:1043A000006840F0020008601A48406819494860F7
:1043B0000846406848600846406840F480604860AD
:1043C0000846406820F47C1048600846406840F485
:1043D000E81048600846006840F08070086000BF40
:1043E0000C48006800F000700028F9D009484068C7
:1043F00020F00300074948600846406840F002008A
:10440000486000BF0348406800F00C000828F9D15C
:104410000CBD0000001002400020024010B500203A
:10442000FEF7E8FD0020FEF729FE0020FEF7C2FDA2
:104430000020FEF7FFFD10BD7047000010B51348C7
:10444000006840F0010011490860084640681049C2
:1044500008400E494860084600680E4908400B496C
:1044600008600846006820F480200860084640681C
:1044700020F4FE0048604FF41F008860FFF75AFFE9
:104480004FF000600449086010BD000000100240B9
:104490000000FFF8FFFFF6FE08ED00E0F0B50C4667
:1044A000154600220021068C4FF6FE773E4006841A
:1044B000028B018C4FF60C7632407E1C06EA031606
:1044C0002E433243104EB0420ED0104EB0420BD0AD
:1044D000B0F1804F08D00E4EB04205D00D4EB04224
:1044E00002D00D4EB04206D14FF6FD76314044F079
:1044F0000106314305E04FF6F576314044F0010600
:10450000314302830184F0BD002C0140003401409E
:104510000004004000080040000C0040F0B50C46CC
:104520001546002200210026078C4FF6EF7C07EA93
:104530000C070784028B018C4FF6FF7707EA0416FD
:1045400040F6FF473A404FF6FF7707EA03373A4312
:104550004FF6FF7707EA05273A43114FB8420ED0CE
:10456000104FB8420BD0B0F1804F08D00E4FB84278
:1045700005D00E4FB84202D00D4FB84206D14FF6CB
:10458000DF77394046F01007394305E04FF65F7793
:10459000394044F01007394302830184F0BD000024
:1045A000002C01400034014000040040000800409D
:1045B000000C0040F0B50C461546002200210026F4
:1045C000078C4FF6FF6C07EA0C070784828B018C7F
:1045D0004FF6FF7707EA04264FF60C773A404FF67E
:1045E000FF7707EA03172F433A43114FB8420ED023
:1045F000104FB8420BD0B0F1804F08D00E4FB842E8
:1046000005D00E4FB84202D00D4FB84206D14FF63A
:10461000FF57394046F48077394305E04FF2FF57A2
:10462000394044F48077394382830184F0BD00002F
:10463000002C01400034014000040040000800400C
:10464000000C0040F0B50C46154600220021002663
:10465000078C4EF6FF7C07EA0C070784828B018CDF
:104660004FF6FF7707EA043640F6FF473A404FF629
:10467000FF7707EA05273A434FF6FF7707EA033744
:104680003A43114FB8420ED0104FB8420BD0B0F1A0
:10469000804F08D00E4FB84205D00E4FB84202D01E
:1046A0000D4FB84206D14DF6FF77394046F480579A
:1046B000394305E047F6FF57394044F48057394302
:1046C00082830184F0BD0000002C014000340140D1
:1046D0000004004000080040000C004010B501211B
:1046E000274800F030F9002848D026480078401CC0
:1046F0002449087024480078401C23490870214848
:104700000078052190FBF1F201FB12001D490870B1
:104710001D4800784FF47A7190FBF1F201FB120012
:10472000194908701748007838B9FEF7CBFC174ACA
:1047300017491848FDF7FEFB13E0124800780128DE
:1047400002D1FDF789FF0CE00E480078022802D163
:10475000FCF7D8FD05E00B480078032801D1FEF7EF
:10476000EDFE0D48007828B907480078032801D1EC
:10477000FFF7BAFC0121024800F0A3F810BD0000C9
:1047800000100040B7000020B80000200AD7A33B6B
:104790005C04002050040020B60000201FB5012159
:1047A0001020FFF7E5F941F61F40ADF8040009209D
:1047B000ADF808000020ADF8060001A9144800F08B
:1047C000DDFA01221146124800F02DF901211048AE
:1047D00000F07AF8362000F01F02012191404209D2
:1047E000920002F1E022C2F8001100BF8DF8000033
:1047F00001208DF801008DF802008DF80300684655
:10480000FEF7C4FD0121024800F05EF81FBD000064
:104810000010004010B50121214800F094F8012853
:104820003CD12048007801280FD101031E48FDF734
:104830007FFB00201B4908704FF07E511B48006829
:10484000FBF7A4FC1949086012E01648007878B913
:104850004FF480511448FDF769FB0120114908709D
:104860004FF07E5111480068FBF790FC0F4908603B
:104870000F4910480068FBF7E1FC04460B4801684B
:104880002046FBF713FE05D80020084908600120E8
:10489000094908700121024800F013F810BD00001A
:1048A0000014004000000020000801400400002027
:1048B00000C0C7440800002001000020CA43028253
:1048C0007047CA430282704721B1028842F0010258
:1048D000028004E002884FF6FE731A40028070479F
:1048E00031B1B0F8442042F40042A0F8442005E081
:1048F000B0F84420C2F30E02A0F844207047F0B58F
:104900000C4615461E460021002200230189028B19
:10491000038C4FF6F877394021434FF6FC473A4075
:1049200040F201173A434FF6DD773B404FF6FF77F1
:1049300007EA06172F433B43018102830384F0BD3E
:104940000146888C704730B50246002000230024C1
:10495000158A05EA0103958905EA010413B10CB132
:10496000012000E0002030BD70B505460C4624480B
:1049700085420ED0234885420BD0B5F1804F08D038
:104980002148854205D02148854202D020488542F1
:1049900000D100E000BF208850B92389A288618837
:1049A0002846FFF77BFDE188284600F0BBF925E0AB
:1049B000208804280AD12389A28861882846FFF725
:1049C000ADFDE188284600F0B6F917E020880828F8
:1049D0000AD12389A28861882846FFF7EBFDE18888
:1049E000284600F0B5F909E02389A28861882846A5
:1049F000FFF728FEE188284600F0B3F970BD0000FB
:104A0000002C014000340140000400400008004038
:104A1000000C0040002101804180012181800021A3
:104A2000C180018170471AB183890B43838102E001
:104A300083898B438381704701894FF6F872114057
:104A40000181704770B5002400220023058C4FF6C9
:104A5000FE7635400584028C8388048B4FF68F7573
:104A60002C40B51E2C400D882C43751E2A400D8904
:104A70002A434D882A43144DA8420BD0134DA84217
:104A800008D0134DA84205D0124DA84202D0124DB5
:104A9000A84213D14FF6F7752A404D892A434FF6A5
:104AA000FB752A408D882A434FF6FF652B404FF651
:104AB000FF552B408D892B43CD892B438380048365
:104AC000CD888586028470BD002C014000340140F1
:104AD0000040014000440140004801400A460021D6
:104AE000018B4FF6F77319401143018370470000A3
:104AF00070B5002400220023058C4FF6EF76354078
:104B00000584028C8388048B48F6FF752C404FF691
:104B1000FF452C400D884FF6FF7606EA05252C430D
:104B20004FF6DF752A400D8906EA05152A434D88A0
:104B300006EA05152A43154DA84202D0144DA84295
:104B40001DD14FF67F752A404D894FF6FF7606EA54
:104B500005152A434FF6BF752A408D8806EA0515CC
:104B60002A434FF6FF352B404FF2FF752B408D89BE
:104B700006EA85052B43CD8906EA85052B4383800C
:104B80000483CD880587028470BD0000002C01409D
:104B9000003401400A460021018B4FF2FF73194097
:104BA0004FF6FF7303EA02231943018370470000A5
:104BB00070B5002400220023058C4FF6FF663540B7
:104BC0000584028C8388848B4FF68F752C404FF6BA
:104BD000FC752C400D882C434FF6FF552A400D895B
:104BE0004FF6FF7606EA05252A434D8806EA052595
:104BF0002A43154DA84202D0144DA8421DD14FF2B0
:104C0000FF752A404D894FF6FF7606EA05252A43AF
:104C10004FF6FF352A408D8806EA05252A434EF6D1
:104C2000FF752B404DF6FF752B408D8906EA051563
:104C30002B43CD8906EA05152B4383808483CD88D9
:104C40008587028470BD0000002C014000340140C3
:104C50000A460021818B4FF6F77319401143818377
:104C60007047000070B5002200230024058C4EF62A
:104C7000FF7635400584038C8488828B48F6FF7567
:104C80002A404FF6FF452A400D884FF6FF7606EA88
:104C900005252A434DF6FF752B400D8906EA05359B
:104CA0002B434D8806EA05352B430B4DA84202D015
:104CB0000A4DA84208D14BF6FF752C408D894FF65E
:104CC000FF7606EA85152C4384808283CD88A0F880
:104CD0004050038470BD0000002C014000340140AE
:104CE0000A460021818B4FF2FF7319404FF6FF7384
:104CF00003EA022319438183704700210180418028
:104D00008180C180018141818181C181704781861B
:104D100070470187704781877047A0F8401070473F
:104D200081847047028B4FF6F3731A400283028B23
:104D30000A4302837047028B4FF2FF331A4002830B
:104D4000028B4FF6FF7303EA01231A430283704775
:104D5000828B4FF6F3731A408283828B0A438283DD
:104D60007047828B4FF2FF331A408283828B4FF65B
:104D7000FF7303EA01231A438283704700220288EB
:104D80001D4B98420ED01D4B98420BD0B0F1804F76
:104D900008D01B4B984205D01A4B984202D01A4BB0
:104DA000984204D14FF68F731A404B881A43174B21
:104DB000984207D0164B984204D04FF6FF431A4052
:104DC000CB881A4302808B8883850B8803850A4B26
:104DD00098420BD0094B984208D00E4B984205D010
:104DE0000D4B984202D00D4B984201D10B7A0386AD
:104DF0000123838270470000002C014000340140F1
:104E00000004004000080040000C0040001000407A
:104E100000140040004001400044014000480140AF
:104E200070B5044600203F4908603F4988683F4903
:104E30000968FBF7FDF93B4948622146394801F012
:104E400081FD3848806A3A4908603A49B1F90A0058
:104E5000FBF7D6FA0546384801682846FBF7EEF915
:104E6000334948622146324801F06CFD33490978E4
:104E7000494201EB8100FBF7C3FA05462C48816AE1
:104E80002846FBF7D5F92E4908602C49097801EB33
:104E90008100FBF7B5FA05462548816A2846FBF7ED
:104EA00075F9284908602549097801EB8100FBF76D
:104EB000A7FA05461E48816A2846FBF7B9F9224938
:104EC00008601E490978494201EB8100FBF798FA16
:104ED00005461748816A2846FBF758F91B490860C0
:104EE0001B480068164948621A480068154948621C
:104EF0001948006814494862184800681349486214
:104F000021460F4801F01EFD21460E4801F01AFD12
:104F100021460D4801F016FD21460C4801F012FD16
:104F200070BD0000180300205C0400203000002049
:104F30004C03002050040020FC6C0008700000208E
:104F4000480200207C020020B0020020E402002081
:104F50000C00002010000020140000201800002089
:104F600070B504463C4800683C4908603C4880688D
:104F700048622146394801F0E5FC3848806A3949E1
:104F800008603949B1F90A00FBF73AFA0546374893
:104F900001682846FBF752F93249486221463148F8
:104FA00001F0D0FC32490978C1EBC100FBF728FAC7
:104FB00005462C48816A2846FBF73AF92D490860D6
:104FC0002B490978A1EBC100FBF71AFA05462548E1
:104FD000816A2846FBF7DAF82749086024490978EE
:104FE000A1EBC100FBF70CFA05461E48816A284672
:104FF000FBF71EF9214908601D490978C1EBC10082
:10500000FBF7FEF905461748816A2846FBF7BEF80C
:105010001B4908601B480068164948621A48006826
:1050200015494862194800681449486218480068E0
:105030001349486221460F4801F084FC21460E487E
:1050400001F080FC21460D4801F07CFC21460C4813
:1050500001F078FC70BD0000300000201803002033
:105060005C0400204C03002050040020FC6C00086D
:1050700070000020480200207C020020B0020020C6
:10508000E40200200C00002010000020140000208A
:105090001800002070B5044600203F4908603F49D1
:1050A00088683F490968FBF7C3F83B4948622146D5
:1050B000394801F047FC3848806A3A4908603A4963
:1050C000B1F90A00FBF79CF9054638480168284603
:1050D000FBF7B4F8334948622146324801F032FC0C
:1050E0003349097801EB8100FBF78AF905462D4821
:1050F000816A2846FBF79CF82E4908602C490978FC
:10510000494201EB8100FBF77BF905462548816A9E
:105110002846FBF73BF828490860254909784942A9
:1051200001EB8100FBF76CF905461E48816A2846B1
:10513000FBF77EF8214908601D49097801EB8100E1
:10514000FBF75EF905461748816A2846FBF71EF80B
:105150001B4908601B480068164948621A480068E5
:10516000154948621948006814494862184800689F
:105170001349486221460F4801F0E4FB21460E48DE
:1051800001F0E0FB21460D4801F0DCFB21460C4814
:1051900001F0D8FB70BD0000180300205C04002063
:1051A000300000204C03002050040020FC6C00085C
:1051B00070000020480200207C020020B002002085
:1051C000E40200200C000020100000201400002049
:1051D0001800002010B540F22551274800F0F0F8E3
:1051E000012847D1244800F0A7F9C4B22348007829
:1051F00040B9FF2C38D101202049087000202049F7
:10520000087031E01D48007801282DD1FE2C13D004
:105210001C48007840B91A4801780078401C184AA8
:1052200010701948445407E0154801780078401C74
:10523000134A107015484454FE2C15D100200F4914
:1052400008701249897801EB4100FBF7D9F8104941
:1052500008600E49C9784800FBF7D2F80D4908608C
:105260000A4800790C49087040F22551024800F0C4
:105270007FF800BF10BD0000004C00403C00002043
:105280003D000020B6000020960100208C01002087
:10529000280000202C0000203400002038B50446EF
:1052A00055E02D4804602D48007818BB10212C488B
:1052B000FCF73EFE20212A48FCF73AFE0122114667
:1052C0002848FFF7B0FB3720FEF754F81C208DF874
:1052D000000001208DF8030002208DF8010001205C
:1052E0008DF802006846FEF751F801211D48FFF7CE
:1052F000EBFA2CE019480078012828D100201A493F
:105300000860002201211748FFF78DFB3720FEF7C8
:1053100025F81C208DF8000001208DF803000220E4
:105320008DF8010001208DF802006846FEF72EF886
:1053300000210C48FFF7C8FA01210A48FFF7C1FA1B
:1053400001200A49087000200449087000BF07487E
:1053500000780028A5D038BD0800002001000020FA
:10536000000C014000140040040000200200002056
:1053700010B50022002340F66A14A14200D100BFFC
:105380000A1201249440A3B2DC43048010BD21B171
:10539000828942F40052828104E082894DF6FF73D3
:1053A0001A408281704702460020B1F5007F00D18B
:1053B00000BF13880B400BB1012000E000207047B4
:1053C00070B50246002400230025002040F66A162E
:1053D000B14200D100BFC1F3421501F01F03012605
:1053E00006FA03F3012D02D19689334006E0022D1F
:1053F00002D1168A334001E0968A33400C1201260E
:1054000006FA04F41688344013B10CB1012000E010
:10541000002070BDF0B503460024002600250020C2
:1054200040F66A17B94200D100BF1846C1F34214D2
:1054300001F01F06012707FA06F5012C01D10C30F7
:1054400004E0022C01D1103000E014301AB10768DA
:105450002F43076002E00768AF430760F0BD00001C
:105460002DE9F04786B005460E460024A24600BF4F
:10547000A1460027B08900B100BF2F462C8A4CF608
:10548000FF700440F08804432C82AC894EF6F31080
:105490000440B08831890843718908430443AC81D2
:1054A000AC8A4FF6FF400440B0890443AC8201A8A7
:1054B000FEF77EFB1F48874202D1DDF810A001E015
:1054C000DDF80CA0A88900F4004040B10AEBCA0046
:1054D00000EB0A1031684900B0FBF1F807E00AEB75
:1054E000CA0000EB0A1031688900B0FBF1F86420B3
:1054F000B8FBF0F004012009642101FB1089A889A0
:1055000000F4004040B1322000EBC900B0FBF1F0E4
:1055100000F00700044308E0322000EB091064218A
:10552000B0FBF1F000F00F0004432C8106B0BDE8A1
:10553000F08700000038014001468888C0F3080069
:105540007047C1F308028280704700BFFEE7000089
:105550000FB4084B10B504A902AA039800F060F933
:10556000044602A9002000F0F2FC204610BC5DF8C1
:1055700014FB00004F5F0008490050EAC12018BF2B
:1055800004204A0D18BF40F0010040F2FF72B2EB58
:10559000515F08BF40F00200012808BF0520704796
:1055A0002DE9F0414F1E00EBC7010446D1E900018F
:1055B00015461E4637F006020DD02A463346FAF746
:1055C000ADFE7F1E04EBC703D3E90023FBF75DF8B4
:1055D00037F00602F1D1022F25D0042F13D0062F69
:1055E00018BFBDE8F0812A463346FAF797FED4E9A2
:1055F0000A23FBF74AF82A463346FAF78FFED4E926
:105600000823FBF742F82A463346FAF787FED4E927
:105610000623FBF73AF82A463346FAF77FFED4E929
:105620000423FBF732F82A463346FAF777FED4E92B
:105630000223FBF72AF82A463346FAF76FFED4E92D
:105640000023BDE8F041FBF720B80122FBF733B996
:10565000FBF71BB80022134610461146FBF7BCB8F7
:10566000024A00201107FBF726B9000001FDFFFFE9
:1056700002E008C8121F08C1002AFAD1704770471B
:10568000002001E001C1121F002AFBD17047000079
:105690000149086070470000240100202DE9FF5FE8
:1056A00082B00021DDE90430020DDDF840B0034393
:1056B00018D044F61050A2F2FF324243151411984C
:1056C00001281FD0A5EB0B00401C5FEA000A4FF039
:1056D00000064E4FDFF83891B046504615D5CAF156
:1056E000000413E0119801244AA3012801D16FEAB4
:1056F0000B010298119AC0E90031C0E9024206B0DC
:10570000BDE8F09FCBF10000DFE704460021404AEE
:10571000491842EB0450CDE9001012E0E00707D031
:1057200032463B4640464946FAF7F8FD80468946F0
:1057300032463B4610461946FAF7F0FD06460F463C
:105740006410002CEAD1DDE90401DDE90023BAF19F
:10575000000F06DAFAF7E2FD42464B46FAF7DEFDA5
:1057600005E0FBF739F842464B46FBF735F80446AF
:105770000E460022284BFBF7CDF803D84FF0FF3040
:10578000014607E00022254B20463146FAF77DFF0F
:10579000FBF7A8F8102409E0002C0ADB0A220023FA
:1057A000FAF7AEFE039B30321A55641E50EA01022E
:1057B000F2D1641C039AC4F111031444119A012A12
:1057C00003D0012208430DD10AE0084304D0002091
:1057D0004FF0110B119072E7A3EB0B056D1E0DE05E
:1057E0005B4504DD4FF0000205F1010504E003DA3A
:1057F0004FF00002A5F10105002AECD002981199A2
:10580000C0E90231C0E9004579E70000000014401A
:105810000000F03F300000000000F0430000E03FD7
:105820002DE9FF4F95B09B468946064600250FE2BD
:10583000252877D100242746F84A0121059400E065
:10584000044316F8013F203B01FA03F01042F7D160
:1058500030782A2811D06FF02F033078A0F1300271
:10586000092A16D8059A44F0020402EB820203EBDF
:1058700042021044761C0590EFE759F8042B05927C
:10588000002A03DA504244F40054059044F0020424
:10589000761C30782E2816D116F8010F44F0040437
:1058A0002A280DD06FF02F023078A0F13003092B99
:1058B00009D807EB870302EB4303C718761CF3E70D
:1058C00059F8047B761C30786C280FD006DC4C2805
:1058D00017D068280DD06A2814D104E0742810D09D
:1058E0007A280FD10DE044F400140AE044F4801447
:1058F00001E044F440147278824202D104F580142D
:10590000761C761C307866280BD013DC582877D0AC
:1059100009DC002875D04528F6D04628F4D0472861
:105920001AD19DE118E0632835D0642879D0652824
:1059300012D195E1702873D008DC6728F1D069286E
:105940006FD06E280DD06F2806D1B5E073282CD00B
:10595000752875D0782874D05A46179990476D1CD1
:1059600075E1C4F30250022809D003280DD0D9F8FC
:10597000001004280DD00D6009F1040967E1D9F881
:105980000010EA17C1E90052F6E7D9F800100D80BF
:10599000F2E70D70F0E719F8041B8DF800100020F5
:1059A0008DF80100EA46012003E059F804AB4FF0FE
:1059B000FF3061074FF0000102D40DE008F1010152
:1059C0008846B9420FDA8045F8DB1AF8081000293A
:1059D000F4D108E008F1010188468142FADB1AF8A7
:1059E00008100029F6D105985B46A0EB0807214670
:1059F0003846179A00F094FA284400EB080507E0AF
:105A00004DE029E10DE01AF8010B5A46179990472D
:105A1000B8F10108F7D25B4621463846179A13E1E0
:105A200042E00A220092C4F302524FF0000A022A16
:105A300008D059F804CB032A4FEAEC710AD00DE0E4
:105A400029E02AE009F1070121F00702F2E802C18A
:105A5000914609E00FFA8CFC4FEAEC71042A03D15D
:105A60004FFA8CFC4FEAEC71002907DA0A46002154
:105A7000DCF1000C61EB02012D2202E0220504D5CD
:105A80002B228DF80420012203E0E20701D020221E
:105A9000F7E7904659E00A2102E010220DE01021BC
:105AA0004FF0000A00910BE010224FF0000A44F082
:105AB00004040827009203E008224FF0000A009235
:105AC000C4F30252022A05D059F804CB0021032A5C
:105AD00008D009E009F1070121F00702F2E802C14C
