S31508000000300800204501000855330008A1260008DD
S31508000010452E0008610C0008735600080000000011
S315080000200000000000000000000000003141000848
S31508000030C51A000800000000713500087D45000853
S315080000405F0100085F0100085F0100085F01000802
S315080000505F0100085F0100085F0100085F010008F2
S315080000605F0100085F0100085F0100085F010008E2
S315080000705F0100085F0100085F0100085F010008D2
S315080000805F0100085F0100085F0100085F010008C2
S315080000905F0100085F0100085F0100085F010008B2
S315080000A05F0100085F0100085F0100085F010008A2
S315080000B05F0100085F0100085F0100085F01000892
S315080000C05F0100085F0100085F0100085F01000882
S315080000D05F0100085F0100085F0100085F01000872
S315080000E05F0100085F0100085F0100085F01000862
S315080000F05F0100085F0100085F0100085F01000852
S315080001005F0100085F0100085F0100085F01000841
S31508000110FD5200085F010008214800083D49000813
S315080001205F0100085F0100085F0100085F01000821
S31508000130DFF80CD000F006FC0048004761680008AC
S31508000140300800200648804706480047FEE7FEE7D5
S31508000150FEE7FEE7FEE7FEE7FEE7FEE7FEE7FEE769
S315080001608145000831010008D2B201E000F8012BF0
S31508000170491EFBD270470022F6E710B513460A4619
S3150800018004461946FFF7F0FF204610BDF0B480EA92
S315080001900102D40F4200B2EB410F02D202460846D2
S315080001A011464A0042D0C30DDDB2C1F3C752AD1A9B
S315080001B0202D35DAC1F3160141F4000204B152428A
S315080001C0C5F1200602FA06F12A411044B3EBD05FC6
S315080001D023D0C4B1012DA0EBC35009DCF0BC4FF00D
S315080001E0004202EAC352DBB200F5000000F0C2B9D1
S315080001F0400000F1807000EBC350A0F1807040EA27
S31508000200D170490009E0490841EAC071A0EBC35022
S3150800021000F50000400800EBC350F0BC00F0A1B99F
S315080002206142012202EB4101001BF6E7F0BC704770
S3150800023081F00041AAE780F00040A7E780EA0102C2
S3150800024010B502F00043400022D04A001FD0010E2C
S3150800025001EB1261C0F35600C2F3560240F40000E7
S3150800026042F40002A0FB022000047F39140400D0E7
S31508000270401C50EA124001D44000491EC2B20C0686
S3150800028004EBD010401C4008802A02D003E000206E
S3150800029010BD20F00100002900DA0020184310BD27
S315080002A030B480EA010202F0004530F0004221F045
S315080002B0004013D090B1C30DD40DC2F31601C0F39C
S315080002C01600E41A41F4000140F400027D3491421C
S315080002D001D3641C00E04900002C02DA30BC00207F
S315080002E070474FF400000023914201D3891A034353
S315080002F040084FEA4101F7D151B1914202D14FF07E
S31508000300004105E002D24FF0010101E06FF0010162
S3150800031003EBC450284430BC00F023B92DE9FE4F46
S3150800032081EA030404F0004421F0004100944FF0F0
S31508000330000B23F0004350EA01045ED052EA03049E
S315080003405BD0C3F30A54C1F30A552C44A4F2F33420
S315080003500194A0FB0254C1F3130141F48011C3F3C5
S31508000360130343F4801301FB024400FB034E840A83
S31508000370970A44EA815447EA8357A4FB076802951B
S315080003808D0A05FB07854FEA932C04FB0C542705B9
S31508000390029D4FEA065847EA1637B5EB08056EEB95
S315080003A0070C870E920E47EA811742EA8312A7FBCB
S315080003B00201B6EB0B0164EB00042B0D43EA0C3388
S315080003C05E1844EB1C50DA465146E7FB0201C5F3BA
S315080003D013044FEA0B3343EA14534FEA0432019CE1
S315080003E043EA0603A4F10C040294009CCDE900B488
S315080003F000F0FDF803B0BDE8F08F00200146F9E7EC
S31508000400C10F80EAE0700844CA079623002100F06D
S31508000410B1B896230022114600F0ACB800F00042AD
S3150800042020F00040C10DC0F3160040F400007F29FB
S3150800043001DA00207047962903DCC1F19601C8400D
S3150800044001E096398840002AF4D04042704700F00F
S31508000450004230F000400AD0C10D01F56071C0F3CA
S31508000460160042EA0151C2084007114370470020AE
S315080004700146704701F0004330B421F0004150EACC
S31508000480010206D00A0DA2F56072C1F31301002A13
S3150800049002DC30BC00207047440F44EAC104C100A6
S315080004A0E01830BC00EBC25000F05BB8002801DB56
S315080004B0C0F10040002901DBC1F1004181427047CB
S315080004C0002801DBC0F10040002901DBC1F1004131
S315080004D08842704730B50B46014600202022012489
S315080004E009E021FA02F59D4205D303FA02F5491BF4
S315080004F004FA02F52844151EA2F10102F1DC30BD0A
S315080005002DE9F05F0546002092469B46884606463A
S31508000510814640241BE0284641464746224600F0CD
S3150800052032FA53465A46C01A914110D31146184614
S31508000530224600F019FA2D1A67EB01084F462246A3
S315080005400120002100F010FA17EB00094E41201E89
S31508000550A4F10104DFDC484631462A464346BDE895
S31508000560F09F0029A8BF7047401C490008BF20F02B
S315080005700100704710B4B0FA80FC00FA0CF050EA9B
S31508000580010404BF10BC704749B1CCF1200421FA1C
S3150800059004F411FA0CF118BF012121430843A3EB17
S315080005A00C01CB1D4FEA00614FEA102042BF002024
S315080005B010BC704700EBC35010440029A4BF10BC00
S315080005C07047401C490008BF20F0010010BC704766
S315080005D010B5141E73F1000408DA401C41F100013D
S315080005E092185B411A4301D120F0010010BD2DE994
S315080005F0F04D92469B4611B1B1FA81F202E0B0FA8B
S3150800060080F22032904600F0AFF904460F4640EAE1
S315080006100A0041EA0B0153465A46084313D01146CD
S3150800062053EA010019D0C8F14002504600F0ABF970
S3150800063005460E4650465946424600F095F9084387
S3150800064005D0012004E020463946BDE8F08D00209B
S31508000650054346EAE0762C4337430A986305E40ADD
S31508000660A0EB08000022FD0A44EA47540A3002D5E6
S3150800067000200146E9E7010510196941DDE9084549
S3150800068000196941BDE8F04DA2E72DE9FE4F804605
S3150800069081EA0300C00F0C46009021F0004123F0C8
S315080006A00045B8EB0200A94105D2404621469046CE
S315080006B01C460B46024623F00040104347D0270D40
S315080006C0C7F30A00C3F30A510290401A0190402862
S315080006D06BDAC3F3130040F4801B0098924620B1EE
S315080006E00023D2EB030A63EB0B0B01985946C0F1C2
S315080006F04002504600F038F906460D46504659461F
S31508000700019A00F050F910EB08006141002487EACD
S31508000710115284EAE7731A4340D0009A62B3019AE9
S31508000720012A4FEA075215DC001B61EB02014FF064
S31508000730004202EA0752CDE90042001C41F5801149
S3150800074032462B46FFF753FF03B0BDE8F08F40460D
S315080007502146F9E7001B61EB0201001C41F58013F5
S3150800076000185B412018A2F5001747EB030140EA81
S31508000770D570B6196D4111E06D084FEA360645EA9F
S31508000780C0754FEA0752001B61EB0201001C41F5D8
S31508000790801149084FEA30000019514132462B466C
S315080007A003B0BDE8F04FFFF713BF009801224000E1
S315080007B00023D0EB020263EBE073009821464FEA70
S315080007C0E074B8EB000061EB0401E9E783F000434D
S315080007D05BE781F0004158E72DE9F04D81EA030413
S315080007E004F0004B21F0004514464FF0000A23F0B0
S315080007F0004150EA050220D054EA01021DD0C5F393
S315080008000A570246C5F31303C1F31300C1F30A5688
S3150800081040F4801543F48013A7EB0608101BD64650
S3150800082008F2FD3873EB050002D308F1010801E070
S3150800083092185B41B8F1000F03DA00200146BDE8C3
S31508000840F08D00204FF48011064684460EE0171BF3
S3150800085073EB050705D3121B63EB050306434CEA46
S31508000860010C49084FEA300092185B4150EA01072B
S31508000870EDD152EA030012D082EA040083EA0501A8
S31508000880084305D0101BAB4106D20122002306E01F
S3150800089000224FF0004302E06FF0010253101AEBFA
S315080008A006004CEB085110EB0A0041EB0B01BDE8C2
S315080008B0F04DFFF78DBE70B521F0004303430CD011
S315080008C0C1F30A550024D5EB040564EB0403D617D7
S315080008D0AD1AB34102DB0020014670BD201841EB7A
S315080008E0025170BDC1F30A52C1F3130140F2FF333E
S315080008F041F480119A4202DA00200146704740F21C
S3150800090033439A42A2F2334202DC524200F03BB829
S3150800091000F02AB830B5041E71F1000404DB4FF06C
S315080009200044404264EB0101141E73F1000405DB28
S315080009301C464FF00043524263EB0403994208BF3A
S31508000940904230BD064C074D06E0E06840F00103D2
S3150800095094E8070098471034AC42F6D3FFF7ECFB4F
S31508000960906E0008B06E0008202A04DB203A00FAD0
S3150800097002F1002070479140C2F1200320FA03F3E8
S31508000980194390407047202A04DB203A21FA02F0E6
S315080009900021704721FA02F3D040C2F120029140AB
S315080009A0084319467047202A06DBCB17203A41FA36
S315080009B002F043EAE07306E041FA02F3D040C2F1DE
S315080009C0200291400843194670472DE9F04D00234F
S315080009D01A461B1A8A4103DB00200146BDE8F08D42
S315080009E0C1F30A52C1F3130141F480154FF0000B0D
S315080009F0D10702D100186D41521E0027044640F265
S31508000A00FF11384601EB620A3E4680460246002040
S31508000A104FF48011FFF7B7FFC2197141BB1846EBB7
S31508000A200100B4EB030C75EB000C04D3E41A65EB78
S31508000A30000517460E46241908F101006D41804647
S31508000A403428E3DDF91946EB0600091BA84103D251
S31508000A504FF0FF32134601E0002213461BEB070056
S31508000A6046EB0A51BDE8F04DFFF7B2BD70B58C18DC
S31508000A7010F8015B15F0070301D110F8013B2A11A4
S31508000A8006D110F8012B03E010F8016B01F8016B91
S31508000A905B1EF9D12B0705D40023521E0DD401F88D
S31508000AA0013BFAE710F8013BCB1A921C03E013F856
S31508000AB0015B01F8015B521EF9D5A142D8D300208B
S31508000AC070BD000010B54FF4966000F0FCFF01F011
S31508000AD0CBFF02F0B9F9124804F074FC4FF47A70AF
S31508000AE000F0F1FF02F00AFA01F014FF02F0F6FB3B
S31508000AF003F0AAFB02F008FA03F04EFC01F006F830
S31508000B0002F058FB05F0D6FF03F0DCFE4FF4167032
S31508000B1002F07CFC4FF4876002F08CFC10BD0000EC
S31508000B200000A04070B504463E4800683E4908608B
S31508000B303E488068486221463B4805F085FF3A48AA
S31508000B40806A3B4908603B49B1F90A00FFF758FC3F
S31508000B500546394801682846FFF770FB344948625C
S31508000B602146334805F070FF34490978494201EBBC
S31508000B708100FFF745FC05462D48816A2846FFF7A0
S31508000B8057FB2F4908602D490978494201EB810036
S31508000B90FFF736FC05462648816A2846FFF7F6FA27
S31508000BA02849086025490978494201EB8100FFF781
S31508000BB027FC05461E48816A2846FFF739FB224965
S31508000BC008601E490978494201EB8100FFF718FCC5
S31508000BD005461748816A2846FFF7D8FA1B49086070
S31508000BE01B480068164948621A4800681549486251
S31508000BF01948006814494862184800681349486249
S31508000C0021460F4805F020FF21460E4805F01CFF37
S31508000C1021460D4805F018FF21460C4805F014FF3B
S31508000C2070BD00003000002020030020FC030020D7
S31508000C3054030020F0030020986D0008740000207B
S31508000C405002002084020020B8020020EC02002096
S31508000C500C000020100000201400002018000020BE
S31508000C6000BFFEE710B50446012C46D16B48007854
S31508000C7038B9BB206A49087003F0D8FA01206749D9
S31508000C800870002167480068FFF710FC0BD00021A8
S31508000C9065480068FFF70AFC05D06448007810B973
S31508000CA012206349087063495E480068FFF708FC2C
S31508000CB022D861495B480068FFF7F8FBF8D85F4916
S31508000CC059480068FFF7FCFBF2D85D4956480068AA
S31508000CD0FFF7ECFBECD85548007800280CD1FF202C
S31508000CE05349087001204E49087003F09FFA012005
S31508000CF0544908704D4908708FE0022C46D1524875
S31508000D00007838B9BC204649087003F08FFA0120EC
S31508000D104D490870002143480068FFF7C7FB0BD010
S31508000D20002141480068FFF7C1FB05D04748007815
S31508000D3010B912203E4908703E493A480068FFF744
S31508000D40BFFB6AD83C4937480068FFF7AFFB64D851
S31508000D503A4935480068FFF7B3FB5ED83849324848
S31508000D600068FFF7A3FB58D838480078002854D104
S31508000D70FF202F49087001202949087003F056FA08
S31508000D800120334908703149087046E0032C44D1E4
S31508000D903048007838B9BD202149087003F046FA72
S31508000DA001202C49087000211E480068FFF77EFBC9
S31508000DB00BD000211C480068FFF778FB05D02648B1
S31508000DC0007810B912201A4908701A49154800689F
S31508000DD0FFF776FB21D8184912480068FFF766FB2B
S31508000DE01BD8164910480068FFF76AFB15D814493E
S31508000DF00D480068FFF75AFB0FD81748007860B906
S31508000E00FF200B49087001200549087003F00EFA07
S31508000E100120124908701049087010BD8B00002087
S31508000E201C000020280000202C0000208200002042
S31508000E3054000020008098430080A24300003443F9
S31508000E4000004843850000208C0000208400002014
S31508000E50860000208D0000208300002087000020E7
S31508000E6010B50446012C04D0022C3BD0032C38D1F3
S31508000E7071E04FF4167002F0D3FA02F03FF85348C7
S31508000E8000F0B6FD4FF4FA7000F01DFE4FF49670B0
S31508000E9002F0BCFA4FF4FA7000F015FE02F02EF8D4
S31508000EA04A4804F08FFA40F62E1002F0C3FA40F2D0
S31508000EB0DC5000F008FE02F021F8454800F098FDE5
S31508000EC04FF47A7000F0FFFD4FF4167002F09EFAA8
S31508000ED002F014F83E4804F075FA4FF4876002F001
S31508000EE0A9FA71E04FF4876002F09AFA02F006F860
S31508000EF0364800F07DFD4FF4FA7000F0E4FD4FF43B
S31508000F00967002F083FA4FF4FA7000F0DCFD01F0F7
S31508000F10F5FF2E4804F056FA40F6FC0002F08AFA6D
S31508000F2040F2DC5000F0CFFD01F0E8FF284800F061
S31508000F305FFD4FF47A7000F0C6FD4FF4167002F0AC
S31508000F4065FA01F0DBFF224804F03CFA4FF48760AB
S31508000F5002F070FA38E040F2AE6002F061FA01F091
S31508000F60CDFF1A4800F044FD4FF4FA7000F0ABFDCF
S31508000F704FF4967002F04AFA4FF4FA7000F0A3FDA7
S31508000F8001F0BCFF114804F01DFA40F6FC0002F01F
S31508000F9051FA40F2DC5000F096FD01F0AFFF0C4824
S31508000FA000F026FD4FF47A7000F08DFD4FF41670B0
S31508000FB002F02CFA01F0A2FF054804F003FA4FF4F8
S31508000FC0876002F037FA00BF00BF10BD0000A040DE
S31508000FD0CDCCCC3F10B50446012C04D0022C53D0FE
S31508000FE0032C50D1A1E04FF4167002F019FA01F063
S31508000FF085FF4FF4FA7000F066FD754800F0F8FCBE
S315080010004FF47A7000F05FFD4FF4967002F0FEF927
S315080010104FF47A7000F057FD01F070FF6C4804F049
S31508001020D1F94FF47A7000F04EFD40F6FC0002F05C
S3150800103001FA4FF47A7000F046FD01F05FFF65484B
S3150800104000F0D6FC4FF47A7000F03DFD4FF4FA70CC
S3150800105002F0DCF94FF47A7000F035FD01F04EFF2E
S315080010605C4804F0AFF94FF47A7000F02CFD4FF4A9
S31508001070FA7002F0CBF94FF4707002F0D1F94FF420
S31508001080876002F0D7F9A1E04FF4876002F0C8F94B
S3150800109001F034FF4FF4FA7000F015FD4C4800F0EB
S315080010A0A7FC4FF47A7000F00EFD4FF4967002F02C
S315080010B0ADF94FF47A7000F006FD01F01FFF4448C1
S315080010C004F080F94FF47A7000F0FDFC40F6FC005D
S315080010D002F0B0F94FF47A7000F0F5FC01F00EFF5B
S315080010E03C4800F085FC4FF47A7000F0ECFC4FF4B5
S315080010F0FA7002F08BF94FF47A7000F0E4FC01F014
S31508001100FDFE344804F05EF94FF47A7000F0DBFC1B
S315080011104FF4FA7002F07AF940F2AE6002F080F904
S315080011204FF4876002F086F950E040F2AE6002F0B4
S3150800113077F901F0E3FE4FF4FA7000F0C4FC244896
S3150800114000F056FC4FF47A7000F0BDFC4FF4967030
S3150800115002F05CF94FF47A7000F0B5FC01F0CEFEAF
S315080011601B4804F02FF94FF47A7000F0ACFC40F6F7
S31508001170FC0002F05FF94FF47A7000F0A4FC01F06D
S31508001180BDFE144800F034FC4FF47A7000F09BFC66
S315080011904FF4FA7002F03AF94FF47A7000F093FCC3
S315080011A001F0ACFE0B4804F00DF94FF47A7000F02C
S315080011B08AFC4FF4FA7002F029F940F2631002F043
S315080011C02FF94FF4876002F035F900BF00BF10BD54
S315080011D09A9925413333F33F10B5314800780321F6
S315080011E090FBF1F201FB12002D49087008460078C1
S315080011F0401C087008460078FFF7ECFE4FF47A703A
S3150800120000F061FC26480078012813D125490870AA
S315080012100020254908702549087025488078244902
S315080012204978884203DC11202249087002E00D2023
S31508001230204908701A480078022814D101201B4951
S315080012400870002017490870174908701848C078B0
S3150800125017498978884203DC11201649087002E08C
S315080012600D20144908700E480078032816D100206E
S315080012700E4908700B4908700B4908700E4800782B
S31508001280012803D00C480078042807D115200949FD
S315080012900870AD200649087002F0C8FF10BD0000AE
S315080012A0BD0000207C0000207B0000207D0000207F
S315080012B01C000020540000208E00002010B5FE48B7
S315080012C0007818B1FC48007803287DD1FB480068EF
S315080012D0401CFA49086008460068E62813D3F8480F
S315080012E0007880B9F748007818B91320F6490870CD
S315080012F009E0F4480078012805D10D20F249087064
S315080013000120EF490870ED48006840F26C71884288
S3150800131011D3EE48007870B9FF20EB490870FC201D
S31508001320EB49087002F082FFAD20E94908700120F8
S31508001330E64908700BE0E148006840F2D661884249
S3150800134005D3E248007810B91720DF490870002154
S31508001350E0480068FFF7AAF80ED00021DE480068CA
S31508001360FFF7A4F808D0DD48007828B90F20D64939
S3150800137008700120D9490870D9480078CD280ED1BF
S31508001380D14800780F280AD1FF20CF4908700120DC
S31508001390D4490870D4480078401CD3490870D3490A
S315080013A0D3480068FEF7F2FE0446D2488168204614
S315080013B0FFF77CF81ED8C448007814281AD1CA4802
S315080013C00078012816D100E098E00621CA4805F001
S315080013D025FB1720BC490870C6488068C4490860C0
S315080013E0C1480078401CC0490870AD20B84908704B
S315080013F002F01CFFBA480078AD281AD1B248007826
S31508001400172816D1B8480078022812D11420AE49F8
S3150800141008700120B2490870AD49087002F006FF4D
S315080014200020B0490870B0480078401CAE490870E2
S315080014306DE2AE49AE480068FEF7A8FE0446AD4820
S3150800144081682046FFF732F818D89F480078142894
S3150800145014D1A5480078032810D10621A64805F01E
S31508001460DDFA172098490870A2488068A0490860E4
S315080014709D480078401C9C49087048E292480078CC
S315080014801728D5D1984800780428D1D19B480068F8
S31508001490401C9A49086008460068B0F57A7F04D16E
S315080014A0AD208B49087002F0C1FE94480068B0F57B
S315080014B07A7FBDD38A480078AD28B9D106218E48EF
S315080014C005F0ACFA0D2080490870FB2080490870A9
S315080014D002F0ACFE002084490870894908608949F1
S315080014E008707649086074480078401C724908708C
S315080014F00020824908607C49087008E26E48007836
S31508001500012803D06C480078042870D16B4800681D
S31508001510401C6A49086008460068B0F5167F19D36A
S31508001520694800780D2815D16F48007890B90120D0
S315080015306C490870FB206649087002F077FE122095
S315080015406149087068480078401C6749087000209F
S315080015506349087062480078CD2810D1624800783F
S3150800156001280CD160480078401C5F4908700120AA
S315080015705749087002F05AFE01206249087062480D
S315080015800078012808D15F480078012804D150491D
S31508001590487802F073F810E05C480078012804D116
S315080015A04B49887802F06AF807E05948007801281C
S315080015B003D14749C87802F061F8564800780128EF
S315080015C020D151480078E8B950480078D0B9504839
S315080015D00078B8B95048007880B93D4840783C4909
S315080015E0C978884204DC11203749087003E0BDE059
S315080015F00D20354908700120474908703449487854
S31508001600FFF730FB45480078012803D13049887830
S31508001610FFF728FB42480078012803D12C49C878EF
S31508001620FFF720FB314932480068FEF701FE044601
S31508001630304881682046FEF739FF1CD822480078D2
S31508001640152818D128480078022814D12648007889
S31508001650401C254908700621274805F0DFF91720A0
S31508001660194908702248006821490860AD201849C0
S31508001670087002F0DBFD1A480078AD2875D11248CB
S315080016800078172803D010480078FF28F6D11648A6
S3150800169000780328F2D111200B4908701848006811
S315080016A0401C1749086008460068B0F5C87F5CD337
S315080016B0FB200749087035E08E00002060000020F6
S315080016C064000020BE0000205400002057000020BF
S315080016D01C000020280000202C0000205C000020B0
S315080016E0340000206C0000205600002000009642BE
S315080016F030000020FC0300209C0000205800002039
S31508001700680000207E000020780000207900002074
S315080017107A0000207B0000208F0000207C0000203B
S315080017207D00002002F082FD122079490870012010
S315080017307849087078480078401C77490870012075
S315080017407649087076490870002076490870764907
S31508001750087076490870764908707649087076499F
S3150800176008707649086076490870D0E06A480078BB
S31508001770022803D0684800780528F6D1674800781B
S31508001780012807D163480078012803D16D494878B4
S3150800179001F074FF6C480078012803D169498878FC
S315080017A001F06CFF69480078012803D16549C878BB
S315080017B001F064FF664967480068FEF739FD04468C
S315080017C0654881682046FEF77BFE0ED850480078AB
S315080017D015280AD10621614805F020F917204C4939
S315080017E008705C4800685B4908605D480078AD2869
S315080017F00DD147480078172803D045480078FF28B8
S3150800180005D111204249087000204C49086040481B
S315080018100078112803D03E480078FF2851D1514856
S315080018200068401C4F49086008460068B0F5FA7F12
S315080018306DD33948007802280AD1FC20414908703E
S3150800184002F0F4FC34480078401C3349087006E07E
S3150800185031480078052802D1EA204149087000205D
S3150800186041490870414908704149087001202B49CF
S3150800187008702B49087000202A4908702A49087000
S315080018802A4908703B4908703B4908703B4908706B
S315080018902A49086001203A4908700020244908703E
S315080018A02449087024490870364908703649087072
S315080018B0364908703649087036490870364908703E
S315080018C025E027480078EA2821D111480078112810
S315080018D003D00F480078FF2819D122480068401C19
S315080018E0204908600846006840F2DC5188420ED359
S315080018F017200749087011480068401C0F490860FE
S3150800190008460068A02802D3FF200149087010BDC8
S3150800191054000020920000208E000020780000204D
S315080019207B00002088000020890000208A00002013
S315080019307F00002080000020810000206800002031
S31508001940560000201C000020790000207A000020A4
S315080019500000964230000020FC0300209C00002076
S315080019603400002060000020570000205C000020A2
S315080019706C0000208B0000208C0000208D000020C9
S315080019807E000020820000208300002084000020C2
S3150800199075000020760000207700002010B5104959
S315080019A0886AFEF73BFD04B2204601F021FB0D498B
S315080019B0886AFEF733FD04B2204601F05DFB0A494A
S315080019C0886AFEF72BFD04B2204601F0F1FA0749B2
S315080019D0886AFEF723FD04B2204601F029FB10BDF4
S315080019E05002002084020020B8020020EC020020E9
S315080019F038B5044655E02D4804602D48007818BBD4
S31508001A0010212C4800F092FA20212A4800F08CFA7E
S31508001A1001221146284803F09AF8372001F0A8FC5D
S31508001A201C208DF8000001208DF8030002208DF897
S31508001A30010001208DF80200684601F0A5FC01218D
S31508001A401D4802F0D5FF2CE019480078012828D156
S31508001A5000201A49086000220121174803F077F888
S31508001A60372001F079FC1C208DF8000001208DF844
S31508001A70030002208DF8010001208DF80200684657
S31508001A8001F082FC00210C4802F0B2FF01210A484D
S31508001A9002F0ABFF01200A490870002004490870CB
S31508001AA000BF074800780028A5D038BD08000020E8
S31508001AB001000020000C0140001400400400002032
S31508001AC002000020704700B5034603E04FF47A7021
S31508001AD000F005F8181EA3F10103F7D100BD00EBCD
S31508001AE0C001C9004FF0E022516100219161052132
S31508001AF0116100BF4FF0E021096901F48031002926
S31508001B00F8D004214FF0E0221161704710B504F0B7
S31508001B1057FE05F09FF804F0F5FD05F03DF810BDF9
S31508001B2070B504463C4800683C4908603C488068F3
S31508001B3048622146394804F087FF3848806A39499F
S31508001B4008603949B1F90A00FEF75AFC05463748D4
S31508001B5001682846FEF772FB324948622146314839
S31508001B6004F072FF3249097801EB8100FEF748FC60
S31508001B7005462C48816A2846FEF75AFB2D49086017
S31508001B802B49097801EB8100FEF73AFC0546254802
S31508001B90816A2846FEF7FAFA27490860244909782F
S31508001BA001EB8100FEF72CFC05461E48816A284693
S31508001BB0FEF73EFB214908601D49097801EB8100C3
S31508001BC0FEF71EFC05461748816A2846FEF7DEFA28
S31508001BD01B4908601B480068164948621A4800688D
S31508001BE01549486219480068144948621848006847
S31508001BF01349486221460F4804F026FF21460E483D
S31508001C0004F022FF21460D4804F01EFF21460C4829
S31508001C1004F01AFF70BD00003000002020030020E9
S31508001C20FC03002054030020F0030020986D0008F0
S31508001C30740000205002002084020020B802002010
S31508001C40EC0200200C0000201000002014000020E8
S31508001C501800002070B504463A4800683A490860FA
S31508001C603A48806848622146374804F0EDFE36480F
S31508001C70806A374908603749B1F90A00FEF7C0FBA0
S31508001C800546354801682846FEF7D8FA30494862BD
S31508001C9021462F4804F0D8FE304909784800FEF757
S31508001CA0AFFB05462A48816A2846FEF7C1FA2C4941
S31508001CB008602A4909784800FEF7A2FB0546244829
S31508001CC0816A2846FEF762FA264908602349097898
S31508001CD04800FEF795FB05461D48816A2846FEF72B
S31508001CE0A7FA214908601D4909784800FEF788FBCC
S31508001CF005461748816A2846FEF748FA1B490860D0
S31508001D001B480068164948621A480068154948621F
S31508001D101948006814494862184800681349486217
S31508001D2021460F4804F090FE21460E4804F08CFE2A
S31508001D3021460D4804F088FE21460C4804F084FE2E
S31508001D4070BD00003000002020030020FC030020A6
S31508001D5054030020F0030020986D0008740000204A
S31508001D605002002084020020B8020020EC02002065
S31508001D700C0000201000002014000020180000208D
S31508001D802DE9F04102460025002600200023002404
S31508001D90002791F803C00CF00F0591F803C00CF06A
S31508001DA0100CBCF1000F03D091F802C04CEA0505EF
S31508001DB091F800C0BCF1000F31D0146800202BE068
S31508001DC04FF0010C0CFA00F3B1F800C00CEA030658
S31508001DD09E4220D183004FF00F0C0CFA03F7BC4348
S31508001DE005FA03FC4CEA040491F803C0BCF1280F79
S31508001DF006D14FF0010C0CFA00FCC2F814C00AE038
S31508001E0091F803C0BCF1480F05D14FF0010C0CFA4C
S31508001E1000FCC2F810C0401C0828D1D31460B1F8E1
S31508001E2000C0BCF1FF0F34DD546800202EE000F13D
S31508001E30080C4FF0010808FA0CF3B1F800C00CEAD8
S31508001E4003069E4221D183004FF00F0C0CFA03F7CC
S31508001E50BC4305FA03FC4CEA040491F803C0BCF140
S31508001E60280F05D100F1080C08FA0CF8C2F81480FE
S31508001E7091F803C0BCF1480F07D100F1080C4FF0E8
S31508001E80010808FA0CF8C2F81080401C0828CED3BE
S31508001E905460BDE8F0810000F0B50A46002300242E
S31508001EA00021002500F00046B6F1004F02D11D4E74
S31508001EB0F16901E01B4E7168C0F3034583B200F473
S31508001EC04016B6F5401F08D121F07061154E7668A8
S31508001ED026F07066134F7E6012E000F48016B6F5A1
S31508001EE0801F06D1032606FA05F4A14341F0706166
S31508001EF006E0460D360103FA06F6B14341F0706175
S31508001F0022B1460D360103FA06F6314300F00046C3
S31508001F10B6F1004F02D1034EF16101E0014E716046
S31508001F20F0BD000000000140416170470161704743
S31508001F3007B5A2B04FF07C512498FEF77FF90F90B1
S31508001F40FE4880680B90FD4800680A900B99FEF7DA
S31508001F5075F90D90F948C0680B90F84840680A90E2
S31508001F600B99FEF76BF90C900D99FEF761F94FF096
S31508001F7080410E90FEF762F91E90F048C0680B90FB
S31508001F80EE4880680A900B99FEF758F90D90EB48D1
S31508001F9040680B90E94800680A900B99FEF74EF9DD
S31508001FA00C900D99FEF7F2F84FF080410E90FEF76F
S31508001FB045F91F90E14880680A90E04880680990D2
S31508001FC00A99FEF73BF90C90DC4840680A90DB4812
S31508001FD0406809900A99FEF731F90B900C99FEF7BB
S31508001FE0D5F84FF080410D90FEF728F94FF07E5155
S31508001FF00E90FEF720F92090D148B0F90400099018
S31508002000FEF7FEF90B90CE48B0F904000990FEF7EA
S31508002010F7F90A900B99FEF711F90D90C848B0F92F
S3150800202002000790FEF7ECF90990C548B0F90200DE
S315080020300790FEF7E5F908900999FEF7FFF80B9067
S31508002040BF48B0F900000790FEF7DAF90990BC48D6
S31508002050B0F900000790FEF7D3F908900999FEF742
S31508002060EDF80A900B99FEF791F80C900D99FEF78A
S315080020708DF80E9001F0BAFDB24908602298B0F9C1
S3150800208000000D90FEF7BCF90E90AE4801680E9858
S31508002090FEF7D4F81B902298B0F902000D90FEF7CF
S315080020A0AFF90E90A74801680E98FEF7C7F81C907E
S315080020B02298B0F904000D90FEF7A2F90E90A148F7
S315080020C001680E98FEF7BAF81D901F980C901D9897
S315080020D00B900C99FEF7B2F80E9020980C901C986D
S315080020E00B900C99FEF7AAF80D900E99FEF7A0F83A
S315080020F0159020980C901B980B900C99FEF79EF85B
S315080021000E901E980C901D980B900C99FEF796F859
S315080021100D900E99FEF78CF816901E980C901C9848
S315080021200B900C99FEF78AF80E901F980C901B9846
S315080021300B900C99FEF782F80D900E99FEF778F839
S31508002140179015980D90804801680D98FEF776F857
S315080021500E907E48006801460D900E98FEF716F818
S315080021607A49086016980D90774801680D98FEF729
S3150800217065F80E907548406801460D900E98FEF772
S3150800218005F87249486017980D906F4801680D98D0
S31508002190FEF754F80E906D48806801460D900E982B
S315080021A0FDF7F4FF69498860159801460B90684861
S315080021B00068FEF743F80D902298B0F906000A90D9
S315080021C0FEF71EF963490B90FEF738F80C900D9947
S315080021D0FDF7DCFF0E905D48006801460D900E98ED
S315080021E0FDF7D4FF1890169801460B9058480068DA
S315080021F0FEF724F80D902298B0F908000A90FEF729
S31508002200FFF854490B90FEF719F80C900D99FDF755
S31508002210BDFF0E904D48406801460D900E98FDF79B
S31508002220B5FF1990179801460B9049480068FEF7C4
S3150800223005F80D902298B0F90A000A90FEF7E0F822
S3150800224044490B90FDF7FAFF0C900D99FDF79EFF98
S315080022500E903E48806801460D900E98FDF796FF51
S315080022601A901A980B903548C0680A900B99FDF792
S31508002270E5FF0D90199809903048806808900999EB
S31508002280FDF7DCFF0B902D48406880F00040099070
S315080022901898014608900998FDF7D0FF0A900B99FF
S315080022A0FDF7C6FF0C900D99FDF7C2FF0E900F992A
S315080022B0FDF7C4FF14901A980B90204880680A907E
S315080022C00B99FDF7BBFF0D90199809901B48C0683C
S315080022D008900999FDF7B2FF0B90189809901748CE
S315080022E0006808900999FDF7A9FF0A900B99FDF770
S315080022F09FFF0C900D99FDF749FF0E900F99FDF77A
S315080023009DFF13901A980B900C4840680A900B99F9
S31508002310FDF794FF0D9019980990084800680890F1
S315080023200999FDF78BFF0B90189809900348C06828
S3150800233008900999FDF782FF0A900DE0CC0000206D
S31508002340F0030020C8000020280100201404002003
S31508002350240100202E9E8B3A0B99FDF717FF0C904F
S315080023600D99FDF765FF0E900F99FDF767FF12901F
S315080023701A980B90B34800680A900B99FDF75EFF10
S315080023800D9019980990AF48406808900999FDF78B
S3150800239055FF0B90AB48806880F00040099018986C
S315080023A0014608900998FDF749FF0A900B99FDF731
S315080023B0EDFE0C900D99FDF7E9FE0E900F99FDF7CD
S315080023C03DFF11909F4800680E901499FDF7DEFEB8
S315080023D09C490860084640680E901399FDF7D6FE9A
S315080023E098494860084680680E901299FDF7CEFE17
S315080023F0944988600846C0680E901199FDF7C6FE94
S315080024009049C8600846C0680B900846C0680A909C
S315080024100B99FDF713FF0D908A4880680990894843
S31508002420806808900999FDF709FF0B908548406870
S3150800243007908448406806900799FDF7FFFE0990C3
S315080024408048006807907F48006806900799FDF75E
S31508002450F5FE08900999FDF799FE0A900B99FDF784
S3150800246095FE0C900D99FDF791FE0E9001F0BEFBBE
S315080024701090744800680E901099FDF7DFFE7149B8
S315080024800860084640680E901099FDF7D7FE6D491A
S315080024904860084680680E901099FDF7CFFE694996
S315080024A088600846C0680E901099FDF7C7FE654912
S315080024B0C8602298B0F90A000C90FDF7A1FF62499E
S315080024C00D90FDF7BBFE0E904FF07E510E98FDF76E
S315080024D0F7FF04D35D490E98FDF7E8FF0DD224995E
S315080024E00E98FDF7ABFE0D902398806801460C9078
S315080024F00D98FDF74BFE23998860524840680146BF
S3150800250003904FF08040FDF799FE04904D48C0684F
S31508002510014603900498FDF791FE06904948006825
S31508002520014603904FF08040FDF788FE0490454829
S315080025308068014603900498FDF780FE0590069989
S31508002540FDF776FE0790FDF782FFCDE9080103F057
S3150800255097FD4FF000523E4BCDE90A01FDF7DEFE2E
S31508002560CDE90C01FDF786FF239948603548806858
S31508002570014601904FF08040FDF760FE0290314819
S315080025808068014601900298FDF758FE04902D4890
S315080025904068014600904FF08040FDF74FFE0190DD
S315080025A028484068014600900198FDF747FE4FF01D
S315080025B07E510290FDF73FFE03900499FDF738FE21
S315080025C00590FDF744FFCDE908011E48006801465D
S315080025D001904FF08040FDF731FE0290194840689F
S315080025E0014601900298FDF729FE04901548806877
S315080025F0014601904FF08040FDF720FE02901148F9
S31508002600C068014601900298FDF718FE03900499E8
S31508002610FDF7BCFD0590FDF71AFFCDE90601DDE9DA
S31508002620082303F075FF4FF00052094BCDE90A0164
S31508002630FDF774FECDE90C01FDF71CFF2399086030
S3150800264025B000BDCC000020F6FF793D000080BF14
S31508002650DCA54C4010B504F0A5F80446FDF7D0FEFD
S315080026600B49086004F0E8FA0446FDF7C9FE094973
S31508002670086004F039F80446FDF7C2FE064908600A
S3150800268004F07CFA0446FDF7BBFE0449086010BD59
S315080026900C00002010000020140000201800002064
S315080026A000BFFEE700B54FF400600F49086000F070
S315080026B023F94FF480600C49086000F01DF94FF4C7
S315080026C000600949091F086000F016F900F014F9BE
S315080026D000F012F900F010F94FF4006002490860A2
S315080026E000F00AF900BD0000140C014000B54FF4D3
S315080026F000600F49086000F0FFF84FF480600C494D
S31508002700091F086000F0F8F84FF400600849091F2F
S31508002710086000F0F1F800F0EFF800F0EDF800F0CE
S31508002720EBF84FF400600249086000F0E5F800BDD8
S31508002730140C014000B508220021D001154B186081
S315080027401CE04806010E4FF40060124B1B1D186072
S3150800275000F0D2F800F0D0F84FF400600D4B186086
S3150800276000F0CAF800F0C8F800F0C6F809480838BA
S31508002770006800F4806008B141F00101101EA2F162
S315080027800103DAB2DDD14FF40060024B1B1D18605D
S31508002790084600BD100C014000B50146082221E09C
S315080027A04FF40060144B186000F0A6F801F08000A2
S315080027B028B14FF48060104B1B1F186003E04FF4DC
S315080027C080600D4B18604806010E00F095F84FF42E
S315080027D00060094B1B1F186000F08EF800F08CF89B
S315080027E000F08AF8101EA2F10103DAB2D8D14FF42C
S315080027F00060014B186000BD140C014000B54FF491
S315080028008060154908604000086000F075F81248B5
S315080028100838006808B9012000E0002000F480604C
S3150800282008B1012000BD4FF480600B49091D0860FE
S3150800283000F062F808480838006800F4806008B1BB
S315080028400120EFE74FF400600349091D086000F016
S3150800285053F80020E6E70000100C014000B54FF4DD
S3150800286000600D49086000F047F84FF480600A4997
S31508002870086000F041F800F03FF84FF400600649A0
S31508002880091F086000F038F84FF480600249091FF4
S31508002890086000F031F800BD140C014000B54FF493
S315080028A000601449086000F027F84FF48060114969
S315080028B0091F086000F020F84FF400600D49091F51
S315080028C0086000F019F800F017F800F015F8094844
S315080028D00C38006800F4806028B14FF400600549A0
S315080028E00860012000BD4FF400600249086000201E
S315080028F0F8E70000140C014008B50220009004E037
S315080029009DF80000401EC0B200909DF80000002807
S31508002910F6D108BD08B50121082001F09FF94FF44A
S315080029204060ADF8000003208DF8020014208DF8F1
S31508002930030069460148FFF723FA08BD000C014069
S3150800294070B504460D460026FFF758FF012800D14A
S3150800295070BD2046FFF720FFFFF7A0FF012803D12F
S31508002960FFF77CFF0120F3E72846FFF715FFFFF77F
S3150800297095FFFFF773FFFFF741FF611CC8B2FFF72A
S315080029800BFFFFF78BFF012803D1FFF767FF012035
S31508002990DEE7FFF7CFFE0646FFF7A8FEFFF75EFF66
S315080029A070B2D5E770B506460C461546FFF726FF02
S315080029B0012800D170BD3046FFF7EEFEFFF76EFF27
S315080029C0012803D1FFF74AFF0120F3E72046FFF766
S315080029D0E3FEFFF763FF2846FFF7DEFEFFF75EFF1D
S315080029E0FFF73CFF0020E5E72DE9F04106460F46D4
S315080029F015461C46FFF702FF012801D1BDE8F08104
S31508002A003046FFF7C9FEFFF749FF012803D1FFF754
S31508002A1025FF0120F2E73846FFF7BEFEFFF73EFF27
S31508002A20FFF71CFFFFF7EAFE711CC8B2FFF7B4FEFA
S31508002A30FFF734FF012803D1FFF710FF0120DDE778
S31508002A400CE0FFF777FE2870012C02D1FFF74EFE47
S31508002A5001E0FFF727FE6D1C601EC4B2002CF0D102
S31508002A60FFF7FCFE0020C9E72448254908612548E8
S31508002A7048610020C8604FF07E50086000208860DA
S31508002A801E48214908611F4848610020C8604FF068
S31508002A907E5008600020886018481C49086119485B
S31508002AA048610020C8604FF07E50086000208860AA
S31508002AB0124817490861134848610020C8604FF05A
S31508002AC07E500860002088600C48124908610D484D
S31508002AD048610020C8604FF07E500860002088607A
S31508002AE006480D490861074848610020C8604FF04C
S31508002AF07E50086000208860704700006666663E63
S31508002B00380200209A99D93EC0010020D801002039
S31508002B10F0010020080200202002002070B50446BB
S31508002B204F485049086050485049086000215048AD
S31508002B300068FDF7BBFC05D000214E480068FDF78C
S31508002B40B5FC04D100204749086048490860484850
S31508002B500068444948624748006844494862214633
S31508002B60404803F071FF2146404803F06DFF424894
S31508002B7000684249086042488068486221463F48E2
S31508002B8003F062FF3D48806A3E4908603E49B1F954
S31508002B900A00FDF735FC05463C4801682846FDF75E
S31508002BA04DFB384948622146364803F04DFF2F4A07
S31508002BB0916A2C4A906AFDF7E9FA05462F48816A18
S31508002BC02846FDF735FB32490860284A916A254AA6
S31508002BD0906AFDF72DFB05462848816A2846FDF7C9
S31508002BE0D5FA2C490860214A916A1E4A906AFDF76F
S31508002BF01FFB05462148816A2846FDF719FB264929
S31508002C0008601A4A916A174A906AFDF7BFFA05469C
S31508002C101A48816A2846FDF7B9FA2049086020480B
S31508002C2000681B4948621F4800681A4948621E48DE
S31508002C300068194948621D480068184948622146D3
S31508002C40134803F001FF2146124803F0FDFE214612
S31508002C50114803F0F9FE2146104803F0F5FE70BD51
S31508002C6000809D438803002000006143BC030020C8
S31508002C70280000202C00002030000020200300201F
S31508002C80FC03002054030020F0030020986D000880
S31508002C905002002084020020B8020020EC02002026
S31508002CA00C0000201000002014000020180000204E
S31508002CB070B504464F485049086050485049086066
S31508002CC0002150480068FDF7F1FB05D000214E4869
S31508002CD00068FDF7EBFB04D1002047490860484926
S31508002CE008604848006844494862474800684449BB
S31508002CF048622146404803F0A7FE2146404803F0B3
S31508002D00A3FE424800684249086042488068486213
S31508002D1021463F4803F098FE3D48806A3E490860D0
S31508002D203E49B1F90A00FDF76BFB05463C480168C8
S31508002D302846FDF783FA384948622146364803F0A3
S31508002D4083FE2F4A916A2C4A906AFDF71FFA0546B8
S31508002D502F48816A2846FDF76BFA32490860284AE7
S31508002D60916A254A906AFDF763FA05462848816AFA
S31508002D702846FDF70BFA2C490860214A916A1E4A33
S31508002D80906AFDF755FA05462148816A2846FDF7F7
S31508002D904FFA264908601A4A916A174A906AFDF757
S31508002DA0F5F905461A48816A2846FDF7EFF92049DC
S31508002DB00860204800681B4948621F4800681A498D
S31508002DC048621E480068194948621D480068184943
S31508002DD048622146134803F037FE2146124803F09D
S31508002DE033FE2146114803F02FFE2146104803F012
S31508002DF02BFE70BD00809D438803002000003E43E3
S31508002E00BC030020280000202C00002030000020F1
S31508002E1020030020FC03002054030020F0030020B8
S31508002E20986D00085002002084020020B802002095
S31508002E30EC0200200C0000201000002014000020E6
S31508002E401800002000BFFEE700B585B00121042068
S31508002E5000F004FF0121082000F000FF10208DF883
S31508002E60130003208DF812001020ADF8100004A9F5
S31508002E701F48FEF785FF2020ADF8100004A91C485E
S31508002E80FEF77EFF4FF48050ADF8100004A91948EC
S31508002E90FEF776FF372000F06BFA0121202000F0BC
S31508002EA0CDFEC720ADF808002C20ADF8040001A916
S31508002EB0114801F0F7FF01210F4801F093FD4FF487
S31508002EC0A06000F099FA37208DF8000002208DF8EE
S31508002ED0010000208DF8020001208DF803006846E5
S31508002EE000F052FA0121044801F082FD05B000BD48
S31508002EF0000C014000080140001400400020014970
S31508002F00087070470200002008B50121042000F06F
S31508002F10A5FE0121082000F0A1FE0121102000F0E5
S31508002F209DFE0121084600F099FE01211D48FEF785
S31508002F30B3FF10208DF803000320ADF800008DF8CC
S31508002F40020069461848FEF71BFF10208DF803009B
S31508002F504FF44050ADF8000003208DF80200694692
S31508002F601248FEF70DFF10208DF803000C20ADF86F
S31508002F70000003208DF8020069460B48FEF700FFA3
S31508002F8010208DF803004FF44040ADF800000320F0
S31508002F908DF8020069460548FEF7F2FE00F054FA7D
S31508002FA008BD00000002300000100140000C01407E
S31508002FB010B50446002C0BDB08210C48FEF7B4FFBD
S31508002FC004210A48FEF7B2FFA0B200F0B3FA0BE0FC
S31508002FD008210648FEF7AAFF04210448FEF7A4FFC5
S31508002FE0614288B200F0A6FA10BD00000010014048
S31508002FF010B50446002C0BDB01210C48FEF794FFA4
S3150800300002210A48FEF792FFA0B200F089FA0BE007
S3150800301001210648FEF78AFF02210448FEF784FFCD
S31508003020614288B200F07CFA10BD00000010014031
S3150800303010B50446002C0DDB4FF480410D48FEF711
S3150800304073FF4FF400410B48FEF770FFA0B200F083
S3150800305085FA0DE04FF480410648FEF767FF4FF406
S3150800306000410448FEF760FF614288B200F076FA34
S3150800307010BD0000000C014010B50446002C0DDB05
S315080030804FF400510D48FEF74FFF4FF480510B489F
S31508003090FEF74CFFA0B200F057FA0DE04FF40051CE
S315080030A00648FEF743FF4FF480510448FEF73CFFFD
S315080030B0614288B200F048FA10BD0000000C0140D9
S315080030C02DE9FE4F06236A463B21D020FFF78CFCEC
S315080030D006230DF106024321D020FFF785FC0024C4
S315080030E058E0012000EB44001DF800001DF81410FC
S315080030F040EA0120294931F81410401A00B228493B
S31508003100096821F81400032C1BDA2549096831F9E6
S315080031101400FDF775F9054604EB4401214A02EB54
S31508003120C100294603F0B4FA04EB44011D4A02EB38
S31508003130C1018868FDF772F900B21949096821F8D2
S315080031401400022C24DDE01EC5B2DFF85C801449A9
S31508003150096831F91400FDF753F982464146FDF72F
S315080031606DF80746114951F825001149FDF766F82B
S3150800317081463946FDF70AF80C4941F82500064606
S31508003180FDF74CF900B20649096821F8140000BF9A
S31508003190601CC4B2062CA4DBBDE8FE8F0804002020
S315080031A0C4000020DC0000209A99193E2004002063
S315080031B09A99593FF0B58BB0182105A8FCF7DBFFA3
S315080031C01E250526774200200390049040480021DA
S315080031D00160416081604FF400503D4988800022BB
S315080031E001213C4801F0B3FC3BE000BF0A20FEF792
S315080031F06AFCFFF765FF002416E037480168E01C03
S3150800320031F8100003A931F81410401A00B201A9C8
S3150800321021F8140030480168E01C31F8100003A9B1
S3150800322021F81400601C04B2032CE6DBBDF9040087
S315080032300528DBDCBDF9040010F1050FD6DBBDF966
S3150800324006000528D2DCBDF9060010F1050FCDDB16
S31508003250BDF908000528C9DCBDF9080010F1050FFD
S31508003260C4DB281EA5F10101CDB2BED1002417E0AA
S31508003270FFF726FF642C11DB00200CE005A951F8A6
S315080032802010154A126832F91020114405AA42F88E
S315080032902010411CC8B20628F0DB00BF601C04B22F
S315080032A0B4F5B27FE4DB002409E005A850F8240051
S315080032B0001200B2064921F81400601C04B2062C5C
S315080032C0F3DB01221146034801F041FC0BB0F0BDC7
S315080032D00804002000100040C400002010B5002497
S315080032E000BF80226B21D020FFF75CFBC4B21E20F2
S315080032F0FEF7E9FB02221921D020FFF753FB2044F1
S31508003300C4B203226B21D020FFF74CFB2044C4B281
S3150800331003221A21D020FFF745FB2044C4B2182205
S315080033201B21D020FFF73EFB2044C4B209221C21F2
S31508003330D020FFF737FB2044C4B2002CD1D1752129
S31508003340D020FFF7FDFAC4B2682C01D0012010BDC9
S315080033500020FCE77047000000F01F0201219140A1
S31508003360024A430942F823107047000080E100E052
S3150800337000F01F02012191404209920002F1E02269
S31508003380C2F800117047000070B5002100230F2213
S31508003390C47804B3154C246804F4E064C4F5E06406
S315080033A0210AC1F10403CA40447804FA03F1847877
S315080033B01440214309010E4C0678A155047804F0FF
S315080033C01F050124AC4005786D11AD0005F1E02517
S315080033D0C5F8004109E0047804F01F050124AC4053
S315080033E0044D0678761145F8264070BD0CED00E0D0
S315080033F000E400E080E100E002490143024A11606E
S31508003400704700000000FA050CED00E010B5044610
S315080034102146024801F011FD10BD0000002C0140B4
S3150800342010B504462146024801F009FD10BD00000A
S31508003430002C014010B504462146024801F001FD62
S3150800344010BD0000002C014000B589B001214803D9
S3150800345000F004FC0121102000F000FC18208DF873
S3150800346023004FF47070ADF8200003208DF8220079
S3150800347008A92948FEF784FC284801F071FB0020BA
S31508003480ADF81A00ADF8160040F2E730ADF81800AE
S315080034900B20ADF8140000208DF81C0005A91F4864
S315080034A001F000FD01A801F0BCFC6020ADF80400A5
S315080034B00020ADF80C000120ADF806000020ADF89C
S315080034C00A0001A9154801F051FB01A9134801F0AA
S315080034D0A3FB01A9114801F0FFFB01A90F4801F060
S315080034E055FC08210D4801F08DFB08210B4801F019
S315080034F0E5FB0821094801F03FFC0821074801F0CF
S3150800350083FC0121054801F07FFA0121034801F0F7
S315080035106FFA09B000BD00000010014000340140F8
S3150800352010B504462146024801F085FC10BD00008E
S315080035300034014010B504462146024801F07DFCDE
S3150800354010BD00000034014010B50446214602486B
S3150800355001F075FC10BD00000034014010B50446AA
S315080035602146024801F06DFC10BD00000034014000
S315080035707047000010B53F4800780C2805D13E4832
S3150800358000F0E6FBFEF70AFA73E03A480078FF28EF
S3150800359002D100F0E5FF6CE0364800780D2805D129
S315080035A03548FEF7BDFAFEF7F9F962E031480078CA
S315080035B00E2805D1304801F067FDFEF7EFF958E00F
S315080035C02C4800780F2805D12B48FFF7A7FAFEF7F5
S315080035D0E5F94EE027480078102805D1264801F07D
S315080035E0B3FCFEF7DBF944E022480078172805D13A
S315080035F0214801F0E3FDFEF7D1F93AE01D480078CD
S31508003600112805D11C48FDF78DFAFEF7C7F930E0F9
S3150800361018480078122805D11748FFF749FBFEF726
S31508003620BDF926E013480078132805D11248FEF79D
S3150800363011FBFEF7B3F91CE00E480078142805D1F3
S315080036400D4800F0F9FCFEF7A9F912E009480078E0
S31508003650152805D1084800F0F7FBFEF79FF908E0A2
S3150800366004480078162804D1034800F069FCFEF7E0
S3150800367095F910BD540000200AD7A33B10B504469F
S31508003680012C50D17D48007838B9AE207C490870A5
S3150800369000F0CCFD012079490870002179480068BE
S315080036A0FCF704FF11D0002177480068FCF7FEFEFE
S315080036B00BD07648007840B97548007828B975481F
S315080036C0007810B912207449087074496D4800686A
S315080036D0FCF7F6FE26D872496A480068FCF7E6FE4B
S315080036E0F8D8704968480068FCF7EAFEF2D86E49CF
S315080036F065480068FCF7DAFEECD8644800780028CC
S3150800370010D1FF2064490870624800780028F7D174
S3150800371001205B49087000F089FD01205C490870AA
S315080037205C490870A8E0022C53D16048007838B983
S31508003730AF205349087000F079FD01205B490870F5
S31508003740002150480068FCF7B1FE11D000214E4810
S315080037500068FCF7ABFE0BD05548007840B95548D1
S31508003760007828B95448007810B912204A490870D8
S315080037704A4944480068FCF7A3FE7DD848494148B1
S315080037800068FCF793FE77D846493F480068FCF77F
S3150800379097FE71D844493C480068FCF787FE6BD809
S315080037A043480078002867D1FF203B490870424803
S315080037B0007820B901203249087000F037FD3E48EC
S315080037C00078002858D101203A4908703A4908700B
S315080037D052E0032C50D13948007838B9BA20284924
S315080037E0087000F023FD012034490870002125489F
S315080037F00068FCF75BFE11D0002123480068FCF73F
S3150800380055FE0BD02E48007840B92E48007828B9C6
S315080038102D48007810B912201F4908701F49194809
S315080038200068FCF74DFE27D81D4916480068FCF7C6
S315080038303DFE21D81B4914480068FCF741FE1BD8F9
S31508003840194911480068FCF731FE15D81C4800785C
S3150800385090B9FF20104908701B48007820B901204C
S315080038600749087000F0E2FC1748007820B90120E3
S31508003870144908701449087010BD0000880000201B
S315080038801C000020280000202C00002075000020C5
S31508003890700000207F00002054000020008098431C
S315080038A00080A243000034430000484389000020FA
S315080038B07700002072000020810000208A00002086
S315080038C076000020710000208000002010B5044614
S315080038D0012C53D14FF41670FFF7A2FD40F62E10B7
S315080038E0FFF7A8FDFFF70AFB40F2DC50FEF7EBF8FE
S315080038F07948FEF77DF84FF47A70FEF7E4F84FF44E
S315080039009670FFF783FD4FF47A70FEF7DCF8FFF741
S31508003910F5FA714801F056FD4FF48760FFF78AFD06
S315080039204FF47A70FEF7CFF8FFF7E8FA4FF47A709B
S31508003930FEF7C9F869480078052803D16848FEF7F4
S3150800394057F802E06748FEF753F84FF47A70FEF727
S31508003950BAF84FF4FA70FFF759FDFFF7CFFA5F4848
S315080039600078052803D15E4801F02CFD02E05D4889
S3150800397001F028FD4FF47A70FEF7A5F8022C53D112
S315080039804FF48760FFF74CFD40F6FC00FFF752FD49
S31508003990FFF7B4FA4FF4FA70FEF795F84E48FEF7BB
S315080039A027F84FF47A70FEF78EF84FF49670FFF703
S315080039B02DFD4FF47A70FEF786F8FFF79FFA464812
S315080039C001F000FD4FF48760FFF734FD4FF47A707D
S315080039D0FEF779F8FFF792FA4FF47A70FEF773F864
S315080039E03E480078052803D13D48FEF701F802E075
S315080039F03C48FDF7FDFF4FF47A70FEF764F84FF484
S31508003A00FA70FFF703FDFFF779FA344800780528BE
S31508003A1003D1334801F0D6FC02E0324801F0D2FC6B
S31508003A204FF47A70FEF74FF8032C53D140F2AE608C
S31508003A30FFF7F6FC40F6FC00FFF7FCFCFFF75EFA22
S31508003A404FF4FA70FEF73FF82348FDF7D1FF4FF41D
S31508003A507A70FEF738F84FF49670FFF7D7FC4FF4F4
S31508003A607A70FEF730F8FFF749FA1B4801F0AAFC0E
S31508003A704FF48760FFF7DEFC4FF47A70FEF723F801
S31508003A80FFF73CFA4FF47A70FEF71DF813480078F2
S31508003A90052803D11248FDF7ABFF02E01148FDF7F0
S31508003AA0A7FF4FF47A70FEF70EF84FF4FA70FFF797
S31508003AB0ADFCFFF723FA09480078052803D1084822
S31508003AC001F080FC02E0074801F07CFC4FF47A70B4
S31508003AD0FDF7F9FF10BD0000CDCCCC3F8E000020CD
S31508003AE00000C0409A99254110B53848007803214E
S31508003AF090FBF1F201FB1200344908700846007881
S31508003B00401C087008460078FFF7E0FE4FF47A700C
S31508003B10FDF7D9FF2D480078012819D106212C4830
S31508003B2002F07CFF01202B49087000202A49087002
S31508003B302A4908702A48807829494978884203DC46
S31508003B4011202849087040E00D20264908703CE0FD
S31508003B501E480078022819D106211D4802F05EFF8A
S31508003B6001201E49087000201B4908701949087071
S31508003B701B48C0781A498978884203DC11201949FC
S31508003B80087022E00D20174908701EE00F480078DB
S31508003B9003281AD106210E4802F040FF00200F49DB
S31508003BA008700D4908700B4908700F4800780228FC
S31508003BB003D00D480078052807D115200949087053
S31508003BC0AD200749087000F031FB10BDBC0000208D
S31508003BD09C00002079000020780000207A00002050
S31508003BE01C000020540000208E0000202DE9F05F04
S31508003BF004464FF07F594FF07C512046FCF71EFBD8
S31508003C00824625462E460C48A0EB660635462946CA
S31508003C105046FCF713FB83462946FCF70FFB804604
S31508003C204946FCF708FB07462946FCF707FB054605
S31508003C302846BDE8F09F0000DF59375F29B1064ADC
S31508003C40D2690243044BDA6104E0034AD26982432B
S31508003C50014BDA61704700000010024029B1064A9C
S31508003C6092690243044B9A6104E0034A92698243CB
S31508003C70014B9A61704700000010024030B50021E0
S31508003C800022002400232D4D6D6805F00C0121B19A
S31508003C90042905D0082923D105E0294D056022E02D
S31508003CA0274D05601FE0254D6D6805F47012234DFC
S31508003CB06D6805F48034022505EB92421CB9214D46
S31508003CC0554305600BE01D4D6D6805F400351DB1C3
S31508003CD01C4D5543056002E0194D5543056002E049
S31508003CE0174D056000BF00BF144D6D6805F0F00163
S31508003CF00909154D6B5C0568DD4045600F4D6D681B
S31508003D0005F4E061090A104D6B5C4568DD40856085
S31508003D100A4D6D6805F46051C90A0B4D6B5C456820
S31508003D20DD40C560054D6D6805F44041890B074DBA
S31508003D306B5CC568B5FBF3F5056130BD0010024044
S31508003D4000127A0000093D003E0000204E000020C7
S31508003D5070B504462F4930480068FCF717FA2F4912
S31508003D6008602F488068486221462C4802F06CFE9D
S31508003D702C480078FCF74DFB05462848816A2846FA
S31508003D80FCF756FA2849086026480078FCF741FBF4
S31508003D9005462248816A2846FCF7F8F9234908604F
S31508003DA020480078FCF735FB05461C48816A2846FA
S31508003DB0FCF73EFA1E4908601A480078FCF729FB0A
S31508003DC005461648816A2846FCF7E0F9194908604D
S31508003DD01948006814494862184800681349486237
S31508003DE0174800681249486216480068114948622F
S31508003DF021460D4802F028FE21460C4802F024FE12
S31508003E0021460B4802F020FE21460A4802F01CFE15
S31508003E1070BD0000000096423000002020030020FC
S31508003E20FC030020740000205002002084020020B9
S31508003E30B8020020EC0200200C0000201000002030
S31508003E40140000201800002070B504462F49304899
S31508003E500068FCF7EDF92F4908602F48806848622A
S31508003E6021462C4802F0F0FD2C480078FCF7D1FAE0
S31508003E7005462848816A2846FCF7DAF92849086081
S31508003E8026480078FCF7C5FA05462248816A28467E
S31508003E90FCF77CF92349086020480078FCF7B9FA52
S31508003EA005461C48816A2846FCF7C2F91E4908607F
S31508003EB01A480078FCF7ADFA05461648816A28467E
S31508003EC0FCF764F9194908601948006814494862FA
S31508003ED0184800681349486217480068124948623A
S31508003EE0164800681149486221460D4802F0ACFDA3
S31508003EF021460C4802F0A8FD21460B4802F0A4FD15
S31508003F0021460A4802F0A0FD70BD00000000964256
S31508003F103000002020030020FC030020740000204D
S31508003F205002002084020020B8020020EC02002083
S31508003F300C000020100000201400002018000020AB
S31508003F4070B504462F4930480068FCF71FF92F4919
S31508003F5008602F488068486221462C4802F074FDA4
S31508003F602C480078FCF755FA05462848816A284601
S31508003F70FCF75EF92849086026480078FCF749FAF4
S31508003F8005462248816A2846FCF700F92349086055
S31508003F9020480078FCF73DFA05461C48816A284601
S31508003FA0FCF746F91E4908601A480078FCF731FA0A
S31508003FB005461648816A2846FCF7E8F81949086054
S31508003FC01948006814494862184800681349486245
S31508003FD0174800681249486216480068114948623D
S31508003FE021460D4802F030FD21460C4802F02CFD12
S31508003FF021460B4802F028FD21460A4802F024FD16
S3150800400070BD000000001643300000202003002089
S31508004010FC030020740000205002002084020020C7
S31508004020B8020020EC0200200C000020100000203E
S31508004030140000201800002070B504462F493048A7
S315080040400068FCF7A3F82F4908602F488068486283
S3150800405021462C4802F0F8FC2C480078FCF7D9F9E0
S3150800406005462848816A2846FCF7E2F82849086088
S3150800407026480078FCF7CDF905462248816A284685
S31508004080FCF784F82349086020480078FCF7C1F952
S3150800409005461C48816A2846FCF7CAF81E49086086
S315080040A01A480078FCF7B5F905461648816A284685
S315080040B0FCF76CF819490860194800681449486201
S315080040C01848006813494862174800681249486248
S315080040D0164800681149486221460D4802F0B4FCAA
S315080040E021460C4802F0B0FC21460B4802F0ACFC15
S315080040F021460A4802F0A8FC70BD0000000096425E
S315080041003000002020030020FC030020740000205B
S315080041105002002084020020B8020020EC02002091
S315080041200C000020100000201400002018000020B9
S315080041307047000000B587B00121C804FFF77EFD6F
S3150800414001211020FFF78AFD4FF48060ADF81800B2
S3150800415018208DF81B0003208DF81A0006A922489E
S31508004160FDF70EFE4FF40060ADF8180048208DF8F4
S315080041701B0003208DF81A0006A91B48FDF700FE50
S315080041804FF4165002900020ADF814000C20ADF83C
S3150800419012000020ADF81000ADF80E00ADF80C00C6
S315080041A002A9124801F0F0F9012240F225510F4800
S315080041B001F0C4F94FF4A060FFF71EF934208DF81A
S315080041C0040001208DF8070000208DF80500012065
S315080041D08DF8060001A8FFF7D7F80121034801F07A
S315080041E06AF907B000BD000000100140004C00400D
S315080041F070B505460E46002404E0285D00F006F872
S31508004200601C84B2B442F8DB70BD000010B50446E9
S315080042102146054801F029FA00BF8021024801F02D
S3150800422056F90028F9D010BD004C004010B5FF2003
S31508004230FFF7ECFF04210348FFF7DAFFFE20FFF73C
S31508004240E5FF10BD1C00002000B587B00121080558
S31508004250FFF7F4FC01211020FFF700FD01212020C3
S31508004260FFF7FCFC18208DF81B000420ADF8180099
S3150800427003208DF81A0006A92148FDF781FD1820AC
S315080042808DF81B004FF48050ADF8180003208DF808
S315080042901A0006A91B48FDF773FD4FF4614002900A
S315080042A00020ADF814000C20ADF812000020ADF87F
S315080042B01000ADF80E00ADF80C0002A9124801F086
S315080042C063F9012240F225510F4801F037F94FF4FE
S315080042D0A060FFF791F835208DF8040001208DF8CD
S315080042E0070000208DF805008DF8060001A8FFF7E5
S315080042F04BF80121044801F0DEF807B000BD0000C4
S3150800430000140140001001400050004010B504465A
S315080043102146054801F0A9F900BF8021024801F0AD
S31508004320D6F80028F9D010BD0050004070B50446F4
S31508004330002504E0605DFFF7E9FF681CC5B2605D13
S315080043400028F7D170BD10B5002403E0FF20FFF761
S31508004350DDFF641C032CF9DB10BD0000F8B504462C
S315080043600D46164664210848FBF705FF2B462246EC
S3150800437006A10548009601F07FF90348FFF7D6FF26
S31508004380FFF7E1FFF8BD00003001002025732E2558
S31508004390733D22256422000000B589B00121C802B8
S315080043A0FFF75CFC01210420FFF758FC18208DF864
S315080043B023004FF46060ADF8200003208DF822003A
S315080043C008A92B48FDF7DCFC2A4800F0C9FB0020A9
S315080043D0ADF81A00ADF8160044F61F60ADF81800DF
S315080043E04720ADF8140000208DF81C0005A92148C7
S315080043F000F058FD01A800F014FD4FF48070ADF8E8
S3150800440010006020ADF804000020ADF80C00012073
S31508004410ADF806004FF4FA70ADF80A0001A9154880
S3150800442000F0FAFB4FF41670ADF80A0001A911481E
S3150800443000F052FC4FF48760ADF80A0001A90D4858
S3150800444000F0A4FC01210B4800F0DEFA0821094817
S3150800445000F034FC0821074800F08EFC08210548C6
S3150800446000F0D2FC0121034800F0C2FA09B000BDF1
S3150800447000080140002C014010B500F001F810BDFD
S315080044800CB50020019000903348006840F4803055
S315080044903149086000BF3048006800F400300090D9
S315080044A00198401C0190009818B90198B0F5A06FC2
S315080044B0F1D12948006800F4003010B101200090BD
S315080044C001E0002000900098012843D123480068A5
S315080044D040F01000214908600846006820F00300F3
S315080044E008600846006840F0020008601A484068FC
S315080044F0194948600846406848600846406840F4DC
S31508004500806048600846406820F47C104860084689
S31508004510406840F4E81048600846006840F080703B
S31508004520086000BF0C48006800F000700028F9D049
S315080045300948406820F00300074948600846406873
S3150800454040F00200486000BF0348406800F00C00D5
S315080045500828F9D10CBD00000010024000200240D6
S3150800456010B50020FEF744FD0020FEF785FD00206B
S31508004570FEF71EFD0020FEF75BFD10BD704700002C
S3150800458010B51348006840F0010011490860084654
S315080045904068104908400E494860084600680E49B8
S315080045A008400B4908600846006820F48020086027
S315080045B00846406820F4FE0048604FF41F008860F3
S315080045C0FFF75AFF4FF000600449086010BD00006D
S315080045D0001002400000FFF8FFFFF6FE08ED00E0BD
S315080045E0F0B50C46154600220021068C4FF6FE77DC
S315080045F03E400684028B018C4FF60C7632407E1CB8
S3150800460006EA03162E433243104EB0420ED0104E21
S31508004610B0420BD0B0F1804F08D00E4EB04205D054
S315080046200D4EB04202D00D4EB04206D14FF6FD7681
S31508004630314044F00106314305E04FF6F576314046
S3150800464044F00106314302830184F0BD002C014089
S31508004650003401400004004000080040000C0040FF
S31508004660F0B50C461546002200210026078C4FF6A9
S31508004670EF7C07EA0C070784028B018C4FF6FF775D
S3150800468007EA041640F6FF473A404FF6FF7707EA6F
S3150800469003373A434FF6FF7707EA05273A43114FA0
S315080046A0B8420ED0104FB8420BD0B0F1804F08D0A8
S315080046B00E4FB84205D00E4FB84202D00D4FB84241
S315080046C006D14FF6DF77394046F01007394305E043
S315080046D04FF65F77394044F0100739430283018467
S315080046E0F0BD0000002C01400034014000040040E9
S315080046F000080040000C0040F0B50C4615460022A4
S3150800470000210026078C4FF6FF6C07EA0C07078482
S31508004710828B018C4FF6FF7707EA04264FF60C7753
S315080047203A404FF6FF7707EA03172F433A43114FEC
S31508004730B8420ED0104FB8420BD0B0F1804F08D017
S315080047400E4FB84205D00E4FB84202D00D4FB842B0
S3150800475006D14FF6FF57394046F48077394305E0CE
S315080047604FF2FF57394044F48077394382830184F6
S31508004770F0BD0000002C0140003401400004004058
S3150800478000080040000C0040F0B50C461546002213
S3150800479000210026078C4EF6FF7C07EA0C070784E3
S315080047A0828B018C4FF6FF7707EA043640F6FF47FF
S315080047B03A404FF6FF7707EA05273A434FF6FF7761
S315080047C007EA03373A43114FB8420ED0104FB842A2
S315080047D00BD0B0F1804F08D00E4FB84205D00E4F1F
S315080047E0B84202D00D4FB84206D14DF6FF77394090
S315080047F046F48057394305E047F6FF57394044F4F5
S315080048008057394382830184F0BD0000002C0140A3
S31508004810003401400004004000080040000C00403D
S3150800482010B50121214800F022F900283CD0204883
S315080048300078401C1E4908701E480078401C1D4917
S3150800484008701B480078052190FBF1F201FB120065
S3150800485017490870174800784FF47A7190FBF1F2FF
S3150800486001FB1200134908701148007830B9FEF7A9
S3150800487027FC114A11491248FDF75AFB0C480078E3
S31508004880012801D1FDF7E6FE09480078022801D182
S31508004890FCF714FD06480078032801D1FEF76AFEE6
S315080048A00121024800F0A1F810BD000000100040E8
S315080048B0BF000020C00000200AD7A33BFC0300204D
S315080048C0F00300201FB501211020FFF7B7F941F6C4
S315080048D01F40ADF804000920ADF808000020ADF827
S315080048E0060001A9144800F0DDFA01221146124813
S315080048F000F02DF90121104800F07AF8362000F072
S315080049001F02012191404209920002F1E022C2F8F9
S31508004910001100BF8DF8000001208DF801008DF808
S3150800492002008DF803006846FEF72EFD01210248B5
S3150800493000F05EF81FBD00000010004010B5012110
S31508004940214800F094F801283CD120480078012835
S315080049500FD101031E48FDF7E9FA00201B4908702C
S315080049604FF07E511B480068FBF710FC1949086098
S3150800497012E01648007878B94FF480511448FDF7CC
S31508004980D3FA0120114908704FF07E51114800688A
S31508004990FBF7FCFB0F4908600F4910480068FBF756
S315080049A04DFC04460B4801682046FBF77FFD05D8F9
S315080049B000200849086001200949087001210248B9
S315080049C000F013F810BD000000140040000000209D
S315080049D0000801400400002000C0C7440800002069
S315080049E001000020CA4302827047CA430282704708
S315080049F021B1028842F00102028004E002884FF6E3
S31508004A00FE731A400280704731B1B0F8442042F470
S31508004A100042A0F8442005E0B0F84420C2F30E0294
S31508004A20A0F844207047F0B50C4615461E460021EE
S31508004A30002200230189028B038C4FF6F877394050
S31508004A4021434FF6FC473A4040F201173A434FF6E6
S31508004A50DD773B404FF6FF7707EA06172F433B43C0
S31508004A60018102830384F0BD0146888C704730B506
S31508004A700246002000230024158A05EA01039589C9
S31508004A8005EA010413B10CB1012000E0002030BD95
S31508004A9070B505460C46244885420ED02348854203
S31508004AA00BD0B5F1804F08D02148854205D0214862
S31508004AB0854202D02048854200D100E000BF208808
S31508004AC050B92389A28861882846FFF789FDE188BD
S31508004AD0284600F0BBF925E0208804280AD1238956
S31508004AE0A28861882846FFF7BBFDE188284600F0C2
S31508004AF0B6F917E0208808280AD12389A288618890
S31508004B002846FFF7F9FDE188284600F0B5F909E0DF
S31508004B102389A28861882846FFF736FEE188284659
S31508004B2000F0B3F970BD0000002C014000340140CC
S31508004B300004004000080040000C004000210180ED
S31508004B404180012181800021C180018170471AB10D
S31508004B5083890B43838102E083898B438381704772
S31508004B6001894FF6F87211400181704770B500242B
S31508004B7000220023058C4FF6FE7635400584028C0C
S31508004B808388048B4FF68F752C40B51E2C400D88F4
S31508004B902C43751E2A400D892A434D882A43144DF5
S31508004BA0A8420BD0134DA84208D0134DA84205D0F1
S31508004BB0124DA84202D0124DA84213D14FF6F775EE
S31508004BC02A404D892A434FF6FB752A408D882A4389
S31508004BD04FF6FF652B404FF6FF552B408D892B432B
S31508004BE0CD892B4383800483CD888586028470BD56
S31508004BF0002C0140003401400040014000440140BF
S31508004C00004801400A460021018B4FF6F773194008
S31508004C10114301837047000070B500240022002369
S31508004C20058C4FF6EF7635400584028C8388048B15
S31508004C3048F6FF752C404FF6FF452C400D884FF679
S31508004C40FF7606EA05252C434FF6DF752A400D89BF
S31508004C5006EA05152A434D8806EA05152A43154D21
S31508004C60A84202D0144DA8421DD14FF67F752A409E
S31508004C704D894FF6FF7606EA05152A434FF6BF75A6
S31508004C802A408D8806EA05152A434FF6FF352B403C
S31508004C904FF2FF752B408D8906EA85052B43CD8992
S31508004CA006EA85052B4383800483CD88058702841D
S31508004CB070BD0000002C0140003401400A46002166
S31508004CC0018B4FF2FF7319404FF6FF7303EA022375
S31508004CD0194301837047000070B5002400220023A1
S31508004CE0058C4FF6FF6635400584028C8388848BD5
S31508004CF04FF68F752C404FF6FC752C400D882C43CB
S31508004D004FF6FF552A400D894FF6FF7606EA052528
S31508004D102A434D8806EA05252A43154DA84202D09E
S31508004D20144DA8421DD14FF2FF752A404D894FF602
S31508004D30FF7606EA05252A434FF6FF352A408D8871
S31508004D4006EA05252A434EF6FF752B404DF6FF75F4
S31508004D502B408D8906EA05152B43CD8906EA0515EC
S31508004D602B4383808483CD888587028470BD0000A9
S31508004D70002C0140003401400A460021818B4FF681
S31508004D80F7731940114381837047000070B50022FC
S31508004D9000230024058C4EF6FF7635400584038CE7
S31508004DA08488828B48F6FF752A404FF6FF452A40CD
S31508004DB00D884FF6FF7606EA05252A434DF6FF7558
S31508004DC02B400D8906EA05352B434D8806EA05353D
S31508004DD02B430B4DA84202D00A4DA84208D14BF6E8
S31508004DE0FF752C408D894FF6FF7606EA85152C430C
S31508004DF084808283CD88A0F84050038470BD00006B
S31508004E00002C0140003401400A460021818B4FF2F4
S31508004E10FF7319404FF6FF7303EA02231943818390
S31508004E2070470021018041808180C18001814181D4
S31508004E308181C18170478186704701877047818764
S31508004E407047A0F84010704781847047028B4FF670
S31508004E50F3731A400283028B0A4302837047028B5C
S31508004E604FF2FF331A400283028B4FF6FF7303EAB1
S31508004E7001231A4302837047828B4FF6F3731A4055
S31508004E808283828B0A4382837047828B4FF2FF3379
S31508004E901A408283828B4FF6FF7303EA01231A4373
S31508004EA082837047002202881D4B98420ED01D4B04
S31508004EB098420BD0B0F1804F08D01B4B984205D0D2
S31508004EC01A4B984202D01A4B984204D14FF68F7368
S31508004ED01A404B881A43174B984207D0164B9842EC
S31508004EE004D04FF6FF431A40CB881A4302808B88BA
S31508004EF083850B8803850A4B98420BD0094B984249
S31508004F0008D00E4B984205D00D4B984202D00D4B57
S31508004F10984201D10B7A03860123838270470000E9
S31508004F20002C014000340140000400400008004005
S31508004F30000C0040001000400014004000400140F2
S31508004F40004401400048014070B5044600203F492E
S31508004F5008603F4988683F490968FBF769F93B4992
S31508004F6048622146394801F06FFD3848806A3A4957
S31508004F7008603A49B1F90A00FBF742FA054638488B
S31508004F8001682846FBF75AF93349486221463248F0
S31508004F9001F05AFD33490978494201EB8100FBF7D4
S31508004FA02FFA05462C48816A2846FBF741F92E490F
S31508004FB008602C49097801EB8100FBF721FA0546C0
S31508004FC02548816A2846FBF7E1F8284908602549FB
S31508004FD0097801EB8100FBF713FA05461E48816A3A
S31508004FE02846FBF725F9224908601E4909784942EF
S31508004FF001EB8100FBF704FA05461748816A284643
S31508005000FBF7C4F81B4908601B4800681649486244
S315080050101A480068154948621948006814494862E0
S31508005020184800681349486221460F4801F00CFDEC
S3150800503021460E4801F008FD21460D4801F004FD01
S3150800504021460C4801F000FD70BD00002003002039
S31508005050FC0300203000002054030020F003002049
S31508005060986D000874000020500200208402002079
S31508005070B8020020EC0200200C00002010000020DE
S31508005080140000201800002070B504463C4800684B
S315080050903C4908603C48806848622146394801F026
S315080050A0D3FC3848806A394908603949B1F90A0099
S315080050B0FBF7A6F90546374801682846FBF7BEF808
S315080050C0324948622146314801F0BEFC3249097826
S315080050D0C1EBC100FBF794F905462C48816A2846BE
S315080050E0FBF7A6F82D4908602B490978A1EBC10002
S315080050F0FBF786F905462548816A2846FBF746F8F0
S315080051002749086024490978A1EBC100FBF778F91B
S3150800511005461E48816A2846FBF78AF82149086031
S315080051201D490978C1EBC100FBF76AF9054617481E
S31508005130816A2846FBF72AF81B4908601B4800685D
S31508005140164948621A4800681549486219480068AD
S3150800515014494862184800681349486221460F48AE
S3150800516001F072FC21460E4801F06EFC21460D48FE
S3150800517001F06AFC21460C4801F066FC70BD00008F
S315080051803000002020030020FC03002054030020E8
S31508005190F0030020986D00087400002050020020DB
S315080051A084020020B8020020EC0200200C00002037
S315080051B010000020140000201800002070B50446D6
S315080051C000203F4908603F4988683F490968FBF75E
S315080051D02FF83B4948622146394801F035FC3848E2
S315080051E0806A3A4908603A49B1F90A00FBF708F9B2
S315080051F00546384801682846FBF720F833494862CF
S315080052002146324801F020FC3349097801EB810038
S31508005210FBF7F6F805462D48816A2846FBF708F895
S315080052202E4908602C490978494201EB8100FBF7B1
S31508005230E7F805462548816A2846FAF7A7FF284968
S31508005240086025490978494201EB8100FBF7D8F83F
S3150800525005461E48816A2846FAF7EAFF214908608A
S315080052601D49097801EB8100FBF7CAF8054617487E
S31508005270816A2846FAF78AFF1B4908601B480068B6
S31508005280164948621A48006815494862194800686C
S3150800529014494862184800681349486221460F486D
S315080052A001F0D2FB21460E4801F0CEFB21460D48FF
S315080052B001F0CAFB21460C4801F0C6FB70BD000090
S315080052C020030020FC0300203000002054030020A7
S315080052D0F0030020986D000874000020500200209A
S315080052E084020020B8020020EC0200200C000020F6
S315080052F010000020140000201800002010B540F20D
S315080053002551274800F0F0F8012847D1244800F035
S31508005310A7F9C4B22348007840B9FF2C38D1012038
S315080053202049087000202049087031E01D4800789F
S3150800533001282DD1FE2C13D01C48007840B91A48F4
S3150800534001780078401C184A10701948445407E040
S31508005350154801780078401C134A107015484454C3
S31508005360FE2C15D100200F4908701249897801EBE7
S315080053704100FBF745F8104908600E49C97848000E
S31508005380FBF73EF80D4908600A4800790C49087091
S3150800539040F22551024800F07FF800BF10BD00001A
S315080053A0004C00403C0000203D000020BE000020CC
S315080053B09E01002094010020280000202C000020D7
S315080053C03400002038B5044655E02D4804602D48C1
S315080053D0007818BB10212C48FCF7A8FD20212A4884
S315080053E0FCF7A4FD012211462848FFF7B0FB372039
S315080053F0FDF7BEFF1C208DF8000001208DF8030084
S3150800540002208DF8010001208DF802006846FDF79C
S31508005410BBFF01211D48FFF7EBFA2CE0194800787D
S31508005420012828D100201A490860002201211748BE
S31508005430FFF78DFB3720FDF78FFF1C208DF8000046
S3150800544001208DF8030002208DF8010001208DF857
S3150800545002006846FDF798FF00210C48FFF7C8FAD6
S3150800546001210A48FFF7C1FA01200A4908700020FD
S315080054700449087000BF074800780028A5D038BD41
S315080054800800002001000020000C01400014004024
S31508005490040000200200002010B50022002340F678
S315080054A06A14A14200D100BF0A1201249440A3B293
S315080054B0DC43048010BD21B1828942F40052828106
S315080054C004E082894DF6FF731A40828170470246CE
S315080054D00020B1F5007F00D100BF13880B400BB147
S315080054E0012000E00020704770B502460024002322
S315080054F00025002040F66A16B14200D100BFC1F36C
S31508005500421501F01F03012606FA03F3012D02D105
